:100000000C94F2220C9421230C9421230C94212390
:100010000C9421230C9421230C9421230C94212350
:100020000C9421230C9421230C9421230C94212340
:100030000C9421230C94F1530C9421230C94212330
:100040000C9421230C9421230C9421230C94212320
:100050000C9421230C9421230C9421230C94212310
:100060000C9421230C94F7E20C9421230C9423E3A9
:100070000C9421230C94E8A80C9421230C942123A4
:100080000C9421230C9421230C9421230C942123E0
:100090000C9421230C9421230C9421230C942123D0
:1000A0000C9421230C9421230C9421230C942123C0
:1000B0000C9421230C9421230C9421230C9408509C
:1000C0000C9421230C9421230C9421230C942123A0
:1000D0000C9421230C9421230C9421230C94212390
:1000E0000C942123DE4807490C49E84811495B4933
:1000F0005B49E8482F495B49344939493E494349FE
:100100001B4920492549E8482A495B49E3481649E3
:1001100048494D4951495B495B49554950726570A1
:100120006172696E6720666F7220736C6565703AE4
:1001300049276D20636F6D706C6574696E6720610F
:100140006E792020717565756564206D6F766573B5
:100150002E20202020202020004368616E67696ED9
:10016000672046696C616D656E743A202049276D81
:1001700020636F6D706C6574696E6720616E7920A5
:1001800020717565756564206D6F7665732E20200E
:10019000202020202000494E56414C494420544FF5
:1001A0004F4C3A2020202020202049207265636592
:1001B000697665642061204C656674202020546F48
:1001C0006F6C20636F6D6D616E642C20627574209E
:1001D00049206F6E6C792068617665206F6E6520AE
:1001E000546F6F6C2E2000494E56414C49442043B9
:1001F0004F4D4D414E443A202020204920726563E6
:100200006569766564206120636F6D6D616E6466FB
:100210006F7220612068656174656420706C617420
:10022000652C20627574204920646F6E27742068E5
:10023000617665206F6E65004920736177206120CB
:10024000676C6974636820696E206D79534420631C
:100250006172642E20496620746869732069732076
:10026000746865206669727374206572726F722C8F
:100270002074727974686973206D6F64656C206195
:100280006761696E2E20202000492074696D6564C5
:10029000206F7574207768696C65202061747465BF
:1002A0006D7074696E6720746F2068656174206D6D
:1002B000792065787472756465722E202020202064
:1002C000202000492074696D6564206F7574207763
:1002D00068696C652020617474656D7074696E67FF
:1002E00020746F2068656174206D7920706C617472
:1002F000666F726D2E202020202020200050726515
:10030000706172696E6720666F7220736C656570CC
:100310003A49276D20636F6F6C696E67206D792095
:1003200020202020206865617465727320616E64EE
:1003300020676F696E6720746F6D792077616974CB
:1003400020706F736974696F6E2E202020004368DF
:10035000616E67696E672046696C616D656E743A9F
:10036000202049276D20676F696E6720746F206DAC
:10037000792077616974706F736974696F6E2E206C
:100380002020202020202020202000492074696D7A
:100390006564206F7574207768696C65202020770C
:1003A000616974696E6720666F722066696C616D41
:1003B000656E746368616E67652E20476F696E674E
:1003C00020746F20202020736C6565702E20202003
:1003D000202020202020202020202000526573741F
:1003E000617274696E6720746865204275696C6417
:1003F0000054686973206973206E6F742074686597
:10040000207833672076657273696F6E2049207794
:100410006F726B206265737420776974682E204652
:100420006F722068656C70207365653A206D616B32
:100430006572626F742E636F6D2F68656C7020201B
:1004400020004920616D2061205265706C696361F4
:10045000746F722E202054686973206275696C6411
:1004600020697320666F72202020616E6F7468654A
:100470007220626F742E205365653A2020206D61D2
:100480006B6572626F742E636F6D2F68656C702080
:10049000202000546865205265706C696361743077
:1004A000720049276D2043616E63656C6C696E67ED
:1004B0002E2020202020506C6561736520576169D3
:1004C000742E20202020202020200020004865615C
:1004D000746572732073687574646F776E20202062
:1004E0002064756520746F20696E61637469766934
:1004F00074792020200048656174696E6720466128
:10050000696C7572652023312120536F66747761A1
:1005100072652054656D70204C696D697420526558
:1005200061636865642120506C65617365202020DB
:10053000202053687574646F776E206F7220526547
:100540007374617274200048656174696E67204637
:1005500061696C75726520233221204D79206578A0
:100560007472756465727320617265206E6F746851
:10057000656174696E672070726F7065726C792E38
:10058000202020436865636B206D7920636F6E6E59
:10059000656374696F6E730048656174696E672086
:1005A0004661696C75726520233321204D79206581
:1005B00078747275646572732061726520202020E2
:1005C0006C6F73696E672074656D706572617475A8
:1005D00072652E20436865636B206D7920636F6EB2
:1005E0006E656374696F6E730048656174696E67E8
:1005F000204661696C757265202335212049276D7D
:100600002072656164696E67206F7574206F662063
:100610002072616E67652074656D706572617475B6
:100620007265732E20436865636B206D7920636F5C
:100630006E6E656374696F6E730048656174696E90
:1006400067204661696C75726520233421204D79DD
:100650002074656D70657261747572652072656174
:100660006473617265206661696C696E67212050F0
:100670006C6561736520436865636B206D792063E9
:100680006F6E6E656374696F6E730093026900002C
:10069000006900EE016900000069002601B8010050
:1006A00000000020065500000055002D08550000F0
:1006B0000055004D0A550000005500400CAB0000ED
:1006C00000AB002D095500000055002D0855000015
:1006D0000055004D0AAB000000550000000001C0AD
:1006E0000D5500000055002D08560100000000C007
:1006F0000D20015311BC005B12B10100000000C0CD
:100700000DC80000001400C00DC8000000140091C6
:100710000E9001000014005A10900100001400C057
:100720000D200300000000C805C80000001400C828
:1007300005C80000001400C805C80000001400DD52
:1007400004B004000014007505C800000014007512
:1007500005C800000014007505C8000000140097CB
:1007600004B00400000000B807550000005500B9AF
:1007700009AB000000AB007D06550000005500C825
:1007800005550000005500B807AB000000AB00C8DD
:1007900005550000005500DD04550000005500C857
:1007A00005550000005500B8075500000055007DB4
:1007B000065601000000003F03550000005500FAF6
:1007C0000C5500000055003F03550000005500B9CE
:1007D000095500000055003F035500000055002D4D
:1007E000095500000055003F03550000005500EA80
:1007F0000A5500000055003F03550000005500B9A0
:1008000009AB000000000053442043617264205291
:10081000656D6F766564202020200024F404D920C3
:100820001BC40C5C0E9804C4095F0265077101F4D7
:1008300005F900FB04B30048048700C103690058B0
:1008400003550003034500BE023A00840231005301
:10085000022A002902250004022000E4011C00C82D
:10086000011900AF011700980114008401130071F1
:100870000110006101100051010E0043010D00360E
:10088000010B002B010B0020010B00150109000CCE
:1008900001090003010800FB000800F3000800EB59
:1008A000000700E4000600DE000600D8000600D2C3
:1008B000000600CC000500C7000500C2000500BD11
:1008C000000400B9000400B5000400B1000400AD4C
:1008D000000400A9000400A5000300A20003009F7B
:1008E0000004009B000300980003009500020093A1
:1008F000000300900003008D0002008B00030088BD
:100900000002008600020084000300810002007FD4
:100910000002007D0002007B0002007900020077E7
:1009200000010076000200740002007200010071F4
:100930000002006F0002006D0001006C0002006AFE
:100940000001006900020067000100660001006507
:10095000000100640002006200010061000100600B
:100960000001005F0002005D0001005C0001005B0F
:100970000001005A00010059000100580001005711
:100980000001005600010055000100540001005311
:10099000000000530001005200010051000100500E
:1009A0000001004F0001004E0000004E0001004D0C
:1009B0000001004C0001004B0000004B0001004A08
:1009C0000001004900010048000000480001004704
:1009D00000010046000000460001004500000045FF
:1009E00000010044000100430000004300010042F8
:1009F00000000042000100410000004100010040F1
:100A00000001003F0000003F0001003E0000003EEA
:100A10000001003D0000003D0001003C0000003CE2
:100A20000000003C0001003B0000003B0001003AD8
:100A30000000003A000100390000003900010038D0
:100A400000000038000000380001003700000037C7
:100A500000010036000000360000003600010035BD
:100A600000000035000000350001003400000034B3
:100A700000000034000100330000003300000033A8
:100A8000000100320000003200000032000100319D
:100A90000000003100000031000100300000003093
:100AA000000000300001002F0000002F0000002F88
:100AB0000000002F0001002E0000002E0000002E7C
:100AC0000001002D0000002D0000002D0000002D71
:100AD0000001002C0000002C0000002C0000002C65
:100AE0000001002B0000002B0000002B0000002B59
:100AF0000001002A0000002A0000002A0000002A4D
:100B00000001002900000029000000290000002940
:100B10000000002900010028000000280000002833
:100B20000000002800000028000100270000002726
:100B30000000002700000027000000270001002619
:100B4000000000260000002600000026000000260D
:100B50000001002500000025000000250000002500
:100B600000000025000000250001002400000024F2
:100B700000000024000000240000002400010023E5
:100B800000000023000000230000002300000023D9
:100B900000000023000000230001002200000022CA
:100BA00000000022000000220000002200000022BD
:100BB00000010021000000210000002100000021B0
:100BC00000000021000000210000002100010020A1
:100BD0000000002000000020000000200000002095
:100BE0000000002000000020000000200001001F85
:100BF0000000001F0000001F0000001F0000001F79
:100C00000000001F0000001F0001001E0000001E69
:100C10000000001E0000001E00000024F4D430502C
:100C2000C38E20C2A24017828B7011127A910D815F
:100C30006CD90AA861E108C7586607615143061ECE
:100C40004B5D05C145A7041A411104093D98037184
:100C50003931034036DB0265339102D430540280CF
:100C60002E1D02632CEE01752AC501B028A00110CB
:100C70002781018F2564012B244B01E0223401AC34
:100C8000211F018D200D01801FFC00841EED0097A7
:100C90001DDF00B81CD200E61BC600201BBC006490
:100CA0001AB200B219A8000A19A0006A189900D156
:100CB00017910040178B00B516840031167E00B3E3
:100CC0001579003A157300C7146F0058146A00EEC6
:100CD0001366008813630025135E00C7125B006C67
:100CE00012570015125400C111510070114F00210C
:100CF000114B00D61049008D1047004610440002E9
:100D0000104200C00F4000800F3E00420F3C000622
:100D10000F3B00CB0E3800930E37005C0E350027DA
:100D20000E3400F30D3200C10D3100900D30006023
:100D30000D2E00320D2D00050D2C00D90C2B00AE10
:100D40000C2900850C29005C0C2700350C27000EAF
:100D50000C2600E80B2400C40B2400A00B23007D0C
:100D60000B23005A0B2100390B2100180B2000F82F
:100D70000A1F00D90A1E00BB0A1E009D0A1D008022
:100D80000A1D00630A1C00470A1B002C0A1B0011E5
:100D90000A1A00F7091A00DD091900C4091900AB85
:100DA000091900920917007B091800630917004C04
:100DB00009160036091600200916000A091500F563
:100DC000081500E0081400CC081400B8081400A4AA
:100DD000081400900813007D0812006B08130058D7
:100DE00008120046081200340811002308110012EE
:100DF00008110001081100F0071000E0071000D0F2
:100E0000071000C0071000B0070F00A107100091E5
:100E1000070E0083070F0074070F0065070E0057C9
:100E2000070E0049070E003B070D002E070E00209D
:100E3000070D0013070D0006070D00F9060C00ED65
:100E4000060D00E0060C00D4060C00C8060C00BC21
:100E5000060C00B0060C00A4060B0099060C008DD1
:100E6000060B0082060B0077060B006C060B006178
:100E7000060A0057060B004C060A0042060A003814
:100E8000060A002E060A0024060A001A060A0010A6
:100E900006090007060A00FD050900F4050900EB34
:100EA000050900E2050900D9050900D0050900C7B8
:100EB000050900BE050900B5050800AD050800A537
:100EC0000509009C050800940508008C05080084AD
:100ED0000508007C050800740508006C050700651E
:100EE0000508005D050700560508004E0507004788
:100EF0000507004005080038050700310507002AEE
:100F0000050700230507001C050600160507000F4E
:100F10000507000805060002050700FB040600F5AA
:100F2000040700EE040600E8040600E2040700DB04
:100F3000040600D5040600CF040600C9040600C359
:100F4000040600BD040600B7040600B1040500ACA9
:100F5000040600A6040600A00405009B04060095F4
:100F6000040500900406008A04050085040500803D
:100F70000406007A04050075040500700405006B82
:100F800004050066040500610405005C04050057C3
:100F9000040500520405004D040500480405004303
:100FA0000405003E0404003A040500350405003041
:100FB0000404002C04050027040400230405001E7B
:100FC0000404001A04040016040500110404000DB2
:100FD000040400090405000404040000040400FCE7
:100FE000030400F8030400F4030400F0030400EC1D
:100FF000030400E8030400E4030400E0030400DC4D
:10100000030400D8030400D4030400D0030400CC7C
:10101000030400C8030300C5030300950200000099
:10102000506C6561736520776169742E2E2E008483
:101030000369010000140083048800000014008C80
:10104000000000000000000030F8FFFF000000007A
:10105000000000008E000000000000000000000002
:10106000000000000000000000572904001883045D
:10107000DC0500001400901F891F9502000000503D
:101080006C65617365207761697400840369010090
:1010900000140083048800000014008C000000008D
:1010A0000000000030F8FFFF00000000000000001A
:1010B0008E000000000000000000000000000000A2
:1010C000000000000057290400188304DC0500001C
:1010D00014008CE5370000941B00000000000000A5
:1010E00000000000000000950000000046696E64EA
:1010F000207468652034206B6E6F6273206F6E20E1
:1011000000950100000074686520626F74746F6E52
:10111000206F662074686520202000950100000083
:10112000706C6174666F726D20616E6420746967A3
:101130006874656E009507000000666F7572206F19
:10114000722066697665207475726E732E00950044
:1011500000000049276D20676F696E6720746F205B
:101160006D6F766520202000950100000074686591
:1011700020657874727564657220746F2020202059
:1011800020009501000000766172696F7573207010
:101190006F736974696F6E732020200095070000DB
:1011A00000666F722061646A7573746D656E742E6B
:1011B000009500000000496E206561636820706F33
:1011C000736974696F6E2C20202000950100000067
:1011D00077652077696C6C206E65656420746F207C
:1011E0002020202000950100000061646A7573745E
:1011F0002032206B6E6F6273206174202020009576
:10120000070000007468652073616D652074696D66
:10121000652E0095000000004E6F7A7A6C65732091
:10122000617265206174207468652020009501005A
:101230000000726967687420686569676874207760
:1012400068656E202020009501000000796F7520F0
:1012500063616E206A75737420736C6964652061C4
:101260000095070000007368656574206F66207044
:1012700061706572009500000000626574776565B5
:101280006E20746865206E6F7A7A6C6520200095F8
:1012900001000000616E642074686520706C6174E8
:1012A000652E20202020202000950100000047729C
:1012B00061622061207368656574206F662020205C
:1012C0002020009507000000706170657220746F27
:1012D000206173736973742075732E00950200008A
:1012E00000506C6561736520776169740095020038
:1012F0000000506C656173652077616974008EE64B
:10130000370000951B0000D007000000000000001F
:101310000000009AE90300188E00000000CAE4FFF4
:10132000FFD007000000000000000000002A0D3B75
:1013300000188E00000000C9E4FFFF00000000005C
:10134000000000000000009AE9030018950000006A
:101350000041646A757374207468652066726F6EEC
:10136000742074776F0095010000006B6E6F6273DC
:1013700020756E74696C2070617065722020200089
:1013800095010000006A75737420736C696465735D
:10139000206265747765656E200095070000006E19
:1013A0006F7A7A6C6520616E6420706C6174650080
:1013B0009502000000506C65617365207761697467
:1013C000008E00000000CAE4FFFFD007000000000C
:1013D0000000000000009AE90300188E00000000E1
:1013E0007A1A0000D0070000000000000000000092
:1013F00051812800188E000000007A1A00000000B9
:10140000000000000000000000009AE903001895A9
:101410000000000041646A7573742074686520627E
:1014200061636B2074776F200095010000006B6E84
:101430006F627320756E74696C20706170657220C4
:1014400020200095010000006A75737420736C6998
:10145000646573206265747765656E20009507008A
:1014600000006E6F7A7A6C6520616E6420706C612A
:101470007465009502000000506C6561736520770B
:10148000616974008E000000007A1A0000D0070025
:101490000000000000000000009AE90300188EC65A
:1014A00024000000000000D0070000000000000041
:1014B000000000A82F2200188EC6240000000000A3
:1014C000000000000000000000000000009AE90396
:1014D0000018950000000041646A757374207468F8
:1014E000652072696768742074776F009501000049
:1014F000006B6E6F627320756E74696C2070617022
:1015000065722020200095010000006A7573742028
:10151000736C69646573206265747765656E20001D
:1015200095070000006E6F7A7A6C6520616E64200A
:10153000706C617465009502000000506C65617309
:10154000652077616974008EC624000000000000E9
:10155000D007000000000000000000009AE903002E
:10156000188E3ADBFFFF00000000D00700000000EB
:101570000000000000008B7C3700188E3ADBFFFF74
:10158000000000000000000000000000000000005B
:101590009AE9030018950000000041646A757374AD
:1015A00020746865206C6566742074776F200095E0
:1015B000010000006B6E6F627320756E74696C20A1
:1015C00070617065722020200095010000006A752E
:1015D000737420736C6964657320626574776565E4
:1015E0006E200095070000006E6F7A7A6C652061AE
:1015F0006E6420706C617465009502000000506C90
:10160000656173652077616974008E3ADBFFFF00C6
:10161000000000D007000000000000000000009A59
:10162000E90300188E0000000000000000D0070051
:1016300000000000000000000045BE1B00188E00E6
:10164000000000000000000000000000000000009A
:101650000000009AE9030018950000000043686547
:10166000636B207468617420706170657220202043
:10167000200095010000006A75737420736C696422
:101680006573206265747765656E200095070000BC
:10169000006E6F7A7A6C6520616E6420706C617484
:1016A0006500891F9502000000506C65617365201C
:1016B0007761697400840369010000140083048861
:1016C00000000014008C000000000000000030F852
:1016D000FFFF00000000000000008E00000000007E
:1016E00000000000000000000000000000000057A3
:1016F000290400188304DC05000014008CE5370081
:1017000000941B000000000000000000000000002A
:1017100000950000000046696E64207468652034FE
:10172000206B6E6F6273206F6E20009501000000C9
:1017300074686520626F74746F6E206F66207468C1
:1017400065202020009501000000706C6174666FB8
:10175000726D20616E64207469676874656E0095AF
:1017600007000000666F7572206F722066697665EB
:10177000207475726E732E00950000000049276D6D
:1017800020676F696E6720746F206D6F766520200B
:1017900020009501000000746865206578747275FA
:1017A00064657220746F20202020200095010000C5
:1017B00000766172696F757320706F736974696FF9
:1017C0006E73202020009507000000666F72206174
:1017D000646A7573746D656E742E00950000000068
:1017E000496E206561636820706F736974696F6EFC
:1017F0002C20202000950100000077652077696C7F
:101800006C206E65656420746F2020202020009578
:101810000100000061646A7573742032206B6E6F82
:101820006273206174202020009507000000746816
:10183000652073616D652074696D652E00950000EB
:1018400000004E6F7A7A6C65732061726520617456
:1018500020746865202000950100000072696768A7
:101860007420686569676874207768656E20202039
:10187000009501000000796F752063616E206A7524
:10188000737420736C696465206100950700000023
:101890007368656574206F6620706170657200956D
:1018A000000000006265747765656E2074686520CD
:1018B0006E6F7A7A6C652020009501000000616EE1
:1018C000642074686520706C6174652E202020206F
:1018D00020200095010000004772616220612073A2
:1018E00068656574206F6620202020200095070021
:1018F0000000706170657220746F2061737369738A
:10190000742075732E009502000000506C656173A1
:10191000652077616974009502000000506C656174
:1019200073652077616974008EE5370000941B00B1
:1019300000D007000000000000000000009AE9034A
:1019400000188E11060000CAE4FFFFD00700000057
:1019500000000000000000DADF3700188E120600D9
:1019600000CAE4FFFF0000000000000000000000CB
:10197000009AE9030018950000000041646A75733D
:1019800074207468652066726F6E742074776F00BF
:1019900095010000006B6E6F627320756E74696C48
:1019A0002070617065722020200095010000006A9F
:1019B00075737420736C69646573206265747765F0
:1019C000656E200095070000006E6F7A7A6C6520C6
:1019D000616E6420706C61746500950200000050B7
:1019E0006C656173652077616974008E1106000073
:1019F000C9E4FFFFD0070000000000000000000065
:101A00009AE90300188E110600007B1A0000D00727
:101A10000000000000000000000051812800188E26
:101A2000110600007A1A000000000000000000000B
:101A3000000000009AE903001895000000004164CE
:101A40006A75737420746865206261636B207477B3
:101A50006F200095010000006B6E6F627320756E41
:101A600074696C20706170657220202000950100FF
:101A700000006A75737420736C6964657320626515
:101A8000747765656E200095070000006E6F7A7AA6
:101A90006C6520616E6420706C6174650095020055
:101AA0000000506C656173652077616974008E1267
:101AB0000600007A1A0000D00700000000000000B5
:101AC0000000009AE90300188E2A27000000000099
:101AD00000D00700000000000000000000CFF91F48
:101AE00000188E2A270000000000000000000000FF
:101AF000000000000000009AE903001895000000B3
:101B00000041646A7573742074686520726967683F
:101B1000742074776F0095010000006B6E6F627324
:101B200020756E74696C20706170657220202000D1
:101B300095010000006A75737420736C69646573A5
:101B4000206265747765656E200095070000006E61
:101B50006F7A7A6C6520616E6420706C61746500C8
:101B60009502000000506C656173652077616974AF
:101B7000008E2927000000000000D00700000000B0
:101B80000000000000009AE90300188EF9E4FFFF4E
:101B900000000000D007000000000000000000006E
:101BA00017F03100188EF9E4FFFF0000000000007C
:101BB000000000000000000000009AE903001895F2
:101BC0000000000041646A75737420746865206CBD
:101BD0006566742074776F200095010000006B6EBD
:101BE0006F627320756E74696C207061706572200D
:101BF00020200095010000006A75737420736C69E1
:101C0000646573206265747765656E2000950700D2
:101C100000006E6F7A7A6C6520616E6420706C6172
:101C20007465009502000000506C65617365207753
:101C3000616974008EF9E4FFFF00000000D0070026
:101C40000000000000000000009AE90300188E1157
:101C500006000000000000D00700000000000000A7
:101C60000000000BF81800188E110600000000009C
:101C7000000000000000000000000000009AE903DE
:101C800000189500000000436865636B207468616C
:101C90007420706170657220202020009501000082
:101CA000006A75737420736C69646573206265746F
:101CB0007765656E200095070000006E6F7A7A6C7C
:101CC0006520616E6420706C61746500891F9900E5
:101CD0000000006E6F7A7A6C6543616C69627261B4
:101CE00074696F6E00960000860084033E01000058
:101CF00014008304A600000014008C000000000003
:101D000000000030F8FFFF00000000000000008B22
:101D100000000000000000000000000000000000C3
:101D200000000000A60000008304DC050000140091
:101D3000901F8CE5370000941B000000000000009D
:101D4000000000000000008BD1D6FFFF28E5FFFF58
:101D500060EA0000000000000000000080000000B9
:101D600091011491001491041491031488001F022E
:101D70006E008D006400580288000302E6008801AE
:101D80000302E600870064005802870164005802DD
:101D900091017F91007F91047F91037F8B43E6FF48
:101DA000FFB8E9FFFF68010000000000000000002C
:101DB00000800000008B43E6FFFFB8E9FFFF6801E9
:101DC0000000E4FFFFFF000000000C0300008B4355
:101DD000E6FFFFB8E9FFFFF0000000D0FFFFFF00C3
:101DE0000000003E0000008B43E6FFFFB8E9FFFF64
:101DF000F0000000B3FFFFFF0000000085010000BD
:101E00008B8DD7FFFFB8E9FFFFF00000004FFEFF0A
:101E1000FF000000004A0300008B43E6FFFF6EED69
:101E2000FFFFF00000007FFEFFFF00000000C70082
:101E300000008B43E6FFFF6EEDFFFFF00000006344
:101E4000FEFFFF00000000850100008B3BDBFFFF71
:101E50006EEDFFFFF0000000FEFCFFFF0000000041
:101E60004C0300008B43E6FFFF25F1FFFFF000006D
:101E7000002EFDFFFF00000000CB0000008B43E6BA
:101E8000FFFF25F1FFFFF000000012FDFFFF000043
:101E90000000850100008B3BDBFFFF25F1FFFFF019
:101EA000000000ADFBFFFF000000004C0300008BB2
:101EB00043E6FFFFDCF4FFFFF0000000DDFBFFFF67
:101EC00000000000CB0000008B43E6FFFFDCF4FFC6
:101ED000FFF0000000C1FBFFFF00000000850100D3
:101EE000008B3BDBFFFFDCF4FFFFF00000005CFA3F
:101EF000FFFF000000004C0300008B43E6FFFF9350
:101F0000F8FFFFF00000008DFAFFFF00000000CB9B
:101F10000000008B43E6FFFF93F8FFFFF000000096
:101F200070FAFFFF00000000850100008B3BDBFF23
:101F3000FF93F8FFFFF00000000BF9FFFF00000027
:101F4000004C0300008B43E6FFFF4AFCFFFFF0005C
:101F500000003CF9FFFF00000000CB0000008B43B5
:101F6000E6FFFF4AFCFFFFF00000001FF9FFFF0043
:101F7000000000850100008B3BDBFFFF4AFCFFFFF8
:101F8000F0000000BAF7FFFF000000004C03000063
:101F90008B43E6FFFF00000000F0000000EBF7FFBE
:101FA000FF00000000CB0000008B43E6FFFF0000B5
:101FB0000000F0000000CEF7FFFF000000008501E8
:101FC00000008B3BDBFFFF00000000F00000006919
:101FD000F6FFFF000000004C0300008B43E6FFFF0C
:101FE000B6030000F00000009AF6FFFF00000000BA
:101FF000CB0000008B43E6FFFFB6030000F00000BB
:10200000007DF6FFFF00000000850100008B3BDB38
:10201000FFFFB6030000F000000019F5FFFF00000D
:1020200000004C0300008B43E6FFFF6D070000F04B
:1020300000000049F5FFFF00000000CB0000008B0E
:1020400043E6FFFF6D070000F00000002CF5FFFFE6
:1020500000000000850100008B3BDBFFFF6D0700E7
:1020600000F0000000C8F3FFFF000000004C030078
:10207000008B43E6FFFF240B0000F0000000F8F3A4
:10208000FFFF00000000CB0000008B43E6FFFF24B1
:102090000B0000F0000000DBF3FFFF0000000085F4
:1020A0000100008B3BDBFFFF240B0000F000000071
:1020B00077F2FFFF000000004C0300008B43E6FFB7
:1020C000FFDB0E0000F0000000A7F2FFFF000000A1
:1020D00000CB0000008B43E6FFFFDB0E0000F000AA
:1020E00000008AF2FFFF00000000850100008B3B2A
:1020F000DBFFFFDB0E0000F000000026F1FFFF0019
:102100000000004C0300008B43E6FFFF921200002A
:10211000F000000056F1FFFF00000000CB000000BF
:102120008B43E6FFFF92120000F000000039F1FF40
:10213000FF00000000850100008B3BDBFFFF9212D7
:102140000000F0000000D5EFFFFF000000004C038E
:1021500000008B43E6FFFF48160000F0000000057A
:10216000F0FFFF00000000CB0000008B43E6FFFF04
:1021700048160000F0000000E8EFFFFF000000003C
:10218000850100008B3BDBFFFF48160000F00000DC
:102190000084EEFFFF000000004C0300008BC0F441
:1021A000FFFFA6F8FFFF68010000B4EEFFFF00008C
:1021B0000000FE0000008BC0F4FFFFA6F8FFFFF058
:1021C00000000084EEFFFF000000009C0000008B78
:1021D000C0F4FFFFA6F8FFFFF000000067EEFFFF6E
:1021E00000000000850100008BC0F4FFFF5A0700CB
:1021F00000F000000003EDFFFF000000004A0300B4
:10220000008B77F8FFFFA6F8FFFFF000000033ED2A
:10221000FFFF00000000C70000008B77F8FFFFA65B
:10222000F8FFFFF000000016EDFFFF000000008542
:102230000100008B77F8FFFFAD030000F000000005
:10224000B2EBFFFF000000004C0300008B2DFCFFF1
:10225000FFA6F8FFFFF0000000E2EBFFFF00000028
:1022600000CB0000008B2DFCFFFFA6F8FFFFF00065
:102270000000C5EBFFFF00000000850100008B2D72
:10228000FCFFFFAD030000F000000061EAFFFF006B
:102290000000004C0300008BE4FFFFFFA6F8FFFFE7
:1022A000F000000091EAFFFF00000000CB000000FA
:1022B0008BE4FFFFFFA6F8FFFFF000000074EAFFC9
:1022C000FF00000000850100008BE4FFFFFFAD036D
:1022D0000000F000000010E9FFFF000000004C03C8
:1022E00000008B9A030000A6F8FFFFF000000040FA
:1022F000E9FFFF00000000CB0000008B9A03000004
:10230000A6F8FFFFF000000023E9FFFF0000000037
:10231000850100008B9A030000AD030000F000006F
:1023200000BFE7FFFF000000004C0300008B5107D7
:102330000000A6F8FFFFF0000000EFE7FFFF00003D
:102340000000CB0000008B51070000A6F8FFFFF053
:10235000000000D2E7FFFF00000000850100008BB5
:1023600051070000AD030000F00000006EE6FFFF23
:10237000000000004C0300008B080B0000A6F8FFD3
:10238000FFF00000009EE6FFFF00000000CB000011
:10239000008B080B0000A6F8FFFFF000000081E6AC
:1023A000FFFF00000000850100008B080B0000AD5E
:1023B000030000F00000001DE5FFFF000000004CDE
:1023C0000300008BBF0E0000A6F8FFFFF000000026
:1023D0004DE5FFFF00000000CB0000008BBF0E00AA
:1023E00000A6F8FFFFF000000030E5FFFF0000004E
:1023F00000850100008BBF0E0000AD030000F0005F
:102400000000CCE3FFFF000000004C0300008B75D0
:10241000120000A6F8FFFFF0000000FCE3FFFF0041
:10242000000000CB0000008B75120000A6F8FFFF33
:10243000F0000000DFE3FFFF000000008501000066
:102440008B75120000AD030000F00000007BE2FF7E
:10245000FF000000004C0300008B2C160000A6F8C3
:10246000FFFFF0000000ABE2FFFF00000000CB0028
:1024700000008B2C160000A6F8FFFFF00000008E75
:10248000E2FFFF00000000850100008B2C16000019
:10249000AD030000F00000002AE1FFFF0000000093
:1024A0004C0300008BE3190000A6F8FFFFF00000CA
:1024B000005AE1FFFF00000000CB0000008BE31991
:1024C0000000A6F8FFFFF00000003DE1FFFF000064
:1024D0000000850100008BE3190000AD030000F04F
:1024E000000000D9DFFFFF000000004C0300008B5C
:1024F0009A1D0000A6F8FFFFF000000009E0FFFFB2
:1025000000000000CB0000008B9A1D0000A6F8FF21
:10251000FFF0000000ECDFFFFF000000008501007D
:10252000008B9A1D0000AD030000F000000088DE63
:10253000FFFF000000004C0300008B51210000A6AB
:10254000F8FFFFF0000000B8DEFFFF00000000CB46
:102550000000008B51210000A6F8FFFFF0000000F2
:102560009BDEFFFF00000000850100008B51210071
:1025700000AD030000F000000037DDFFFF000000A9
:10258000004C0300008B51210000AD030000F0005F
:10259000000067DDFFFF000000000C0300008C510D
:1025A000210000AD030000F000000000000000006A
:1025B000000000860189188B43E6FFFFF0E9FFFF6A
:1025C000680100000000000000000000D2000000D0
:1025D0008B43E6FFFFF0E9FFFF6801000000000009
:1025E00000E4FFFFFF0C0300008B43E6FFFFF0E970
:1025F000FFFFF000000000000000D0FFFFFF3E00E2
:1026000000008B43E6FFFFF0E9FFFFF00000000051
:10261000000000B3FFFFFF850100008B4BF1FFFFBF
:10262000F0E9FFFFF0000000000000004FFEFFFF98
:102630004C0300008B43E6FFFF9EEDFFFFF0000020
:1026400000000000007FFEFFFFCB0000008B43E690
:10265000FFFF9EEDFFFFF00000000000000063FEA2
:10266000FFFF850100008B4BF1FFFF9EEDFFFFF0A8
:1026700000000000000000FEFCFFFF4C0300008B88
:1026800043E6FFFF4BF1FFFFF000000000000000F9
:102690002EFDFFFFCB0000008B43E6FFFF4BF1FF59
:1026A000FFF00000000000000012FDFFFF850100A8
:1026B000008B4BF1FFFF4BF1FFFFF000000000002B
:1026C0000000ADFBFFFF4C0300008B43E6FFFFF86B
:1026D000F4FFFFF000000000000000DDFBFFFFCB77
:1026E0000000008B43E6FFFFF8F4FFFFF00000005E
:1026F00000000000C1FBFFFF850100008B4BF1FFD4
:10270000FFF8F4FFFFF0000000000000005CFAFF9B
:10271000FF4C0300008B43E6FFFFA6F8FFFFF0002D
:102720000000000000008DFAFFFFCB0000008B438B
:10273000E6FFFFA6F8FFFFF00000000000000070B9
:10274000FAFFFF850100008B4BF1FFFFA6F8FFFFAA
:10275000F0000000000000000BF9FFFF4C03000038
:102760008B43E6FFFF53FCFFFFF00000000000007A
:10277000003CF9FFFFCB0000008B43E6FFFF53FC5A
:10278000FFFFF0000000000000001FF9FFFF8501BF
:1027900000008B4BF1FFFF53FCFFFFF00000000037
:1027A000000000BAF7FFFF4C0300008B43E6FFFF79
:1027B00000000000F000000000000000EBF7FFFF49
:1027C000CB0000008B43E6FFFF00000000F000009C
:1027D0000000000000CEF7FFFF850100008B4BF1E9
:1027E000FFFF00000000F00000000000000069F69C
:1027F000FFFF4C0300008B43E6FFFFAD030000F03A
:10280000000000000000009AF6FFFFCB0000008BE4
:1028100043E6FFFFAD030000F000000000000000F1
:102820007DF6FFFF850100008B4BF1FFFFAD03003C
:1028300000F00000000000000019F5FFFF4C03004D
:10284000008B43E6FFFF5A070000F0000000000085
:10285000000049F5FFFFCB0000008B43E6FFFF5A65
:10286000070000F0000000000000002CF5FFFF85CD
:102870000100008B4BF1FFFF5A070000F000000041
:1028800000000000C8F3FFFF4C0300008B43E6FF8D
:10289000FF080B0000F000000000000000F8F3FF4C
:1028A000FFCB0000008B43E6FFFF080B0000F000A9
:1028B000000000000000DBF3FFFF850100008B4BF0
:1028C000F1FFFF080B0000F000000000000000779F
:1028D000F2FFFF4C0300008B43E6FFFFB50E000044
:1028E000F000000000000000A7F2FFFFCB00000096
:1028F0008B43E6FFFFB50E0000F000000000000073
:10290000008AF2FFFF850100008B4BF1FFFFB50E3F
:102910000000F00000000000000026F1FFFF4C0363
:1029200000008B43E6FFFF62120000F00000000091
:1029300000000056F1FFFFCB0000008B43E6FFFFD5
:1029400062120000F00000000000000039F1FFFFFB
:10295000850100008B4BF1FFFF62120000F00000C8
:102960000000000000D5EFFFFF4C0300008B43E6A2
:10297000FFFF10160000F00000000000000005F04E
:10298000FFFFCB0000008B43E6FFFF10160000F0B6
:1029900000000000000000E8EFFFFF850100008B51
:1029A0004BF1FFFF10160000F000000000000000D7
:1029B00084EEFFFF4C0300008BF8F4FFFF9EEDFF59
:1029C000FF6801000000000000B4EEFFFFC100003E
:1029D000008BF8F4FFFF9EEDFFFFF0000000000009
:1029E000000084EEFFFF9C0000008BF8F4FFFF9EC8
:1029F000EDFFFFF00000000000000067EEFFFF8524
:102A00000100008BF8F4FFFFA6F8FFFFF0000000C4
:102A10000000000003EDFFFF4C0300008BA6F8FF51
:102A2000FF9EEDFFFFF00000000000000033EDFF0F
:102A3000FFCB0000008BA6F8FFFF9EEDFFFFF0002C
:102A400000000000000016EDFFFF850100008BA6CE
:102A5000F8FFFFA6F8FFFFF000000000000000B242
:102A6000EBFFFF4C0300008B53FCFFFF9EEDFFFFCD
:102A7000F000000000000000E2EBFFFFCB000000D0
:102A80008B53FCFFFF9EEDFFFFF0000000000000F5
:102A900000C5EBFFFF850100008B53FCFFFFA6F88C
:102AA000FFFFF00000000000000061EAFFFF4C03A0
:102AB00000008B000000009EEDFFFFF00000000012
:102AC00000000091EAFFFFCB0000008B0000000037
:102AD0009EEDFFFFF00000000000000074EAFFFF21
:102AE000850100008B00000000A6F8FFFFF0000049
:102AF000000000000010E9FFFF4C0300008BAD0355
:102B000000009EEDFFFFF00000000000000040E923
:102B1000FFFFCB0000008BAD0300009EEDFFFFF038
:102B20000000000000000023E9FFFF850100008B8A
:102B3000AD030000A6F8FFFFF00000000000000059
:102B4000BFE7FFFF4C0300008B5A0700009EEDFF1C
:102B5000FFF000000000000000EFE7FFFFCB0000E7
:102B6000008B5A0700009EEDFFFFF0000000000000
:102B70000000D2E7FFFF850100008B5A070000A686
:102B8000F8FFFFF0000000000000006EE6FFFF4CC1
:102B90000300008B080B00009EEDFFFFF00000001B
:102BA000000000009EE6FFFFCB0000008B080B003A
:102BB000009EEDFFFFF00000000000000081E6FF36
:102BC000FF850100008B080B0000A6F8FFFFF00056
:102BD0000000000000001DE5FFFF4C0300008BB566
:102BE0000E00009EEDFFFFF0000000000000004D11
:102BF000E5FFFFCB0000008BB50E00009EEDFFFF50
:102C0000F00000000000000030E5FFFF850100003B
:102C10008BB50E0000A6F8FFFFF0000000000000DA
:102C200000CCE3FFFF4C0300008B621200009EED1E
:102C3000FFFFF000000000000000FCE3FFFFCB00FE
:102C400000008B621200009EEDFFFFF0000000000C
:102C5000000000DFE3FFFF850100008B621200002F
:102C6000A6F8FFFFF0000000000000007BE2FFFF7D
:102C70004C0300008B101600009EEDFFFFF00000DB
:102C80000000000000ABE2FFFFCB0000008B10163D
:102C900000009EEDFFFFF0000000000000008EE24B
:102CA000FFFF850100008B10160000A6F8FFFFF063
:102CB000000000000000002AE1FFFF4C0300008B31
:102CC000BD1900009EEDFFFFF000000000000000B5
:102CD0005AE1FFFFCB0000008BBD1900009EEDFF05
:102CE000FFF0000000000000003DE1FFFF85010053
:102CF000008BBD190000A6F8FFFFF00000000000E7
:102D00000000D9DFFFFF4C0300008B6B1D00009E0D
:102D1000EDFFFFF00000000000000009E0FFFFCB26
:102D20000000008B6B1D00009EEDFFFFF000000017
:102D300000000000ECDFFFFF850100008B6B1D0031
:102D400000A6F8FFFFF00000000000000088DEFF92
:102D5000FF4C0300008B182100009EEDFFFFF000E8
:102D6000000000000000B8DEFFFFCB0000008B1861
:102D70002100009EEDFFFFF0000000000000009B1E
:102D8000DEFFFF850100008B18210000A6F8FFFF81
:102D9000F00000000000000037DDFFFF4C030000E2
:102DA0008B18210000A6F8FFFF30F20000000000A1
:102DB0000037DDFFFFC50000008900880003020026
:102DC0000088010302000088001F0200005F002A43
:102DD00006FF1000002020546865205265706C6961
:102DE0006361746F722020202000202054686520C9
:102DF0005265706C696361746F722020202000201E
:102E00002020202D2D2D2D2D2D2D2D2D2D20202040
:102E100020202000496E7465726E616C2052656CD2
:102E20006561736520202020004669726D776172AC
:102E3000652056657273696F6E20352E2000436FD2
:102E40006F6C210053746172742050726568656103
:102E5000742100526967687420546F6F6C004E4192
:102E600020004F4E20004F4646004578747275642E
:102E70006572004C65667420546F6F6C00506C6115
:102E800074666F726D0057656C636F6D65212020ED
:102E90002020202020202020202049276D20546839
:102EA00065205265706C696361746F722E20507278
:102EB0006573732074686520726564204D20746F9B
:102EC000202067657420737461727465642120200A
:102ED0002020202020200057656C636F6D65212025
:102EE000202020202020202020202049276D205431
:102EF0006865205265706C696361746F722E205032
:102F0000726573732074686520726564204D207447
:102F10006F2020676574207374617274656421206A
:102F200020202020202020004120626C696E6B69E7
:102F30006E6720274D27206D65616E7349276D20D0
:102F400077616974696E6720616E642077696C6C63
:102F5000636F6E74696E7565207768656E20796F32
:102F60007520202070726573732074686520627507
:102F700074746F6E2E2E2E20004120736F6C696466
:102F800020274D27206D65616E7320202049276D15
:102F900020776F726B696E6720616E642077696C51
:102FA0006C757064617465206D79207374617475DB
:102FB00073202020207768656E2049276D20666980
:102FC0006E69736865642E2E2E004F7572206E65D3
:102FD00078742073746570732077696C6C206765F2
:102FE00074206D6520736574207570212020202069
:102FF000202046697273742C207765276C6C2072D0
:103000006573746F72656D79206275696C64207088
:103010006C6174666F726D2E2E2E00736F20697452
:103020002773206E69636520616E64202020206C08
:103030006576656C2E20497427732070726F62610B
:10304000626C796120626974206F66662066726FB7
:103050006D2020202020207368697070696E672EB3
:103060002E2E202020202020202020004161616879
:103070002C2074686174206665656C7320202020A4
:103080006D756368206265747465722E202020203F
:10309000202020204C6574277320676F206F6E20DE
:1030A000616E64206C6F6164736F6D652066696C1E
:1030B000616D656E74212020202020200057652737
:1030C0006C6C2074727920616761696E2120202008
:1030D00020202020202020202020202020202020F0
:1030E00020202020202020202020202020202020E0
:1030F00020202020202020202020202020202020D0
:103100002020202020202020202020202000576563
:10311000276C6C206B65657020676F696E67202077
:103120002020616E64206C6F616420736F6D652078
:1031300020202020202066696C616D656E742C460D
:103140006F722068656C7020676F746F206D616BA3
:103150006572626F742E636F6D2F68656C700057B7
:1031600065276C6C20676F20746F20746865206D14
:1031700061696E6D656E752E20496620796F7520C8
:103180006E65656420202068656C7020676F207410
:103190006F3A2020202020202020206D616B657256
:1031A000626F742E636F6D2F68656C702020200035
:1031B000417765736F6D652120202020202020201D
:1031C000202020205765276C6C20676F20746F20AB
:1031D000746865205344202063617264206D656EBD
:1031E0007520616E6420796F7520202063616E20E8
:1031F00073656C6563742061206D6F64656C21205C
:103200000049276D20676F696E6720746F206D61BC
:103210006B652020206120736572696573206F667D
:10322000206C696E657320736F77652063616E2013
:1032300066696E64206D792020202020206E6F7AD0
:103240007A6C6520616C69676E6D656E742E2020E6
:1032500020004C6F6F6B20666F722074686520626F
:103260006573742020206D617463686564206C69E7
:103270006E6520696E20656163686178697320738B
:1032800065742E204C696E657320617265206E75C1
:103290006D626572656420312D313320616E642E5C
:1032A0002E2E006C696E65206F6E65206973206537
:1032B000787472612020206C6F6E672E20546865D0
:1032C00020592061786973207365746973206C6577
:1032D0006674206F6E2074686520706C617465611F
:1032E0006E64205820617869732069732072696761
:1032F00068742E0047726561742120204927766525
:103300002073617665642020746865736520736539
:103310007474696E677320616E64202049276C6C39
:1033200020757365207468656D20746F20202020DF
:103330006D616B65206E696365206D6F64656C738C
:10334000212020200053656C6563742062657374CE
:10335000206C696E65732E00582041786973204C8B
:10336000696E65002D2D3E002020200059204178F7
:103370006973204C696E6500446F6E6521004D795C
:103380002074656D70657261747572652077617304
:10339000206368616E6765642065787465726E612C
:1033A0006C6C792E526573656C6563742066696C0C
:1033B000616D656E7420206D656E7520746F20746C
:1033C000727920616761696E2E20004D79206578E1
:1033D0007472756465727320617265202020206E9E
:1033E0006F742068656174696E672075702E202087
:1033F000202020436865636B206D792020202020E9
:1034000020202020202020636F6E6E656374696F1A
:103410006E73212020202020202020005072657310
:103420007320646F776E206F6E2074686520202093
:10343000677265792072696E677320617420746F9A
:1034400070206F6674686520657874727564657243
:103450007320616E6420202070756C6C2074686528
:1034600020626C61636B2E2E2E202020005072652E
:10347000737320646F776E206F6E207468652020F0
:1034800020677265792072696E6720617420746F9D
:1034900070206F6620746865206578747275646545
:1034A0007220616E642020202070756C6C2074681E
:1034B0006520626C61636B2E2E2E20202000506CE4
:1034C000656173652077616974207768696C652030
:1034D000492068656174206D79206578747275641F
:1034E0006572212020202020202020202020202044
:1034F00020202020202020202020202020202020CC
:103500002020202020202020202020202020006794
:1035100075696465207475626573206F75742E20FB
:103520004E6F77666565642066696C616D656E7463
:103530002066726F6D2020746865206261636B2065
:103540007468726F756768207468657475626573F6
:1035500020756E74696C2069742E2E2E2020200038
:1035600067756964652074756265206F75742E20B7
:10357000204E6F77666565642066696C616D656E67
:10358000742066726F6D2020746865206261636BC1
:10359000207468726F7567682074686574756265F9
:1035A00020756E74696C2069742E2E2E20202020C8
:1035B00000706F7073206F757420696E2066726F73
:1035C0006E742E202049276D2068656174696E67CE
:1035D000207570206D79202020657874727564657F
:1035E0007220736F2077652063616E20206C6F619D
:1035F00064207468652066696C616D656E742E2E3A
:103600002E0054686973206D696768742074616B5B
:10361000652061202020666577206D696E75746570
:10362000732E2020202020202020416E64207761EE
:10363000746368206F75742C2074686520206E6F29
:103640007A7A6C652077696C6C2067657420484FC6
:1036500054210048656174696E672050726F67720B
:103660006573733A20202020202020202020202055
:10367000202020202020202020202020202020204A
:10368000202020202020202020202020202020203A
:10369000202020202020202020202020202020202A
:1036A000202020004F4B2049276D207265616479EE
:1036B0002120202020202020466972737420776505
:1036C000276C6C206C6F6164207468657269676830
:1036D000742065787472756465722E202020202015
:1036E000507573682066696C616D656E7420696ED3
:1036F0002E2E2E2000477265617421204E6F772098
:103700007765276C6C202020206C6F6164207468C2
:1037100065206C6566742020202020202065787448
:1037200072756465722E20507573682020202020E9
:103730002066696C616D656E74207468726F756760
:10374000682E2E2E20004F4B2049276D2072656178
:103750006479212020202020202050757368207457
:1037600068652066696C616D656E742020207468E0
:10377000726F7567682E2E2E20202020202020209A
:103780002020202020202020202020202020202039
:103790002020202020200049276D20726561647957
:1037A000212050756C6C20746865206775696465AC
:1037B0002074756265206F666620616E64202070DB
:1037C000757368207468652066696C616D656E74D8
:1037D0002020207468726F7567682E2E2E2020209E
:1037E000202020202020200049276D207265616460
:1037F00079212050756C6C20746865206775696448
:10380000652074756265206F666620616E64202095
:1038100070756C6C207468652066696C616D656E8E
:103820007420202067656E746C792E2E2E20202047
:1038300020202020202020200049276D2072656153
:103840006479212044657461636820202074686570
:1038500020677569646520747562652C206F7065DA
:103860006E746865206C657665722061726D20618A
:103870006E6420202070756C6C2066696C616D65CB
:103880006E7420667265652E200049276D20726572
:103890006164792120446574616368202020746824
:1038A0006520677569646520747562652C206F708A
:1038B000656E746865206C657665722061726D2036
:1038C000616E6420202070756C6C2066696C616D7F
:1038D000656E7420667265652E2000756E74696C65
:1038E00020796F75206665656C2074686520206D91
:1038F0006F746F722074756720697420696E2E2052
:103900002020205075736820666F722061206665E4
:1039100077206D6F7265207365636F6E64732C2002
:103920007468656E20776169742E20005768656E33
:103930002066696C616D656E74206973202020209B
:103940006265696E67206578747275646564206667
:10395000726F6D20746865206E6F7A7A6C652C20AA
:103960005072657373204D20746F2073746F7020D4
:10397000657874727564696E672E202000576865DB
:103980006E2066696C616D656E74206973202020FD
:10399000206265696E67206578747275646564205D
:1039A00066726F6D20746865206E6F7A7A6C652C14
:1039B0002020202020202020205072657373202793
:1039C0004D2720746F20657869742E202000576879
:1039D000656E206D792066696C616D656E74206915
:1039E000732072656C65617365642C202020202033
:1039F000202020202020507265737320274D27201F
:103A0000746F20657869742E2020202020202020CB
:103A1000202020202020202020202020202000578F
:103A200068656E206D792066696C616D656E7420C5
:103A300069732072656C65617365642C2020202099
:103A400020202020202020507265737320274D27CE
:103A500020746F20657869742E202020202020207B
:103A60002020202020202020202020202020200076
:103A7000477265617421202049276C6C2073746F34
:103A80007020202072756E6E696E67206D792065DA
:103A9000787472756465722E5072657373204D2050
:103AA000746F20636F6E74696E75652E2020202000
:103AB0002020202020202020202020202020202006
:103AC000004F4B212049276C6C206B656570206D81
:103AD00079202020206D6F746F722072756E6E6970
:103AE0006E672E20596F7520206D6179206E656597
:103AF0006420746F207075736820202020686172C4
:103B00006465722E2E2E20202020202020202020B0
:103B100020005765276C6C206B65657020676F69A6
:103B20006E672E2020204C65747320747279207487
:103B30006865206C656674202020657874727564F1
:103B400065722E2050757368202020202020666921
:103B50006C616D656E7420646F776E2E2E2E202042
:103B60002020005765276C6C206B65657020676F9F
:103B7000696E672E202020496620796F752772654F
:103B800020686176696E672020202074726F7562EC
:103B90006C652C20636865636B206F757420206DE5
:103BA000616B6572626F742E636F6D2F68656C70E8
:103BB000202020004D79206D6F746F722074696D24
:103BC0006564206F757420206166746572203520ED
:103BD0006D696E757465732E202020205072657398
:103BE00073204D20746F20657869742E202020206A
:103BF00020202020202020202020202020202020C5
:103C00002020202000486F77276420697420676F88
:103C10003F205265616479202000746F206D616BD4
:103C20006520736F6D657468696E673F2020005969
:103C30006573202020004E6F2020202000446F65F7
:103C400073206D79206E6F7A7A6C652000686569E3
:103C500067687420636865636B206F75743F20002C
:103C60004D792068656967687420697320676F6F94
:103C700064212020004C65742773207472792061C0
:103C80006761696E2E0044696420706C61737469A9
:103C9000632065787472756465200066726F6D20AC
:103CA000746865206E6F7A7A6C653F202020200052
:103CB000556E6C6F616420726967687400556E6C34
:103CC0006F6164004C6F6164206C65667400556EB2
:103CD0006C6F6164206C656674004C6F6164207267
:103CE00069676874004C6F61640020202020204ABE
:103CF0006F67206D6F646520202020202020002029
:103D000020202020202020582B2020202020202070
:103D100020202000202020202020284261636B29C1
:103D2000202020592D3E202000202020202020204F
:103D300020582D202020202020202020200020205E
:103D4000202020202020592B20202020202020202F
:103D500020200020203C2D5820284261636B292020
:103D6000205A2D3E2020200020202020202020200E
:103D7000592D20202020202020202020002020201D
:103D800020202020205A2D202020202020202020EC
:103D9000200020203C2D5920284261636B292020DF
:103DA0002020202020200020202020202020205AF9
:103DB0002B202020202020202020200047414D457E
:103DC000204F564552210048656174696E673A205C
:103DD0002020202020202020202020004865617401
:103DE000696E673A0020202020202000202020201B
:103DF0002000202D2D25006572726F722100202079
:103E000020202020202020202020202020202020B2
:103E100020200045787472756465723A2020202D48
:103E20002D2D2F2D2D2D4300522045787472756451
:103E300065723A202D2D2D2F2D2D2D43004C204520
:103E4000787472756465723A202D2D2D2F2D2D2DCD
:103E50004300506C6174666F726D3A2020202D2DE6
:103E60002D2F2D2D2D430020204E412020202000DD
:103E700077616974696E6720002F2020204300431A
:103E800020202020006820206D0020507265686589
:103E900061742053657474696E677320202000522A
:103EA0006967687420546F6F6C20202020202020C8
:103EB000202020004C65667420546F6F6C202020F9
:103EC000202020202020202000506C6174666F721A
:103ED0006D20202020202020200020526573657452
:103EE0002053657474696E677320746F20200020FE
:103EF00044656661756C742076616C7565733F000E
:103F0000556E5061757365202020202020202020D0
:103F10002020200050617573652020202020202063
:103F2000202020202020200043616E63656C204209
:103F300075696C642020202020202000576169745E
:103F4000696E6720666F7220486F6D696E6720002A
:103F50004368616E67652046696C616D656E7420AB
:103F600020202000536C6565702028436F6C64200E
:103F70005061757365292000526573756D65204227
:103F800075696C6420202020202020005A20506178
:103F900075736520486569676874202020202000BB
:103FA0004C454420436F6C6F72202020202020203D
:103FB00020202000524544202020004F52414E47EF
:103FC000450050494E4B202000475245454E2000A9
:103FD000424C5545202000505552504C4500574802
:103FE0004954452000435553544F4D004F464620F9
:103FF00020200046696C616D656E742046616E20FC
:10400000202020202020004275696C6420537461B8
:1040100074697374696373202020004261636B20AC
:10402000746F204D6F6E69746F72202020200042E3
:1040300075696C642046696E697368656421202027
:104040002020202020202020202020202020202070
:10405000202020202020204275696C642054696D46
:10406000652020202020206820206D004275696C8A
:10407000642054696D653A20202020206820206D3E
:10408000004C696E653A202020202020202020202E
:10409000202020202000457374696D6174656420C0
:1040A0004275696C642054696D654C696665746914
:1040B0006D6520546F74616C3A2020202068004C9C
:1040C000617374204275696C643A20202020206856
:1040D00020206D0043616E63656C207468697320F5
:1040E0006275696C643F0051756974207468697306
:1040F0002070726F636573733F004275696C642052
:1041000066726F6D205344202020202020005072C2
:104110006568656174202020202020202020202038
:1041200020005574696C6974696573202020202013
:10413000202020202000496E666F20616E6420538D
:10414000657474696E67732020004D6F6E69746FBB
:1041500072204D6F646520202020202020004368BD
:10416000616E67652046696C616D656E7420202004
:1041700020004C6576656C204275696C6420506C3B
:104180006174652020004A6F67204D6F64652020B0
:1041900020202020202020202000486F6D65204115
:1041A00078657320202020202020202020005275B8
:1041B0006E205374617274757020536372697074E9
:1041C0002000456E61626C65205374657070657285
:1041D00073202020200044697361626C6520537451
:1041E0006570706572732020200053746F702042D8
:1041F0006C696E6B696E6721202020202000426C64
:10420000696E6B204C454473202020202020202004
:10421000200043616C696272617465204E6F7A7A26
:104220006C657320200065786974206D656E75205B
:1042300020202020202020202000426F7420537452
:1042400061746973746963732020202020004765BE
:104250006E6572616C2053657474696E677320209B
:104260002000507265686561742053657474696ECE
:1042700067732020200056657273696F6E204E753B
:104280006D626572202020202000526573746F7269
:10429000652044656661756C7473202020002020C1
:1042A000205A2050617573652048656967687420DD
:1042B0002020005A20506F736974696F6E2020208F
:1042C0002020206D6D20005061757365204163745E
:1042D0006976652020202020202000536F756E64B1
:1042E00020202020202020202020202020200048C6
:1042F000656174656420506C61746500546F6F6C07
:1043000020436F756E742020202020202020200064
:1043100053494E474C45004455414C2020004865C8
:104320006174204C45447320202020202020202030
:1043300020004865617420486F6C64202020202094
:10434000206D2020200048656C7020546578742012
:1043500020202020202020202000416363656C6500
:1043600072617465202020202020202020004E6FC4
:10437000205344206361726420666F756E6400533D
:104380004420636172642072656164206572726F9B
:104390007200492063616E27742072656164207425
:1043A0006869732020205344206361726420666F23
:1043B000726D617421202020202054727920726552
:1043C000666F726D617474696E6720202020746856
:1043D00065206361726420746F2046415431362E2B
:1043E000202000492063616E27742072656164207B
:1043F0005344202020202063617264732077697405
:10440000682073746F7261676520206C61726765E4
:1044100072207468616E203247422E2020202020B6
:10442000202020202020202020202020202020208C
:104430002020200020534420636172642072656153
:1044400064206572726F720049276D20616C72651D
:10445000616479206275696C64696E670057617286
:104460006E696E673A4275696C6420737065656445
:1044700073666173746572207468616E2035306D87
:104480006D2F7320207265717569726520783367AE
:1044900020666F726D61742020666F722062657392
:1044A0007420726573756C74732E20202000D0FE0A
:1044B000C0FF18FFD0FF63FFE0FFB1FFF0FF000077
:1044C000000051001000A4002000F800300040015E
:1044D0004000A2015000F70160004B0270009F02F3
:1044E0008000F20290004503A0009703B000E803AB
:1044F000C0003A04D0008C04E000DF04F000320574
:10450000000186051001DB0520012F063001DA06C7
:1045100050013007600186077001DC0780016808E0
:10452000900120F9C9FFE0FCE7FFF8FF0000000060
:104530000000080000002003190040063200600956
:104540004B00000A5000800C640000108000010045
:1045500049033600FF006B00D100A000B800D50071
:10456000A6000A0199003F018E0074018400A90190
:104570007C00DE01740013026C00480265007D02BD
:104580005D00B2025600E7024E001C0346005103D4
:104590003D0086033200BB032200F0030300E33C2E
:1045A0000B3DD3409D4A024B5D550057785AE65B60
:1045B000B56F4B827485D6900E92F792F293339535
:1045C0008097E4A3C5A480A817A909AAC8AA04AC27
:1045D00051B1A2B18FB558B93DDC09DEAEDFC1E102
:1045E0007CE25CE311241FBECFEFD1E2DEBFCDBF82
:1045F00016E0A0E0B2E0E8E3F2ED01E00BBF02C09C
:1046000007900D92A23BB107D9F71EE1A2EBB6E0ED
:1046100001C01D92AB33B107E1F715E4C4EED5E458
:1046200000E006C022970109FE010BBF0E9423E8AB
:10463000CE39D10780E00807A9F70E94EE4A0C9412
:104640001AE90C940000A0E3B0E0E9E2F3E20C9474
:10465000EEE7298F3A8F4B8F5C8F6D8F7E8F8F8F18
:1046600098A3A98ABA8ACB8ADC8AED8AFE8A0F8B44
:10467000188F098D1A8D2B8D3C8D09A31AA32BA39E
:104680003CA3680179018FEF9FEFA0E0B0E0C82262
:10469000D922EA22FB2289012227332709A71AA758
:1046A0002BA73CA709891A892B893C890DA31EA336
:1046B0002FA338A74801590188229922AA22BB2298
:1046C000290166247724C501B401A70196010E943F
:1046D0005DE76DA77EA78FA798ABC301B2010E94CB
:1046E0005DE76B017C01C501B40129A53AA54BA585
:1046F0005CA50E945DE74B015C01C301B2010E9411
:104700005DE7AB01BC01C80CD91CEA1CFB1C0DA564
:104710001EA52FA538A9C901AA27BB27C80ED91ED7
:10472000EA1EFB1EC814D904EA04FB0420F440501E
:1047300050406F4F7F4FC701AA27BB27840F951F9B
:10474000A61FB71F8D839E83AF83B8877601DD24B4
:10475000CC244DA55EA56FA578A960707070C40EBD
:10476000D51EE61EF71EC982DA82EB82FC821C2D62
:104770000A818B804C808D878E818E878F818F8779
:104780008885888B2D893E894F89588D69A17AA1AA
:104790008BA19CA10E945DE76B017C012D8D3E8D5C
:1047A0004F8D58A16DA17EA18FA198A50E945DE7B4
:1047B000DC01CB01C80ED91EEA1EFB1E8D859E852D
:1047C000AF85B8898C0D9D1DAE1DBF1D8D879E8741
:1047D000AF87B88B682F7E85212F302F482D542D21
:1047E0008F859889E096E0E10C940AE80F93CF93C7
:1047F000DF93CDB7DEB760970FB6F894DEBF0FBE7C
:10480000CDBF002309F456C029873A874B875C87C0
:104810006D877E878F87988B20E2201B8D859E85F4
:10482000AF85B889AC01BD011216B4F0770F440B07
:10483000542FBA014D835E836F837887332727FD1A
:104840003095309521953F4F04C0B595A795979524
:1048500087952A95D2F722C0002E04C075956795DA
:10486000579547950A94D2F74D835E836F83788777
:1048700004C0880F991FAA1FBB1F2A95D2F749852C
:104880005A856B857C8504C07695679557954795C5
:104890000A95D2F7842B952BA62BB72B89839A8365
:1048A000AB83BC8329813A814B815C816D817E81A0
:1048B0008F81988560960FB6F894DEBF0FBECDBF8E
:1048C000DF91CF910F910895A8E4B0E0EAE6F4E219
:1048D0000C94EDE7F50129A33AA34BA35CA36DA3C8
:1048E0007EA38FA398A7A98EFA8FCB8EDC8EED8E38
:1048F000FE8E0F8F18A38DA09EA0AFA0B8A4B7FE08
:1049000067C02195B1E0121608F0B0E03195A1E042
:10491000131608F0A0E0B32EBB1ABB2D8824839495
:104920003B1508F08824A829419531E0141608F0B9
:1049300030E0B42EBA1AAB2D882483944B1508F0BE
:1049400088243829519541E0151608F040E0452E9D
:10495000431A31E0541508F030E0432B619531E003
:10496000161608F030E0862E841A41E0681508F02B
:1049700040E0342B719541E0171608F040E0572FC6
:10498000531B31E0751708F030E0432B819531E07F
:10499000181608F030E0682F641B462F61E084177A
:1049A00008F060E0362B9195931B29A3BAA3ABA323
:1049B0004CA28DA25EA34FA398A78FEF9FEFAFEFFE
:1049C000BFEF25968CAF9DAFAEAFBFAF259706C0AA
:1049D00025961CAE1DAE1EAE1FAE25978D8D9E8DED
:1049E000AF8DB8A1B7FF68C025962CAD3DAD4EADDB
:1049F0005FAD2597209530954095509525962CAF25
:104A00003DAF4EAF5FAF2597E19581E01E1608F0F0
:104A100080E0F19591E01F1608F090E04F2F481BC1
:104A200081E0F41708F080E0982BC19481E01C1419
:104A300008F080E06C2D691B91E0C61608F090E04C
:104A4000892BD19491E01D1408F090E05D2D581B46
:104A500081E0D51608F080E0982BE19481E01E14E7
:104A600008F080E03E2D391B91E0E31608F090E05D
:104A7000892BF19491E01F1408F090E02F2D281B52
:104A800081E0F21608F080E0982B019581E0101685
:104A900008F080E0702F791B972F71E0091708F05C
:104AA00070E0872B1195181BE98F4A8F6B8F5C8FF5
:104AB0003D8F2E8F9F8F18A3798D6A8D5B8D4C8DC6
:104AC0003D8D2E8D9F8D88A1E9A1E98BEAA1EA8B0E
:104AD000EBA1EB8BECA1EC8BEDA1ED8BEEA1EE8BC2
:104AE000EFA1EF8BE8A5E88F79876A875B874C8712
:104AF0003D872E879F87888B89849A84AB84BC846A
:104B00008D859E85AF85B889E988FA880B891C89CF
:104B1000EDAAFEAA0FAB18AFCD88DE88EF88F88C1F
:104B20000097A105B10509F0BFC3C814D904EA0470
:104B3000FB0408F04EC100E0801600E0900601E0A2
:104B4000A00600E0B00660F41FEF81169104A104F6
:104B5000B10409F098F480E090E0A0E0B0E017C064
:104B600020E0821620E0920620E0A20621E0B206B4
:104B700050F480E190E0A0E0B0E009C088E090E06F
:104B8000A0E0B0E004C088E190E0A0E0B0E0B501B2
:104B9000A401082E04C076956795579547950A9409
:104BA000D2F7FA01E25AFD4F208140E250E060E086
:104BB00070E0481B590B6A0B7B0B421B51096109C2
:104BC00071094115510561057105A1F1042E04C05B
:104BD000880C991CAA1CBB1C0A94D2F79701860169
:104BE000042E04C0000F111F221F331F0A94D2F796
:104BF00080E290E0841B950BCDA8DEA8EFA8F8AC6E
:104C000004C0F694E794D794C7948A95D2F7C02A43
:104C1000D12AE22AF32A0DA91EA92FA938AD04C072
:104C2000000F111F221F331F4A95D2F70DAB1EAB89
:104C30002FAB38AF250166247724950184012070BD
:104C4000307009AB1AAB2BAB3CABC701B601A3016B
:104C500092010E94AFE72DA73EA74FA758AB69A7C7
:104C60007AA78BA79CA7C701B601A30192010E9456
:104C7000AFE7CA01B90129A93AA94BA95CA90E94C9
:104C80005DE7AB01BC0109A51AA52BA53CA57801E0
:104C9000DD24CC240DA91EA92FA938ADC901AA274E
:104CA000BB27C82AD92AEA2AFB2A0DA51EA52FA5AB
:104CB00038A9C416D506E606F70638F501501040A7
:104CC0002040304009A71AA72BA73CA7C80CD91C25
:104CD000EA1CFB1CC814D904EA04FB04D0F0C41677
:104CE000D506E606F706A8F40DA51EA52FA538A93A
:104CF000025010402040304009A71AA72BA73CA71C
:104D0000C80CD91CEA1CFB1C04C009A71AA72BA7B6
:104D10003CA7C41AD50AE60AF70AC701B601A301DF
:104D200092010E94AFE72DA73EA74FA758AB69AFEE
:104D30007AAF8BAF9CAFC701B601A30192010E946D
:104D4000AFE7CA01B90129A93AA94BA95CA90E94F8
:104D50005DE76B017C0149AD5AAD6BAD7CAD9A014D
:104D6000112700274DA95EA96FA978AD60707070FA
:104D7000042B152B262B372B8DA59EA5AFA5B8A9E7
:104D80000C151D052E053F05C0F40197A109B109B9
:104D9000080D191D2A1D3B1D081519052A053B057F
:104DA00060F00C151D052E053F0538F48DA59EA558
:104DB000AFA5B8A90297A109B10909A51AA52BA504
:104DC0003CA57801DD24CC24C82AD92AEA2AFB2A6A
:104DD000B9C481149104A104B10451F461E070E0FC
:104DE00080E090E0A50194010E94AFE749015A01DB
:104DF00010E0811610E0910611E0A10610E0B10666
:104E000060F42FEF82169104A104B10409F098F424
:104E100080E090E0A0E0B0E017C030E0831630E022
:104E2000930630E0A30631E0B30650F480E190E051
:104E3000A0E0B0E009C088E090E0A0E0B0E004C0ED
:104E400088E190E0A0E0B0E0B501A401082E04C024
:104E500076956795579547950A94D2F7FA01E25AE5
:104E6000FD4F2081AC01BD01420F511D611D711D1F
:104E700080E290E0A0E0B0E0841B950BA60BB70B9E
:104E800051F4C818D908EA08FB08F1E04F2E512C5C
:104E9000612C712C28C1082E04C0880C991CAA1CF6
:104EA000BB1C0A94D2F797018601042E04C03695E4
:104EB0002795179507950A94D2F709AB1AAB2BAB38
:104EC0003CAB97018601082E04C0000F111F221F62
:104ED000331F0A94D2F70DA71EA72FA738ABEDA852
:104EE000FEA80FA918AD04C016950795F794E7948E
:104EF0004A95D2F7B801A7010DA51EA52FA538A97F
:104F0000042B152B262B372B0DA71EA72FA738AB4D
:104F1000EDA8FEA80FA918AD04C0EE0CFF1C001FE1
:104F2000111F8A95D2F7EDAAFEAA0FAB18AF250183
:104F300066247724950184012070307009AF1AAF80
:104F40002BAF3CAF69A97AA98BA99CA9A3019201B7
:104F50000E94AFE729A73AA74BA75CA76B017C018A
:104F600069A97AA98BA99CA9A30192010E94AFE724
:104F7000CA01B90129AD3AAD4BAD5CAD0E945DE708
:104F8000AB01BC017601DD24CC240DA51EA52FA507
:104F900038A9C901AA27BB27C82AD92AEA2AFB2A85
:104FA00009A51AA52BA53CA5C416D506E606F70645
:104FB00038F5015010402040304009AB1AAB2BAB04
:104FC0003CABC80CD91CEA1CFB1CC814D904EA046D
:104FD000FB04D0F0C416D506E606F706A8F409A52A
:104FE0001AA52BA53CA5025010402040304009AB2B
:104FF0001AAB2BAB3CABC80CD91CEA1CFB1C04C085
:1050000009AB1AAB2BAB3CABC41AD50AE60AF70ABC
:10501000C701B601A30192010E94AFE729A73AA7F1
:105020004BA75CA721966CAF7DAF8EAF9FAF21974A
:10503000C701B601A30192010E94AFE7CA01B901FD
:1050400029AD3AAD4BAD5CAD0E945DE78B019C0193
:1050500021964CAD5DAD6EAD7FAD2197DA019927FC
:1050600088274DA55EA56FA578A960707070842B08
:10507000952BA62BB72B49A55AA56BA57CA5801708
:105080009107A207B307F0F44150504060407040D0
:10509000880D991DAA1DBB1D88159905AA05BB057C
:1050A00088F080179107A207B30760F449A55AA5B5
:1050B0006BA57CA54250504060407040880D991D02
:1050C000AA1DBB1D6C017D01C01AD10AE20AF30AB8
:1050D00009A91AA92BA93CA9380155244424442A1A
:1050E000552A662A772A8501222733270DA71EA76E
:1050F0002FA738AB950184012070307009AF1AAF2B
:105100002BAF3CAFC701B6012DA53EA54FA558A9B1
:105110000E94AFE729A73AA74BA75CA769AB7AAB78
:105120008BAB9CABC701B6012DA53EA54FA558A9D9
:105130000E94AFE7CA01B90129AD3AAD4BAD5CADF4
:105140000E945DE7AB01BC0109A91AA92BA93CA9E2
:105150007801DD24CC240DA91EA92FA938ADC901E1
:10516000AA27BB27C82AD92AEA2AFB2A09A51AA5F1
:105170002BA53CA5C416D506E606F70638F5015062
:1051800010402040304009AB1AAB2BAB3CABC80CF5
:10519000D91CEA1CFB1CC814D904EA04FB04D0F097
:1051A000C416D506E606F706A8F409A51AA52BA588
:1051B0003CA5025010402040304009AB1AAB2BAB4D
:1051C0003CABC80CD91CEA1CFB1C04C009AB1AABD5
:1051D0002BAB3CABC41AD50AE60AF70AC701B601E5
:1051E0002DA53EA54FA558A90E94AFE729A73AA72C
:1051F0004BA75CA721966CAF7DAF8EAF9FAF219779
:10520000C701B6012DA53EA54FA558A90E94AFE73D
:10521000CA01B90129AD3AAD4BAD5CAD0E945DE765
:105220008B019C0121964CAD5DAD6EAD7FAD21979C
:10523000DA01992788274DA95EA96FA978AD60701A
:105240007070842B952BA62BB72B49A55AA56BA55F
:105250007CA580179107A207B307D0F441505040B6
:1052600060407040880D991DAA1DBB1D88159905C9
:10527000AA05BB0568F080179107A207B30740F4A1
:1052800049A55AA56BA57CA542505040604070408E
:1052900009A91AA92BA93CA97801DD24CC24C42A88
:1052A000D52AE62AF72A51C2C816D906EA06FB060D
:1052B00008F438C2803010E0910711E0A10710E037
:1052C000B10758F48F3F9105A105B10509F090F49D
:1052D00000E010E020E030E016C0803020E09207CF
:1052E00020E0A20721E0B20750F400E110E020E046
:1052F00030E009C008E010E020E030E004C008E140
:1053000010E020E030E0AC01BD01002E04C0769535
:105310006795579547950A94D2F7FA01E25AFD4FDF
:105320004081040F111D211D311D40E250E060E05D
:1053300070E0401B510B620B730BA1F48C159D05A3
:10534000AE05BF0508F4F5C1EDA8FEA80FA918AD7C
:10535000442455243201E814F9040A051B0508F019
:10536000EBC1E3C1342E2C013D0104C0440C551C9B
:10537000661C771C4A95D2F7D501C401002E04C0E3
:10538000B695A795979587950A94D2F7482A592AF2
:105390006A2A7B2AA5019401032C04C0220F331F23
:1053A000441F551F0A94D2F729AF3AAF4BAF5CAFF9
:1053B000B701A601002E04C07695679557954795CD
:1053C0000A94D2F749AB5AAB6BAB7CABC701B601C1
:1053D000032C04C0660F771F881F991F0A94D2F709
:1053E0006DA77EA78FA798AB8DA99EA9AFA9B8ADD1
:1053F00004C0B695A795979587950A95D2F74DA5C0
:105400005EA56FA578A9482B592B6A2B7B2B4DA73E
:105410005EA76FA778AB4301AA24BB249301820146
:105420002070307021960CAF1DAF2EAF3FAF21978B
:1054300069A97AA98BA99CA9A50194010E94AFE74B
:1054400029A73AA74BA75CA76B017C0169A97AA998
:105450008BA99CA9A50194010E94AFE7CA01B901DB
:1054600021962CAD3DAD4EAD5FAD21970E945DE71D
:10547000DC01CB017601DD24CC240DA51EA52FA5D2
:1054800038A9A90166277727C42AD52AE62AF72A48
:1054900009A51AA52BA53CA5C816D906EA06FB0640
:1054A00038F5015010402040304009AB1AAB2BAB0F
:1054B0003CABC40CD51CE61CF71CC414D504E60494
:1054C000F704D0F0C816D906EA06FB06A8F409A529
:1054D0001AA52BA53CA5025010402040304009AB36
:1054E0001AAB2BAB3CABC40CD51CE61CF71C04C0A0
:1054F00009AB1AAB2BAB3CABC81AD90AEA0AFB0AB8
:10550000C701B601A50194010E94AFE729A73AA7F8
:105510004BA75CA729966CAF7DAF8EAF9FAF299745
:10552000C701B601A50194010E94AFE7CA01B90104
:1055300021962CAD3DAD4EAD5FAD21970E945DE74C
:105540004B015C0129964CAD5DAD6EAD7FAD2997E9
:105550009A01112700278DA59EA5AFA5B8A9A07017
:10556000B070082B192B2A2B3B2B89A59AA5ABA52C
:10557000BCA5081519052A053B05E0F40197A1090A
:10558000B109040D151D261D371D04151505260529
:10559000370580F0081519052A053B0558F489A53B
:1055A0009AA5ABA5BCA50297A109B109040D151DCB
:1055B000261D371DB901A801481959096A097B0937
:1055C0004DA75EA76FA778AB09A91AA92BA93CA97B
:1055D0007801DD24CC24C82AD92AEA2AFB2AFFEF45
:1055E0008F2EFFEF9F2EA12CB12C8C209D20AE2062
:1055F000BF2087012227332709A71AA72BA73CA77B
:1056000049AC5AAC6BAC7CAC2FEF3FEF40E050E0C4
:10561000422253226422752229AD3AAD4BAD5CADD6
:105620008A012227332709AB1AAB2BAB3CABC50150
:10563000B401A30192010E945DE769AF7AAF8BAF1D
:105640009CAFC501B40129A93AA94BA95CA90E9444
:105650005DE74B015C0169A57AA58BA59CA5A3011B
:1056600092010E945DE72B013C0169A57AA58BA5FB
:105670009CA529A93AA94BA95CA90E945DE7AB01A9
:10568000BC01840C951CA61CB71C09AD1AAD2BAD32
:105690003CADC901AA27BB27880E991EAA1EBB1EB6
:1056A00084149504A604B70420F4405050406F4F72
:1056B0007F4FC501AA27BB27840F951FA61FB71FC1
:1056C0000DA51EA52FA538A9081719072A073B07FE
:1056D00018F180179107A207B307A1F55401992487
:1056E000882489AD9AADABADBCADA070B070880E0A
:1056F000991EAA1EBB1E4DA95EA96FA978AD032CE9
:1057000004C0440F551F661F771F0A94D2F748152F
:1057100059056A057B05B0F40894C108D108E10871
:10572000F10810C0442455243201CC24DD24760134
:105730000CC044245524320181E0C82ED12CE12C28
:10574000F12C03C0442455243201FE01319688E037
:10575000DF011D928A95E9F7C982DA82EB82FC8229
:105760004D825E826F8278862C2D3A814B815C81DE
:10577000642D7E818F8198852596ECACFDAC0EADB5
:105780001FAD2597E114F1040105110509F456C078
:105790002195E1E0121608F0E0E03195F1E01316F2
:1057A00008F0F0E0032F0E1BE1E0301708F0E0E016
:1057B000FE2B4195E1E0141608F0E0E0142F1F1BCA
:1057C00031E0411708F030E0E32B5195F1E0151678
:1057D00008F0F0E0B52FBE1B31E05B1708F030E0B9
:1057E000F32B6195E1E0161608F0E0E0462E4F1A23
:1057F00031E0641508F030E0E32B7195F1E0171605
:1058000008F0F0E0A72FAE1B31E07A1708F030E087
:10581000F32B8195E1E0181608F0E0E0F82EFF1A6E
:10582000FF2D31E08F1508F030E0E32B9195302FFC
:10583000412F5B2F642D7A2F8F2F9E1BC85BDF4F6C
:10584000E1E10C9409E8FA01DC0102C005900D9237
:1058500021503040D8F70895F8942091F606309101
:10586000F7068091F4069091F506821B930B7894CD
:1058700008958093ED06089581E08093EB060895E6
:105880008091ED0608958091EC0608952091F6062A
:105890003091F70681E02115310509F080E0089587
:1058A000482F8091F6069091F7066091F40670916A
:1058B000F50686179707E8F42091F6063091F7066B
:1058C0008091F8069091F906820F931F0E9488E755
:1058D000E091FA06F091FB06E80FF91F40838091F2
:1058E000F6069091F70601969093F7068093F606D8
:1058F000089581E0E4EFF6E0808708951092F706BE
:105900001092F6061092F9061092F8061092FC0614
:105910001092FD061092EF061092F0061092F1061A
:105920001092F2061092EE061092ED061092EC061E
:105930001092E6061092E7061092E8061092E90629
:105940001092D1061092E5061092E4061092E3063A
:10595000089581E02091E3063091E4062630310578
:1059600009F080E008956091EF067091F006809153
:10597000F1069091F20608951092EF061092F0064B
:105980001092F1061092F20608954F925F926F9274
:105990007F928F929F92AF92BF92CF92DF92EF92BF
:1059A000FF920F931F93CF93DF93CDB7DEB7C65609
:1059B000D0400FB6F894DEBF0FBECDBFCE018D5BD9
:1059C0009F4F0E94C587A5EBB6E0FE01ED5BFF4F40
:1059D00084E101900D928150E1F7CE0101966EE5D0
:1059E0007BE145E00E9442DFCE0101960E948BDF01
:1059F0008093B40685EB96E060E070E00E9461570A
:105A0000FC0120813181428153816B962CAF3DAFE7
:105A10004EAF5FAF6B9785EB96E061E070E00E9460
:105A20006157FC0120813181428153816F962CAFF7
:105A30003DAF4EAF5FAF6F9785EB96E062E070E0F1
:105A40000E946157FC012081318142815381A396DC
:105A50002CAF3DAF4EAF5FAFA39785EB96E063E011
:105A600070E00E946157FC0180809180A280B38029
:105A700083E00E94C9846B017C0185EB96E064E0C1
:105A800070E00E946157FC01608171818281938185
:105A90000E94F6E52B013C0184E00E94C9849B0131
:105AA000AC0100D000D00DB71EB70F5F1F4FC7016C
:105AB000B601A4962FAFA497A5963FAFA597A6963B
:105AC0004FAFA697A7965FAFA7970E94C8E5DC01E6
:105AD000CB01880E991EAA1EBB1EC301B201A4965B
