:100000000C940F240C943E240C943E240C943E2417
:100010000C943E240C943E240C943E240C943E24D8
:100020000C943E240C943E240C943E240C943E24C8
:100030000C943E240C9435520C943E240C943E2493
:100040000C943E240C943E240C943E240C943E24A8
:100050000C943E240C943E240C943E240C943E2498
:100060000C943E240C9442DB0C943E240C946EDBE6
:100070000C943E240C94E1A70C943E240C943E2452
:100080000C943E240C943E240C943E240C943E2468
:100090000C943E240C943E240C943E240C943E2458
:1000A0000C943E240C943E240C943E240C943E2448
:1000B0000C943E240C943E240C943E240C94924FB9
:1000C0000C943E240C943E240C943E240C943E2428
:1000D0000C943E240C943E240C943E240C943E2418
:1000E0000C943E24507265706172696E6720666F71
:1000F0007220736C6565703A49276D20636F6D706F
:100100006C6574696E6720616E7920207175657504
:100110006564206D6F7665732E004368616E676954
:100120006E672046696C616D656E743A20204927C0
:100130006D20636F6D706C6574696E6720616E7998
:100140002020717565756564206D6F7665732E006E
:10015000494E56414C494420544F4F4C3A202020A0
:1001600020202020492072656365697665642061DE
:1001700020636F6D6D616E64666F7220546F6F6C7B
:100180002023322C20627574204920206F6E6C79F8
:100190002068617665206F6E6520546F6F6C2E202D
:1001A00000494E56414C494420434F4D4D414E4429
:1001B0003A202020204920726563656976656420B5
:1001C0006120636F6D6D616E64666F72206120687F
:1001D000656174656420706C6174652C206275744F
:1001E000204920646F6E27742068617665206F6EE9
:1001F00065004920736177206120676C69746368CA
:1002000020696E206D79534420636172642E204909
:100210006620746869732069732074686520666954
:10022000727374206572726F722C207472797468A4
:100230006973206D6F64656C20616761696E2E2043
:10024000202000492074696D6564206F75742077E3
:1002500068696C65202020617474656D7074696EC6
:100260006720746F206865617420206D792065783F
:100270007472756465722E00492074696D6564201E
:100280006F7574207768696C6520202061747465CF
:100290006D7074696E6720746F20686561742020CA
:1002A0006D7920706C6174666F726D2E005072658E
:1002B000706172696E6720666F7220736C6565701D
:1002C0003A49276D20636F6F6C696E67206D7920E6
:1002D00020202020206865617465727320616E643F
:1002E00020676F696E6720746F6D7920776169741C
:1002F00020706F736974696F6E2E004368616E675A
:10030000696E672046696C616D656E743A2020499C
:10031000276D20676F696E6720746F206D79207775
:10032000616974706F736974696F6E2E00526573C2
:1003300074617274696E6720746865204275696CB7
:10034000640054686973206973206E6F7420746848
:1003500065207334672076657273696F6E2049205B
:10036000776F726B206265737420776974682E20D2
:10037000466F722068656C70207365653A206D6108
:100380006B6572626F742E636F6D2F68656C702081
:100390002020004920616D2061205265706C6963E6
:1003A00061746F7220322E54686973206275696CB3
:1003B0006420697320666F72202020616E6F7468FC
:1003C000657220626F742E205365653A2020206D7F
:1003D000616B6572626F742E636F6D2F68656C70F0
:1003E0000054686973206973206E6F7420746865A7
:1003F000207334672076657273696F6E20492077A9
:100400006F726B206265737420776974682E204662
:100410006F722068656C70207365653A206D616B42
:100420006572626F742E636F6D2F68656C7020202B
:100430002000546865205265706C69636174307285
:100440000049276D2043616E63656C6C696E672E91
:100450002020202020506C656173652057616974ED
:100460002E0020004865617465727320736875748E
:10047000646F776E2020202064756520746F20697A
:100480006E61637469766974792020200045787400
:100490007275646572204F7665726865617421209B
:1004A00020536F6674776172652054656D70204CBF
:1004B000696D697420526561636865642120506CC0
:1004C00065617365202020202053687574646F7700
:1004D0006E206F722052657374617274004865619A
:1004E00074696E67204661696C75726521202020F1
:1004F000204D79206578747275646572732061721D
:1005000065206E6F7468656174696E672070726FC4
:100510007065726C792E202020436865636B206DB6
:100520007920636F6E6E656374696F6E73004865E2
:100530006174696E67204661696C7572652120205F
:1005400020204D792065787472756465727320611E
:100550007265202020206C6F73696E672074656D52
:1005600070657261747572652E20436865636B20D7
:100570006D7920636F6E6E656374696F6E7300488A
:100580006561746572204572726F7221202020208F
:1005900020202049276D2072656164696E67206F95
:1005A0007574206F66202072616E67652074656DBA
:1005B0007065726174757265732E20436865636B34
:1005C000206D7920636F6E6E656374696F6E730062
:1005D000486561746572204572726F722120202017
:1005E000202020204D792074656D706572617475CE
:1005F0007265207265616473617265206661696C01
:10060000696E672120506C6561736520436865637E
:100610006B206D7920636F6E6E656374696F6E73A6
:10062000009302690000006900EE016900000069A2
:10063000002601B80100000000200655000000550A
:10064000002D085500000055004D0A5500000055CA
:1006500000400CAB000000AB002D09550000005518
:10066000002D085500000055004D0AAB0000005554
:100670000000000001C00D5500000055002D085677
:100680000100000000C00D20015311BC005B12B13D
:100690000100000000C00DC80000001400C00DC81B
:1006A0000000001400910E9001000014005A1090F8
:1006B0000100001400C00D200300000000C805C8A0
:1006C0000000001400C805C80000001400C805C8D8
:1006D0000000001400DD04B004000014007505C81B
:1006E00000000014007505C800000014007505C85E
:1006F00000000014009704B00400000000B8075583
:100700000000005500B909AB000000AB007D0655A4
:100710000000005500C805550000005500B807ABA3
:10072000000000AB00C805550000005500DD045571
:100730000000005500C805550000005500B80755D9
:1007400000000055007D065601000000003F0355E3
:100750000000005500FA0C5500000055003F0355FD
:100760000000005500B9095500000055003F035531
:1007700000000055002D095500000055003F0355AD
:100780000000005500EA0A5500000055003F0355DF
:100790000000005500B909AB0000000000534420E0
:1007A000436172642052656D6F7665640024F404C1
:1007B000D9201BC40C5C0E9804C4095F0265077144
:1007C00001F405F900FB04B30048048700C1036984
:1007D000005803550003034500BE023A008402316D
:1007E0000053022A002902250004022000E4011C13
:1007F00000C8011900AF011700980114008401130B
:1008000000710110006101100051010E0043010D43
:100810000036010B002B010B0020010B0015010914
:10082000000C01090003010800FB000800F30008A8
:1008300000EB000700E4000600DE000600D800061A
:1008400000D2000600CC000500C7000500C200056C
:1008500000BD000400B9000400B5000400B10004AC
:1008600000AD000400A9000400A5000300A20003DD
:10087000009F0004009B0003009800030095000205
:100880000093000300900003008D0002008B000322
:10089000008800020086000200840003008100023C
:1008A000007F0002007D0002007B00020079000250
:1008B000007700010076000200740002007200015F
:1008C00000710002006F0002006D0001006C000268
:1008D000006A000100690002006700010066000173
:1008E0000065000100640002006200010061000177
:1008F00000600001005F0002005D0001005C00017B
:10090000005B0001005A000100590001005800017D
:10091000005700010056000100550001005400017D
:10092000005300000053000100520001005100017B
:1009300000500001004F0001004E0000004E000179
:10094000004D0001004C0001004B0000004B000175
:10095000004A000100490001004800000048000171
:10096000004700010046000000460001004500006D
:100970000045000100440001004300000043000165
:10098000004200000042000100410000004100015F
:1009900000400001003F0000003F0001003E000059
:1009A000003E0001003D0000003D0001003C000051
:1009B000003C0000003C0001003B0000003B000147
:1009C000003A0000003A000100390000003900013F
:1009D0000038000000380000003800010037000037
:1009E000003700010036000000360000003600012C
:1009F0000035000000350000003500010034000023
:100A00000034000000340001003300000033000017
:100A1000003300010032000000320000003200010B
:100A20000031000000310000003100010030000002
:100A30000030000000300001002F0000002F0000F7
:100A4000002F0000002F0001002E0000002E0000EB
:100A5000002E0001002D0000002D0000002D0000E0
:100A6000002D0001002C0000002C0000002C0000D4
:100A7000002C0001002B0000002B0000002B0000C8
:100A8000002B0001002A0000002A0000002A0000BC
:100A9000002A0001002900000029000000290000B0
:100AA00000290000002900010028000000280000A3
:100AB0000028000000280000002800010027000096
:100AC0000027000000270000002700000027000189
:100AD000002600000026000000260000002600007E
:100AE0000026000100250000002500000025000070
:100AF0000025000000250000002500010024000062
:100B00000024000000240000002400000024000154
:100B10000023000000230000002300000023000049
:100B20000023000000230000002300010022000039
:100B3000002200000022000000220000002200002D
:100B4000002200010021000000210000002100001F
:100B50000021000000210000002100000021000110
:100B60000020000000200000002000000020000005
:100B700000200000002000000020000000200001F4
:100B8000001F0000001F0000001F0000001F0000E9
:100B9000001F0000001F0000001F0001001E0000D9
:100BA000001E0000001E0000001E00000024F4D4FF
:100BB0003050C38E20C2A24017828B7011127A91DE
:100BC0000D816CD90AA861E108C7586607615143D5
:100BD000061E4B5D05C145A7041A411104093D9845
:100BE00003713931034036DB0265339102D430544E
:100BF00002802E1D02632CEE01752AC501B028A0CB
:100C000001102781018F2564012B244B01E0223440
:100C100001AC211F018D200D01801FFC00841EED01
:100C200000971DDF00B81CD200E61BC600201BBCCD
:100C300000641AB200B219A8000A19A0006A189933
:100C400000D117910040178B00B516840031167E35
:100C500000B31579003A157300C7146F0058146A71
:100C600000EE1366008813630025135E00C7125B55
:100C7000006C12570015125400C111510070114F31
:100C80000021114B00D61049008D1047004610443A
:100C90000002104200C00F4000800F3E00420F3C97
:100CA00000060F3B00CB0E3800930E37005C0E356C
:100CB00000270E3400F30D3200C10D3100900D30CD
:100CC00000600D2E00320D2D00050D2C00D90C2BCF
:100CD00000AE0C2900850C29005C0C2700350C2780
:100CE000000E0C2600E80B2400C40B2400A00B23EC
:100CF000007D0B23005A0B2100390B2100180B201B
:100D000000F80A1F00D90A1E00BB0A1E009D0A1D1A
:100D100000800A1D00630A1C00470A1B002C0A1BE6
:100D200000110A1A00F7091A00DD091900C409198F
:100D300000AB091900920917007B09180063091715
:100D4000004C09160036091600200916000A09157C
:100D500000F5081500E0081400CC081400B80814C9
:100D600000A4081400900813007D0812006B0813FB
:100D70000058081200460812003408110023081118
:100D8000001208110001081100F0071000E0071020
:100D900000D0071000C0071000B0070F00A1071017
:100DA0000091070E0083070F0074070F0065070E00
:100DB0000057070E0049070E003B070D002E070ED7
:100DC0000020070D0013070D0006070D00F9060CA3
:100DD00000ED060D00E0060C00D4060C00C8060C61
:100DE00000BC060C00B0060C00A4060B0099060C13
:100DF000008D060B0082060B0077060B006C060BBD
:100E00000061060A0057060B004C060A0042060A5B
:100E10000038060A002E060A0024060A001A060AEE
:100E2000001006090007060A00FD050900F405097F
:100E300000EB050900E2050900D9050900D0050904
:100E400000C7050900BE050900B5050800AD050885
:100E500000A50509009C050800940508008C0508FC
:100E600000840508007C050800740508006C05076F
:100E700000650508005D050700560508004E0507DA
:100E80000047050700400508003805070031050741
:100E9000002A050700230507001C050600160507A4
:100EA000000F0507000805060002050700FB040601
:100EB00000F5040700EE040600E8040600E204075B
:100EC00000DB040600D5040600CF040600C90406B2
:100ED00000C3040600BD040600B7040600B1040503
:100EE00000AC040600A6040600A00405009B04064E
:100EF0000095040500900406008A04050085040599
:100F000000800406007A04050075040500700405DD
:100F1000006B04050066040500610405005C04051F
:100F20000057040500520405004D0405004804055F
:100F300000430405003E0404003A0405003504059E
:100F400000300404002C04050027040400230405D9
:100F5000001E0404001A0404001604050011040411
:100F6000000D040400090405000404040000040446
:100F700000FC030400F8030400F4030400F003047D
:100F800000EC030400E8030400E4030400E00304AD
:100F900000DC030400D8030400D4030400D00304DD
:100FA00000CC030400C8030300C50303009502003E
:100FB0000000506C6561736520776169742E2E2E78
:100FC00000840369010000140083048800000014F9
:100FD000008C000000000000000030F8FFFF00005F
:100FE0000000000000008E00000000000000000073
:100FF0000000000000000000000000572904001855
:101000008304DC0500001400901F891F9500000078
:10101000005469676874656E2065616368206F6657
:101020002074686520009501000000746872656591
:10103000206B6E6F627320756E64657220202000D5
:101040009501000000746865206275696C64207009
:101050006C6174666F726D2020009507000000615E
:10106000626F757420666F7572207475726E732E60
:1010700000950000000049276D20676F696E6720AA
:10108000746F206D6F7665206D790095010000000A
:1010900065787472756465722061726F756E642014
:1010A000746F202000950100000064696666657217
:1010B000656E7420706F696E747320736F20009575
:1010C00007000000796F752063616E2063686563B7
:1010D0006B2E2E2E00950000000074686520686558
:1010E000696768742E2041742065616368200095EB
:1010F00001000000706F696E742C206C6F6F736557
:101100006E20746865202020009501000000737037
:1011100065636966696564206B6E6F6220756E74C5
:10112000696C009507000000746865206E6F7A7A1C
:101130006C6520616C6D6F73742E2E2E009500000F
:101140000000746F7563686573207468652062754C
:10115000696C64202020009501000000706C6174AF
:10116000652E20546865206E6F7A7A6C65206973ED
:101170000095010000006174207468652072696741
:10118000687420686569676874200095070000002E
:101190007768656E2061207468696E207069656388
:1011A000652E2E2E0095000000006F662070617085
:1011B00065722077696C6C20736C6964652000959A
:1011C000010000006265747765656E2074686520B3
:1011D0006E6F7A7A6C652020009501000000616EC8
:1011E00064206275696C6420706C61746520776935
:1011F0007468009507000000736F6D652066726962
:101200006374696F6E2E009502000000506C65617A
:10121000736520776169740084036901000014001C
:1012200083048800000014008C000000000000000F
:101230000030F8FFFF00000000000000008E0000FA
:10124000000000000000000000000000000000009E
:10125000000057290400188304DC05000014008CEA
:10126000E5370000941B00000000000000000000B3
:10127000000000008E00000000BE19000000000009
:101280000000000000000000006C692E00189500AE
:1012900000000041646A757374207468652072658B
:1012A0006172206B6E6F62009501000000756E74B4
:1012B000696C207061706572206A757374202020DB
:1012C00020009501000000736C69646573206265FD
:1012D000747765656E2074686520200095070000AE
:1012E000006E6F7A7A6C6520616E6420706C617438
:1012F00065009502000000506C65617365207761A0
:101300006974008E00000000BE190000D0070000C4
:101310000000000000000000E0930400188EA711F8
:10132000000042E6FFFFD0070000000000000000C0
:101330000000802A2D00188EA611000042E6FFFF53
:10134000000000000000000000000000E093040026
:1013500018950000000041646A7573742066726F0E
:101360006E74207269676874202000950100000087
:101370006B6E6F6220756E74696C2070617065723F
:10138000202020200095010000006A7573742073EE
:101390006C69646573206265747765656E2000957D
:1013A000070000006E6F7A7A6C6520616E642070B1
:1013B0006C617465009502000000506C6561736596
:1013C0002077616974008EA711000042E6FFFFD00C
:1013D0000700000000000000000000E09304001877
:1013E0008E59EEFFFF42E6FFFFD00700000000002D
:1013F0000000000000004C1D00188E5AEEFFFF4355
:10140000E6FFFF000000000000000000000000E018
:1014100093040018950000000041646A75737420FD
:1014200066726F6E74206C656674202020009501D2
:101430000000006B6E6F6220756E74696C207061C5
:10144000706572202020200095010000006A7573ED
:101450007420736C69646573206265747765656E6A
:10146000200095070000006E6F7A7A6C6520616E2F
:101470006420706C617465009502000000506C651A
:101480006173652077616974008E59EEFFFF42E653
:10149000FFFFD00700000000000000000000E09304
:1014A00004001895000000004E6F772049276D203A
:1014B000676F696E6720746F2020202000950100FF
:1014C000000073656E64206D7920657874727564B0
:1014D000657220746F20009501000000616C6C2023
:1014E000746872656520636F726E65727320202068
:1014F000009507000000616761696E20746F2072BB
:1015000065636865636B2E009502000000506C6592
:101510006173652077616974008E00000000BE1958
:101520000000D0070000000000000000000080194B
:101530001B00188E00000000BD1900000000000014
:101540000000000000000000E09304001895000077
:10155000000041646A757374207468652072656167
:101560007220202020200095010000006B6E6F6229
:1015700020756E74696C2070617065722020202067
:101580000095010000006A75737420736C696465CE
:1015900073206265747765656E2000950700000012
:1015A0006E6F7A7A6C6520616E6420706C61746510
:1015B000009502000000506C6561736520776169D9
:1015C00074008E00000000BE190000D0070000006B
:1015D00000000000000000E0930400188EF72D00CA
:1015E0000042E6FFFFD007000000000000000000FE
:1015F00000A65D2200188EF82D000043E6FFFF00D4
:101600000000000000000000000000E0930400184B
:10161000950000000041646A7573742066726F6EF5
:101620007420726967687420200095010000006BC7
:101630006E6F6220756E74696C20706170657220C7
:101640002020200095010000006A75737420736CDF
:1016500069646573206265747765656E200095071F
:101660000000006E6F7A7A6C6520616E6420706C89
:10167000617465009502000000506C65617365201F
:1016800077616974008EF72D000042E6FFFFD007F6
:1016900000000000000000000000E0930400188E2D
:1016A00009D2FFFF42E6FFFFD00700000000000064
:1016B00000000000C0C62D00188E08D2FFFF42E6D1
:1016C000FFFF000000000000000000000000E093A9
:1016D000040018950000000041646A757374206668
:1016E000726F6E74206C6566742020200095010076
:1016F00000006B6E6F6220756E74696C2070617093
:101700006572202020200095010000006A75737426
:1017100020736C69646573206265747765656E20FB
:101720000095070000006E6F7A7A6C6520616E6428
:1017300020706C617465009502000000506C65615A
:1017400073652077616974008E09D2FFFF43E6FF5D
:10175000FFD00700000000000000000000E093043C
:1017600000188E0000000000000000D007000000FC
:1017700000000000000000913B1A00188E000000DD
:101780000000000000000000000000000000000059
:1017900000E09304001895000000004E6F77206C65
:1017A0006574277320747269706C65202020200096
:1017B0009501000000636865636B2D2D20706170DA
:1017C00065722073686F756C640095010000006A93
:1017D00075737420736C69646520626574776565E0
:1017E0006E20200095070000006E6F7A7A6C6520ED
:1017F000616E6420706C61746500891F9500000043
:10180000005469676874656E2065616368206F665F
:101810002074686520009501000000746872656599
:10182000206B6E6F627320756E64657220202000DD
:101830009501000000746865206275696C64207011
:101840006C6174666F726D20200095070000006166
:10185000626F757420666F7572207475726E732E68
:1018600000950000000049276D20676F696E6720B2
:10187000746F206D6F7665206D7900950100000012
:1018800065787472756465722061726F756E64201C
:10189000746F20200095010000006469666665721F
:1018A000656E7420706F696E747320736F2000957D
:1018B00007000000796F752063616E2063686563BF
:1018C0006B2E2E2E00950000000074686520686560
:1018D000696768742E2041742065616368200095F3
:1018E00001000000706F696E742C206C6F6F73655F
:1018F0006E20746865202020009501000000737040
:1019000065636966696564206B6E6F6220756E74CD
:10191000696C009507000000746865206E6F7A7A24
:101920006C6520616C6D6F73742E2E2E0095000017
:101930000000746F75636865732074686520627554
:10194000696C64202020009501000000706C6174B7
:10195000652E20546865206E6F7A7A6C65206973F5
:101960000095010000006174207468652072696749
:101970006874206865696768742000950700000036
:101980007768656E2061207468696E207069656390
:10199000652E2E2E0095000000006F66207061708D
:1019A00065722077696C6C20736C696465200095A2
:1019B000010000006265747765656E2074686520BB
:1019C0006E6F7A7A6C652020009501000000616ED0
:1019D00064206275696C6420706C6174652077693D
:1019E0007468009507000000736F6D65206672696A
:1019F0006374696F6E2E009502000000506C656183
:101A00007365207761697400840369010000140024
:101A100083048800000014008C0000000000000017
:101A20000030F8FFFF00000000000000008E000002
:101A300000000000000000000000000000000000A6
:101A4000000057290400188304DC05000014008CF2
:101A5000E5370000941B00000000000000000000BB
:101A6000000000008E11060000BD190000000000FB
:101A7000000000000000000000246129001895000B
:101A800000000041646A7573742074686520726593
:101A90006172206B6E6F62009501000000756E74BC
:101AA000696C207061706572206A757374202020E3
:101AB00020009501000000736C6964657320626505
:101AC000747765656E2074686520200095070000B6
:101AD000006E6F7A7A6C6520616E6420706C617440
:101AE00065009502000000506C65617365207761A8
:101AF0006974008E12060000BE190000D0070000B5
:101B00000000000000000000E0930400188EB817E9
:101B1000000042E6FFFFD0070000000000000000C8
:101B20000000802A2D00188EB817000043E6FFFF42
:101B3000000000000000000000000000E09304002E
:101B400018950000000041646A7573742066726F16
:101B50006E7420726967687420200095010000008F
:101B60006B6E6F6220756E74696C20706170657247
:101B7000202020200095010000006A7573742073F6
:101B80006C69646573206265747765656E20009585
:101B9000070000006E6F7A7A6C6520616E642070B9
:101BA0006C617465009502000000506C656173659E
:101BB0002077616974008EB817000042E6FFFFD0FD
:101BC0000700000000000000000000E0930400187F
:101BD0008E6AF4FFFF42E6FFFFD00700000000001E
:101BE0000000000000004C1D00188E6BF4FFFF4247
:101BF000E6FFFF000000000000000000000000E021
:101C000093040018950000000041646A7573742005
:101C100066726F6E74206C656674202020009501DA
:101C20000000006B6E6F6220756E74696C207061CD
:101C3000706572202020200095010000006A7573F5
:101C40007420736C69646573206265747765656E72
:101C5000200095070000006E6F7A7A6C6520616E37
:101C60006420706C617465009502000000506C6522
:101C70006173652077616974008E6AF4FFFF42E644
:101C8000FFFFD00700000000000000000000E0930C
:101C900004001895000000004E6F772049276D2042
:101CA000676F696E6720746F202020200095010007
:101CB000000073656E64206D7920657874727564B8
:101CC000657220746F20009501000000616C6C202B
:101CD000746872656520636F726E65727320202070
:101CE000009507000000616761696E20746F2072C3
:101CF00065636865636B2E009502000000506C659B
:101D00006173652077616974008E12060000BE1948
:101D10000000D00700000000000000000000801953
:101D20001B00188E11060000BE1900000000000004
:101D30000000000000000000E0930400189500007F
:101D4000000041646A75737420746865207265616F
:101D50007220202020200095010000006B6E6F6231
:101D600020756E74696C207061706572202020206F
:101D70000095010000006A75737420736C696465D6
:101D800073206265747765656E200095070000001A
:101D90006E6F7A7A6C6520616E6420706C61746518
:101DA000009502000000506C6561736520776169E1
:101DB00074008E11060000BE190000D0070000005C
:101DC00000000000000000E0930400188E093400B9
:101DD0000042E6FFFFD00700000000000000000006
:101DE00000A65D2200188E0934000042E6FFFF00C5
:101DF0000000000000000000000000E09304001854
:101E0000950000000041646A7573742066726F6EFD
:101E10007420726967687420200095010000006BCF
:101E20006E6F6220756E74696C20706170657220CF
:101E30002020200095010000006A75737420736CE7
:101E400069646573206265747765656E2000950727
:101E50000000006E6F7A7A6C6520616E6420706C91
:101E6000617465009502000000506C656173652027
:101E700077616974008E0934000042E6FFFFD007E5
:101E800000000000000000000000E0930400188E35
:101E90001AD8FFFF43E6FFFFD00700000000000054
:101EA00000000000C0C62D00188E19D8FFFF42E6C2
:101EB000FFFF000000000000000000000000E093B1
:101EC000040018950000000041646A757374206670
:101ED000726F6E74206C656674202020009501007E
:101EE00000006B6E6F6220756E74696C207061709B
:101EF0006572202020200095010000006A7573742F
:101F000020736C69646573206265747765656E2003
:101F10000095070000006E6F7A7A6C6520616E6430
:101F200020706C617465009502000000506C656162
:101F300073652077616974008E1AD8FFFF42E6FF4F
:101F4000FFD00700000000000000000000E0930444
:101F500000188E1106000000000000D007000000ED
:101F600000000000000000913B1A00188E120600CD
:101F70000000000000000000000000000000000061
:101F800000E09304001895000000004E6F77206C6D
:101F90006574277320747269706C6520202020009E
:101FA0009501000000636865636B2D2D20706170E2
:101FB00065722073686F756C640095010000006A9B
:101FC00075737420736C69646520626574776565E8
:101FD0006E20200095070000006E6F7A7A6C6520F5
:101FE000616E6420706C61746500891F9900000047
:101FF0000052657047204275696C64009600FF8648
:102000000088001F026E0088011F026E0086008893
:10201000000302DC00860188010302DC00840369FE
:10202000010000140083048800000014008C0000EC
:1020300000000000000030F8FFFF0000000000007A
:1020400000008E0000000000000000000000000002
:102050000000000000000057290400188304DC057C
:1020600000001400901F8E1E23000028E5FFFF6073
:10207000EA000000000000000000009B176200184A
:1020800091000091010091030091040086008600F8
:1020900087006400FFFF8D006400FFFF860186015A
:1020A00087016400FFFF8D006400FFFF91007F91B6
:1020B000017F91037F91047F8E1F23000028E5FF9D
:1020C000FFC80000000000000000000000E6C3613F
:1020D000001888010A010388010401FF8E1E2300F5
:1020E0000027E5FFFFC8000000000000007FFEFFA2
:1020F000FF003E4900188C1E23000028E5FFFFC8A2
:10210000000000000000008101000086008E31E028
:10211000FFFFB8E9FFFF68010000000000000000B9
:102120000000229C3200188E31E0FFFFB7E9FFFF6C
:1021300068010000E3FFFFFF000000001C580000E2
:102140001889888E31E0FFFFB7E9FFFFF00000003B
:10215000EDFFFFFF0000000060180000188E31E066
:10216000FFFFB7E9FFFFF0000000E3FFFFFF000003
:102170000000F22B0000188E7BD1FFFFB7E9FFFFB4
:10218000F00000009CFEFFFF00000000862F3000E2
:10219000188E31E0FFFF6EEDFFFFF0000000300011
:1021A00000000000000012720B00188E31E0FFFFEB
:1021B0006EEDFFFFF0000000E3FFFFFF00000000F6
:1021C000F12B0000188E29D5FFFF6EEDFFFFF00008
:1021D00000009CFEFFFF00000000A5232400188ED5
:1021E00030E0FFFF25F1FFFFF000000030000000AD
:1021F0000000000031C80800188E31E0FFFF24F114
:10220000FFFFF0000000E3FFFFFF00000000F12BE4
:102210000000188E29D5FFFF25F1FFFFF000000018
:102220009CFEFFFF00000000A5232400188E31E073
:10223000FFFFDCF4FFFFF0000000300000000000B2
:10224000000031C80800188E31E0FFFFDBF4FFFF0B
:10225000F0000000E3FFFFFF00000000F22B000091
:10226000188E29D5FFFFDCF4FFFFF00000009CFE74
:10227000FFFF00000000A5232400188E31E0FFFFBF
:1022800092F8FFFFF00000003000000000000000A6
:1022900031C80800188E31E0FFFF93F8FFFFF0000F
:1022A0000000E3FFFFFF00000000F22B0000188E8B
:1022B00028D5FFFF92F8FFFFF00000009CFEFFFF13
:1022C00000000000A5232400188E31E0FFFF49FC28
:1022D000FFFFF0000000300000000000000031C8E7
:1022E0000800188E31E0FFFF49FCFFFFF0000000FE
:1022F000E3FFFFFF00000000F22B0000188E29D53D
:10230000FFFF4AFCFFFFF00000009CFEFFFF000003
:102310000000A5232400188E31E0FFFF000000001C
:10232000F0000000300000000000000031C808008C
:10233000188E31E0FFFF00000000F0000000E3FF16
:10234000FFFF00000000F22B0000188E28D5FFFFD1
:1023500000000000F00000009CFEFFFF00000000F5
:10236000A5232400188E31E0FFFFB6030000F00023
:102370000000300000000000000031C80800188E86
:1023800031E0FFFFB7030000F0000000E3FFFFFFB4
:1023900000000000F22B0000188E29D5FFFFB703C4
:1023A0000000F00000009CFEFFFF00000000A523DD
:1023B0002400188E31E0FFFF6E070000F0000000DF
:1023C000300000000000000031C80800188E31E025
:1023D000FFFF6D070000F0000000E3FFFFFF0000BB
:1023E0000000F22B0000188E28D5FFFF6E070000BA
:1023F000F00000009CFEFFFF00000000A523240069
:10240000188E31E0FFFF240B0000F00000003000C8
:1024100000000000000031C80800188E31E0FFFF06
:10242000250B0000F0000000E3FFFFFF00000000AC
:10243000F12B0000188E29D5FFFF240B0000F000BF
:1024400000009CFEFFFF00000000A5232400188E62
:1024500031E0FFFFDB0E0000F00000003000000064
:102460000000000031C80800188E31E0FFFFDC0ECC
:102470000000F0000000E3FFFFFF00000000F12B70
:102480000000188E29D5FFFFDB0E0000F0000000D1
:102490009CFEFFFF00000000A5232400188E30E002
:1024A000FFFF92120000F00000003000000000006A
:1024B000000031C80800188E31E0FFFF92120000C2
:1024C000F0000000E3FFFFFF00000000F12B000020
:1024D000188E29D5FFFF92120000F00000009CFE2C
:1024E000FFFF00000000A5232400188E31E0FFFF4D
:1024F00049160000F000000030000000000000005D
:1025000031C80800188E31E0FFFF49160000F000C6
:102510000000E3FFFFFF00000000F12B0000188E19
:1025200029D5FFFF49160000F00000009CFEFFFFC8
:1025300000000000A5232400188EAEEEFFFFA5F8D2
:10254000FFFF68010000300000000000000018825A
:102550001D00188EAEEEFFFFA5F8FFFFF000000093
:10256000D0FFFFFF00000000AE250000188EAEEE89
:10257000FFFFA5F8FFFFF0000000E3FFFFFF0000F2
:102580000000F12B0000188EAEEEFFFF5B0700008D
:10259000F00000009CFEFFFF00000000862F3000CE
:1025A000188E65F2FFFFA5F8FFFFF0000000300075
:1025B00000000000000012720B00188E64F2FFFF92
:1025C000A5F8FFFFF0000000E3FFFFFF00000000A0
:1025D000F12B0000188E65F2FFFFAE030000F00043
:1025E00000009CFEFFFF00000000A5232400188EC1
:1025F0001CF6FFFFA5F8FFFFF00000003000000010
:102600000000000031C80800188E1CF6FFFFA5F876
:10261000FFFFF0000000E3FFFFFF00000000F12BD0
:102620000000188E1BF6FFFFAE030000F000000054
:102630009CFEFFFF00000000A5232400188ED3F9A4
:10264000FFFFA5F8FFFFF0000000300000000000D1
:10265000000031C80800188ED2F9FFFFA5F8FFFF6F
:10266000F0000000E3FFFFFF00000000F12B00007E
:10267000188ED3F9FFFFAE030000F00000009CFEAF
:10268000FFFF00000000A5232400188E89FDFFFF36
:10269000A5F8FFFFF000000030000000000000007F
:1026A00031C80800188E89FDFFFFA5F8FFFFF00074
:1026B0000000E3FFFFFF00000000F12B0000188E78
:1026C00089FDFFFFAD030000F00000009CFEFFFF4E
:1026D00000000000A5232400188E40010000A6F889
:1026E000FFFFF0000000300000000000000031C8D3
:1026F0000800188E40010000A5F8FFFFF000000060
:10270000E4FFFFFF00000000F12B0000188E4101E4
:102710000000AD030000F00000009BFEFFFF000082
:102720000000A5232400188EF6040000A5F8FFFF82
:10273000F0000000300000000000000031C8080078
:10274000188EF7040000A6F8FFFFF0000000E4FF79
:10275000FFFF00000000F12B0000188EF7040000BE
:10276000AD030000F00000009BFEFFFF0000000032
:10277000A5232400188EAE080000A5F8FFFFF00086
:102780000000300000000000000031C80800188E72
:10279000AE080000A5F8FFFFF0000000E4FFFFFF17
:1027A00000000000F12B0000188EAD080000AE0301
:1027B0000000F00000009BFEFFFF00000000A523CA
:1027C0002400188E650C0000A5F8FFFFF000000043
:1027D000300000000000000031C80800188E640CB2
:1027E0000000A5F8FFFFF0000000E4FFFFFF00007D
:1027F0000000F12B0000188E650C0000AE030000F5
:10280000F00000009BFEFFFF00000000A523240055
:10281000188E1B100000A5F8FFFFF000000031002B
:1028200000000000000031C80800188E1B100000D6
:10283000A5F8FFFFF0000000E3FFFFFF000000002D
:10284000F12B0000188E1C100000AD030000F000FA
:1028500000009BFEFFFF00000000A5232400188E4F
:10286000D2130000A6F8FFFFF000000031000000C6
:102870000000000031C80800188ED2130000A5F82F
:10288000FFFFF0000000E3FFFFFF00000000F12B5E
:102890000000188ED2130000AD030000F00000000D
:1028A0009BFEFFFF00000000A5232400188E89175F
:1028B0000000A5F8FFFFF00000003100000000005C
:1028C000000031C80800188E89170000A6F8FFFF25
:1028D000F0000000E3FFFFFF00000000F12B00000C
:1028E000188E89170000AD030000F00000009CFE68
:1028F000FFFF00000000A5232400188E401B0000ED
:10290000A5F8FFFFF000000030000000000000000C
:1029100031C80800188E401B0000A5F8FFFFF0002A
:102920000000E3FFFFFF00000000F12B0000188E05
:102930003F1B0000AE030000F00000009CFEFFFF04
:1029400000000000A5232400188E401B0000AD03EA
:102950000000F00000003000000000000000D992EC
:102960000000188908860189188C401B0000AD03FF
:102970000000F000000000000000810100008E5403
:10298000ECFFFFF0E9FFFF6801000000000000001D
:10299000000000A3602800188E53ECFFFFEFE9FF52
:1029A000FF680100000000000064010000B33E0465
:1029B000001889908E54ECFFFFF0E9FFFFF0000053
:1029C0000000000000EDFFFFFF60180000188E53AC
:1029D000ECFFFFF0E9FFFFF000000000000000E363
:1029E000FFFFFFF22B0000188E5CF7FFFFEFE9FFFF
:1029F000FFF0000000000000009CFEFFFFA5232464
:102A000000188E53ECFFFF9DEDFFFFF0000000006B
:102A100000000030000000EFC50800188E54ECFFE5
:102A2000FF9DEDFFFFF000000000000000E3FFFF4E
:102A3000FFF12B0000188E5CF7FFFF9DEDFFFFF00C
:102A4000000000000000009CFEFFFFA523240018EA
:102A50008E53ECFFFF4BF1FFFFF000000000000081
:102A60000030000000EFC50800188E54ECFFFF4A4C
:102A7000F1FFFFF000000000000000E3FFFFFFF1A6
:102A80002B0000188E5BF7FFFF4BF1FFFFF00000FB
:102A900000000000009CFEFFFFA5232400188E54B8
:102AA000ECFFFFF7F4FFFFF0000000000000003033
:102AB000000000EFC50800188E53ECFFFFF8F4FF8C
:102AC000FFF000000000000000E3FFFFFFF22B001A
:102AD00000188E5CF7FFFFF8F4FFFFF00000000025
:102AE0000000009CFEFFFFA5232400188E54ECFF7D
:102AF000FFA5F8FFFFF0000000000000003000001C
:102B000000EFC50800188E53ECFFFFA5F8FFFFF09B
:102B100000000000000000E3FFFFFFF22B000018A0
:102B20008E5CF7FFFFA6F8FFFFF00000000000003A
:102B3000009CFEFFFFA5232400188E53ECFFFF52DC
:102B4000FCFFFFF00000000000000030000000EF7C
:102B5000C50800188E54ECFFFF53FCFFFFF0000087
:102B60000000000000E3FFFFFFF22B0000188E5C66
:102B7000F7FFFF52FCFFFFF0000000000000009C88
:102B8000FEFFFFA5232400188E53ECFFFF0000007A
:102B900000F00000000000000030000000EFC50859
:102BA00000188E54ECFFFF00000000F00000000051
:102BB000000000E3FFFFFFF22B0000188E5BF7FF21
:102BC000FF00000000F0000000000000009CFEFF7D
:102BD000FFA5232400188E54ECFFFFAE030000F085
:102BE0000000000000000030000000EFC5080018E1
:102BF0008E53ECFFFFAD030000F00000000000006A
:102C000000E3FFFFFFF22B0000188E5CF7FFFFAE22
:102C1000030000F0000000000000009CFEFFFFA584
:102C2000232400188E54ECFFFF5A070000F0000028
:102C3000000000000030000000EFC50800188E53AF
:102C4000ECFFFF5B070000F000000000000000E365
:102C5000FFFFFFF22B0000188E5CF7FFFF5B070001
:102C600000F0000000000000009CFEFFFFA52324F0
:102C700000188E54ECFFFF080B0000F0000000006D
:102C800000000030000000EFC50800188E53ECFF74
:102C9000FF080B0000F000000000000000E3FFFF51
:102CA000FFF12B0000188E5CF7FFFF090B0000F00E
:102CB000000000000000009CFEFFFFA52324001878
:102CC0008E53ECFFFFB50E0000F000000000000086
:102CD0000030000000EFC50800188E54ECFFFFB66E
:102CE0000E0000F000000000000000E3FFFFFFF115
:102CF0002B0000188E5CF7FFFFB50E0000F00000FF
:102D000000000000009CFEFFFFA5232400188E5346
:102D1000ECFFFF63120000F0000000000000003034
:102D2000000000EFC50800188E54ECFFFF6312008E
:102D300000F000000000000000E3FFFFFFF12B00A7
:102D400000188E5BF7FFFF63120000F00000000028
:102D50000000009CFEFFFFA5232400188E54ECFF0A
:102D6000FF11160000F0000000000000003000001D
:102D700000EFC50800188E53ECFFFF10160000F09E
:102D800000000000000000E3FFFFFFF12B0000182F
:102D90008E5CF7FFFF10160000F00000000000003E
:102DA000009CFEFFFFA5232400188E09FBFFFF9D5A
:102DB000EDFFFF680100000000000030000000BED1
:102DC000A41E00188E09FBFFFF9DEDFFFFF0000021
:102DD0000000000000D0FFFFFFAE250000188E09A4
:102DE000FBFFFF9DEDFFFFF000000000000000E38F
:102DF000FFFFFFF12B0000188E0AFBFFFFA6F8FF74
:102E0000FFF0000000000000009CFEFFFFA523244F
:102E100000188EB6FEFFFF9DEDFFFFF000000000E2
:102E200000000030000000EFC50800188EB7FEFF5C
:102E3000FF9DEDFFFFF000000000000000E3FFFF3A
:102E4000FFF12B0000188EB6FEFFFFA5F8FFFFF084
:102E5000000000000000009CFEFFFFA523240018D6
:102E60008E640200009DEDFFFFF0000000000000F6
:102E70000030000000EFC50800188E640200009DBD
:102E8000EDFFFFF000000000000000E3FFFFFFF196
:102E90002B0000188E64020000A5F8FFFFF0000070
:102EA00000000000009CFEFFFFA5232400188E11E7
:102EB0000600009DEDFFFFF0000000000000003064
:102EC000000000EFC50800188E110600009DEDFF00
:102ED000FFF000000000000000E3FFFFFFF12B0007
:102EE00000188E12060000A5F8FFFFF00000000099
:102EF0000000009CFEFFFFA5232400188EBE0900E1
:102F0000009DEDFFFFF00000000000000030000019
:102F100000EFC50800188EBF0900009DEDFFFFF00F
:102F200000000000000000E3FFFFFFF12B0000188D
:102F30008EBF090000A6F8FFFFF0000000000000AF
:102F4000009CFEFFFFA5232400188E6C0D00009D41
:102F5000EDFFFFF00000000000000030000000EF77
:102F6000C50800188E6C0D00009DEDFFFFF00000FD
:102F70000000000000E4FFFFFFF12B0000188E6C42
:102F80000D0000A5F8FFFFF0000000000000009B0E
:102F9000FEFFFFA5232400188E1A1100009DEDFFEF
:102FA000FFF00000000000000030000000EFC50846
:102FB00000188E191100009DEDFFFFF000000000C9
:102FC000000000E4FFFFFFF12B0000188E1A110033
:102FD00000A5F8FFFFF0000000000000009BFEFFCE
:102FE000FFA5232400188EC61400009DEDFFFFF0FE
:102FF0000000000000000030000000EFC5080018CD
:103000008EC71400009DEDFFFFF0000000000000DF
:1030100000E4FFFFFFF12B0000188EC7140000A58D
:10302000F8FFFFF0000000000000009BFEFFFFA57E
:10303000232400188E751800009DEDFFFFF000009E
:10304000000000000030000000EFC50800188E747A
:103050001800009DEDFFFFF000000000000000E4FC
:10306000FFFFFFF12B0000188E74180000A6F8FF78
:10307000FFF0000000000000009BFEFFFFA52324DE
:1030800000188E221C00009DEDFFFFF000000000E4
:1030900000000031000000EFC50800188E221C005F
:1030A000009DEDFFFFF000000000000000E3FFFFC7
:1030B000FFF12B0000188E211C0000A5F8FFFFF087
:1030C000000000000000009BFEFFFFA52324001865
:1030D0008ECF1F00009DEDFFFFF0000000000000FC
:1030E0000031000000EFC50800188ECF1F00009DC2
:1030F000EDFFFFF000000000000000E3FFFFFFF124
:103100002B0000188ECF1F0000A5F8FFFFF0000075
:1031100000000000009BFEFFFFA5232400188E7D09
:103120002300009DEDFFFFF00000000000000031D3
:10313000000000EFC50800188E7C2300009DEDFF05
:10314000FFF000000000000000E3FFFFFFF12B0094
:1031500000188E7D230000A5F8FFFFF0000000009E
:103160000000009CFEFFFFA5232400188E2A2700E4
:10317000009DEDFFFFF000000000000000300000A7
:1031800000EFC50800188E2A2700009DEDFFFFF014
:1031900000000000000000E3FFFFFFF12B0000181B
:1031A0008E2A270000A6F8FFFFF0000000000000B4
:1031B000009CFEFFFFA52324001889108E292700FC
:1031C00000A5F8FFFF30F200000000000000000042
:1031D0000036F864001888010A010288010401FF22
:1031E000891F86008800030200008601880103020F
:1031F0000000860088001F02000088011F020000F6
:10320000891F5F00F0071612000020202052657011
:103210006C696361746F72203220202020200020AE
:10322000202D2D2D2D2D2D2D2D2D2D2D2D2D2D20E8
:1032300020202000496E7465726E616C2052656CAE
:103240006561736520202020004669726D77617288
:10325000652056657273696F6E20352E2000436FAE
:103260006F6C2100537461727420507265686561DF
:10327000742100526967687420546F6F6C004E416E
:1032800020004F4E20004F4646004578747275640A
:103290006572004C65667420546F6F6C00506C61F1
:1032A00074666F726D0057656C636F6D65212020C9
:1032B0002020202020202020202049276D2052651A
:1032C000706C696361746F7220322E2020205072FE
:1032D0006573732074686520726564204D20746F77
:1032E00020206765742073746172746564212020E6
:1032F000202020202020004120626C696E6B696EC6
:103300006720274D27206D65616E7349276D2077F3
:10331000616974696E6720616E642077696C6C63A3
:103320006F6E74696E7565207768656E20796F754C
:103330002020207072657373207468652062757434
:10334000746F6E2E2E2E20004120736F6C696420E6
:10335000274D27206D65616E7320202049276D2041
:10336000776F726B696E6720616E642077696C6C31
:10337000757064617465206D792073746174757300
:10338000202020207768656E2049276D2066696EB1
:1033900069736865642E2E2E004F7572206E6578F5
:1033A000742073746570732077696C6C2067657422
:1033B000206D6520736574207570212020202020E9
:1033C0002046697273742C207765276C6C207265B7
:1033D00073746F72656D79206275696C6420706CAE
:1033E0006174666F726D2E2E2E00736F20697427C4
:1033F00073206E69636520616E64202020206C65F7
:1034000076656C2E20497427732070726F6261623A
:103410006C796120626974206F66662066726F6DD8
:103420002020202020207368697070696E672E2E1E
:103430002E20202020202020202000416161682CA7
:103440002074686174206665656C73202020206D8F
:10345000756368206265747465722E2020202020B8
:103460002020204C6574277320676F206F6E2061C9
:103470006E64206C6F6164736F6D6520706C617336
:103480007469632120202020202020005765276CAC
:103490006C2074727920616761696E212020202080
:1034A000202020202020202020202020202020201C
:1034B000202020202020202020202020202020200C
:1034C00020202020202020202020202020202020FC
:1034D0002020202020202020202020200057652789
:1034E0006C6C206B65657020676F696E67202020AB
:1034F00020616E64206C6F616420736F6D652020A5
:103500002020202020706C61737469632120466F35
:10351000722068656C7020676F746F206D616B65D9
:1035200072626F742E636F6D2F68656C70005765E3
:10353000276C6C20676F20746F20746865206D6144
:10354000696E6D656E752E20496620796F75206EE7
:1035500065656420202068656C7020676F20746F3B
:103560003A2020202020202020206D616B6572628F
:103570006F742E636F6D2F68656C70202020004182
:103580007765736F6D65212020202020202020206A
:103590002020205765276C6C20676F20746F207483
:1035A0006865205344202063617264206D656E75E8
:1035B00020616E6420796F7520202063616E207316
:1035C000656C6563742061206D6F64656C212000FB
:1035D00049276D20676F696E6720746F206D616B7E
:1035E000652020206120736572696573206F6620F5
:1035F0006C696E657320736F77652063616E2066FA
:10360000696E64206D792020202020206E6F7A7AE8
:103610006C6520616C69676E6D656E742E2020206C
:10362000004C6F6F6B20666F722074686520626556
:1036300073742020206D617463686564206C696E0A
:103640006520696E206561636861786973207365C0
:10365000742E204C696E657320617265206E756DE5
:10366000626572656420312D313320616E642E2EC7
:103670002E006C696E65206F6E6520697320657819
:103680007472612020206C6F6E672E205468652054
:10369000592061786973207365746973206C65665D
:1036A00074206F6E2074686520706C617465616E43
:1036B0006420582061786973206973207269676893
:1036C000742E004772656174212020492776652099
:1036D0007361766564202074686573652073657412
:1036E00074696E677320616E64202049276C6C20BA
:1036F000757365207468656D20746F202020206DBF
:10370000616B65206E696365206D6F64656C732104
:103710002020200053656C656374206265737420FB
:103720006C696E65732E00582041786973204C696E
:103730006E65002D2D3E0020202000592041786923
:1037400073204C696E6500446F6E6521004D7920D1
:1037500074656D7065726174757265207761732030
:10376000206368616E6765642065787465726E6158
:103770006C6C792E20526573656C65637420666984
:103780006C616D656E742020206D656E7520746FA0
:103790002074727920616761696E2E004D79206511
:1037A00078747275646572732061726520202020C0
:1037B0006E6F742068656174696E672075702E2065
:1037C00020202020436865636B206D792020202015
:1037D0002020202020202020636F6E6E6563746996
:1037E0006F6E732120202020202020200049276D8B
:1037F0002068656174696E67207570206D7920207E
:1038000020657874727564657220736F2077652007
:1038100063616E20206C6F61642074686520666946
:103820006C616D656E742E20204265206361726547
:1038300066756C2C207468652E2E2E20200049277A
:103840006D2068656174696E67207570206D7920E0
:103850002020657874727564657220736F207765B7
:103860002063616E20206C6F61642074686520663F
:10387000696C616D656E742E2020426520636172F3
:103880006566756C2C207468652E2E2E20200049EC
:10389000276D2068656174696E67207570206D7989
:1038A00020202065787472756465722120202020A4
:1038B00020202020202020506C65617365207761D6
:1038C00069742E202020202020202020202020204D
:1038D0002020202020202020202020202020200008
:1038E0006E6F7A7A6C652077696C6C2067657420DE
:1038F000686F74215768696C652049276D20686579
:103900006174696E672C202072656D6F7665207416
:1039100068652066696C616D656E7420747562659A
:103920002066726F6D207468652E2E2E2020202058
:10393000006E6F7A7A6C652077696C6C20676574AD
:1039400020686F74215768696C652049276D20686D
:10395000656174696E672C202072656D6F766520D5
:103960007468652066696C616D656E74207475623B
:10397000652066726F6D207468652E2E2E202020C3
:103980002000657874727564657220626C6F636B79
:103990002E204665656466696C616D656E7420668F
:1039A000726F6D2074686520202073706F6F6C20BB
:1039B0007468726F7567682074686520202074755C
:1039C000626520756E74696C2069742E2E2E20201D
:1039D000202000706F7073206F757420696E2066F0
:1039E000726F6E742E20205768656E207468652093
:1039F00066696C616D656E74206973726561647966
:103A00002C20707265737320274D2720746F2063FC
:103A10006F6E74696E75652E202020202020202076
:103A20002020200048656174696E672050726F67BE
:103A3000726573733A20202020202020202020202F
:103A40002020202020202020202020202020202076
:103A50002020202020202020202020202020202066
:103A60002020202020202020202020202020202056
:103A700020202020004F4B2049276D207265616473
:103A8000792120202020202020466972737420771D
:103A900065276C6C206C6F6164207468657269675F
:103AA00068742065787472756465722E20202020F9
:103AB00020507573682066696C616D656E7420694D
:103AC0006E2E2E2E2000477265617421204E6F7776
:103AD000207765276C6C202020206C6F6164207437
:103AE0006865206C65667420202020202020657881
:103AF0007472756465722E205075736820202020C2
:103B0000202066696C616D656E74207468726F75D3
:103B100067682E2E2E20004F4B2049276D2072659E
:103B20006164792120202020202020507573682096
:103B30007468652066696C616D656E742020206410
:103B40006F776E207468726F7567682E2E2E202036
:103B50002020202020202020202020202020202065
:103B600020202020202020004F4B2049276D20724C
:103B7000656164792120202020202020506F702052
:103B800074686520677569646520747562652020B6
:103B90006F666620616E6420707573682074686556
:103BA0002020202066696C616D656E7420746872D7
:103BB0006F7567682E2E2E20004F4B2049276D20F1
:103BC00072656164792120202020202020506F70B0
:103BD0002074686520677569646520747562652066
:103BE000206F666620616E642070756C6C202020EA
:103BF000202020202066696C616D656E74206765E9
:103C00006E746C792E2E2E202000746865206578E5
:103C100074727564657220626C6F636B2020756EC0
:103C200074696C20796F75206665656C20746865B1
:103C300020206D6F746F722074756767696E6720DE
:103C4000746865202020706C617374696320696EEC
:103C50002E2E2E20202020202020005768656E2048
:103C600066696C616D656E74206973202020206523
:103C70007874727564696E67206F7574206F662042
:103C80007468656E6F7A7A6C652C205072657373F8
:103C900020274D27202020746F2073746F702065BB
:103CA0007874727564696E672E2020005768656E9F
:103CB0002066696C616D656E742069732020202018
:103CC000657874727564696E67206F7574206F66AD
:103CD000207468656E6F7A7A6C652C2050726573FB
:103CE0007320274D27202020746F20657869742069
:103CF0002020202020202020202020200057686520
:103D00006E206D792066696C616D656E74206973D3
:103D10002072656C65617365642C20202020202052
:103D20002020202020507265737320274D27207497
:103D30006F20657869742E202020202020202020EC
:103D4000202020202020202020202020200047721A
:103D500065617421202049276C6C2073746F70207A
:103D6000202072756E6E696E67206D79206578749B
:103D700072756465722E5072657373204D20746F76
:103D800020636F6E74696E75652E202020202020C0
:103D90002020202020202020202020202020004F14
:103DA0004B212049276C6C206B656570206D792054
:103DB0002020206D6F746F722072756E6E696E6751
:103DC0002E20596F7520206D6179206E6565642005
:103DD000746F20707573682020202068617264659C
:103DE000722E2E2E20202020202020202020200077
:103DF0005765276C6C206B65657020676F696E670F
:103E00002E2020204C6574732074727920746865AC
:103E1000206C656674202020657874727564657204
:103E20002E205075736820202020202066696C6148
:103E30006D656E7420646F776E2E2E2E20202020EC
:103E4000005765276C6C206B65657020676F696E25
:103E5000672E202020496620796F752772652068BB
:103E60006176696E672020202074726F75626C65C0
:103E70002C20636865636B206F757420206D616B07
:103E80006572626F742E636F6D2F68656C70202091
:103E900020004D79206D6F746F722074696D6564B8
:103EA000206F7574202061667465722035206D69FD
:103EB0006E757465732E20202020507265737320F8
:103EC0004D20746F20657869742E202020202020DA
:103ED00020202020202020202020202020202020E2
:103EE000202000486F77276420697420676F3F2087
:103EF0005265616479202000746F206D616B6520CC
:103F0000736F6D657468696E673F20200059657333
:103F1000202020004E6F2020202000446F65732059
:103F20006D79206E6F7A7A6C650068656967687470
:103F300020636865636B206F75743F004D7920685E
:103F4000656967687420697320676F6F6421004C2E
:103F5000657427732074727920616761696E2E0021
:103F600044696420706C617374696320657874724D
:103F7000756465200066726F6D20746865206E6FD1
:103F80007A7A6C653F00556E6C6F61642072696768
:103F9000687400556E6C6F6164004C6F6164206CD6
:103FA00065667400556E6C6F6164206C65667400A4
:103FB0004C6F6164207269676874004C6F616400C3
:103FC00020202020204A6F67206D6F64652020200C
:103FD00020202020002020202020202020582B20BE
:103FE00020202020202020202000202020202020F1
:103FF000284261636B29202020592D3E202000207B
:1040000020202020202020582D202020202020206B
:10401000202020002020202020202020592B20207C
:1040200020202020202020200020203C2D58202847
:104030004261636B2920205A2D3E20202000202041
:10404000202020202020592D20202020202020202A
:1040500020200020202020202020205A2D20202039
:10406000202020202020200020203C2D59202842E4
:1040700061636B2920202020202020200020202088
:1040800020202020205A2B202020202020202020EB
:10409000200047414D45204F56455221004865615B
:1040A00074696E673A2020202020202020202020C4
:1040B000200048656174696E673A00202D2D250047
:1040C0006572726F72210020202020202020202085
:1040D00020202020202020202020200045787472DD
:1040E000756465723A2020202D2D2D2F2D2D2D4306
:1040F00000522045787472756465723A202D2D2D1A
:104100002F2D2D2D43004C204578747275646572F7
:104110003A202D2D2D2F2D2D2D4300506C617466CE
:104120006F726D3A2020202D2D2D2F2D2D2D430027
:1041300020204E41202020200077616974696E673D
:1041400020002F202020430043202020200020504A
:104150007265686561742053657474696E67732055
:10416000202000526967687420546F6F6C202020F3
:1041700020202020202020004C65667420546F6F82
:104180006C202020202020202020202000506C6146
:1041900074666F726D202020202020202000205285
:1041A000657365742053657474696E677320746FEA
:1041B0002020002044656661756C742076616C7502
:1041C00065733F004275696C642053746174697350
:1041D0007469637320202000556E506175736520EB
:1041E00020202020202020202020200050617573D6
:1041F000652020202020202020202020202020009A
:1042000043616E63656C204275696C6420202020D8
:10421000202020004368616E67652046696C616DEF
:10422000656E742020202000536C65657020284343
:104230006F6C642050617573652920005265737539
:104240006D65204275696C642020202020202000AC
:104250004C454420436F6C6F72202020202020208A
:1042600020202000524544202020004F52414E473C
:1042700045200050494E4B202000475245454E20D6
:1042800000424C5545202000505552504C45005797
:10429000484954452000435553544F4D004F46461E
:1042A0002020200046696C616D656E742046616E49
:1042B0002020202020202020004261636B20746F8A
:1042C000204D6F6E69746F72202020200042756946
:1042D0006C642046696E6973686564212020202023
:1042E00020202020202020202020202020202020CE
:1042F00020202020204275696C642054696D65205F
:1043000020202020206820206D004275696C6420E8
:1043100054696D653A20202020206820206D004CD3
:10432000696E653A20202020202020202020202097
:1043300020202000457374696D61746564204275A6
:10434000696C642054696D654C69666574696D6556
:1043500020546F74616C3A2020202068004C6173F7
:1043600074204275696C643A202020202068202047
:104370006D0043616E63656C2074686973206275BB
:10438000696C643F005175697420746869732070AA
:10439000726F636573733F004275696C6420667267
:1043A0006F6D20534420202020202000507265682B
:1043B0006561742020202020202020202020200043
:1043C0005574696C69746965732020202020202051
:1043D00020202000496E666F20616E642053657452
:1043E00074696E67732020004D6F6E69746F722060
:1043F0004D6F646520202020202020004368616EDE
:1044000067652046696C616D656E74202020200010
:104410004C6576656C204275696C6420506C6174E3
:10442000652020004A6F67204D6F646520202020A2
:104430002020202020202000486F6D6520417865D5
:1044400073202020202020202020200052756E2064
:1044500053746172747570205363726970742000B4
:10446000456E61626C65205374657070657273206F
:104470002020200044697361626C6520537465706C
:10448000706572732020200053746F7020426C6935
:104490006E6B696E6721202020202000426C696EBF
:1044A0006B204C4544732020202020202020200019
:1044B00065786974206D656E75202020202020208D
:1044C00020202000426F74205374617469737469F2
:1044D000637320202020200047656E6572616C2088
:1044E00053657474696E677320202000507265688C
:1044F0006561742053657474696E677320202000B1
:1045000056657273696F6E204E756D6265722020FC
:1045100020202000526573746F72652044656661C7
:10452000756C747320202000536F756E64202020FA
:104530002020202020202020202020004865617499
:10454000656420506C61746500546F6F6C20436F1C
:10455000756E742020202020202020200053494EFA
:10456000474C45004455414C20200048656174206B
:104570004C4544732020202020202020202000486B
:10458000656C702054657874202020202020202025
:10459000202000416363656C657261746520202092
:1045A000202020202020004E6F2053442063617281
:1045B0006420666F756E64005344206361726420EA
:1045C00072656164206572726F7200492063616E6A
:1045D00027742072656164207468697320202053F9
:1045E00044206361726420666F726D6174212020C3
:1045F000202020547279207265666F726D61747428
:10460000696E6720202020746865206361726420D1
:10461000746F2046415431362E2000492063616E6C
:104620002774207265616420534420092020206390
:104630006172647320776974682073746F72616744
:104640006520206C6172676572207468616E20322B
:1046500047422E2020202020202020202020202003
:10466000202020202020202020002053442063618F
:1046700072642072656164206572726F72002049F5
:10468000276D20616C7265616479206275696C6464
:10469000696E67005761726E696E673A4275696C40
:1046A00064207370656564736661737465722074E9
:1046B00068616E2035306D6D2F73202072657175C5
:1046C0006972652073346720666F726D6174202093
:1046D000666F72206265737420726573756C747393
:1046E0002E20202000010049033600FF006B00D17E
:1046F00000A000B800D500A6000A0199003F018E75
:104700000074018400A9017C00DE01740013026CB6
:1047100000480265007D025D00B2025600E7024ECD
:10472000001C03460051033D0086033200BB0322F8
:1047300000F0030300D0FEC0FF18FFD0FF63FFE0CE
:10474000FFB1FFF0FF0000000051001000A40020A6
:1047500000F800300040014000A2015000F7016065
:10476000004B0270009F028000F20290004503A0FF
:10477000009703B000E803C0003A04D0008C04E0C6
:1047800000DF04F0003205000186051001DB052082
:10479000012F063001DA06500130076001860770EC
:1047A00001DC078001680890012039C9FFE03CE77F
:1047B000FFF83F000000000000080000002003197F
:1047C000004006320060094B00000A5000800C6473
:1047D0000000108000001F3D473DC540EB4A6E4B76
:1047E0005B55F4566C5ADA5BA96FB181C884148F9B
:1047F0007E904C916392F59325947C96E0A2C1A3A0
:1048000079A710A802A9C1A946AB90AFE1AF58B3F0
:1048100021B750D51CD7D9D80CDAC7DAA7DB1124B9
:104820001FBECFEFD1E2DEBFCDBF16E0A0E0B2E009
:10483000E4E0F2EC01E00BBF02C007900D92A43659
:10484000B107D9F71DE1A4E6B6E001C01D92A13879
:10485000B107E1F717E4CEE1D8E400E006C0229703
:104860000109FE010BBF0E946EE0C63DD10780E04A
:104870000807A9F70E943C4B0C9400E10C9400003F
:10488000A0E3B0E0E6E4F4E20C9439E0298F3A8F3B
:104890004B8F5C8F6D8F7E8F8F8F98A3A98ABA8A7A
:1048A000CB8ADC8AED8AFE8A0F8B188F098D1A8DD0
:1048B0002B8D3C8D09A31AA32BA33CA3680179017E
:1048C0008FEF9FEFA0E0B0E0C822D922EA22FB22BE
:1048D00089012227332709A71AA72BA73CA70989F3
:1048E0001A892B893C890DA31EA32FA338A7480141
:1048F000590188229922AA22BB2229016624772401
:10490000C501B401A70196010E94A8DF6DA77EA78B
:104910008FA798ABC301B2010E94A8DF6B017C0195
:10492000C501B40129A53AA54BA55CA50E94A8DF45
:104930004B015C01C301B2010E94A8DFAB01BC01C5
:10494000C80CD91CEA1CFB1C0DA51EA52FA538A957
:10495000C901AA27BB27C80ED91EEA1EFB1EC81410
:10496000D904EA04FB0420F4405050406F4F7F4FBD
:10497000C701AA27BB27840F951FA61FB71F8D83CA
:104980009E83AF83B8877601DD24CC244DA55EA538
:104990006FA578A960707070C40ED51EE61EF71E54
:1049A000C982DA82EB82FC821C2D0A818B804C80CA
:1049B0008D878E818E878F818F878885888B2D89C3
:1049C0003E894F89588D69A17AA18BA19CA10E9433
:1049D000A8DF6B017C012D8D3E8D4F8D58A16DA1FF
:1049E0007EA18FA198A50E94A8DFDC01CB01C80E93
:1049F000D91EEA1EFB1E8D859E85AF85B8898C0D5C
:104A00009D1DAE1DBF1D8D879E87AF87B88B682FFC
:104A10007E85212F302F482D542D8F859889E09643
:104A2000E0E10C9455E00F93CF93DF93CDB7DEB761
:104A300060970FB6F894DEBF0FBECDBF002309F418
:104A400056C029873A874B875C876D877E878F871B
:104A5000988B20E2201B8D859E85AF85B889AC019F
:104A6000BD011216B4F0770F440B542FBA014D83D9
:104A70005E836F837887332727FD309530952195A6
:104A80003F4F04C0B595A795979587952A95D2F77E
:104A900022C0002E04C075956795579547950A94D6
:104AA000D2F74D835E836F83788704C0880F991F88
:104AB000AA1FBB1F2A95D2F749855A856B857C852D
:104AC00004C076956795579547950A95D2F7842B3C
:104AD000952BA62BB72B89839A83AB83BC83298123
:104AE0003A814B815C816D817E818F819885609652
:104AF0000FB6F894DEBF0FBECDBFDF91CF910F91FF
:104B00000895A8E4B0E0E7E8F5E20C9438E0F50198
:104B100029A33AA34BA35CA36DA37EA38FA398A75D
:104B2000A98EFA8FCB8EDC8EED8EFE8E0F8F18A3A2
:104B30008DA09EA0AFA0B8A4B7FE67C02195B1E03C
:104B4000121608F0B0E03195A1E0131608F0A0E0CD
:104B5000B32EBB1ABB2D882483943B1508F0882400
:104B6000A829419531E0141608F030E0B42EBA1AA5
:104B7000AB2D882483944B1508F08824382951954F
:104B800041E0151608F040E0452E431A31E0541577
:104B900008F030E0432B619531E0161608F030E064
:104BA000862E841A41E0681508F040E0342B719598
:104BB00041E0171608F040E0572F531B31E07517FE
:104BC00008F030E0432B819531E0181608F030E012
:104BD000682F641B462F61E0841708F060E0362BD5
:104BE0009195931B29A3BAA3ABA34CA28DA25EA35C
:104BF0004FA398A78FEF9FEFAFEFBFEF25968CAF36
:104C00009DAFAEAFBFAF259706C025961CAE1DAEBB
:104C10001EAE1FAE25978D8D9E8DAF8DB8A1B7FFAF
:104C200068C025962CAD3DAD4EAD5FAD2597209566
:104C300030954095509525962CAF3DAF4EAF5FAF68
:104C40002597E19581E01E1608F080E0F19591E04E
:104C50001F1608F090E04F2F481B81E0F41708F072
:104C600080E0982BC19481E01C1408F080E06C2D4A
:104C7000691B91E0C61608F090E0892BD19491E071
:104C80001D1408F090E05D2D581B81E0D51608F04A
:104C900080E0982BE19481E01E1408F080E03E2D26
:104CA000391B91E0E31608F090E0892BF19491E034
:104CB0001F1408F090E02F2D281B81E0F21608F059
:104CC00080E0982B019581E0101608F080E0702FAD
:104CD000791B972F71E0091708F070E0872B119569
:104CE000181BE98F4A8F6B8F5C8F3D8F2E8F9F8FA4
:104CF00018A3798D6A8D5B8D4C8D3D8D2E8D9F8D8A
:104D000088A1E9A1E98BEAA1EA8BEBA1EB8BECA1ED
:104D1000EC8BEDA1ED8BEEA1EE8BEFA1EF8BE8A577
:104D2000E88F79876A875B874C873D872E879F87C7
:104D3000888B89849A84AB84BC848D859E85AF855D
:104D4000B889E988FA880B891C89EDAAFEAA0FABFD
:104D500018AFCD88DE88EF88F88C0097A105B105E3
:104D600009F0BFC3C814D904EA04FB0408F04EC11B
:104D700000E0801600E0900601E0A00600E0B0062A
:104D800060F41FEF81169104A104B10409F098F4B6
:104D900080E090E0A0E0B0E017C020E0821620E0C4
:104DA000920620E0A20621E0B20650F480E190E0F5
:104DB000A0E0B0E009C088E090E0A0E0B0E004C06E
:104DC00088E190E0A0E0B0E0B501A401082E04C0A5
:104DD00076956795579547950A94D2F7FA01E45A64
:104DE000FD4F208140E250E060E070E0481B590B2D
:104DF0006A0B7B0B421B5109610971094115510571
:104E000061057105A1F1042E04C0880C991CAA1C2F
:104E1000BB1C0A94D2F797018601042E04C0000F30
:104E2000111F221F331F0A94D2F780E290E0841BE7
:104E3000950BCDA8DEA8EFA8F8AC04C0F694E794D3
:104E4000D794C7948A95D2F7C02AD12AE22AF32AA6
:104E50000DA91EA92FA938AD04C0000F111F221FD4
:104E6000331F4A95D2F70DAB1EAB2FAB38AF2501E0
:104E700066247724950184012070307009AB1AAB49
:104E80002BAB3CABC701B601A30192010E94FADF34
:104E90002DA73EA74FA758AB69A77AA78BA79CA7BA
:104EA000C701B601A30192010E94FADFCA01B9014C
:104EB00029A93AA94BA95CA90E94A8DFAB01BC01B2
:104EC00009A51AA52BA53CA57801DD24CC240DA9A4
:104ED0001EA92FA938ADC901AA27BB27C82AD92ADC
:104EE000EA2AFB2A0DA51EA52FA538A9C416D506AA
:104EF000E606F70638F5015010402040304009A77B
:104F00001AA72BA73CA7C80CD91CEA1CFB1CC81469
:104F1000D904EA04FB04D0F0C416D506E606F70669
:104F2000A8F40DA51EA52FA538A9025010402040B9
:104F3000304009A71AA72BA73CA7C80CD91CEA1C0C
:104F4000FB1C04C009A71AA72BA73CA7C41AD50AA3
:104F5000E60AF70AC701B601A30192010E94FADF2F
:104F60002DA73EA74FA758AB69AF7AAF8BAF9CAFC9
:104F7000C701B601A30192010E94FADFCA01B9017B
:104F800029A93AA94BA95CA90E94A8DF6B017C0161
:104F900049AD5AAD6BAD7CAD9A01112700274DA9E3
:104FA0005EA96FA978AD60707070042B152B262B4D
:104FB000372B8DA59EA5AFA5B8A90C151D052E05EF
:104FC0003F05C0F40197A109B109080D191D2A1D5B
:104FD0003B1D081519052A053B0560F00C151D053C
:104FE0002E053F0538F48DA59EA5AFA5B8A902975B
:104FF000A109B10909A51AA52BA53CA57801DD24B5
:10500000CC24C82AD92AEA2AFB2AB9C481149104DB
:10501000A104B10451F461E070E080E090E0A501EA
:1050200094010E94FADF49015A0110E0811610E054
:10503000910611E0A10610E0B10660F42FEF821690
:105040009104A104B10409F098F480E090E0A0E09C
:10505000B0E017C030E0831630E0930630E0A306DE
:1050600031E0B30650F480E190E0A0E0B0E009C088
:1050700088E090E0A0E0B0E004C088E190E0A0E02B
:10508000B0E0B501A401082E04C076956795579548
:1050900047950A94D2F7FA01E45AFD4F2081AC01FA
:1050A000BD01420F511D611D711D80E290E0A0E025
:1050B000B0E0841B950BA60BB70B51F4C818D908A8
:1050C000EA08FB08F1E04F2E512C612C712C28C10D
:1050D000082E04C0880C991CAA1CBB1C0A94D2F789
:1050E00097018601042E04C03695279517950795DC
:1050F0000A94D2F709AB1AAB2BAB3CAB97018601F4
:10510000082E04C0000F111F221F331F0A94D2F76C
:105110000DA71EA72FA738ABEDA8FEA80FA918ADA5
:1051200004C016950795F794E7944A95D2F7B8010D
:10513000A7010DA51EA52FA538A9042B152B262BDD
:10514000372B0DA71EA72FA738ABEDA8FEA80FA9D8
:1051500018AD04C0EE0CFF1C001F111F8A95D2F77A
:10516000EDAAFEAA0FAB18AF25016624772495019E
:1051700084012070307009AF1AAF2BAF3CAF69A922
:105180007AA98BA99CA9A30192010E94FADF29A701
:105190003AA74BA75CA76B017C0169A97AA98BA9E7
:1051A0009CA9A30192010E94FADFCA01B90129ADAD
:1051B0003AAD4BAD5CAD0E94A8DFAB01BC017601FE
:1051C000DD24CC240DA51EA52FA538A9C901AA2729
:1051D000BB27C82AD92AEA2AFB2A09A51AA52BA582
:1051E0003CA5C416D506E606F70638F50150104072
:1051F0002040304009AB1AAB2BAB3CABC80CD91CE0
:10520000EA1CFB1CC814D904EA04FB04D0F0C41641
:10521000D506E606F706A8F409A51AA52BA53CA510
:10522000025010402040304009AB1AAB2BAB3CABD6
:10523000C80CD91CEA1CFB1C04C009AB1AAB2BAB75
:105240003CABC41AD50AE60AF70AC701B601A301A6
:1052500092010E94FADF29A73AA74BA75CA72196E3
:105260006CAF7DAF8EAF9FAF2197C701B601A30191
:1052700092010E94FADFCA01B90129AD3AAD4BADE6
:105280005CAD0E94A8DF8B019C0121964CAD5DAD09
:105290006EAD7FAD2197DA01992788274DA55EA5D0
:1052A0006FA578A960707070842B952BA62BB72BF7
:1052B00049A55AA56BA57CA580179107A207B3073E
:1052C000F0F44150504060407040880D991DAA1D77
:1052D000BB1D88159905AA05BB0588F080179107A5
:1052E000A207B30760F449A55AA56BA57CA5425057
:1052F000504060407040880D991DAA1DBB1D6C0177
:105300007D01C01AD10AE20AF30A09A91AA92BA938
:105310003CA9380155244424442A552A662A772A70
:105320008501222733270DA71EA72FA738AB95018C
:1053300084012070307009AF1AAF2BAF3CAFC701AA
:10534000B6012DA53EA54FA558A90E94FADF29A7B1
:105350003AA74BA75CA769AB7AAB8BAB9CABC701F9
:10536000B6012DA53EA54FA558A90E94FADFCA0196
:10537000B90129AD3AAD4BAD5CAD0E94A8DFAB01E0
:10538000BC0109A91AA92BA93CA97801DD24CC24C8
:105390000DA91EA92FA938ADC901AA27BB27C82A64
:1053A000D92AEA2AFB2A09A51AA52BA53CA5C416C9
:1053B000D506E606F70638F501501040204030408B
:1053C00009AB1AAB2BAB3CABC80CD91CEA1CFB1CC1
:1053D000C814D904EA04FB04D0F0C416D506E606C6
:1053E000F706A8F409A51AA52BA53CA50250104064
:1053F0002040304009AB1AAB2BAB3CABC80CD91CDE
:10540000EA1CFB1C04C009AB1AAB2BAB3CABC41AA7
:10541000D50AE60AF70AC701B6012DA53EA54FA594
:1054200058A90E94FADF29A73AA74BA75CA72196A3
:105430006CAF7DAF8EAF9FAF2197C701B6012DA591
:105440003EA54FA558A90E94FADFCA01B90129ADAE
:105450003AAD4BAD5CAD0E94A8DF8B019C0121965B
:105460004CAD5DAD6EAD7FAD2197DA0199278827F0
:105470004DA95EA96FA978AD60707070842B952BD3
:10548000A62BB72B49A55AA56BA57CA5801791071C
:10549000A207B307D0F44150504060407040880DDF
:1054A000991DAA1DBB1D88159905AA05BB0568F0A5
:1054B00080179107A207B30740F449A55AA56BA529
:1054C0007CA5425050406040704009A91AA92BA900
:1054D0003CA97801DD24CC24C42AD52AE62AF72A5F
:1054E00051C2C816D906EA06FB0608F438C2803055
:1054F00010E0910711E0A10710E0B10758F48F3FC9
:105500009105A105B10509F090F400E010E020E05C
:1055100030E016C0803020E0920720E0A20721E0B2
:10552000B20750F400E110E020E030E009C008E0EC
:1055300010E020E030E004C008E110E020E030E0BE
:10554000AC01BD01002E04C076956795579547952F
:105550000A94D2F7FA01E45AFD4F4081040F111D5D
:10556000211D311D40E250E060E070E0401B510B16
:10557000620B730BA1F48C159D05AE05BF0508F4F5
:10558000F5C1EDA8FEA80FA918AD44245524320199
:10559000E814F9040A051B0508F0EBC1E3C1342E39
:1055A0002C013D0104C0440C551C661C771C4A9517
:1055B000D2F7D501C401002E04C0B695A7959795E2
:1055C00087950A94D2F7482A592A6A2A7B2AA50184
:1055D0009401032C04C0220F331F441F551F0A944B
:1055E000D2F729AF3AAF4BAF5CAFB701A601002E9F
:1055F00004C076956795579547950A94D2F749ABBD
:105600005AAB6BAB7CABC701B601032C04C0660F71
:10561000771F881F991F0A94D2F76DA77EA78FA7BF
:1056200098AB8DA99EA9AFA9B8AD04C0B695A795B2
:10563000979587950A95D2F74DA55EA56FA578A990
:10564000482B592B6A2B7B2B4DA75EA76FA778ABF6
:105650004301AA24BB24930182012070307021965B
:105660000CAF1DAF2EAF3FAF219769A97AA98BA9C7
:105670009CA9A50194010E94FADF29A73AA74BA78C
:105680005CA76B017C0169A97AA98BA99CA9A501DA
:1056900094010E94FADFCA01B90121962CAD3DADFB
:1056A0004EAD5FAD21970E94A8DFDC01CB017601F2
:1056B000DD24CC240DA51EA52FA538A9A901662798
:1056C0007727C42AD52AE62AF72A09A51AA52BA5E1
:1056D0003CA5C816D906EA06FB0638F5015010406D
:1056E0002040304009AB1AAB2BAB3CABC40CD51CF3
:1056F000E61CF71CC414D504E604F704D0F0C81661
:10570000D906EA06FB06A8F409A51AA52BA53CA50F
:10571000025010402040304009AB1AAB2BAB3CABE1
:10572000C40CD51CE61CF71C04C009AB1AAB2BAB90
:105730003CABC81AD90AEA0AFB0AC701B601A5019F
:1057400094010E94FADF29A73AA74BA75CA72996E4
:105750006CAF7DAF8EAF9FAF2997C701B601A50192
:1057600094010E94FADFCA01B90121962CAD3DAD2A
:105770004EAD5FAD21970E94A8DF4B015C012996D9
:105780004CAD5DAD6EAD7FAD29979A011127002715
:105790008DA59EA5AFA5B8A9A070B070082B192B38
:1057A0002A2B3B2B89A59AA5ABA5BCA508151905E5
:1057B0002A053B05E0F40197A109B109040D151D67
:1057C000261D371D041515052605370580F008151B
:1057D00019052A053B0558F489A59AA5ABA5BCA5D2
:1057E0000297A109B109040D151D261D371DB90128
:1057F000A801481959096A097B094DA75EA76FA737
:1058000078AB09A91AA92BA93CA97801DD24CC24DD
:10581000C82AD92AEA2AFB2AFFEF8F2EFFEF9F2EF4
:10582000A12CB12C8C209D20AE20BF2087012227E7
:10583000332709A71AA72BA73CA749AC5AAC6BACD6
:105840007CAC2FEF3FEF40E050E042225322642235
:10585000752229AD3AAD4BAD5CAD8A0122273327C5
:1058600009AB1AAB2BAB3CABC501B401A301920150
:105870000E94A8DF69AF7AAF8BAF9CAFC501B401BE
:1058800029A93AA94BA95CA90E94A8DF4B015C0198
:1058900069A57AA58BA59CA5A30192010E94A8DF0A
:1058A0002B013C0169A57AA58BA59CA529A93AA93C
:1058B0004BA95CA90E94A8DFAB01BC01840C951C1C
:1058C000A61CB71C09AD1AAD2BAD3CADC901AA276A
:1058D000BB27880E991EAA1EBB1E84149504A6041D
:1058E000B70420F4405050406F4F7F4FC501AA27A6
:1058F000BB27840F951FA61FB71F0DA51EA52FA59B
:1059000038A9081719072A073B0718F180179107CC
:10591000A207B307A1F554019924882489AD9AAD53
:10592000ABADBCADA070B070880E991EAA1EBB1E98
:105930004DA95EA96FA978AD032C04C0440F551F73
:10594000661F771F0A94D2F7481559056A057B052B
:10595000B0F40894C108D108E108F10810C044244B
:1059600055243201CC24DD2476010CC04424552476
:10597000320181E0C82ED12CE12CF12C03C044244B
:1059800055243201FE01319688E0DF011D928A958F
:10599000E9F7C982DA82EB82FC824D825E826F82F5
:1059A00078862C2D3A814B815C81642D7E818F819C
:1059B00098852596ECACFDAC0EAD1FAD2597E11496
:1059C000F1040105110509F456C02195E1E0121614
:1059D00008F0E0E03195F1E0131608F0F0E0032F55
:1059E0000E1BE1E0301708F0E0E0FE2B4195E1E00E
:1059F000141608F0E0E0142F1F1B31E0411708F0E7
:105A000030E0E32B5195F1E0151608F0F0E0B52FEA
:105A1000BE1B31E05B1708F030E0F32B6195E1E04D
:105A2000161608F0E0E0462E4F1A31E0641508F033
:105A300030E0E32B7195F1E0171608F0F0E0A72FA6
:105A4000AE1B31E07A1708F030E0F32B8195E1E0EE
:105A5000181608F0E0E0F82EFF1AFF2D31E08F1540
:105A600008F030E0E32B9195302F412F5B2F642D10
:105A70007A2F8F2F9E1BC85BDF4FE1E10C9454E01F
:105A8000FA01DC0102C005900D9221503040D8F798
:105A90000895F8942091A5063091A6068091A3065A
:105AA0009091A406821B930B7894089580939C0692
:105AB000089581E080939A06089580919C06089548
:105AC00080919B0608952091A5063091A60681E05D
:105AD0002115310509F080E00895482F8091A50631
