:100000000C9452240C9481240C9481240C9481240B
:100010000C9481240C9481240C9481240C948124CC
:100020000C9481240C9481240C9481240C948124BC
:100030000C9481240C9430540C9481240C948124CD
:100040000C9481240C9481240C9481240C9481249C
:100050000C9481240C9481240C9481240C9481248C
:100060000C9481240C946AE00C9481240C9496E006
:100070000C9481240C94A7AA0C9481240C948124C0
:100080000C9481240C9481240C9481240C9481245C
:100090000C9481240C9481240C9481240C9481244C
:1000A0000C9481240C9481240C9481240C9481243C
:1000B0000C9481240C9481240C9481240C946F5111
:1000C0000C9481240C9481240C9481240C9481241C
:1000D0000C9481240C9481240C9481240C9481240C
:1000E0000C948124134A3C4A414A1D4A464A904A8C
:1000F000904A1D4A644A904A694A6E4A734A784A4D
:10010000504A554A5A4A1D4A5F4A904A184A4B4A31
:100110007D4A824A864A904A904A8A4A507265705D
:100120006172696E6720666F7220736C6565703AE4
:1001300049276D20636F6D706C6574696E6720610F
:100140006E792020717565756564206D6F766573B5
:100150002E004368616E67696E672046696C616D49
:10016000656E743A202049276D20636F6D706C6551
:1001700074696E6720616E7920207175657565649C
:10018000206D6F7665732E00494E56414C494420D0
:10019000544F4F4C3A2020202020202049207265C7
:1001A0006365697665642061204C65667420202053
:1001B000546F6F6C20636F6D616E642C2062757478
:1001C000204920206F6E6C792068617665206F6E03
:1001D0006520546F6F6C2E00494E56414C494420A7
:1001E000434F4D4D414E443A202020204920726516
:1001F000636569766564206120636F6D6D616E640F
:10020000666F7220612068656174656420706C613E
:1002100074652C20627574204920646F6E277420E9
:1002200068617665206F6E65004920736177206193
:1002300020676C6974636820696E206D795344206F
:10024000636172642E204966207468697320697343
:1002500020746865206669727374206572726F72AB
:100260002C2074727974686973206D6F64656C20DA
:10027000616761696E2E20202000492074696D65D8
:1002800064206F7574207768696C65202020617424
:1002900074656D7074696E6720746F206865617431
:1002A00020206D792065787472756465722E00491E
:1002B0002074696D6564206F7574207768696C655A
:1002C000202020617474656D7074696E6720746F8E
:1002D000206865617420206D7920706C6174666F90
:1002E000726D2E00507265706172696E6720666F64
:1002F0007220736C6565703A49276D20636F6F6C6F
:10030000696E67206D792020202020206865617447
:1003100065727320616E6420676F696E6720746F09
:100320006D79207761697420706F736974696F6E7D
:100330002E004368616E67696E672046696C616D67
:10034000656E743A202049276D20676F696E6720BB
:10035000746F206D792077616974706F7369746947
:100360006F6E2E0052657374617274696E672074CB
:100370006865204275696C6400546869732069730C
:10038000206E6F74207468652078336720766572FC
:1003900073696F6E204920776F726B20626573748A
:1003A00020776974682E20466F722068656C702013
:1003B0007365653A206D616B6572626F742E636F51
:1003C0006D2F68656C70202020004920616D2061D0
:1003D000205265706C696361746F7220322E5468AC
:1003E0006973206275696C6420697320666F72207E
:1003F0002020616E6F7468657220626F742E2053C6
:1004000065653A2020206D616B6572626F742E63A2
:100410006F6D2F68656C7000546865205265706C54
:100420006963617430720049276D2043616E6365B2
:100430006C6C696E672E2020202020506C656173E3
:100440006520576169742E002000486561746572EB
:10045000732073687574646F776E20202020647534
:100460006520746F20696E616374697669747920A0
:100470002020004578747275646572204F7665722D
:1004800068656174212020536F66747761726520FE
:1004900054656D70204C696D6974205265616368A4
:1004A00065642120506C65617365202020202053F5
:1004B000687574646F776E206F7220526573746113
:1004C00072740048656174696E67204661696C7575
:1004D000726521202020204D792065787472756422
:1004E00065727320617265206E6F746865617469EE
:1004F0006E672070726F7065726C792E20202043B9
:100500006865636B206D7920636F6E6E65637469D7
:100510006F6E730048656174696E67204661696C2F
:1005200075726521202020204D79206578747275C0
:100530006465727320617265202020206C6F73697E
:100540006E672074656D70657261747572652E20BA
:10055000436865636B206D7920636F6E6E656374AD
:10056000696F6E7300486561746572204572726FC1
:1005700072212020202020202049276D20726561D3
:1005800064696E67206F7574206F66202072616EDB
:1005900067652074656D7065726174757265732E20
:1005A00020436865636B206D7920636F6E6E6563B1
:1005B00074696F6E7300486561746572204572726C
:1005C0006F7221202020202020204D792074656D1D
:1005D00070657261747572652072656164736172B1
:1005E00065206661696C696E672120506C65617376
:1005F0006520436865636B206D7920636F6E6E655F
:100600006374696F6E73009302690000006900EE05
:10061000016900000069002601B801000000002007
:10062000065500000055002D085500000055004DEE
:100630000A550000005500400CAB000000AB002D37
:10064000095500000055002D085500000055004DCB
:100650000AAB000000550000000001C00D5500006D
:100660000055002D08560100000000C00D20015368
:1006700011BC005B12B10100000000C00DC80000F9
:10068000001400C00DC80000001400910E9001007D
:100690000014005A10900100001400C00D20030047
:1006A000000000C805C80000001400C805C800000C
:1006B000001400C805C80000001400DD04B00400E8
:1006C0000014007505C800000014007505C800007E
:1006D0000014007505C800000014009704B0040061
:1006E000000000B807550000005500B909AB000034
:1006F00000AB007D06550000005500C80555000000
:10070000005500B807AB000000AB00C8055500005D
:10071000005500DD04550000005500C805550000D7
:10072000005500B8075500000055007D0656010031
:100730000000003F03550000005500FA0C55000072
:100740000055003F03550000005500B90955000051
:100750000055003F035500000055002D09550000CD
:100760000055003F03550000005500EA0A550000FF
:100770000055003F03550000005500B909AB0000CB
:10078000000000534420436172642052656D6F760F
:1007900065640024F404D9201BC40C5C0E9804C4C6
:1007A000095F0265077101F405F900FB04B3004815
:1007B000048700C10369005803550003034500BEC8
:1007C000023A008402310053022A00290225000463
:1007D000022000E4011C00C8011900AF01170098B5
:1007E0000114008401130071011000610110005117
:1007F000010E0043010D0036010B002B010B002000
:10080000010B00150109000C01090003010800FBA0
:10081000000800F3000800EB000700E4000600DE1B
:10082000000600D8000600D2000600CC000500C774
:10083000000500C2000500BD000400B9000400B5B9
:10084000000400B1000400AD000400A9000400A5EC
:10085000000300A20003009F0004009B0003009817
:100860000003009500020093000300900003008D38
:100870000002008B00030088000200860002008452
:10088000000300810002007F0002007D0002007B67
:100890000002007900020077000100760002007477
:1008A00000020072000100710002006F0002006D82
:1008B0000001006C0002006A00010069000200678C
:1008C0000001006600010065000100640002006292
:1008D00000010061000100600001005F0002005D96
:1008E0000001005C0001005B0001005A000100599A
:1008F000000100580001005700010056000100559A
:100900000001005400010053000000530001005298
:1009100000010051000100500001004F0001004E95
:100920000000004E0001004D0001004C0001004B92
:100930000000004B0001004A00010049000100488E
:10094000000000480001004700010046000000468A
:100950000001004500000045000100440001004383
:10096000000000430001004200000042000100417D
:1009700000000041000100400001003F0000003F76
:100980000001003E0000003E0001003D0000003D6F
:100990000001003C0000003C0000003C0001003B66
:1009A0000000003B0001003A0000003A000100395D
:1009B0000000003900010038000000380000003855
:1009C000000100370000003700010036000000364B
:1009D0000000003600010035000000350000003541
:1009E0000001003400000034000000340001003336
:1009F000000000330000003300010032000000322C
:100A00000000003200010031000000310000003120
:100A10000001003000000030000000300001002F15
:100A20000000002F0000002F0000002F0001002E0A
:100A30000000002E0000002E0001002D0000002DFF
:100A40000000002D0000002D0001002C0000002CF3
:100A50000000002C0000002C0001002B0000002BE7
:100A60000000002B0000002B0001002A0000002ADB
:100A70000000002A0000002A0001002900000029CF
:100A800000000029000000290000002900010028C2
:100A900000000028000000280000002800000028B6
:100AA00000010027000000270000002700000027A9
:100AB000000000270001002600000026000000269C
:100AC000000000260000002600010025000000258F
:100AD0000000002500000025000000250000002582
:100AE0000001002400000024000000240000002475
:100AF0000000002400010023000000230000002368
:100B00000000002300000023000000230000002359
:100B1000000100220000002200000022000000224C
:100B2000000000220000002200010021000000213E
:100B30000000002100000021000000210000002131
:100B40000000002100010020000000200000002023
:100B50000000002000000020000000200000002015
:100B6000000000200001001F0000001F0000001F07
:100B70000000001F0000001F0000001F0000001FF9
:100B80000001001E0000001E0000001E0000001EEC
:100B900000000024F4D43050C38E20C2A24017823B
:100BA0008B7011127A910D816CD90AA861E108C786
:100BB000586607615143061E4B5D05C145A7041ADF
:100BC000411104093D9803713931034036DB026558
:100BD000339102D4305402802E1D02632CEE017535
:100BE0002AC501B028A001102781018F2564012B9F
:100BF000244B01E0223401AC211F018D200D018026
:100C00001FFC00841EED00971DDF00B81CD200E61B
:100C10001BC600201BBC00641AB200B219A8000A4F
:100C200019A0006A189900D117910040178B00B5E0
:100C300016840031167E00B31579003A157300C78B
:100C4000146F0058146A00EE1366008813630025C1
:100C5000135E00C7125B006C12570015125400C1DE
:100C600011510070114F0021114B00D61049008D19
:100C70001047004610440002104200C00F400080A0
:100C80000F3E00420F3C00060F3B00CB0E38009396
:100C90000E37005C0E3500270E3400F30D3200C114
:100CA0000D3100900D3000600D2E00320D2D00052D
:100CB0000D2C00D90C2B00AE0C2900850C29005CF2
:100CC0000C2700350C27000E0C2600E80B2400C46E
:100CD0000B2400A00B23007D0B23005A0B210039AD
:100CE0000B2100180B2000F80A1F00D90A1E00BBB8
:100CF0000A1E009D0A1D00800A1D00630A1C004791
:100D00000A1B002C0A1B00110A1A00F7091A00DD41
:100D1000091900C4091900AB091900920917007BD1
:100D2000091800630917004C09160036091600203F
:100D30000916000A091500F5081500E0081400CC92
:100D4000081400B8081400A4081400900813007DCB
:100D50000812006B081300580812004608120034ED
:100D6000081100230811001208110001081100F0F9
:100D7000071000E0071000D0071000C0071000B0F7
:100D8000070F00A107100091070E0083070F0074E2
:100D9000070F0065070E0057070E0049070E003BBE
:100DA000070D002E070E0020070D0013070D00068B
:100DB000070D00F9060C00ED060D00E0060C00D44E
:100DC000060C00C8060C00BC060C00B0060C00A403
:100DD000060B0099060C008D060B0082060B0077AF
:100DE000060B006C060B0061060A0057060B004C50
:100DF000060A0042060A0038060A002E060A0024E7
:100E0000060A001A060A001006090007060A00FD75
:100E1000050900F4050900EB050900E2050900D900
:100E2000050900D0050900C7050900BE050900B580
:100E3000050800AD050800A50509009C05080094FB
:100E40000508008C050800840508007C050800746E
:100E50000508006C050700650508005D05070056DC
:100E60000508004E05070047050700400508003843
:100E7000050700310507002A050700230507001CA8
:100E8000050600160507000F050700080506000205
:100E9000050700FB040600F5040700EE040600E861
:100EA000040600E2040700DB040600D5040600CFB8
:100EB000040600C9040600C3040600BD040600B70A
:100EC000040600B1040500AC040600A6040600A058
:100ED0000405009B04060095040500900406008AA2
:100EE00004050085040500800406007A04050075E9
:100EF000040500700405006B04050066040500612C
:100F00000405005C04050057040500520405004D6B
:100F100004050048040500430405003E0404003AAB
:100F200004050035040500300404002C04050027E6
:100F3000040400230405001E0404001A040400161F
:100F4000040500110404000D040400090405000454
:100F500004040000040400FC030400F8030400F48B
:100F6000030400F0030400EC030400E8030400E4BD
:100F7000030400E0030400DC030400D8030400D4ED
:100F8000030400D0030400CC030400C8030300C51D
:100F90000303009502000000506C656173652077C3
:100FA0006169742E2E2E00840369010000140083F1
:100FB000048800000014008C000000000000000005
:100FC00030F8FFFF00000000000000008E0000006D
:100FD0000000000000000000000000000000000011
:100FE0000057290400188304DC0500001400901F3A
:100FF000891F9502000000506C6561736520776160
:1010000069740084037D01000014008304880000DB
:101010000014008C000000000000000030F8FFFF0A
:1010200000000000000000008E0000000000000032
:10103000000000000000000000000000005729042C
:1010400000188304DC05000014008C97340000F3C2
:1010500019000000000000000000000000000095E2
:10106000000000005469676874656E2065616368FC
:10107000206F662074686520009501000000746888
:10108000726565206B6E6F627320756E6465722089
:101090002020009501000000746865206275696C6D
:1010A0006420706C6174666F726D2020009507007B
:1010B000000061626F757420666F757220747572BE
:1010C0006E732E00950000000049276D20676F6940
:1010D0006E6720746F206D6F7665206D79009501C5
:1010E00000000065787472756465722061726F75B6
:1010F0006E6420746F202000950100000064696612
:10110000666572656E7420706F696E747320736F9C
:1011100020009507000000796F752063616E2063E1
:101120006865636B2E2E2E009500000000746865C4
:10113000206865696768742E204174206561636862
:1011400020009501000000706F696E742C206C6F98
:101150006F73656E20746865202020009501000083
:1011600000737065636966696564206B6E6F6220E9
:10117000756E74696C009507000000746865206ED8
:101180006F7A7A6C6520616C6D6F73742E2E2E00F1
:101190009500000000746F7563686573207468655E
:1011A000206275696C6420202000950100000070A9
:1011B0006C6174652E20546865206E6F7A7A6C6558
:1011C0002069730095010000006174207468652037
:1011D000726967687420686569676874200095079C
:1011E0000000007768656E2061207468696E207069
:1011F000696563652E2E2E0095000000006F662045
:1012000070617065722077696C6C20736C696465BD
:10121000200095010000006265747765656E20749A
:101220006865206E6F7A7A6C652020009501000059
:1012300000616E64206275696C6420706C61746515
:10124000207769746800950700000020736F6D6552
:10125000206672696374696F6E2E0095020000004B
:10126000506C656173652077616974008E000000C1
:10127000003818000000000000000000000000001E
:10128000006C692E0018950000000041646A7573B7
:1012900074207468652072656172206B6E6F6200E5
:1012A0009501000000756E74696C20706170657244
:1012B000206A7573742020202000950100000073BF
:1012C0006C69646573206265747765656E20746807
:1012D0006520200095070000006E6F7A7A6C65200B
:1012E000616E6420706C61746500950200000050AE
:1012F0006C656173652077616974008E0000000081
:1013000038180000D00700000000000000000000B6
:10131000E0930400188E9C100000C8E7FFFFD00780
:1013200000000000000000000000802A2D00188E40
:101330009B100000C8E7FFFF000000000000000055
:1013400000000000E09304001895000000004164D4
:101350006A7573742066726F6E7420726967687440
:1013600020200095010000006B6E6F6220756E7486
:10137000696C20706170657220202020009501004A
:1013800000006A75737420736C696465732062650C
:10139000747765656E200095070000006E6F7A7A9D
:1013A0006C6520616E6420706C617465009502004C
:1013B0000000506C656173652077616974008E9CD4
:1013C000100000C8E7FFFFD0070000000000000089
:1013D000000000E0930400188E64EFFFFFC8E7FFF1
:1013E000FFD00700000000000000000000004C1DBE
:1013F00000188E65EFFFFFC8E7FFFF000000000048
:1014000000000000000000E09304001895000000B8
:101410000041646A7573742066726F6E74206C6527
:1014200066742020200095010000006B6E6F622022
:10143000756E74696C2070617065722020202000C8
:1014400095010000006A75737420736C696465739C
:10145000206265747765656E200095070000006E58
:101460006F7A7A6C6520616E6420706C61746500BF
:101470009502000000506C656173652077616974A6
:10148000008E64EFFFFFC8E7FFFFD00700000000F9
:10149000000000000000E093040018950000000028
:1014A0004E6F772049276D20676F696E6720746FD4
:1014B0002020202000950100000073656E64206DDF
:1014C0007920657874727564657220746F20009558
:1014D00001000000616C6C20746872656520706F9B
:1014E000696E74732020202000950700000061675A
:1014F00061696E20746F207265636865636B2E008E
:101500009502000000506C65617365207761697415
:10151000008E0000000038180000D0070000000016
:1015200000000000000080191B00188E0000000061
:10153000381800000000000000000000000000005B
:10154000E093040018950000000041646A7573740C
:10155000207468652072656172202020202000952B
:10156000010000006B6E6F6220756E74696C2070F4
:1015700061706572202020200095010000006A75CE
:10158000737420736C696465732062657477656534
:101590006E200095070000006E6F7A7A6C652061FE
:1015A0006E6420706C617465009502000000506CE0
:1015B000656173652077616974008E0000000038F2
:1015C000180000D00700000000000000000000E04C
:1015D000930400188E402B0000C8E7FFFFD00700DF
:1015E000000000000000000000A65D2200188E3FF1
:1015F0002B0000C8E7FFFF00000000000000000013
:10160000000000E093040018950000000041646AA7
:101610007573742066726F6E7420726967687420C7
:10162000200095010000006B6E6F6220756E74697A
:101630006C207061706572202020200095010000F0
:10164000006A75737420736C6964657320626574D5
:101650007765656E200095070000006E6F7A7A6CE2
:101660006520616E6420706C6174650095020000F5
:1016700000506C656173652077616974008E402B42
:101680000000C8E7FFFFD0070000000000000000D6
:101690000000E0930400188EC0D4FFFFC7E7FFFFEF
:1016A000D00700000000000000000000C0C62D00B0
:1016B000188EC1D4FFFFC8E7FFFF00000000000044
:1016C000000000000000E0930400189500000000F6
:1016D00041646A7573742066726F6E74206C6566FF
:1016E000742020200095010000006B6E6F62207551
:1016F0006E74696C207061706572202020200095E6
:10170000010000006A75737420736C69646573204E
:101710006265747765656E200095070000006E6F46
:101720007A7A6C6520616E6420706C6174650095D6
:1017300002000000506C6561736520776169740078
:101740008EC0D4FFFFC8E7FFFFD0070000000000F5
:101750000000000000E0930400188E00000000006C
:10176000000000D007000000000000000000009111
:101770003B1A00188E00000000000000000000006E
:10178000000000000000000000E093040018950035
:101790000000004E6F77206C6574277320747269A7
:1017A000706C6520202020009501000000636865B2
:1017B000636B2D2D2070617065722073686F756C7E
:1017C000640095010000006A75737420736C69648D
:1017D00065206265747765656E20200095070000BE
:1017E000006E6F7A7A6C6520616E6420706C617433
:1017F0006500891F9502000000506C6561736520CB
:10180000776169740084037D0100001400830488FB
:1018100000000014008C000000000000000030F800
:10182000FFFF00000000000000008E00000000002C
:101830000000000000000000000000000000005751
:10184000290400188304DC05000014008C97340080
:1018500000F319000000000000000000000000007C
:101860000095000000005469676874656E2065612A
:101870006368206F66207468652000950100000091
:101880007468726565206B6E6F627320756E646537
:1018900072202020009501000000746865206275A8
:1018A000696C6420706C6174666F726D20200095A5
:1018B0000700000061626F757420666F7572207496
:1018C00075726E732E00950000000049276D206729
:1018D0006F696E6720746F206D6F7665206D79007B
:1018E00095010000006578747275646572206172FC
:1018F0006F756E6420746F202000950100000064F5
:101900006966666572656E7420706F696E747320A7
:10191000736F20009507000000796F752063616E7A
:1019200020636865636B2E2E2E0095000000007406
:101930006865206865696768742E20417420656158
:10194000636820009501000000706F696E742C20A0
:101950006C6F6F73656E20746865202020009501A0
:10196000000000737065636966696564206B6E6F63
:101970006220756E74696C009507000000746865DC
:10198000206E6F7A7A6C6520616C6D6F73742E2E89
:101990002E009500000000746F75636865732074F5
:1019A0006865206275696C64202020009501000044
:1019B00000706C6174652E20546865206E6F7A7AB1
:1019C0006C652069730095010000006174207468E3
:1019D00065207269676874206865696768742000AB
:1019E00095070000007768656E2061207468696E55
:1019F0002070696563652E2E2E0095000000006F33
:101A0000662070617065722077696C6C20736C69F8
:101A10006465200095010000006265747765656E5D
:101A200020746865206E6F7A7A6C652020009501BD
:101A3000000000616E64206275696C6420706C61E6
:101A40007465207769746800950700000020736F43
:101A50006D65206672696374696F6E2E0095020071
:101A60000000506C656173652077616974008EB504
:101A70000500003818000000000000000000000011
:101A80000000002461290018950000000041646AEC
:101A9000757374207468652072656172206B6E6F57
:101AA00062009501000000756E74696C20706170B1
:101AB0006572206A75737420202020009501000053
:101AC00000736C69646573206265747765656E2068
:101AD00074686520200095070000006E6F7A7A6CAC
:101AE0006520616E6420706C617465009502000071
:101AF00000506C656173652077616974008EB6056E
:101B0000000038180000D0070000000000000000AE
:101B10000000E0930400188E51160000C8E7FFFF94
:101B2000D00700000000000000000000802A2D0007
:101B3000188E51160000C8E7FFFF000000000000EB
:101B4000000000000000E093040018950000000071
:101B500041646A7573742066726F6E74207269676F
:101B6000687420200095010000006B6E6F62207584
:101B70006E74696C20706170657220202020009561
:101B8000010000006A75737420736C6964657320CA
:101B90006265747765656E200095070000006E6FC2
:101BA0007A7A6C6520616E6420706C617465009552
:101BB00002000000506C65617365207761697400F4
:101BC0008E51160000C8E7FFFFD00700000000009C
:101BD0000000000000E0930400188E69F4FFFFC8C5
:101BE000E7FFFFD007000000000000000000003FFA
:101BF000E81D00188E68F4FFFFC8E7FFFF00000033
:101C0000000000000000000000E0930400189500B0
:101C100000000041646A7573742066726F6E7420F0
:101C20006C6566742020200095010000006B6E6FCB
:101C30006220756E74696C2070617065722020205E
:101C4000200095010000006A75737420736C69644C
:101C50006573206265747765656E200095070000E6
:101C6000006E6F7A7A6C6520616E6420706C6174AE
:101C700065009502000000506C6561736520776116
:101C80006974008E69F4FFFFC8E7FFFFD00700000A
:101C90000000000000000000E09304001895000020
:101CA00000004E6F772049276D20676F696E6720AF
:101CB000746F2020202000950100000073656E6481
:101CC000206D7920657874727564657220746F2058
:101CD000009501000000616C6C20746872656520DD
:101CE000706F696E7473202020200095070000003B
:101CF000616761696E20746F207265636865636BEC
:101D00002E009502000000506C65617365207761BC
:101D10006974008EB605000038180000D007000076
:101D2000000000000000000078381B00188EB50588
:101D30000000381800000000000000000000000053
:101D40000000E093040018950000000041646A75EB
:101D500073742074686520726561722020202020D1
:101D60000095010000006B6E6F6220756E74696CE7
:101D70002070617065722020202000950100000015
:101D80006A75737420736C69646573206265747717
:101D900065656E200095070000006E6F7A7A6C65AD
:101DA00020616E6420706C61746500950200000013
:101DB000506C656173652077616974008EB60500AB
:101DC0000038180000D007000000000000000000EC
:101DD00000E0930400188E2C290000C8E7FFFFD014
:101DE00007000000000000000000005AC51F001896
:101DF0008E2C290000C8E7FFFF0000000000000053
:101E00000000000000E0930400189500000000416D
:101E1000646A7573742066726F6E74207269676885
:101E20007420200095010000006B6E6F6220756EBB
:101E300074696C207061706572202020200095010B
:101E40000000006A75737420736C696465732062A6
:101E500065747765656E200095070000006E6F7AE7
:101E60007A6C6520616E6420706C61746500950207
:101E7000000000506C656173652077616974008EA5
:101E80002C290000C8E7FFFFD00700000000000079
:101E900000000000E0930400188E13E2FFFFC8E783
:101EA000FFFFD00700000000000000000000D0A0ED
:101EB0002500188E12E2FFFFC7E7FFFF00000000B9
:101EC0000000000000000000E093040018950000EE
:101ED000000041646A7573742066726F6E74206CC2
:101EE0006566742020200095010000006B6E6F6213
:101EF00020756E74696C20706170657220202020DE
:101F00000095010000006A75737420736C69646544
:101F100073206265747765656E2000950700000088
:101F20006E6F7A7A6C6520616E6420706C61746586
:101F3000009502000000506C65617365207761694F
:101F400074008E12E2FFFFC8E7FFFFD00700000019
:101F500000000000000000E0930400188EB60500A9
:101F60000000000000D0070000000000000000009A
:101F70000095CD1600188EB5050000000000000089
:101F80000000000000000000000000E093040018C2
:101F900095000000004E6F77206C657427732074E5
:101FA0007269706C6520202020009501000000639C
:101FB0006865636B2D2D2070617065722073686F8A
:101FC000756C640095010000006A75737420736C71
:101FD000696465206265747765656E2020009507E9
:101FE0000000006E6F7A7A6C6520616E6420706C00
:101FF00061746500891F99000000006E6F7A7A6C29
:102000006543616C6962726174696F6E009600006D
:10201000860084035201000014008304A60000001F
:1020200014008C000000000000000030F8FFFF00EA
:10203000000000000000008B000000000000000015
:10204000000000000000000000000000A6000000EA
:102050008304DC0500001400901F8C97340000F20C
:102060001900000000000000000000000000008BCC
:1020700040D9FFFFBFE6FFFF60EA0000000000005C
:1020800000000000800000009101149100149104F0
:102090001491031488001F026E008D006400580222
:1020A00088000302E60088010302E600870064005E
:1020B000580287016400580291017F91007F9104CA
:1020C0007F91037F8BC8E7FFFF09EBFFFF680100EB
:1020D000000000000000000000800000008BC8E746
:1020E000FFFF09EBFFFF68010000E4FFFFFF0000B6
:1020F00000000C0300008BC8E7FFFF09EBFFFFF0B7
:10210000000000D0FFFFFF000000003E0000008B39
:10211000C8E7FFFF09EBFFFFF0000000B3FFFFFF80
:1021200000000000850100008BF1D9FFFF09EBFFE3
:10213000FFF00000004FFEFFFF000000007F0300E3
:10214000008BC8E7FFFF88EEFFFFF00000007FFE76
:10215000FFFF00000000D30000008BC8E7FFFF88EE
:10216000EEFFFFF000000063FEFFFF0000000085AF
:102170000100008B67DDFFFF88EEFFFFF00000002D
:10218000FEFCFFFF00000000820300008BC8E7FF99
:10219000FF06F2FFFFF00000002EFDFFFF00000031
:1021A00000D80000008BC8E7FFFF06F2FFFFF00039
:1021B000000012FDFFFF00000000850100008B679A
:1021C000DDFFFF06F2FFFFF0000000ADFBFFFF00A8
:1021D000000000820300008BC8E7FFFF85F5FFFFCA
:1021E000F0000000DDFBFFFF00000000D800000051
:1021F0008BC8E7FFFF85F5FFFFF0000000C1FBFF84
:10220000FF00000000850100008B67DDFFFF85F502
:10221000FFFFF00000005CFAFFFF000000008203F7
:1022200000008BC8E7FFFF03F9FFFFF00000008DFF
:10223000FAFFFF00000000D80000008BC8E7FFFF96
:1022400003F9FFFFF000000070FAFFFF000000003C
:10225000850100008B67DDFFFF03F9FFFFF0000041
:10226000000BF9FFFF00000000820300008BC8E7AD
:10227000FFFF82FCFFFFF00000003CF9FFFF0000C1
:102280000000D80000008BC8E7FFFF82FCFFFFF0D2
:102290000000001FF9FFFF00000000850100008B17
:1022A00067DDFFFF82FCFFFFF0000000BAF7FFFFD1
:1022B00000000000820300008BC8E7FFFF00000061
:1022C00000F0000000EBF7FFFF00000000D8000066
:1022D000008BC8E7FFFF00000000F0000000CEF711
:1022E000FFFF00000000850100008B67DDFFFF009D
:1022F000000000F000000069F6FFFF00000000820F
:102300000300008BC8E7FFFF7E030000F000000021
:102310009AF6FFFF00000000D80000008BC8E7FF1E
:10232000FF7E030000F00000007DF6FFFF000000CC
:1023300000850100008B67DDFFFF7E030000F000D9
:10234000000019F5FFFF00000000820300008BC8A9
:10235000E7FFFFFD060000F000000049F5FFFF0069
:10236000000000D80000008BC8E7FFFFFD0600005A
:10237000F00000002CF5FFFF0000000085010000C8
:102380008B67DDFFFFFD060000F0000000C8F3FFD3
:10239000FF00000000820300008BC8E7FFFF7B0AFC
:1023A0000000F0000000F8F3FFFF00000000D8007C
:1023B00000008BC8E7FFFF7B0A0000F0000000DB95
:1023C000F3FFFF00000000850100008B67DDFFFFC9
:1023D0007B0A0000F000000077F2FFFF0000000021
:1023E000820300008BC8E7FFFFFA0D0000F0000039
:1023F00000A7F2FFFF00000000D80000008BC8E734
:10240000FFFFFA0D0000F00000008AF2FFFF00005D
:102410000000850100008B67DDFFFFFA0D0000F072
:1024200000000026F1FFFF00000000820300008B87
:10243000C8E7FFFF78110000F000000056F1FFFF31
:1024400000000000D80000008BC8E7FFFF781100F3
:1024500000F000000039F1FFFF00000000850100DE
:10246000008B67DDFFFF78110000F0000000D5EF62
:10247000FFFF00000000820300008BC8E7FFFFF7AA
:10248000140000F000000005F0FFFF00000000D87D
:102490000000008BC8E7FFFFF7140000F000000009
:1024A000E8EFFFFF00000000850100008B67DDFF03
:1024B000FFF7140000F000000084EEFFFF000000B2
:1024C00000820300008B6AF5FFFF15F9FFFF68012A
:1024D0000000B4EEFFFF000000000E0100008B6A58
:1024E000F5FFFF15F9FFFFF000000084EEFFFF008D
:1024F0000000009C0000008B6AF5FFFF15F9FFFF4C
:10250000F000000067EEFFFF000000008501000002
:102510008B6AF5FFFFEB060000F000000003EDFF03
:10252000FF000000007F0300008BE9F8FFFF15F9B2
:10253000FFFFF000000033EDFFFF00000000D300BC
:1025400000008BE9F8FFFF15F9FFFFF0000000160F
:10255000EDFFFF00000000850100008BE9F8FFFFA0
:1025600075030000F0000000B2EBFFFF0000000068
:10257000820300008B67FCFFFF15F9FFFFF00000EE
:1025800000E2EBFFFF00000000D80000008B67FCBA
:10259000FFFF15F9FFFFF0000000C5EBFFFF000093
:1025A0000000850100008B67FCFFFF75030000F051
:1025B00000000061EAFFFF00000000820300008BC2
:1025C000E6FFFFFF15F9FFFFF000000091EAFFFFB3
:1025D00000000000D80000008BE6FFFFFF15F9FFA8
:1025E000FFF000000074EAFFFF000000008501001A
:1025F000008BE6FFFFFF75030000F000000010E90C
:10260000FFFF00000000820300008B640300001540
:10261000F9FFFFF000000040E9FFFF00000000D8D4
:102620000000008B6403000015F9FFFFF0000000BC
:1026300023E9FFFF00000000850100008B64030018
:102640000075030000F0000000BFE7FFFF0000007E
:1026500000820300008BE206000015F9FFFFF00086
:102660000000EFE7FFFF00000000D80000008BE251
:1026700006000015F9FFFFF0000000D2E7FFFF00A1
:10268000000000850100008BE206000075030000D9
:10269000F00000006EE6FFFF000000008203000073
:1026A0008B610A000015F9FFFFF00000009EE6FFB5
:1026B000FF00000000D80000008B610A000015F93F
:1026C000FFFFF000000081E6FFFF00000000850131
:1026D00000008B610A000075030000F00000001D7F
:1026E000E5FFFF00000000820300008BDF0D00000B
:1026F00015F9FFFFF00000004DE5FFFF00000000AE
:10270000D80000008BDF0D000015F9FFFFF000007E
:102710000030E5FFFF00000000850100008BDF0DA9
:10272000000075030000F0000000CCE3FFFF000094
:102730000000820300008B5E11000015F9FFFFF01E
:10274000000000FCE3FFFF00000000D80000008B49
:102750005E11000015F9FFFFF0000000DFE3FFFF4E
:1027600000000000850100008B5E11000075030071
:1027700000F00000007BE2FFFF0000000082030089
:10278000008BDC14000015F9FFFFF0000000ABE245
:10279000FFFF00000000D80000008BDC14000015D3
:1027A000F9FFFFF00000008EE2FFFF00000000854F
:1027B0000100008BDC14000075030000F000000035
:1027C0002AE1FFFF00000000820300008B5B18007D
:1027D0000015F9FFFFF00000005AE1FFFF000000C4
:1027E00000D80000008B5B18000015F9FFFFF00017
:1027F00000003DE1FFFF00000000850100008B5B51
:1028000018000075030000F0000000D9DFFFFF0092
:10281000000000820300008BDA1B000015F9FFFFA7
:10282000F000000009E0FFFF00000000D8000000F9
:102830008BDA1B000015F9FFFFF0000000ECDFFF52
:10284000FF00000000850100008BDA1B000075030B
:102850000000F000000088DEFFFF0000000082039F
:1028600000008B581F000015F9FFFFF0000000B8B2
:10287000DEFFFF00000000D80000008B581F0000A2
:1028800015F9FFFFF00000009BDEFFFF00000000D5
:10289000850100008B581F000075030000F0000048
:1028A0000037DDFFFF00000000820300008B581F8F
:1028B000000075030000F000000067DDFFFF00006E
:1028C00000000C0300008C581F000075030000F08E
:1028D0000000000000000000000000860189188B45
:1028E000C8E7FFFF3EEBFFFF6801000000000000AB
:1028F00000000000DF0000008BC8E7FFFF3EEBFF99
:10290000FF6801000000000000E4FFFFFF0C03006F
:10291000008BC8E7FFFF3EEBFFFFF0000000000068
:102920000000D0FFFFFF3E0000008BC8E7FFFF3E26
:10293000EBFFFFF000000000000000B3FFFFFF8589
:102940000100008B2AF2FFFF3EEBFFFFF0000000CA
:10295000000000004FFEFFFF820300008BC8E7FF6E
:10296000FFB4EEFFFFF0000000000000007FFEFF5C
:10297000FFD80000008BC8E7FFFFB4EEFFFFF000B8
:1029800000000000000063FEFFFF850100008B2AAD
:10299000F2FFFFB4EEFFFFF000000000000000FEB9
:1029A000FCFFFF820300008BC8E7FFFF2AF2FFFF56
:1029B000F0000000000000002EFDFFFFD800000026
:1029C0008BC8E7FFFF2AF2FFFFF0000000000000C5
:1029D0000012FDFFFF850100008B2AF2FFFF2AF2A3
:1029E000FFFFF000000000000000ADFBFFFF8203CE
:1029F00000008BC8E7FFFF9FF5FFFFF0000000001D
:102A0000000000DDFBFFFFD80000008BC8E7FFFFE0
:102A10009FF5FFFFF000000000000000C1FBFFFF7A
:102A2000850100008B2AF2FFFF9FF5FFFFF00000F9
:102A300000000000005CFAFFFF820300008BC8E783
:102A4000FFFF15F9FFFFF0000000000000008DFA05
:102A5000FFFFD80000008BC8E7FFFF15F9FFFFF06C
:102A60000000000000000070FAFFFF850100008BED
:102A70002AF2FFFF15F9FFFFF00000000000000040
:102A80000BF9FFFF820300008BC8E7FFFF8BFCFF01
:102A9000FFF0000000000000003CF9FFFFD800003C
:102AA000008BC8E7FFFF8BFCFFFFF0000000000079
:102AB00000001FF9FFFF850100008B2AF2FFFF8B4A
:102AC000FCFFFFF000000000000000BAF7FFFF82EB
:102AD0000300008BC8E7FFFF00000000F0000000CB
:102AE00000000000EBF7FFFFD80000008BC8E7FFF5
:102AF000FF00000000F000000000000000CEF7FF23
:102B0000FF850100008B2AF2FFFF00000000F000AB
:102B100000000000000069F6FFFF820300008BC880
:102B2000E7FFFF75030000F0000000000000009ABE
:102B3000F6FFFFD80000008BC8E7FFFF7503000019
:102B4000F0000000000000007DF6FFFF850100009E
:102B50008B2AF2FFFF75030000F000000000000068
:102B60000019F5FFFF820300008BC8E7FFFFEB06AB
:102B70000000F00000000000000049F5FFFFD80051
:102B800000008BC8E7FFFFEB060000F0000000002C
:102B90000000002CF5FFFF850100008B2AF2FFFFEB
:102BA000EB060000F000000000000000C8F3FFFF8B
:102BB000820300008BC8E7FFFF610A0000F00000FD
:102BC0000000000000F8F3FFFFD80000008BC8E70A
:102BD000FFFF610A0000F000000000000000DBF3CE
:102BE000FFFF850100008B2AF2FFFF610A0000F061
:102BF0000000000000000077F2FFFF820300008B5E
:102C0000C8E7FFFFD60D0000F00000000000000044
:102C1000A7F2FFFFD80000008BC8E7FFFFD60D002A
:102C200000F0000000000000008AF2FFFF850100B4
:102C3000008B2AF2FFFFD60D0000F000000000001C
:102C4000000026F1FFFF820300008BC8E7FFFF4C66
:102C5000110000F00000000000000056F1FFFFD856
:102C60000000008BC8E7FFFF4C110000F0000000DF
:102C70000000000039F1FFFF850100008B2AF2FF00
:102C8000FF4C110000F000000000000000D5EFFF35
:102C9000FF820300008BC8E7FFFFC2140000F000B2
:102CA00000000000000005F0FFFFD80000008BC806
:102CB000E7FFFFC2140000F000000000000000E881
:102CC000EFFFFF850100008B2AF2FFFFC214000016
:102CD000F00000000000000084EEFFFF820300000F
:102CE0008B9FF5FFFFB4EEFFFF68010000000000BE
:102CF00000B4EEFFFFCE0000008B9FF5FFFFB4EEA7
:102D0000FFFFF00000000000000084EEFFFF9C00C9
:102D100000008B9FF5FFFFB4EEFFFFF00000000006
:102D200000000067EEFFFF850100008B9FF5FFFFAD
:102D300015F9FFFFF00000000000000003EDFFFFA9
:102D4000820300008B15F9FFFFB4EEFFFFF00000D7
:102D5000000000000033EDFFFFD80000008B15F9E4
:102D6000FFFFB4EEFFFFF00000000000000016EDD2
:102D7000FFFF850100008B15F9FFFF15F9FFFFF03C
:102D800000000000000000B2EBFFFF820300008B98
:102D90008BFCFFFFB4EEFFFFF0000000000000001E
:102DA000E2EBFFFFD80000008B8BFCFFFFB4EEFFCF
:102DB000FFF000000000000000C5EBFFFF850100F0
:102DC000008B8BFCFFFF15F9FFFFF00000000000F7
:102DD000000061EAFFFF820300008B00000000B4E6
:102DE000EEFFFFF00000000000000091EAFFFFD8B6
:102DF0000000008B00000000B4EEFFFFF0000000B8
:102E00000000000074EAFFFF850100008B00000055
:102E10000015F9FFFFF00000000000000010E9FFBE
:102E2000FF820300008B75030000B4EEFFFFF0008B
:102E300000000000000040E9FFFFD80000008B7593
:102E4000030000B4EEFFFFF00000000000000023CC
:102E5000E9FFFF850100008B7503000015F9FFFFF6
:102E6000F000000000000000BFE7FFFF8203000049
:102E70008BEB060000B4EEFFFFF000000000000046
:102E800000EFE7FFFFD80000008BEB060000B4EE78
:102E9000FFFFF000000000000000D2E7FFFF850107
:102EA00000008BEB06000015F9FFFFF000000000AA
:102EB0000000006EE6FFFF820300008B610A000045
:102EC000B4EEFFFFF0000000000000009EE6FFFFF0
:102ED000D80000008B610A0000B4EEFFFFF0000094
:102EE000000000000081E6FFFF850100008B610A01
:102EF000000015F9FFFFF0000000000000001DE5D4
:102F0000FFFF820300008BD60D0000B4EEFFFFF040
:102F1000000000000000004DE5FFFFD80000008B1E
:102F2000D60D0000B4EEFFFFF0000000000000002E
:102F300030E5FFFF850100008BD60D000015F9FF7D
:102F4000FFF000000000000000CCE3FFFF82030060
:102F5000008B4C110000B4EEFFFFF00000000000F9
:102F60000000FCE3FFFFD80000008B4C110000B410
:102F7000EEFFFFF000000000000000DFE3FFFF8530
:102F80000100008B4C11000015F9FFFFF00000005C
:102F9000000000007BE2FFFF820300008BC21400F0
:102FA00000B4EEFFFFF000000000000000ABE2FF05
:102FB000FFD80000008BC2140000B4EEFFFFF00049
:102FC0000000000000008EE2FFFF850100008BC2C0
:102FD00014000015F9FFFFF0000000000000002AB7
:102FE000E1FFFF820300008B38180000B4EEFFFF02
:102FF000F0000000000000005AE1FFFFD8000000D0
:103000008B38180000B4EEFFFFF000000000000055
:10301000003DE1FFFF850100008B3818000015F925
:10302000FFFFF000000000000000D9DFFFFF820377
:1030300000008BAD1B0000B4EEFFFFF000000000AD
:1030400000000009E0FFFFD80000008BAD1B00006E
:10305000B4EEFFFFF000000000000000ECDFFFFF17
:10306000850100008BAD1B000015F9FFFFF000008B
:10307000000000000088DEFFFF820300008B231F9A
:103080000000B4EEFFFFF000000000000000B8DE1A
:10309000FFFFD80000008B231F0000B4EEFFFFF0FD
:1030A000000000000000009BDEFFFF850100008B98
:1030B000231F000015F9FFFFF000000000000000D2
:1030C00037DDFFFF820300008B231F000015F9FF8F
:1030D000FF30F200000000000037DDFFFFC50000F8
:1030E00000890088000302000088010302000088B4
:1030F000001F0200005F000208FF1000002054685B
:1031000065205265706C696361746F722032202093
:10311000200020546865205265706C696361746F8B
:103120007220325820200020202D2D2D2D2D2D2DC8
:103130002D2D2D2D2D2D2D2020202000496E746544
:10314000726E616C2052656C656173652020202071
:10315000004669726D776172652056657273696F9A
:103160006E20352E2000436F6F6C21005374617206
:1031700074205072656865617421005269676874D3
:1031800020546F6F6C004E4120004F4E20004F4680
:1031900046004578747275646572004C65667420EB
:1031A000546F6F6C00506C6174666F726D00576580
:1031B0006C636F6D65212049276D20202020202021
:1031C0002020546865205265706C696361746F7269
:1031D00020322E2020205072657373207468652081
:1031E000726564204D20746F2020676574207374AD
:1031F0006172746564212020202020202020005747
:10320000656C636F6D65212049276D20202020208B
:10321000202020546865205265706C696361746F6A
:10322000722032582E2020507265737320746865A6
:1032300020726564204D20746F20206765742073B0
:1032400074617274656421202020202020202000D9
:103250004120626C696E6B696E6720274D27206D77
:1032600065616E7349276D2077616974696E6720A7
:10327000616E642077696C6C636F6E74696E7565DE
:10328000207768656E20796F7520202070726573D5
:10329000732074686520627574746F6E2E2E2E20F4
:1032A000004120736F6C696420274D27206D656194
:1032B0006E7320202049276D20776F726B696E67CF
:1032C00020616E642077696C6C7570646174652030
:1032D0006D79207374617475732020202077686580
:1032E0006E2049276D2066696E69736865642E2EAD
:1032F0002E004F7572206E6578742073746570733C
:103300002077696C6C20676574206D652073657427
:103310002075702120202020202046697273742C93
:10332000207765276C6C20726573746F72656D7998
:10333000206275696C6420706C6174666F726D2EAA
:103340002E2E00736F2069742773206E69636520C9
:10335000616E64202020206C6576656C2E20497497
:1033600027732070726F6261626C79612062697488
:10337000206F66662066726F6D20202020202073EB
:1033800068697070696E672E2E2E20202020202004
:1033900020202000416161682C20746861742066DF
:1033A00065656C73202020206D75636820626574EC
:1033B0007465722E20202020202020204C65742748
:1033C0007320676F206F6E20616E64206C6F616484
:1033D000736F6D652066696C616D656E7421202068
:1033E00020202020005765276C6C207472792061A2
:1033F0006761696E212020202020202020202020AD
:1034000020202020202020202020202020202020BC
:1034100020202020202020202020202020202020AC
:10342000202020202020202020202020202020209C
:103430002020202020005765276C6C206B6565706C
:1034400020676F696E6720202020616E64206C6F9A
:10345000616420736F6D6520202020202020666924
:103460006C616D656E742C466F722068656C70209F
:10347000676F746F206D616B6572626F742E636F1E
:103480006D2F68656C70005765276C6C20676F2026
:10349000746F20746865206D61696E6D656E752E40
:1034A00020496620796F75206E656564202020684C
:1034B000656C7020676F20746F3A202020202020D8
:1034C0002020206D616B6572626F742E636F6D2FAB
:1034D00068656C7020202000417765736F6D6521F1
:1034E0002020202020202020202020205765276C0D
:1034F0006C20676F20746F2074686520534420200F
:1035000063617264206D656E7520616E6420796FF1
:103510007520202063616E2073656C656374206183
:10352000206D6F64656C21200049276D20676F69ED
:103530006E6720746F206D616B65202020612073A1
:103540006572696573206F66206C696E65732073A0
:103550006F77652063616E2066696E64206D7920E7
:1035600020202020206E6F7A7A6C6520616C69675C
:103570006E6D656E742E202020004C6F6F6B206680
:103580006F722074686520626573742020206D61FD
:103590007463686564206C696E6520696E2065617E
:1035A000636861786973207365742E204C696E6559
:1035B0007320617265206E756D626572656420317D
:1035C0002D313320616E642E2E2E006C696E6520C5
:1035D0006F6E652069732065787472612020206C9D
:1035E0006F6E672E205468652059206178697320BA
:1035F0007365746973206C656674206F6E207468DF
:103600006520706C617465616E6420582061786912
:10361000732069732072696768742E004772656150
:103620007421202049277665207361766564202007
:1036300074686573652073657474696E677320615F
:103640006E64202049276C6C207573652074686552
:103650006D20746F202020206D616B65206E696382
:1036600065206D6F64656C73212020200053656CAC
:103670006563742062657374206C696E65732E00D7
:10368000582041786973204C696E65002D2D3E00ED
:1036900020202000592041786973204C696E650014
:1036A000446F6E6521004D792074656D706572619F
:1036B000747572652077617320206368616E676539
:1036C000642065787465726E616C6C792E20526529
:1036D00073656C6563742066696C616D656E7420DA
:1036E00020206D656E7520746F207472792061677B
:1036F00061696E2E004D792065787472756465720B
:103700007320617265202020206E6F7420686561CF
:1037100074696E672075702E202020202043686514
:10372000636B206D79202020202020202020202065
:1037300020636F6E6E656374696F6E732120202045
:1037400020202020200049276D2068656174696E63
:1037500067207570206D79202020657874727564FB
:10376000657220736F2077652063616E20206C6F17
:103770006164207468652066696C616D656E742E85
:1037800020204265206361726566756C2C20746828
:10379000652E2E2E20200049276D206865617469F2
:1037A0006E67207570206D792020206578747275A1
:1037B00064657220736F2077652063616E20206CD2
:1037C0006F6164207468652066696C616D656E74F4
:1037D0002E20204265206361726566756C2C207412
:1037E00068652E2E2E202000506C65617365207751
:1037F000616974207768696C652049206865617427
:10380000206D79206578747275646572212020209E
:1038100020202020202020202020202020202020A8
:103820002020202020202020202020202020202098
:103830002020202020202020006E6F7A7A6C6520C6
:1038400077696C6C2067657420686F7421576869AC
:103850006C652049276D2068656174696E672C204E
:103860002072656D6F7665207468652066696C618D
:103870006D656E7420747562652066726F6D20745C
:1038800068652E2E2E20202020006E6F7A7A6C65BF
:103890002077696C6C2067657420686F74215768A5
:1038A000696C652049276D2068656174696E672CB5
:1038B000202072656D6F7665207468652066696C7E
:1038C000616D656E7420747562652066726F6D201F
:1038D0007468652E2E2E2020202000657874727565
:1038E00064657220626C6F636B2E2046656564664A
:1038F000696C616D656E742066726F6D20746865A9
:1039000020202073706F6F6C207468726F75676809
:10391000207468652020207475626520756E746956
:103920006C2069742E2E2E2020202000706F707362
:10393000206F757420696E2066726F6E742E202061
:103940005768656E207468652066696C616D656E88
:103950007420697372656164792C20707265737369
:1039600020274D2720746F20636F6E74696E756514
:103970002E202020202020202020202000486561AB
:1039800074696E672050726F67726573733A202096
:103990002020202020202020202020202020202027
:1039A0002020202020202020202020202020202017
:1039B0002020202020202020202020202020202007
:1039C00020202020202020202020202020004F4BBD
:1039D0002049276D207265616479212020202020F4
:1039E00020204669727374207765276C6C206C6F99
:1039F00061642074686572696768742065787472A0
:103A0000756465722E202020202050757368206612
:103A1000696C616D656E7420696E2E2E2E200047D4
:103A20007265617421204E6F77207765276C6C205A
:103A30002020206C6F616420746865206C6566745A
:103A40002020202020202065787472756465722EF5
:103A5000205075736820202020202066696C616DDD
:103A6000656E74207468726F7567682E2E2E200044
:103A70004F4B2049276D20726561647921202020F9
:103A80002020202050757368207468652066696C5A
:103A9000616D656E742020207468726F7567682E82
:103AA0002E2E2020202020202020202020202020FA
:103AB0002020202020202020202020202020202006
:103AC0000049276D207265616479212050756C6C06
:103AD0002074686520677569646520747562652067
:103AE0006F666620616E642020707573682074684C
:103AF000652066696C616D656E7420202074687243
:103B00006F7567682E2E2E20202020202020202058
:103B1000200049276D207265616479212050756C01
:103B20006C207468652067756964652074756265CA
:103B3000206F666620616E64202070756C6C207446
:103B400068652066696C616D656E7420202067650C
:103B50006E746C792E2E2E202020202020202020F4
:103B600020200049276D2072656164792120446519
:103B700074616368202020746865206775696465D6
:103B8000207475626520616E6420206D6F766520FB
:103B9000746865206C6576657220746F20202074CF
:103BA00068652072696768742E202050756C6C2ED1
:103BB0002E2E200049276D207265616479212044F2
:103BC0006574616368202020746865206775696486
:103BD00065207475626520616E6420206D6F766566
:103BE00020746865206C6576657220746F202020D3
:103BF000746865206C6566742E202050756C6C2E80
:103C00002E2E202000756E74696C20796F752066E9
:103C100065656C2074686520206D6F746F72207408
:103C2000756720697420696E2E20202020507573DE
:103C30006820666F72206120666577206D6F7265FF
:103C4000207365636F6E64732C207468656E2077D3
:103C50006169742E20005768656E2066696C616D1D
:103C6000656E74206973202020206265696E67206C
:103C700065787472756465642066726F6D2074680F
:103C800065206E6F7A7A6C652C2050726573732094
:103C90004D20746F2073746F702065787472756432
:103CA000696E672E2020005768656E2066696C611A
:103CB0006D656E74206973202020206265696E67CF
:103CC0002065787472756465642066726F6D207407
:103CD0006865206E6F7A7A6C652C20202020202069
:103CE000202020507265737320274D2720746F2089
:103CF000657869742E2020005768656E206D7920E4
:103D000066696C616D656E742069732072656C659F
:103D1000617365642C20202020202020202020207A
:103D2000507265737320274D2720746F2065786962
:103D3000742E202020202020202020202020202021
:103D400020202020202020200066696C616D656E97
:103D500074206672656520616E64202020636C6F3C
:103D6000736520746865206C657665722E2020204E
:103D700020507265737320274D2720746F2065785B
:103D800069742E2020202020202020202020202088
:103D900020202020202020202000477265617421EF
:103DA000202049276C6C2073746F7020202072755E
:103DB0006E6E696E67206D792065787472756465C2
:103DC000722E5072657373204D20746F20636F6E76
:103DD00074696E75652E2020202020202020202050
:103DE00020202020202020202020004F4B2120496F
:103DF000276C6C206B656570206D79202020206D0C
:103E00006F746F722072756E6E696E672E20596FB7
:103E10007520206D6179206E65656420746F207057
:103E2000757368202020206861726465722E2E2EC2
:103E30002020202020202020202020005765276CD3
:103E40006C206B65657020676F696E672E2020207F
:103E50004C6574732074727920746865206C656693
:103E60007420202065787472756465722E205075F8
:103E7000736820202020202066696C616D656E7457
:103E800020646F776E2E2E2E20202020005765276D
:103E90006C6C206B65657020676F696E672E2020E3
:103EA00020496620796F7527726520686176696E92
:103EB000672020202074726F75626C652C20636807
:103EC00065636B206F757420206D616B6572626F26
:103ED000742E636F6D2F68656C70202020004D7903
:103EE000206D6F746F722074696D6564206F7574D6
:103EF000202061667465722035206D696E75746569
:103F0000732E202020205072657373204D20746F13
:103F100020657869742E2020202020202020202059
:103F20002020202020202020202020202020004889
:103F30006F77276420697420676F3F205265616442
:103F400079202000746F206D616B6520736F6D6543
:103F50007468696E673F2020005965732020200037
:103F60004E6F2020202000446F6573206D79206EF5
:103F70006F7A7A6C65006865696768742063686544
:103F8000636B206F75743F004D79206865696768C1
:103F90007420697320676F6F6421004C6574277308
:103FA0002074727920616761696E2E004469642013
:103FB000706C6173746963206578747275646500F0
:103FC00066726F6D20746865206E6F7A7A6C653FDB
:103FD00000556E6C6F616420726967687400556E7D
:103FE0006C6F6164004C6F6164206C656674005591
:103FF0006E6C6F6164206C656674004C6F61642048
:104000007269676874004C6F616400202020202072
:104010004A6F67206D6F64652020202020202000DB
:104020002020202020202020582B2020202020204D
:104030002020202000202020202020284261636BA7
:1040400029202020592D3E20200020202020202023
:104050002020582D2020202020202020202000203B
:1040600020202020202020592B202020202020200C
:104070002020200020203C2D5820284261636B29FD
:1040800020205A2D3E2020200020202020202020EB
:1040900020592D20202020202020202020002020FA
:1040A0002020202020205A2D2020202020202020C9
:1040B00020200020203C2D5920284261636B2920BC
:1040C0002020202020202000202020202020202010
:1040D0005A2B202020202020202020200047414D46
:1040E00045204F564552210048656174696E673A14
:1040F0002020202020202020202020200048656132
:1041000074696E673A00202D2D25006572726F72FA
:1041100021002020202020202020202020202020BE
:104120002020202020200045787472756465723A42
:104130002020202D2D2D2F2D2D2D43005220457870
:104140007472756465723A202D2D2D2F2D2D2D43FF
:10415000004C2045787472756465723A202D2D2DBF
:104160002F2D2D2D4300506C6174666F726D3A20B7
:1041700020202D2D2D2F2D2D2D430020204E412090
:104180002020200077616974696E6720002F20204D
:104190002043004320202020002050726568656184
:1041A000742053657474696E67732020200052690F
:1041B00067687420546F6F6C2020202020202020FE
:1041C0002020004C65667420546F6F6C20202020E6
:1041D0002020202020202000506C6174666F726DBA
:1041E000202020202020202000205265736574208C
:1041F00053657474696E677320746F2020002044C7
:10420000656661756C742076616C7565733F0055E9
:104210006E506175736520202020202020202020F2
:104220002020005061757365202020202020202050
:104230002020202020200043616E63656C204275A1
:10424000696C642020202020202000576169746957
:104250006E6720666F7220486F6D696E672000433D
:1042600068616E67652046696C616D656E742020BB
:10427000202000536C6565702028436F6C642050CB
:1042800061757365292000526573756D65204275EF
:10429000696C6420202020202020004C45442043CD
:1042A0006F6C6F72202020202020202020200052C0
:1042B0004544202020004F52414E474520005049A0
:1042C0004E4B202000475245454E2000424C55455C
:1042D000202000505552504C450057484954452025
:1042E00000435553544F4D004F4646202020004672
:1042F000696C616D656E742046616E2020202020FF
:10430000202020004275696C6420537461746973C5
:1043100074696373202020004261636B20746F20F6
:104320004D6F6E69746F7220202020004275696C99
:10433000642046696E69736865642120202020200E
:10434000202020202020202020202020202020206D
:10435000202020204275696C642054696D652020FE
:10436000202020206820206D004275696C64205454
:10437000696D653A20202020206820206D004C695E
:104380006E653A2020202020202020202020202080
:10439000202000457374696D6174656420427569FD
:1043A0006C642054696D654C69666574696D65203F
:1043B000546F74616C3A2020202068004C61737443
:1043C000204275696C643A20202020206820206DEE
:1043D0000043616E63656C2074686973206275695F
:1043E0006C643F0051756974207468697320707241
:1043F0006F636573733F004275696C642066726F0A
:104400006D205344202020202020005072656865D4
:1044100061742020202020202020202020200055F2
:1044200074696C6974696573202020202020202025
:10443000202000496E666F20616E6420536574749D
:10444000696E67732020004D6F6E69746F72204D26
:104450006F646520202020202020004368616E6763
:10446000652046696C616D656E7420202020004CCB
:104470006576656C204275696C6420506C6174656A
:104480002020004A6F67204D6F6465202020202087
:1044900020202020202000486F6D65204178657322
:1044A000202020202020202020200052756E205324
:1044B0007461727475702053637269707420004562
:1044C0006E61626C65205374657070657273202034
:1044D00020200044697361626C65205374657070BC
:1044E0006572732020200053746F7020426C696ED7
:1044F0006B696E6721202020202000426C696E6B62
:10450000204C4544732020202020202020200043E0
:10451000616C696272617465204E6F7A7A6C657342
:1045200020200065786974206D656E75202020203C
:1045300020202020202000426F7420537461746971
:10454000737469637320202020200047656E6572B4
:10455000616C2053657474696E677320202000506D
:104560007265686561742053657474696E67732041
:1045700020200056657273696F6E204E756D6265FE
:1045800072202020202000526573746F72652044D1
:10459000656661756C747320202000536F756E64BE
:1045A0002020202020202020202020202020004803
:1045B000656174656420506C61746500546F6F6C44
:1045C00020436F756E7420202020202020202000A2
:1045D00053494E474C45004455414C202000486506
:1045E0006174204C4544732020202020202020206E
:1045F00020004865617420486F6C642020202020D2
:10460000206D2020200048656C702054657874204F
:1046100020202020202020202000416363656C653D
:1046200072617465202020202020202020004E6F01
:10463000205344206361726420666F756E6400537A
:104640004420636172642072656164206572726FD8
:104650007200492063616E27742072656164207462
:104660006869732020205344206361726420666F60
:10467000726D61742120202020205472792072658F
:10468000666F726D617474696E6720202020746893
:1046900065206361726420746F2046415431362E68
:1046A0002000492063616E27742072656164205385
:1046B0004420092020206361726473207769746844
:1046C0002073746F7261676520206C617267657218
:1046D000207468616E203247422E20202020202046
:1046E00020202020202020202020202020202020CA
:1046F0000020534420636172642072656164206508
:1047000072726F72002049276D20616C726561645E
:1047100079206275696C64696E67005761726E69B1
:104720006E673A4275696C64207370656564736680
:104730006173746572207468616E2035306D6D2F01
:104740007320207265717569726520783367206601
:104750006F726D61742020666F72206265737420C1
:10476000726573756C74732E202020000100940311
:10477000360009016B00D800A000BD00D500AB00D9
:104780000A019D003F01840074017C00A9017400AE
:10479000DE016D0013026600480260007D025900D0
:1047A000B2025200E7024B001C03440051033A00DE
:1047B00086033000BB032200F0030200D0FEC0FFDE
:1047C00018FFD0FF63FFE0FFB1FFF0FF0000000023
:1047D00051001000A4002000F8003000400140000B
:1047E000A2015000F70160004B0270009F028000A0
:1047F000F20290004503A0009703B000E803C00058
:104800003A04D0008C04E000DF04F000320500011F
:1048100086051001DB0520012F063001DA06500164
:104820003007600186077001DC078001680890018D
:104830002039C9FFE03CE7FFF83F0000000000001E
:1048400008000000200319004006320060094B00F8
:10485000000A5000800C640000108000D63DFE3D30
:104860000542D24B594CD5567D58F55B635D32718C
:104870008183AA860C92449312942995BB96EB9659
:104880004299A6A587A63FAAD6AAC8AB87ACC3AD56
:104890000AB35BB30BB7D4BA8CDA5CDC01DE34DF6D
:1048A000EFDFCFE011241FBECFEFD1E2DEBFCDBFDF
:1048B00016E0A0E0B2E0E4E5FCEC01E00BBF02C0D2
:1048C00007900D92A039B107D9F71DE1A0E9B6E034
:1048D00001C01D92AC3BB107E1F718E4C4EAD8E48B
:1048E00000E006C022970109FE010BBF0E9496E579
:1048F000CC35D10780E00807A9F70E94234C0C941F
:1049000028E60C940000A0E3B0E0E9E8F4E20C949F
:1049100061E5298F3A8F4B8F5C8F6D8F7E8F8F8FE4
:1049200098A3A98ABA8ACB8ADC8AED8AFE8A0F8B81
:10493000188F098D1A8D2B8D3C8D09A31AA32BA3DB
:104940003CA3680179018FEF9FEFA0E0B0E0C8229F
:10495000D922EA22FB2289012227332709A71AA795
:104960002BA73CA709891A892B893C890DA31EA373
:104970002FA338A74801590188229922AA22BB22D5
:10498000290166247724C501B401A70196010E947C
:10499000D0E46DA77EA78FA798ABC301B2010E9498
:1049A000D0E46B017C01C501B40129A53AA54BA552
:1049B0005CA50E94D0E44B015C01C301B2010E94DE
:1049C000D0E4AB01BC01C80CD91CEA1CFB1C0DA532
:1049D0001EA52FA538A9C901AA27BB27C80ED91E15
:1049E000EA1EFB1EC814D904EA04FB0420F440505C
:1049F00050406F4F7F4FC701AA27BB27840F951FD9
:104A0000A61FB71F8D839E83AF83B8877601DD24F1
:104A1000CC244DA55EA56FA578A960707070C40EFA
:104A2000D51EE61EF71EC982DA82EB82FC821C2D9F
:104A30000A818B804C808D878E818E878F818F87B6
:104A40008885888B2D893E894F89588D69A17AA1E7
:104A50008BA19CA10E94D0E46B017C012D8D3E8D29
:104A60004F8D58A16DA17EA18FA198A50E94D0E481
:104A7000DC01CB01C80ED91EEA1EFB1E8D859E856A
:104A8000AF85B8898C0D9D1DAE1DBF1D8D879E877E
:104A9000AF87B88B682F7E85212F302F482D542D5E
:104AA0008F859889E096E0E10C947DE50F93CF9394
:104AB000DF93CDB7DEB760970FB6F894DEBF0FBEB9
:104AC000CDBF002309F456C029873A874B875C87FE
:104AD0006D877E878F87988B20E2201B8D859E8532
:104AE000AF85B889AC01BD011216B4F0770F440B45
:104AF000542FBA014D835E836F837887332727FD58
:104B00003095309521953F4F04C0B595A795979561
:104B100087952A95D2F722C0002E04C07595679517
:104B2000579547950A94D2F74D835E836F837887B4
:104B300004C0880F991FAA1FBB1F2A95D2F7498569
:104B40005A856B857C8504C0769567955795479502
:104B50000A95D2F7842B952BA62BB72B89839A83A2
:104B6000AB83BC8329813A814B815C816D817E81DD
:104B70008F81988560960FB6F894DEBF0FBECDBFCB
:104B8000DF91CF910F910895A8E4B0E0EAECF5E24F
:104B90000C9460E5F50129A33AA34BA35CA36DA394
:104BA0007EA38FA398A7A98EFA8FCB8EDC8EED8E75
:104BB000FE8E0F8F18A38DA09EA0AFA0B8A4B7FE45
:104BC00067C02195B1E0121608F0B0E03195A1E080
:104BD000131608F0A0E0B32EBB1ABB2D88248394D3
:104BE0003B1508F08824A829419531E0141608F0F7
:104BF00030E0B42EBA1AAB2D882483944B1508F0FC
:104C000088243829519541E0151608F040E0452EDA
:104C1000431A31E0541508F030E0432B619531E040
:104C2000161608F030E0862E841A41E0681508F068
:104C300040E0342B719541E0171608F040E0572F03
:104C4000531B31E0751708F030E0432B819531E0BC
:104C5000181608F030E0682F641B462F61E08417B7
:104C600008F060E0362B9195931B29A3BAA3ABA360
:104C70004CA28DA25EA34FA398A78FEF9FEFAFEF3B
:104C8000BFEF25968CAF9DAFAEAFBFAF259706C0E7
:104C900025961CAE1DAE1EAE1FAE25978D8D9E8D2A
:104CA000AF8DB8A1B7FF68C025962CAD3DAD4EAD18
:104CB0005FAD2597209530954095509525962CAF62
:104CC0003DAF4EAF5FAF2597E19581E01E1608F02E
:104CD00080E0F19591E01F1608F090E04F2F481BFF
:104CE00081E0F41708F080E0982BC19481E01C1457
:104CF00008F080E06C2D691B91E0C61608F090E08A
:104D0000892BD19491E01D1408F090E05D2D581B83
:104D100081E0D51608F080E0982BE19481E01E1424
:104D200008F080E03E2D391B91E0E31608F090E09A
:104D3000892BF19491E01F1408F090E02F2D281B8F
:104D400081E0F21608F080E0982B019581E01016C2
:104D500008F080E0702F791B972F71E0091708F099
:104D600070E0872B1195181BE98F4A8F6B8F5C8F32
:104D70003D8F2E8F9F8F18A3798D6A8D5B8D4C8D03
:104D80003D8D2E8D9F8D88A1E9A1E98BEAA1EA8B4B
:104D9000EBA1EB8BECA1EC8BEDA1ED8BEEA1EE8BFF
:104DA000EFA1EF8BE8A5E88F79876A875B874C874F
:104DB0003D872E879F87888B89849A84AB84BC84A7
:104DC0008D859E85AF85B889E988FA880B891C890D
:104DD000EDAAFEAA0FAB18AFCD88DE88EF88F88C5D
:104DE0000097A105B10509F0BFC3C814D904EA04AE
:104DF000FB0408F04EC100E0801600E0900601E0E0
:104E0000A00600E0B00660F41FEF81169104A10433
:104E1000B10409F098F480E090E0A0E0B0E017C0A1
:104E200020E0821620E0920620E0A20621E0B206F1
:104E300050F480E190E0A0E0B0E009C088E090E0AC
:104E4000A0E0B0E004C088E190E0A0E0B0E0B501EF
:104E5000A401082E04C076956795579547950A9446
:104E6000D2F7FA01E659FD4F208140E250E060E0C0
:104E700070E0481B590B6A0B7B0B421B51096109FF
:104E800071094115510561057105A1F1042E04C098
:104E9000880C991CAA1CBB1C0A94D2F797018601A6
:104EA000042E04C0000F111F221F331F0A94D2F7D3
:104EB00080E290E0841B950BCDA8DEA8EFA8F8ACAB
:104EC00004C0F694E794D794C7948A95D2F7C02A81
:104ED000D12AE22AF32A0DA91EA92FA938AD04C0B0
:104EE000000F111F221F331F4A95D2F70DAB1EABC7
:104EF0002FAB38AF250166247724950184012070FB
:104F0000307009AB1AAB2BAB3CABC701B601A301A8
:104F100092010E9422E52DA73EA74FA758AB69A793
:104F20007AA78BA79CA7C701B601A30192010E9493
:104F300022E5CA01B90129A93AA94BA95CA90E9495
:104F4000D0E4AB01BC0109A51AA52BA53CA57801AD
:104F5000DD24CC240DA91EA92FA938ADC901AA278B
:104F6000BB27C82AD92AEA2AFB2A0DA51EA52FA5E8
:104F700038A9C416D506E606F70638F501501040E4
:104F80002040304009A71AA72BA73CA7C80CD91C62
:104F9000EA1CFB1CC814D904EA04FB04D0F0C416B4
:104FA000D506E606F706A8F40DA51EA52FA538A977
:104FB000025010402040304009A71AA72BA73CA759
:104FC000C80CD91CEA1CFB1C04C009A71AA72BA7F4
:104FD0003CA7C41AD50AE60AF70AC701B601A3011D
:104FE00092010E9422E52DA73EA74FA758AB69AFBB
:104FF0007AAF8BAF9CAFC701B601A30192010E94AB
:1050000022E5CA01B90129A93AA94BA95CA90E94C4
:10501000D0E46B017C0149AD5AAD6BAD7CAD9A011A
:10502000112700274DA95EA96FA978AD6070707037
:10503000042B152B262B372B8DA59EA5AFA5B8A924
:105040000C151D052E053F05C0F40197A109B109F6
:10505000080D191D2A1D3B1D081519052A053B05BC
:1050600060F00C151D052E053F0538F48DA59EA595
:10507000AFA5B8A90297A109B10909A51AA52BA541
:105080003CA57801DD24CC24C82AD92AEA2AFB2AA7
:10509000B9C481149104A104B10451F461E070E039
:1050A00080E090E0A50194010E9422E549015A01A7
:1050B00010E0811610E0910611E0A10610E0B106A3
:1050C00060F42FEF82169104A104B10409F098F462
:1050D00080E090E0A0E0B0E017C030E0831630E060
:1050E000930630E0A30631E0B30650F480E190E08F
:1050F000A0E0B0E009C088E090E0A0E0B0E004C02B
:1051000088E190E0A0E0B0E0B501A401082E04C061
:1051100076956795579547950A94D2F7FA01E6591F
:10512000FD4F2081AC01BD01420F511D611D711D5C
:1051300080E290E0A0E0B0E0841B950BA60BB70BDB
:1051400051F4C818D908EA08FB08F1E04F2E512C99
:10515000612C712C28C1082E04C0880C991CAA1C33
:10516000BB1C0A94D2F797018601042E04C0369521
:105170002795179507950A94D2F709AB1AAB2BAB75
:105180003CAB97018601082E04C0000F111F221F9F
:10519000331F0A94D2F70DA71EA72FA738ABEDA88F
:1051A000FEA80FA918AD04C016950795F794E794CB
:1051B0004A95D2F7B801A7010DA51EA52FA538A9BC
:1051C000042B152B262B372B0DA71EA72FA738AB8B
:1051D000EDA8FEA80FA918AD04C0EE0CFF1C001F1F
:1051E000111F8A95D2F7EDAAFEAA0FAB18AF2501C1
:1051F00066247724950184012070307009AF1AAFBE
:105200002BAF3CAF69A97AA98BA99CA9A3019201F4
:105210000E9422E529A73AA74BA75CA76B017C0156
:1052200069A97AA98BA99CA9A30192010E9422E5F0
:10523000CA01B90129AD3AAD4BAD5CAD0E94D0E4D5
:10524000AB01BC017601DD24CC240DA51EA52FA544
:1052500038A9C901AA27BB27C82AD92AEA2AFB2AC2
:1052600009A51AA52BA53CA5C416D506E606F70682
:1052700038F5015010402040304009AB1AAB2BAB41
:105280003CABC80CD91CEA1CFB1CC814D904EA04AA
:10529000FB04D0F0C416D506E606F706A8F409A567
:1052A0001AA52BA53CA5025010402040304009AB68
:1052B0001AAB2BAB3CABC80CD91CEA1CFB1C04C0C2
:1052C00009AB1AAB2BAB3CABC41AD50AE60AF70AFA
:1052D000C701B601A30192010E9422E529A73AA7BE
:1052E0004BA75CA721966CAF7DAF8EAF9FAF219788
:1052F000C701B601A30192010E9422E5CA01B901CA
:1053000029AD3AAD4BAD5CAD0E94D0E48B019C0160
:1053100021964CAD5DAD6EAD7FAD2197DA01992739
:1053200088274DA55EA56FA578A960707070842B45
:10533000952BA62BB72B49A55AA56BA57CA5801745
:105340009107A207B307F0F441505040604070400D
:10535000880D991DAA1DBB1D88159905AA05BB05B9
:1053600088F080179107A207B30760F449A55AA5F2
:105370006BA57CA54250504060407040880D991D3F
:10538000AA1DBB1D6C017D01C01AD10AE20AF30AF5
:1053900009A91AA92BA93CA9380155244424442A57
:1053A000552A662A772A8501222733270DA71EA7AB
:1053B0002FA738AB950184012070307009AF1AAF68
:1053C0002BAF3CAFC701B6012DA53EA54FA558A9EF
:1053D0000E9422E529A73AA74BA75CA769AB7AAB45
:1053E0008BAB9CABC701B6012DA53EA54FA558A917
:1053F0000E9422E5CA01B90129AD3AAD4BAD5CADC1
:105400000E94D0E4AB01BC0109A91AA92BA93CA9AF
:105410007801DD24CC240DA91EA92FA938ADC9011E
:10542000AA27BB27C82AD92AEA2AFB2A09A51AA52E
:105430002BA53CA5C416D506E606F70638F501509F
:1054400010402040304009AB1AAB2BAB3CABC80C32
:10545000D91CEA1CFB1CC814D904EA04FB04D0F0D4
:10546000C416D506E606F706A8F409A51AA52BA5C5
:105470003CA5025010402040304009AB1AAB2BAB8A
:105480003CABC80CD91CEA1CFB1C04C009AB1AAB12
:105490002BAB3CABC41AD50AE60AF70AC701B60122
:1054A0002DA53EA54FA558A90E9422E529A73AA7F8
:1054B0004BA75CA721966CAF7DAF8EAF9FAF2197B6
:1054C000C701B6012DA53EA54FA558A90E9422E50A
:1054D000CA01B90129AD3AAD4BAD5CAD0E94D0E433
:1054E0008B019C0121964CAD5DAD6EAD7FAD2197DA
:1054F000DA01992788274DA95EA96FA978AD607058
:105500007070842B952BA62BB72B49A55AA56BA59C
:105510007CA580179107A207B307D0F441505040F3
:1055200060407040880D991DAA1DBB1D8815990506
:10553000AA05BB0568F080179107A207B30740F4DE
:1055400049A55AA56BA57CA54250504060407040CB
:1055500009A91AA92BA93CA97801DD24CC24C42AC5
:10556000D52AE62AF72A51C2C816D906EA06FB064A
:1055700008F438C2803010E0910711E0A10710E074
:10558000B10758F48F3F9105A105B10509F090F4DA
:1055900000E010E020E030E016C0803020E092070C
:1055A00020E0A20721E0B20750F400E110E020E083
:1055B00030E009C008E010E020E030E004C008E17D
:1055C00010E020E030E0AC01BD01002E04C0769573
:1055D0006795579547950A94D2F7FA01E659FD4F1A
:1055E0004081040F111D211D311D40E250E060E09B
:1055F00070E0401B510B620B730BA1F48C159D05E1
:10560000AE05BF0508F4F5C1EDA8FEA80FA918ADB9
:10561000442455243201E814F9040A051B0508F056
:10562000EBC1E3C1342E2C013D0104C0440C551CD8
:10563000661C771C4A95D2F7D501C401002E04C020
:10564000B695A795979587950A94D2F7482A592A2F
:105650006A2A7B2AA5019401032C04C0220F331F60
:10566000441F551F0A94D2F729AF3AAF4BAF5CAF36
:10567000B701A601002E04C076956795579547950A
:105680000A94D2F749AB5AAB6BAB7CABC701B601FE
:10569000032C04C0660F771F881F991F0A94D2F746
:1056A0006DA77EA78FA798AB8DA99EA9AFA9B8AD0E
:1056B00004C0B695A795979587950A95D2F74DA5FD
:1056C0005EA56FA578A9482B592B6A2B7B2B4DA77C
:1056D0005EA76FA778AB4301AA24BB249301820184
:1056E0002070307021960CAF1DAF2EAF3FAF2197C9
:1056F00069A97AA98BA99CA9A50194010E9422E518
:1057000029A73AA74BA75CA76B017C0169A97AA9D5
:105710008BA99CA9A50194010E9422E5CA01B901A7
:1057200021962CAD3DAD4EAD5FAD21970E94D0E4EA
:10573000DC01CB017601DD24CC240DA51EA52FA50F
:1057400038A9A90166277727C42AD52AE62AF72A85
:1057500009A51AA52BA53CA5C816D906EA06FB067D
:1057600038F5015010402040304009AB1AAB2BAB4C
:105770003CABC40CD51CE61CF71CC414D504E604D1
:10578000F704D0F0C816D906EA06FB06A8F409A566
:105790001AA52BA53CA5025010402040304009AB73
:1057A0001AAB2BAB3CABC40CD51CE61CF71C04C0DD
:1057B00009AB1AAB2BAB3CABC81AD90AEA0AFB0AF5
:1057C000C701B601A50194010E9422E529A73AA7C5
:1057D0004BA75CA729966CAF7DAF8EAF9FAF299783
:1057E000C701B601A50194010E9422E5CA01B901D1
:1057F00021962CAD3DAD4EAD5FAD21970E94D0E41A
:105800004B015C0129964CAD5DAD6EAD7FAD299726
:105810009A01112700278DA59EA5AFA5B8A9A07054
:10582000B070082B192B2A2B3B2B89A59AA5ABA569
:10583000BCA5081519052A053B05E0F40197A10947
:10584000B109040D151D261D371D04151505260566
:10585000370580F0081519052A053B0558F489A578
:105860009AA5ABA5BCA50297A109B109040D151D08
:10587000261D371DB901A801481959096A097B0974
:105880004DA75EA76FA778AB09A91AA92BA93CA9B8
:105890007801DD24CC24C82AD92AEA2AFB2AFFEF82
:1058A0008F2EFFEF9F2EA12CB12C8C209D20AE209F
:1058B000BF2087012227332709A71AA72BA73CA7B8
:1058C00049AC5AAC6BAC7CAC2FEF3FEF40E050E002
:1058D000422253226422752229AD3AAD4BAD5CAD14
:1058E0008A012227332709AB1AAB2BAB3CABC5018E
:1058F000B401A30192010E94D0E469AF7AAF8BAFEB
:105900009CAFC501B40129A93AA94BA95CA90E9481
:10591000D0E44B015C0169A57AA58BA59CA5A301E8
:1059200092010E94D0E42B013C0169A57AA58BA5C8
:105930009CA529A93AA94BA95CA90E94D0E4AB0176
:10594000BC01840C951CA61CB71C09AD1AAD2BAD6F
:105950003CADC901AA27BB27880E991EAA1EBB1EF3
:1059600084149504A604B70420F4405050406F4FAF
:105970007F4FC501AA27BB27840F951FA61FB71FFE
:105980000DA51EA52FA538A9081719072A073B073B
:1059900018F180179107A207B307A1F554019924C4
:1059A000882489AD9AADABADBCADA070B070880E47
:1059B000991EAA1EBB1E4DA95EA96FA978AD032C26
:1059C00004C0440F551F661F771F0A94D2F748156D
:1059D00059056A057B05B0F40894C108D108E108AF
:1059E000F10810C0442455243201CC24DD24760172
:1059F0000CC044245524320181E0C82ED12CE12C66
:105A0000F12C03C0442455243201FE01319688E074
:105A1000DF011D928A95E9F7C982DA82EB82FC8266
:105A20004D825E826F8278862C2D3A814B815C811B
:105A3000642D7E818F8198852596ECACFDAC0EADF2
:105A40001FAD2597E114F1040105110509F456C0B5
:105A50002195E1E0121608F0E0E03195F1E013162F
:105A600008F0F0E0032F0E1BE1E0301708F0E0E053
:105A7000FE2B4195E1E0141608F0E0E0142F1F1B07
:105A800031E0411708F030E0E32B5195F1E01516B5
:105A900008F0F0E0B52FBE1B31E05B1708F030E0F6
:105AA000F32B6195E1E0161608F0E0E0462E4F1A60
:105AB00031E0641508F030E0E32B7195F1E0171642
:105AC00008F0F0E0A72FAE1B31E07A1708F030E0C5
:105AD000F32B8195E1E0181608F0E0E0F82EFF1AAC
