:100000000C9473240C94A2240C94A2240C94A22487
:100010000C94A2240C94A2240C94A2240C94A22448
:100020000C94A2240C94A2240C94A2240C94A22438
:100030000C94A2240C94384A0C94A2240C94A2246C
:100040000C94A2240C94A2240C94A2240C94A22418
:100050000C94A2240C94A2240C94A2240C94A22408
:100060000C94A2240C949ED50C94A2240C94CAD572
:100070000C94A2240C940D9E0C94A2240C94A22403
:100080000C94A2240C94A2240C94A2240C94A224D8
:100090000C94A2240C94A2240C94A2240C94A224C8
:1000A0000C94A2240C94A2240C94A2240C94A224B8
:1000B0000C94A2240C94A2240C94A2240C94A9477E
:1000C0000C94A2240C94A2240C94A2240C94A22498
:1000D0000C94A2240C94A2240C94A2240C94A22488
:1000E0000C94A224F93F2140264003402B40784045
:1000F00078400340494078404E4056405B40604065
:1001000035403A403F40034044407840FE3F304055
:1001100065406A406E407840784072405072657029
:100120006172696E6720666F7220736C6565703AE4
:1001300049276D20636F6D706C6574696E6720610F
:100140006E792020717565756564206D6F766573B5
:100150002E20202020202020004368616E67696ED9
:10016000672046696C616D656E743A202049276D81
:1001700020636F6D706C6574696E6720616E7920A5
:1001800020717565756564206D6F7665732E20200E
:10019000202020202000494E56414C494420544FF5
:1001A0004F4C3A2020202020202049207265636592
:1001B000697665642061204C656674202020546F48
:1001C0006F6C20636F6D6D616E642C20627574209E
:1001D00049206F6E6C792068617665206F6E6520AE
:1001E000546F6F6C2E2000494E56414C49442043B9
:1001F0004F4D4D414E443A202020204920726563E6
:100200006569766564206120636F6D6D616E6466FB
:100210006F7220612068656174656420706C617420
:10022000652C20627574204920646F6E27742068E5
:10023000617665206F6E65004920736177206120CB
:10024000676C6974636820696E206D79534420631C
:100250006172642E20496620746869732069732076
:10026000746865206669727374206572726F722C8F
:100270002074727974686973206D6F64656C206195
:100280006761696E2E20202000492074696D6564C5
:10029000206F7574207768696C6520202061747404
:1002A000656D7074696E6720746F20686561742075
:1002B000206D792065787472756465722E20202017
:1002C000202020202000492074696D6564206F750E
:1002D00074207768696C65202020617474656D7086
:1002E00074696E6720746F206865617420206D7971
:1002F00020706C6174666F726D2E2020202020208B
:10030000202000507265706172696E6720666F729E
:1003100020736C6565703A49276D20636F6F6C6957
:100320006E67206D7920202020202068656174652B
:10033000727320616E6420676F696E6720746F6DE1
:1003400079207761697420706F736974696F6E2E9C
:10035000202020004368616E67696E672046696CE3
:10036000616D656E743A202049276D20676F696E54
:100370006720746F206D792077616974706F73697D
:1003800074696F6E2E202020202020202020202025
:10039000004D7920686561746572732074696D65BC
:1003A00064206F75744920616D206E6F7720696ECF
:1003B00020536C65657020202028436F6C642050AA
:1003C00061757365292E20202020202020202020E8
:1003D000202020202020202020202020202020201D
:1003E000200052657374617274696E672074686569
:1003F000204275696C640054686973206973206ECB
:100400006F7420746865207833672076657273692D
:100410006F6E204920776F726B206265737420774E
:100420006974682E20466F722068656C7020736551
:10043000653A206D616B6572626F742E636F6D2F0C
:1004400068656C70202020005468697320627569AB
:100450006C6420697320666F72202020616E6F7457
:1004600068657220626F742E205365653A202020E3
:100470006D616B6572626F742E636F6D2F68656C52
:100480007020202000546865205265706C6963619B
:100490007430720049276D2043616E63656C6C692E
:1004A0006E672E2020202020506C656173652057D8
:1004B0006169742E20202020202020200020004868
:1004C0006561746572732073687574646F776E20EC
:1004D00020202064756520746F20696E61637469E3
:1004E000766974792020200048656174696E672000
:1004F0004661696C7572652023312120536F6674E3
:10050000776172652054656D70204C696D69742047
:10051000526561636865642120506C656173652074
:100520002020202053687574646F776E206F7220CE
:1005300052657374617274200048656174696E67F6
:10054000204661696C75726520233221204D792027
:1005500065787472756465727320617265206E6F60
:100560007468656174696E672070726F7065726C13
:10057000792E202020436865636B206D7920636F9E
:100580006E6E656374696F6E730048656174696E41
:1005900067204661696C75726520233321204D798F
:1005A00020657874727564657273206172652020AD
:1005B00020206C6F73696E672074656D7065726161
:1005C000747572652E20436865636B206D792063B6
:1005D0006F6E6E656374696F6E73004865617469F0
:1005E0006E67204661696C7572652023352120494C
:1005F000276D2072656164696E67206F7574206F66
:1006000066202072616E67652074656D7065726129
:1006100074757265732E20436865636B206D792055
:10062000636F6E6E656374696F6E730048656174A5
:10063000696E67204661696C7572652023342120DC
:100640004D792074656D7065726174757265207284
:1006500065616473617265206661696C696E6721AA
:1006600020506C6561736520436865636B206D790C
:1006700020636F6E6E656374696F6E7300930269B9
:100680000000006900EE016900000069002601B861
:10069000010000000020065500000055002D0855FF
:1006A00000000055004D0A550000005500400CABFD
:1006B000000000AB002D095500000055002D085525
:1006C00000000055004D0AAB00000055000000007E
:1006D00001C00D5500000055002D08560100000016
:1006E00000C00D20015311BC005B12B101000000DD
:1006F00000C00DC80000001400C00DC800000014A8
:1007000000910E9001000014005A10900100001496
:1007100000C00D200300000000C805C80000001440
:1007200000C805C80000001400C805C80000001477
:1007300000DD04B004000014007505C800000014BA
:10074000007505C800000014007505C800000014FD
:10075000009704B00400000000B8075500000055E1
:1007600000B909AB000000AB007D06550000005544
:1007700000C805550000005500B807AB000000ABED
:1007800000C805550000005500DD04550000005567
:1007900000C805550000005500B807550000005579
:1007A000007D065601000000003F03550000005583
:1007B00000FA0C5500000055003F0355000000559D
:1007C00000B9095500000055003F035500000055D1
:1007D000002D095500000055003F0355000000554D
:1007E00000EA0A5500000055003F0355000000557F
:1007F00000B909AB0000000000534420436172645B
:100800002052656D6F766564202020200024F4045A
:10081000D9201BC40C5C0E9804C4095F02650771E3
:1008200001F405F900FB04B30048048700C1036923
:10083000005803550003034500BE023A008402310C
:100840000053022A002902250004022000E4011CB2
:1008500000C8011900AF01170098011400840113AA
:1008600000710110006101100051010E0043010DE3
:100870000036010B002B010B0020010B00150109B4
:10088000000C01090003010800FB000800F3000848
:1008900000EB000700E4000600DE000600D80006BA
:1008A00000D2000600CC000500C7000500C200050C
:1008B00000BD000400B9000400B5000400B100044C
:1008C00000AD000400A9000400A5000300A200037D
:1008D000009F0004009B00030098000300950002A5
:1008E0000093000300900003008D0002008B0003C2
:1008F00000880002008600020084000300810002DC
:10090000007F0002007D0002007B000200790002EF
:1009100000770001007600020074000200720001FE
:1009200000710002006F0002006D0001006C000207
:10093000006A000100690002006700010066000112
:100940000065000100640002006200010061000116
:1009500000600001005F0002005D0001005C00011A
:10096000005B0001005A000100590001005800011D
:10097000005700010056000100550001005400011D
:10098000005300000053000100520001005100011B
:1009900000500001004F0001004E0000004E000119
:1009A000004D0001004C0001004B0000004B000115
:1009B000004A000100490001004800000048000111
:1009C000004700010046000000460001004500000D
:1009D0000045000100440001004300000043000105
:1009E00000420000004200010041000000410001FF
:1009F00000400001003F0000003F0001003E0000F9
:100A0000003E0001003D0000003D0001003C0000F0
:100A1000003C0000003C0001003B0000003B0001E6
:100A2000003A0000003A00010039000000390001DE
:100A300000380000003800000038000100370000D6
:100A400000370001003600000036000000360001CB
:100A500000350000003500000035000100340000C2
:100A600000340000003400010033000000330000B7
:100A700000330001003200000032000000320001AB
:100A800000310000003100000031000100300000A2
:100A90000030000000300001002F0000002F000097
:100AA000002F0000002F0001002E0000002E00008B
:100AB000002E0001002D0000002D0000002D000080
:100AC000002D0001002C0000002C0000002C000074
:100AD000002C0001002B0000002B0000002B000068
:100AE000002B0001002A0000002A0000002A00005C
:100AF000002A000100290000002900000029000050
:100B00000029000000290001002800000028000042
:100B10000028000000280000002800010027000035
:100B20000027000000270000002700000027000128
:100B3000002600000026000000260000002600001D
:100B4000002600010025000000250000002500000F
:100B50000025000000250000002500010024000001
:100B600000240000002400000024000000240001F4
:100B700000230000002300000023000000230000E9
:100B800000230000002300000023000100220000D9
:100B900000220000002200000022000000220000CD
:100BA00000220001002100000021000000210000BF
:100BB00000210000002100000021000000210001B0
:100BC00000200000002000000020000000200000A5
:100BD0000020000000200000002000000020000194
:100BE000001F0000001F0000001F0000001F000089
:100BF000001F0000001F0000001F0001001E000079
:100C0000001E0000001E0000001E00000024F4D49E
:100C10003050C38E20C2A24017828B7011127A917D
:100C20000D816CD90AA861E108C758660761514374
:100C3000061E4B5D05C145A7041A411104093D98E4
:100C400003713931034036DB0265339102D43054ED
:100C500002802E1D02632CEE01752AC501B028A06A
:100C600001102781018F2564012B244B01E02234E0
:100C700001AC211F018D200D01801FFC00841EEDA1
:100C800000971DDF00B81CD200E61BC600201BBC6D
:100C900000641AB200B219A8000A19A0006A1899D3
:100CA00000D117910040178B00B516840031167ED5
:100CB00000B31579003A157300C7146F0058146A11
:100CC00000EE1366008813630025135E00C7125BF5
:100CD000006C12570015125400C111510070114FD1
:100CE0000021114B00D61049008D104700461044DA
:100CF0000002104200C00F4000800F3E00420F3C37
:100D000000060F3B00CB0E3800930E37005C0E350B
:100D100000270E3400F30D3200C10D3100900D306C
:100D200000600D2E00320D2D00050D2C00D90C2B6E
:100D300000AE0C2900850C29005C0C2700350C271F
:100D4000000E0C2600E80B2400C40B2400A00B238B
:100D5000007D0B23005A0B2100390B2100180B20BA
:100D600000F80A1F00D90A1E00BB0A1E009D0A1DBA
:100D700000800A1D00630A1C00470A1B002C0A1B86
:100D800000110A1A00F7091A00DD091900C409192F
:100D900000AB091900920917007B091800630917B5
:100DA000004C09160036091600200916000A09151C
:100DB00000F5081500E0081400CC081400B8081469
:100DC00000A4081400900813007D0812006B08139B
:100DD00000580812004608120034081100230811B8
:100DE000001208110001081100F0071000E00710C0
:100DF00000D0071000C0071000B0070F00A10710B7
:100E00000091070E0083070F0074070F0065070E9F
:100E10000057070E0049070E003B070D002E070E76
:100E20000020070D0013070D0006070D00F9060C42
:100E300000ED060D00E0060C00D4060C00C8060C00
:100E400000BC060C00B0060C00A4060B0099060CB2
:100E5000008D060B0082060B0077060B006C060B5C
:100E60000061060A0057060B004C060A0042060AFB
:100E70000038060A002E060A0024060A001A060A8E
:100E8000001006090007060A00FD050900F405091F
:100E900000EB050900E2050900D9050900D00509A4
:100EA00000C7050900BE050900B5050800AD050825
:100EB00000A50509009C050800940508008C05089C
:100EC00000840508007C050800740508006C05070F
:100ED00000650508005D050700560508004E05077A
:100EE00000470507004005080038050700310507E1
:100EF000002A050700230507001C05060016050744
:100F0000000F0507000805060002050700FB0406A0
:100F100000F5040700EE040600E8040600E20407FA
:100F200000DB040600D5040600CF040600C9040651
:100F300000C3040600BD040600B7040600B10405A2
:100F400000AC040600A6040600A00405009B0406ED
:100F50000095040500900406008A04050085040538
:100F600000800406007A040500750405007004057D
:100F7000006B04050066040500610405005C0405BF
:100F80000057040500520405004D040500480405FF
:100F900000430405003E0404003A0405003504053E
:100FA00000300404002C0405002704040023040579
:100FB000001E0404001A04040016040500110404B1
:100FC000000D0404000904050004040400000404E6
:100FD00000FC030400F8030400F4030400F003041D
:100FE00000EC030400E8030400E4030400E003044D
:100FF00000DC030400D8030400D4030400D003047D
:1010000000CC030400C8030300C5030300950200DD
:101010000000506C6561736520776169742E2E2E17
:101020000084036901000014008304880000001498
:10103000008C000000000000000030F8FFFF0000FE
:101040000000000000008E00000000000000000012
:1010500000000000000000000000005729040018F4
:101060008304DC0500001400901F891F9502000016
:1010700000506C6561736520776169740084037D3D
:10108000010000140083048800000014008C00009C
:1010900000000000000030F8FFFF0000000000002A
:1010A00000008E00000000000000000000000000B2
:1010B0000000000000000057290400188304DC052C
:1010C000000014008C97340000F3190000000000A9
:1010D00000000000000000000095000000005469BE
:1010E000676874656E2065616368206F6620746848
:1010F00065200095010000007468726565206B6EC4
:101100006F627320756E6465722020200095010067
:101110000000746865206275696C6420706C61748D
:10112000666F726D202000950700000061626F7588
:101130007420666F7572207475726E732E00950040
:1011400000000049276D20676F696E6720746F206B
:101150006D6F7665206D79009501000000657874EB
:1011600072756465722061726F756E6420746F2091
:1011700020009501000000646966666572656E7402
:1011800020706F696E747320736F200095070000E4
:1011900000796F752063616E20636865636B2E2E26
:1011A0002E00950000000074686520686569676816
:1011B000742E204174206561636820009501000051
:1011C00000706F696E742C206C6F6F73656E207485
:1011D0006865202020009501000000737065636938
:1011E00066696564206B6E6F6220756E74696C0051
:1011F0009507000000746865206E6F7A7A6C652030
:10120000616C6D6F73742E2E2E00950000000074BB
:101210006F756368657320746865206275696C64B6
:10122000202020009501000000706C6174652E2064
:10123000546865206E6F7A7A6C6520697300950139
:10124000000000617420746865207269676874200A
:101250006865696768742000950700000077686515
:101260006E2061207468696E2070696563652E2E3A
:101270002E0095000000006F66207061706572207E
:1012800077696C6C20736C696465200095010000BF
:10129000006265747765656E20746865206E6F7A8C
:1012A0007A6C652020009501000000616E64206268
:1012B00075696C6420706C6174652077697468006E
:1012C000950700000020736F6D6520667269637476
:1012D000696F6E2E009502000000506C65617365A9
:1012E0002077616974008E97340000F3190000D0F4
:1012F00007000000000000000000009AE903001849
:101300008E0000000038180000D007000000000028
:1013100000000000006C692E00188E0000000038EC
:10132000180000000000000000000000000000E0C5
:1013300093040018950000000041646A75737420DE
:101340007468652072656172206B6E6F6200950132
:10135000000000756E74696C207061706572206A9F
:1013600075737420202020009501000000736C69C3
:10137000646573206265747765656E2074686520A6
:10138000200095070000006E6F7A7A6C6520616E10
:101390006420706C617465009502000000506C65FB
:1013A0006173652077616974008E00000000381851
:1013B0000000D00700000000000000000000E093E3
:1013C0000400188E9C100000C8E7FFFFD007000043
:1013D0000000000000000000802A2D00188E9B10E5
:1013E0000000C8E7FFFF0000000000000000000050
:1013F0000000E093040018950000000041646A7545
:1014000073742066726F6E7420726967687420202E
:101410000095010000006B6E6F6220756E74696C40
:10142000207061706572202020200095010000006E
:101430006A75737420736C69646573206265747770
:1014400065656E200095070000006E6F7A7A6C6506
:1014500020616E6420706C6174650095020000006C
:10146000506C656173652077616974008E9C100013
:1014700000C8E7FFFFD007000000000000000000E8
:1014800000E0930400188E64EFFFFFC8E7FFFFD071
:101490000700000000000000000000004C1D0018C4
:1014A0008E65EFFFFFC8E7FFFF00000000000000AF
:1014B0000000000000E093040018950000000041C7
:1014C000646A7573742066726F6E74206C656674DE
:1014D0002020200095010000006B6E6F6220756E69
:1014E00074696C2070617065722020202000950165
:1014F0000000006A75737420736C69646573206200
:1015000065747765656E200095070000006E6F7A40
:101510007A6C6520616E6420706C61746500950260
:10152000000000506C656173652077616974008EFE
:1015300064EFFFFFC8E7FFFFD007000000000000D6
:1015400000000000E09304001895000000004E6FBA
:10155000772049276D20676F696E6720746F2020A0
:10156000202000950100000073656E64206D7920D5
:10157000657874727564657220746F20009501003F
:101580000000616C6C20746872656520706F696E14
:1015900074732020202000950700000061676169B6
:1015A0006E20746F207265636865636B2E00950210
:1015B000000000506C656173652077616974008E6E
:1015C0000000000038180000D007000000000000F4
:1015D0000000000080191B00188E00000000381861
:1015E0000000000000000000000000000000E09388
:1015F000040018950000000041646A75737420743B
:10160000686520726561722020202020009501000D
:1016100000006B6E6F6220756E74696C2070617073
:101620006572202020200095010000006A75737407
:1016300020736C69646573206265747765656E20DC
:101640000095070000006E6F7A7A6C6520616E6409
:1016500020706C617465009502000000506C65613B
:1016600073652077616974008E00000000381800EF
:1016700000D00700000000000000000000E093041C
:1016800000188E402B0000C8E7FFFFD007000000C5
:1016900000000000000000A65D2200188E3F2B0015
:1016A00000C8E7FFFF00000000000000000000008D
:1016B00000E093040018950000000041646A75730F
:1016C000742066726F6E74207269676874202000DF
:1016D00095010000006B6E6F6220756E74696C205E
:1016E0007061706572202020200095010000006A62
:1016F00075737420736C69646573206265747765B3
:10170000656E200095070000006E6F7A7A6C652088
:10171000616E6420706C6174650095020000005079
:101720006C656173652077616974008E402B0000E1
:10173000C8E7FFFFD0070000000000000000000025
:10174000E0930400188EC0D4FFFFC7E7FFFFD00767
:1017500000000000000000000000C0C62D00188E30
:10176000C1D4FFFFC8E7FFFF000000000000000039
:1017700000000000E09304001895000000004164A0
:101780006A7573742066726F6E74206C656674205F
:1017900020200095010000006B6E6F6220756E7452
:1017A000696C207061706572202020200095010016
:1017B00000006A75737420736C69646573206265D8
:1017C000747765656E200095070000006E6F7A7A69
:1017D0006C6520616E6420706C6174650095020018
:1017E0000000506C656173652077616974008EC07C
:1017F000D4FFFFC8E7FFFFD0070000000000000093
:10180000000000E0930400188E00000000000000BB
:1018100000D00700000000000000000000913B1A0B
:1018200000188E0000000000000000000000000012
:1018300000000000000000E0930400189500000084
:10184000004E6F77206C6574277320747269706C1A
:101850006520202020009501000000636865636B0F
:101860002D2D2070617065722073686F756C640037
:1018700095010000006A75737420736C69646520BB
:101880006265747765656E20200095070000006E24
:101890006F7A7A6C6520616E6420706C617465008B
:1018A000891F9502000000506C65617365207761A7
:1018B00069740084037D0100001400830488000023
:1018C0000014008C000000000000000030F8FFFF52
:1018D00000000000000000008E000000000000007A
:1018E0000000000000000000000000000057290474
:1018F00000188304DC05000014008C97340000F30A
:101900001900000000000000000000000000009529
:10191000000000005469676874656E206561636843
:10192000206F6620746865200095010000007468CF
:10193000726565206B6E6F627320756E64657220D0
:101940002020009501000000746865206275696CB4
:101950006420706C6174666F726D202000950700C2
:10196000000061626F757420666F75722074757205
:101970006E732E00950000000049276D20676F6987
:101980006E6720746F206D6F7665206D790095010C
:1019900000000065787472756465722061726F75FD
:1019A0006E6420746F202000950100000064696659
:1019B000666572656E7420706F696E747320736FE4
:1019C00020009507000000796F752063616E206329
:1019D0006865636B2E2E2E0095000000007468650C
:1019E000206865696768742E2041742065616368AA
:1019F00020009501000000706F696E742C206C6FE0
:101A00006F73656E207468652020200095010000CA
:101A100000737065636966696564206B6E6F622030
:101A2000756E74696C009507000000746865206E1F
:101A30006F7A7A6C6520616C6D6F73742E2E2E0038
:101A40009500000000746F756368657320746865A5
:101A5000206275696C6420202000950100000070F0
:101A60006C6174652E20546865206E6F7A7A6C659F
:101A7000206973009501000000617420746865207E
:101A800072696768742068656967687420009507E3
:101A90000000007768656E2061207468696E2070B0
:101AA000696563652E2E2E0095000000006F66208C
:101AB00070617065722077696C6C20736C69646505
:101AC000200095010000006265747765656E2074E2
:101AD0006865206E6F7A7A6C6520200095010000A1
:101AE00000616E64206275696C6420706C6174655D
:101AF000207769746800950700000020736F6D659A
:101B0000206672696374696F6E2E00950200000092
:101B1000506C656173652077616974008E9734003D
:101B200000F2190000D007000000000000000000D3
:101B3000009AE90300188EB605000039180000D09D
:101B400007000000000000000000002461290018C8
:101B50008EB50500003818000000000000000000ED
:101B60000000000000E09304001895000000004110
:101B7000646A757374207468652072656172206B85
:101B80006E6F62009501000000756E74696C2070C4
:101B900061706572206A75737420202020009501A1
:101BA000000000736C696465732062657477656515
:101BB0006E2074686520200095070000006E6F7A23
:101BC0007A6C6520616E6420706C617465009502AA
:101BD000000000506C656173652077616974008E48
:101BE000B505000038180000D00700000000000014
:101BF00000000000E0930400188E51160000C8E7B2
:101C0000FFFFD00700000000000000000000802A55
:101C10002D00188E51160000C8E7FFFF00000000DD
:101C20000000000000000000E09304001895000090
:101C3000000041646A7573742066726F6E7420725E
:101C40006967687420200095010000006B6E6F6268
:101C500020756E74696C2070617065722020202080
:101C60000095010000006A75737420736C696465E7
:101C700073206265747765656E200095070000002B
:101C80006E6F7A7A6C6520616E6420706C61746529
:101C9000009502000000506C6561736520776169F2
:101CA00074008E51160000C7E7FFFFD00700000048
:101CB00000000000000000E0930400188E69F4FFAB
:101CC000FFC8E7FFFFD00700000000000000000091
:101CD000003FE81D00188E69F4FFFFC8E7FFFF0012
:101CE0000000000000000000000000E09304001865
:101CF000950000000041646A7573742066726F6E0F
:101D000074206C6566742020200095010000006B33
:101D10006E6F6220756E74696C20706170657220E0
:101D20002020200095010000006A75737420736CF8
:101D300069646573206265747765656E2000950738
:101D40000000006E6F7A7A6C6520616E6420706CA2
:101D5000617465009502000000506C656173652038
:101D600077616974008E69F4FFFFC8E7FFFFD00751
:101D700000000000000000000000E093040018953F
:101D8000000000004E6F772049276D20676F696E55
:101D90006720746F202020200095010000007365EB
:101DA0006E64206D79206578747275646572207434
:101DB0006F20009501000000616C6C2074687265F2
:101DC0006520706F696E74732020202000950700D5
:101DD0000000616761696E20746F207265636865D9
:101DE000636B2E009502000000506C6561736520E6
:101DF00077616974008EB505000038180000D007BF
:101E00000000000000000000000078381B00188E61
:101E1000B6050000381800000000000000000000B7
:101E200000000000E09304001895000000004164E9
:101E30006A75737420746865207265617220202051
:101E400020200095010000006B6E6F6220756E749B
:101E5000696C20706170657220202020009501005F
:101E600000006A75737420736C6964657320626521
:101E7000747765656E200095070000006E6F7A7AB2
:101E80006C6520616E6420706C6174650095020061
:101E90000000506C656173652077616974008EB5D0
:101EA00005000038180000D0070000000000000006
:101EB000000000E0930400188E2C290000C8E7FF02
:101EC000FFD007000000000000000000005AC51FFE
:101ED00000188E2D290000C8E7FFFF000000000059
:101EE00000000000000000E09304001895000000CE
:101EF0000041646A7573742066726F6E7420726933
:101F000067687420200095010000006B6E6F6220EE
:101F1000756E74696C2070617065722020202000DD
:101F200095010000006A75737420736C69646573B1
:101F3000206265747765656E200095070000006E6D
:101F40006F7A7A6C6520616E6420706C61746500D4
:101F50009502000000506C656173652077616974BB
:101F6000008E2C290000C8E7FFFFD007000000000A
:101F7000000000000000E0930400188E12E2FFFF52
:101F8000C8E7FFFFD00700000000000000000000CD
:101F9000D0A02500188E13E2FFFFC8E7FFFF000066
:101FA00000000000000000000000E093040018950D
:101FB0000000000041646A7573742066726F6E746D
:101FC000206C6566742020200095010000006B6E77
:101FD0006F6220756E74696C20706170657220206C
:101FE00020200095010000006A75737420736C69ED
:101FF000646573206265747765656E2000950700DF
:1020000000006E6F7A7A6C6520616E6420706C617E
:102010007465009502000000506C6561736520775F
:10202000616974008E12E2FFFFC8E7FFFFD007006E
:10203000000000000000000000E0930400188EB5CE
:1020400005000000000000D00700000000000000B4
:1020500000000095CD1600188EB6050000000000A7
:1020600000000000000000000000000000E09304F9
:10207000001895000000004E6F77206C6574277380
:1020800020747269706C652020202000950100008A
:1020900000636865636B2D2D20706170657220731D
:1020A000686F756C640095010000006A7573742098
:1020B000736C696465206265747765656E202000C5
:1020C00095070000006E6F7A7A6C6520616E64205F
:1020D000706C61746500891F99000000006E6F7A52
:1020E0007A6C6543616C6962726174696F6E0096A7
:1020F0000000860084035201000014008304A6003F
:10210000000014008C000000000000000030F8FF08
:10211000FF00000000000000008B00000000000035
:102120000000000000000000000000000000A60009
:1021300000008304DC0500001400901F8C9734001D
:1021400000F2190000000000000000000000000084
:10215000008B40D9FFFFBFE6FFFF60EA00000000F0
:1021600000000000000080000000910114910014A4
:1021700091041491031488001F026E008D00640006
:10218000580288000302E60088010302E600870087
:102190006400580287016400580291017F91007F1A
:1021A00091047F91037F8BC8E7FFFF09EBFFFF6876
:1021B0000100000000000000000000800000008B13
:1021C000C8E7FFFF09EBFFFF68010000E4FFFFFF26
:1021D000000000000C0300008BC8E7FFFF09EBFFC5
:1021E000FFF0000000D0FFFFFF000000003E0000F5
:1021F000008BC8E7FFFF09EBFFFFF0000000B3FF13
:10220000FFFF00000000850100008BF1D9FFFF09EE
:10221000EBFFFFF00000004FFEFFFF000000007F1B
:102220000300008BC8E7FFFF88EEFFFFF00000000F
:102230007FFEFFFF00000000D30000008BC8E7FF17
:10224000FF88EEFFFFF000000063FEFFFF000000CC
:1022500000850100008B67DDFFFF88EEFFFFF000C7
:102260000000FEFCFFFF00000000820300008BC89E
:10227000E7FFFF06F2FFFFF00000002EFDFFFF006A
:10228000000000D80000008BC8E7FFFF06F2FFFF48
:10229000F000000012FDFFFF0000000085010000BB
:1022A0008B67DDFFFF06F2FFFFF0000000ADFBFFD4
:1022B000FF00000000820300008BC8E7FFFF85F5E8
:1022C000FFFFF0000000DDFBFFFF00000000D80072
:1022D00000008BC8E7FFFF85F5FFFFF0000000C19D
:1022E000FBFFFF00000000850100008B67DDFFFFA2
:1022F00085F5FFFFF00000005CFAFFFF0000000022
:10230000820300008BC8E7FFFF03F9FFFFF0000026
:10231000008DFAFFFF00000000D80000008BC8E726
:10232000FFFF03F9FFFFF000000070FAFFFF00005D
:102330000000850100008B67DDFFFF03F9FFFFF060
:102340000000000BF9FFFF00000000820300008B7B
:10235000C8E7FFFF82FCFFFFF00000003CF9FFFF31
:1023600000000000D80000008BC8E7FFFF82FCFFE0
:10237000FFF00000001FF9FFFF00000000850100D2
:10238000008B67DDFFFF82FCFFFFF0000000BAF763
:10239000FFFF00000000820300008BC8E7FFFF0082
:1023A000000000F0000000EBF7FFFF00000000D885
:1023B0000000008BC8E7FFFF00000000F0000000F5
:1023C000CEF7FFFF00000000850100008B67DDFFF6
:1023D000FF00000000F000000069F6FFFF000000B1
:1023E00000820300008BC8E7FFFF7E030000F000BF
:1023F00000009AF6FFFF00000000D80000008BC824
:10240000E7FFFF7E030000F00000007DF6FFFF0005
:10241000000000850100008B67DDFFFF7E030000E8
:10242000F000000019F5FFFF00000000820300002B
:102430008BC8E7FFFFFD060000F000000049F5FF34
:10244000FF00000000D80000008BC8E7FFFFFD067A
:102450000000F00000002CF5FFFF000000008501E7
:1024600000008B67DDFFFFFD060000F0000000C8E4
:10247000F3FFFF00000000820300008BC8E7FFFFAE
:102480007B0A0000F0000000F8F3FFFF00000000EE
:10249000D80000008BC8E7FFFF7B0A0000F00000B7
:1024A00000DBF3FFFF00000000850100008B67DD0B
:1024B000FFFF7B0A0000F000000077F2FFFF000042
:1024C0000000820300008BC8E7FFFFFA0D0000F058
:1024D000000000A7F2FFFF00000000D80000008B02
:1024E000C8E7FFFFFA0D0000F00000008AF2FFFFCE
:1024F00000000000850100008B67DDFFFFFA0D0082
:1025000000F000000026F1FFFF0000000082030041
:10251000008BC8E7FFFF78110000F000000056F1C3
:10252000FFFF00000000D80000008BC8E7FFFF7825
:10253000110000F000000039F1FFFF0000000085ED
:102540000100008B67DDFFFF78110000F000000044
:10255000D5EFFFFF00000000820300008BC8E7FFFB
:10256000FFF7140000F000000005F0FFFF0000007E
:1025700000D80000008BC8E7FFFFF7140000F00050
:102580000000E8EFFFFF00000000850100008B67FE
:10259000DDFFFFF7140000F000000084EEFFFF00F5
:1025A000000000820300008B6AF5FFFF15F9FFFFB2
:1025B00068010000B4EEFFFF000000000E01000003
:1025C0008B6AF5FFFF15F9FFFFF000000084EEFFB6
:1025D000FF000000009C0000008B6AF5FFFF15F96A
:1025E000FFFFF000000067EEFFFF00000000850124
:1025F00000008B6AF5FFFFEB060000F0000000030F
:10260000EDFFFF000000007F0300008BE9F8FFFFF3
:1026100015F9FFFFF000000033EDFFFF00000000A0
:10262000D30000008BE9F8FFFF15F9FFFFF0000071
:102630000016EDFFFF00000000850100008BE9F8A7
:10264000FFFF75030000F0000000B2EBFFFF000089
:102650000000820300008B67FCFFFF15F9FFFFF00D
:10266000000000E2EBFFFF00000000D80000008B3C
:1026700067FCFFFF15F9FFFFF0000000C5EBFFFF4F
:1026800000000000850100008B67FCFFFF75030060
:1026900000F000000061EAFFFF000000008203007C
:1026A000008BE6FFFFFF15F9FFFFF000000091EA45
:1026B000FFFF00000000D80000008BE6FFFFFF15C1
:1026C000F9FFFFF000000074EAFFFF000000008542
:1026D0000100008BE6FFFFFF75030000F000000023
:1026E00010E9FFFF00000000820300008B6403007C
:1026F0000015F9FFFFF000000040E9FFFF000000B7
:1027000000D80000008B6403000015F9FFFFF00003
:10271000000023E9FFFF00000000850100008B643A
:1027200003000075030000F0000000BFE7FFFF009A
:10273000000000820300008BE206000015F9FFFF95
:10274000F0000000EFE7FFFF00000000D8000000ED
:102750008BE206000015F9FFFFF0000000D2E7FF52
:10276000FF00000000850100008BE20600007503F9
:102770000000F00000006EE6FFFF00000000820392
:1027800000008B610A000015F9FFFFF00000009EB9
:10279000E6FFFF00000000D80000008B610A000087
:1027A00015F9FFFFF000000081E6FFFF00000000C8
:1027B000850100008B610A000075030000F0000035
:1027C000001DE5FFFF00000000820300008BDF0D0D
:1027D000000015F9FFFFF00000004DE5FFFF0000CD
:1027E0000000D80000008BDF0D000015F9FFFFF09E
:1027F00000000030E5FFFF00000000850100008BB5
:10280000DF0D000075030000F0000000CCE3FFFFC7
:1028100000000000820300008B5E11000015F9FF2C
:10282000FFF0000000FCE3FFFF00000000D8000004
:10283000008B5E11000015F9FFFFF0000000DFE3E0
:10284000FFFF00000000850100008B5E1100007595
:10285000030000F00000007BE2FFFF0000000082A8
:102860000300008BDC14000015F9FFFFF0000000EE
:10287000ABE2FFFF00000000D80000008BDC14007A
:102880000015F9FFFFF00000008EE2FFFF000000DE
:1028900000850100008BDC14000075030000F000CF
:1028A00000002AE1FFFF00000000820300008B5BB4
:1028B00018000015F9FFFFF00000005AE1FFFF00CB
:1028C000000000D80000008B5B18000015F9FFFF26
:1028D000F00000003DE1FFFF000000008501000066
:1028E0008B5B18000075030000F0000000D9DFFFCB
:1028F000FF00000000820300008BDA1B000015F9C6
:10290000FFFFF000000009E0FFFF00000000D8001A
:1029100000008BDA1B000015F9FFFFF0000000EC4F
:10292000DFFFFF00000000850100008BDA1B0000C4
:1029300075030000F000000088DEFFFF00000000CB
:10294000820300008B581F000015F9FFFFF0000004
:1029500000B8DEFFFF00000000D80000008B581F09
:10296000000015F9FFFFF00000009BDEFFFF0000F4
:102970000000850100008B581F000075030000F067
:1029800000000037DDFFFF00000000820300008B25
:10299000581F000075030000F000000067DDFFFF16
:1029A000000000000C0300008C581F00007503009D
:1029B00000F0000000000000000000000086018917
:1029C000188BC8E7FFFF3EEBFFFF68010000000027
:1029D000000000000000DF0000008BC8E7FFFF3EA2
:1029E000EBFFFF6801000000000000E4FFFFFF0CA8
:1029F0000300008BC8E7FFFF3EEBFFFFF000000085
:102A000000000000D0FFFFFF3E0000008BC8E7FF82
:102A1000FF3EEBFFFFF000000000000000B3FFFFEF
:102A2000FF850100008B2AF2FFFF3EEBFFFFF00065
:102A30000000000000004FFEFFFF820300008BC873
:102A4000E7FFFFB4EEFFFFF0000000000000007F92
:102A5000FEFFFFD80000008BC8E7FFFFB4EEFFFFCA
:102A6000F00000000000000063FEFFFF8501000091
:102A70008B2AF2FFFFB4EEFFFFF000000000000021
:102A800000FEFCFFFF820300008BC8E7FFFF2AF275
:102A9000FFFFF0000000000000002EFDFFFFD80047
:102AA00000008BC8E7FFFF2AF2FFFFF000000000E4
:102AB00000000012FDFFFF850100008B2AF2FFFFDE
:102AC0002AF2FFFFF000000000000000ADFBFFFF56
:102AD000820300008BC8E7FFFF9FF5FFFFF00000B7
:102AE0000000000000DDFBFFFFD80000008BC8E7FE
:102AF000FFFF9FF5FFFFF000000000000000C1FB9A
:102B0000FFFF850100008B2AF2FFFF9FF5FFFFF01A
:102B1000000000000000005CFAFFFF820300008B51
:102B2000C8E7FFFF15F9FFFFF000000000000000FC
:102B30008DFAFFFFD80000008BC8E7FFFF15F9FFF3
:102B4000FFF00000000000000070FAFFFF850100A8
:102B5000008B2AF2FFFF15F9FFFFF00000000000D4
:102B600000000BF9FFFF820300008BC8E7FFFF8B1B
:102B7000FCFFFFF0000000000000003CF9FFFFD860
:102B80000000008BC8E7FFFF8BFCFFFFF000000098
:102B9000000000001FF9FFFF850100008B2AF2FFF3
:102BA000FF8BFCFFFFF000000000000000BAF7FF01
:102BB000FF820300008BC8E7FFFF00000000F00069
:102BC000000000000000EBF7FFFFD80000008BC8FA
:102BD000E7FFFF00000000F000000000000000CE52
:102BE000F7FFFF850100008B2AF2FFFF00000000C5
:102BF000F00000000000000069F6FFFF8203000003
:102C00008BC8E7FFFF75030000F000000000000024
:102C1000009AF6FFFFD80000008BC8E7FFFF75039E
:102C20000000F0000000000000007DF6FFFF8501BD
:102C300000008B2AF2FFFF75030000F00000000087
:102C400000000019F5FFFF820300008BC8E7FFFFBB
:102C5000EB060000F00000000000000049F5FFFF57
:102C6000D80000008BC8E7FFFFEB060000F0000073
:102C700000000000002CF5FFFF850100008B2AF208
:102C8000FFFFEB060000F000000000000000C8F3AA
:102C9000FFFF820300008BC8E7FFFF610A0000F01E
:102CA00000000000000000F8F3FFFFD80000008BD8
:102CB000C8E7FFFF610A0000F0000000000000000C
:102CC000DBF3FFFF850100008B2AF2FFFF610A00A2
:102CD00000F00000000000000077F2FFFF82030018
:102CE000008BC8E7FFFFD60D0000F00000000000D9
:102CF0000000A7F2FFFFD80000008BC8E7FFFFD657
:102D00000D0000F0000000000000008AF2FFFF85C7
:102D10000100008B2AF2FFFFD60D0000F00000003A
:102D20000000000026F1FFFF820300008BC8E7FFD0
:102D3000FF4C110000F00000000000000056F1FF01
:102D4000FFD80000008BC8E7FFFF4C110000F00027
:102D500000000000000039F1FFFF850100008B2A10
:102D6000F2FFFF4C110000F000000000000000D551
:102D7000EFFFFF820300008BC8E7FFFFC2140000D3
:102D8000F00000000000000005F0FFFFD800000088
:102D90008BC8E7FFFFC2140000F000000000000035
:102DA00000E8EFFFFF850100008B2AF2FFFFC2144D
:102DB0000000F00000000000000084EEFFFF82032E
:102DC00000008B9FF5FFFFB4EEFFFF6801000000DD
:102DD000000000B4EEFFFFCE0000008B9FF5FFFF68
:102DE000B4EEFFFFF00000000000000084EEFFFFE3
:102DF0009C0000008B9FF5FFFFB4EEFFFFF000008A
:102E0000000000000067EEFFFF850100008B9FF5CA
:102E1000FFFF15F9FFFFF00000000000000003EDC8
:102E2000FFFF820300008B15F9FFFFB4EEFFFFF0F8
:102E30000000000000000033EDFFFFD80000008B11
:102E400015F9FFFFB4EEFFFFF000000000000000E6
:102E500016EDFFFF850100008B15F9FFFF15F9FF47
:102E6000FFF000000000000000B2EBFFFF82030053
:102E7000008B8BFCFFFFB4EEFFFFF00000000000B2
:102E80000000E2EBFFFFD80000008B8BFCFFFFB4DB
:102E9000EEFFFFF000000000000000C5EBFFFF8523
:102EA0000100008B8BFCFFFF15F9FFFFF000000015
:102EB0000000000061EAFFFF820300008B000000B9
:102EC00000B4EEFFFFF00000000000000091EAFFF8
:102ED000FFD80000008B00000000B4EEFFFFF00000
:102EE00000000000000074EAFFFF850100008B0075
:102EF00000000015F9FFFFF00000000000000010C6
:102F0000E9FFFF820300008B75030000B4EEFFFFB2
:102F1000F00000000000000040E9FFFFD8000000C2
:102F20008B75030000B4EEFFFFF00000000000000E
:102F30000023E9FFFF850100008B7503000015F9F0
:102F4000FFFFF000000000000000BFE7FFFF82036A
:102F500000008BEB060000B4EEFFFFF00000000065
:102F6000000000EFE7FFFFD80000008BEB06000039
:102F7000B4EEFFFFF000000000000000D2E7FFFF0A
:102F8000850100008BEB06000015F9FFFFF0000043
:102F900000000000006EE6FFFF820300008B610A64
:102FA0000000B4EEFFFFF0000000000000009EE60D
:102FB000FFFFD80000008B610A0000B4EEFFFFF0B5
:102FC0000000000000000081E6FFFF850100008B8B
:102FD000610A000015F9FFFFF0000000000000008A
:102FE0001DE5FFFF820300008BD60D0000B4EEFF4D
:102FF000FFF0000000000000004DE5FFFFD80000DA
:10300000008BD60D0000B4EEFFFFF00000000000C2
:10301000000030E5FFFF850100008BD60D00001594
:10302000F9FFFFF000000000000000CCE3FFFF828A
:103030000300008B4C110000B4EEFFFFF000000015
:1030400000000000FCE3FFFFD80000008B4C1100E3
:1030500000B4EEFFFFF000000000000000DFE3FF1F
:10306000FF850100008B4C11000015F9FFFFF000F7
:103070000000000000007BE2FFFF820300008BC223
:10308000140000B4EEFFFFF000000000000000ABF1
:10309000E2FFFFD80000008BC2140000B4EEFFFF77
:1030A000F0000000000000008EE2FFFF850100003C
:1030B0008BC214000015F9FFFFF0000000000000B3
:1030C000002AE1FFFF820300008B38180000B4EEF5
:1030D000FFFFF0000000000000005AE1FFFFD800F1
:1030E00000008B38180000B4EEFFFFF00000000075
:1030F0000000003DE1FFFF850100008B3818000053
:1031000015F9FFFFF000000000000000D9DFFFFF0D
:10311000820300008BAD1B0000B4EEFFFFF0000047
:10312000000000000009E0FFFFD80000008BAD1B8D
:103130000000B4EEFFFFF000000000000000ECDF34
:10314000FFFF850100008BAD1B000015F9FFFFF0AC
:103150000000000000000088DEFFFF820300008BFB
:10316000231F0000B4EEFFFFF0000000000000008D
:10317000B8DEFFFFD80000008B231F0000B4EEFF75
:10318000FFF0000000000000009BDEFFFF85010053
:10319000008B231F000015F9FFFFF0000000000066
:1031A000000037DDFFFF820300008B231F000015A6
:1031B000F9FFFF30F200000000000037DDFFFFC51F
:1031C000000000890088000302000088010302005B
:1031D0000088001F0200005F0036083608FF10203C
:1031E000546865205265706C696361746F72203237
:1031F0005820200020202D2D2D2D2D2D2D2D2D2D35
:103200002D2D2D2D2020202000496E7465726E61B9
:103210006C2052656C656173652020202000466932
:10322000726D776172652056657273696F6E2037B3
:103230002E2000436F6F6C21005374617274205014
:103240007265686561742100526967687420546F03
:103250006F6C004E4120004F4E20004F4646004507
:1032600078747275646572004C65667420546F6F73
:103270006C00506C6174666F726D0057656C636FA3
:103280006D65212049276D202020202020202054FA
:103290006865205265706C696361746F7220325882
:1032A0002E202050726573732074686520726564E7
:1032B000204D20746F2020676574207374617274D0
:1032C0006564212020202020202020004120626CE5
:1032D000696E6B696E6720274D27206D65616E737F
:1032E00049276D2077616974696E6720616E64207B
:1032F00077696C6C636F6E74696E7565207768654D
:103300006E20796F75202020707265737320746849
:103310006520627574746F6E2E2E2E20004120730E
:103320006F6C696420274D27206D65616E732020C6
:103330002049276D20776F726B696E6720616E641C
:103340002077696C6C757064617465206D79207389
:103350007461747573202020207768656E2049277A
:103360006D2066696E69736865642E2E2E004F7538
:1033700072206E6578742073746570732077696C41
:103380006C20676574206D652073657420757021ED
:1033900020202020202046697273742C2077652716
:1033A0006C6C20726573746F72656D7920627569DB
:1033B0006C6420706C6174666F726D2E2E2E0073BB
:1033C0006F2069742773206E69636520616E6420C5
:1033D0002020206C6576656C2E2049742773207040
:1033E000726F6261626C796120626974206F6666D7
:1033F0002066726F6D202020202020736869707015
:10340000696E672E2E2E20202020202020202000D4
:10341000416161682C2074686174206665656C7315
:10342000202020206D756368206265747465722E9B
:1034300020202020202020204C6574277320676FD7
:10344000206F6E20616E64206C6F6164736F6D65B8
:103450002066696C616D656E74212020202020201B
:10346000005765276C6C2074727920616761696E02
:10347000212020202020202020202020202020204B
:10348000202020202020202020202020202020203C
:10349000202020202020202020202020202020202C
:1034A000202020202020202020202020202020201C
:1034B00020005765276C6C206B65657020676F690D
:1034C0006E6720202020616E64206C6F6164207321
:1034D0006F6D652020202020202066696C616D655D
:1034E0006E742C466F722068656C7020676F746F05
:1034F000206D616B6572626F742E636F6D2F6865EE
:103500006C70005765276C6C20676F20746F207497
:103510006865206D61696E6D656E752E2049662047
:10352000796F75206E65656420202068656C702059
:10353000676F20746F3A2020202020202020206DEB
:10354000616B6572626F742E636F6D2F68656C704E
:1035500020202000417765736F6D65212020202099
:1035600020202020202020205765276C6C20676FAA
:1035700020746F2074686520534420206361726456
:10358000206D656E7520616E6420796F7520202036
:1035900063616E2073656C6563742061206D6F6478
:1035A000656C21200049276D20676F696E67207464
:1035B0006F206D616B6520202061207365726965E5
:1035C00073206F66206C696E657320736F7765205A
:1035D00063616E2066696E64206D79202020202052
:1035E000206E6F7A7A6C6520616C69676E6D656EAE
:1035F000742E202020004C6F6F6B20666F72207439
:10360000686520626573742020206D61746368654D
:1036100064206C696E6520696E20656163686178FD
:103620006973207365742E204C696E657320617216
:1036300065206E756D626572656420312D313320B1
:10364000616E642E2E2E006C696E65206F6E652093
:1036500069732065787472612020206C6F6E672E0C
:1036600020546865205920617869732073657469F6
:1036700073206C656674206F6E2074686520706CB2
:10368000617465616E642058206178697320697384
:103690002072696768742E0047726561742120206A
:1036A00049277665207361766564202074686573A8
:1036B000652073657474696E677320616E64202081
:1036C00049276C6C20757365207468656D20746F74
:1036D000202020206D616B65206E696365206D6F11
:1036E00064656C73212020200053656C6563742031
:1036F00062657374206C696E65732E005820417882
:103700006973204C696E65002D2D3E00202020003D
:10371000592041786973204C696E6500446F6E656D
:1037200021004D792074656D7065726174757265E4
:103730002077617320206368616E67656420657817
:103740007465726E616C6C792E20526573656C6560
:1037500063742066696C616D656E742020206D65F0
:103760006E7520746F2074727920616761696E2EA6
:103770002020004D7920657874727564657273201D
:10378000617265202020206E6F7420686561746905
:103790006E672075702E2020202020436865636BA3
:1037A000206D792020202020202020202020206330
:1037B0006F6E6E656374696F6E7321202020202008
:1037C0002020200049276D2068656174696E67209C
:1037D0007570206D7920202065787472756465722B
:1037E00020736F2077652063616E20206C6F6164A9
:1037F000207468652066696C616D656E742E20208A
:103800004265206361726566756C2C207468652E54
:103810002E2E20200049276D2068656174696E672F
:10382000207570206D79202020657874727564652C
:103830007220736F2077652063616E20206C6F614A
:1038400064207468652066696C616D656E742E20F5
:10385000204265206361726566756C2C2074686512
:103860002E2E2E202000506C6561736520776169D3
:1038700074207768696C6520492068656174206DE3
:10388000792065787472756465722120202020206B
:103890002020202020202020202020202020202028
:1038A0002020202020202020202020202020202018
:1038B000202020202020006E6F7A7A6C65207769A6
:1038C0006C6C2067657420686F74215768696C653B
:1038D0002049276D2068656174696E672C2020720D
:1038E000656D6F7665207468652066696C616D65CD
:1038F0006E7420747562652066726F6D20746865E1
:103900002E2E2E20202020006E6F7A7A6C65207774
:10391000696C6C2067657420686F74215768696CE6
:10392000652049276D2068656174696E672C2020C9
:1039300072656D6F7665207468652066696C616D6F
:10394000656E7420747562652066726F6D20746890
:10395000652E2E2E202020200065787472756465F7
:103960007220626C6F636B2E204665656466696CBD
:10397000616D656E742066726F6D207468652020BD
:103980002073706F6F6C207468726F756768207435
:1039900068652020207475626520756E74696C20DE
:1039A00069742E2E2E2020202000706F7073206FDF
:1039B000757420696E2066726F6E742E20205768B1
:1039C000656E207468652066696C616D656E742033
:1039D000697372656164792C207072657373202736
:1039E0004D2720746F20636F6E74696E75652E208D
:1039F000202020202020202020200048656174699C
:103A00006E672050726F67726573733A20202020B2
:103A100020202020202020202020202020202020A6
:103A20002020202020202020202020202020202096
:103A30002020202020202020202020202020202086
:103A40002020202020202020202020004F4B204913
:103A5000276D20726561647921202020202020209C
:103A60004E6F77207765276C6C206C6F61642074D3
:103A7000686520207269676874206578747275645F
:103A800065722E2020202020507573682066696C96
:103A9000616D656E7420696E2E2E2E20004F4B20B6
:103AA00049276D2072656164792120202020202023
:103AB0002050757368207468652066696C616D6557
:103AC0006E742020207468726F7567682E2E2E2009
:103AD00020202020202020202020202020202020E6
:103AE00020202020202020202020202020004927C6
:103AF0006D207265616479212050756C6C2074684A
:103B0000652067756964652074756265206F6666F7
:103B100020616E642020707573682074686520666B
:103B2000696C616D656E742020207468726F7567B2
:103B3000682E2E2E2020202020202020202000490A
:103B4000276D207265616479212050756C6C20743A
:103B500068652067756964652074756265206F66A5
:103B60006620616E64202070756C6C20746865201E
:103B700066696C616D656E7420202067656E746C7B
:103B8000792E2E2E202020202020202020202000D2
:103B900049276D20726561647921204465746163F1
:103BA00068202020746865206775696465207475D5
:103BB000626520616E6420206D6F76652074686593
:103BC000206C6576657220746F20202074686520F3
:103BD00072696768742E202050756C6C2E2E2E2012
:103BE0000049276D20726561647921204465746104
:103BF0006368202020746865206775696465207497
:103C000075626520616E6420206D6F766520746832
:103C100065206C6576657220746F2020207468655D
:103C2000206C6566742E202050756C6C2E2E2E2014
:103C30002000756E74696C20796F75206665656CFF
:103C40002074686520206D6F746F72207475672012
:103C5000697420696E2E20202020507573682066BC
:103C60006F72206120666577206D6F7265207365C5
:103C7000636F6E64732C207468656E20776169745D
:103C80002E20005768656E2066696C616D656E74E4
:103C9000206973202020206265696E672065787432
:103CA00072756465642066726F6D20746865206E3D
:103CB0006F7A7A6C652C205072657373204D207476
:103CC0006F2073746F7020657874727564696E67A5
:103CD0002E2020005768656E2066696C616D656EE8
:103CE00074206973202020206265696E67206578E2
:103CF0007472756465642066726F6D2074686520E7
:103D00006E6F7A7A6C652C202020202020202020C5
:103D1000507265737320274D2720746F2065786972
:103D2000742E2020005768656E206D792066696CBE
:103D3000616D656E742069732072656C6561736571
:103D4000642C20202020202020202020205072655C
:103D5000737320274D2720746F20657869742E2097
:103D60002020202020202020202020202020202053
:103D700020202020200066696C616D656E742066CD
:103D800072656520616E64202020636C6F7365200E
:103D9000746865206C657665722E20202020507234
:103DA00065737320274D2720746F20657869742E02
:103DB0002020202020202020202020202020202003
:103DC0002020202020200047726561742120204996
:103DD000276C6C2073746F7020202072756E6E6972
:103DE0006E67206D792065787472756465722E50E7
:103DF00072657373204D20746F20636F6E74696EEB
:103E000075652E202020202020202020202020200A
:103E100020202020202020004F4B212049276C6C9F
:103E2000206B656570206D79202020206D6F746F88
:103E3000722072756E6E696E672E20596F75202024
:103E40006D6179206E65656420746F20707573688C
:103E5000202020206861726465722E2E2E20202082
:103E60002020202020202020005765276C6C206B0C
:103E700065657020676F696E672E20202049662077
:103E8000796F7527726520686176696E67202020DA
:103E90002074726F75626C652C20636865636B209B
:103EA0006F757420206D616B6572626F742E636F25
:103EB0006D2F68656C70202020004D79206D6F7427
:103EC0006F722074696D6564206F7574202061665F
:103ED0007465722035206D696E757465732E2020AF
:103EE00020205072657373204D20746F20657869AF
:103EF000742E202020202020202020202020202060
:103F00002020202020202020202000486F772764B8
:103F100020697420676F3F2052656164792020001A
:103F2000746F206D616B6520736F6D657468696E69
:103F3000673F202000596573202020004E6F20200D
:103F4000202000446F6573206D79206E6F7A7A6C43
:103F500065200068656967687420636865636B2025
:103F60006F75743F20004D7920686569676874201B
:103F7000697320676F6F64212020004C657427737C
:103F80002074727920616761696E2E004469642033
:103F9000706C6173746963206578747275646520F0
:103FA0000066726F6D20746865206E6F7A7A6C653A
:103FB0003F20202020004C6F616420726967687484
:103FC000004C6F616400556E6C6F616420726967AC
:103FD000687400556E6C6F6164004C6F6164206C96
:103FE00065667400556E6C6F6164206C6566740064
:103FF00020202020204A6F67206D6F6465202020DC
:1040000020202020002020202020202020582B208D
:1040100020202020202020202000202020202020C0
:10402000284261636B29202020592D3E202000204A
:1040300020202020202020582D202020202020203B
:10404000202020002020202020202020592B20204C
:1040500020202020202020200020203C2D58202817
:104060004261636B2920205A2D3E20202000202011
:10407000202020202020592D2020202020202020FA
:1040800020200020202020202020205A2D20202009
:10409000202020202020200020203C2D59202842B4
:1040A00061636B2920202020202020200020202058
:1040B00020202020205A2B202020202020202020BB
:1040C000200047414D45204F56455221004865612B
:1040D00074696E673A202020202020202020202094
:1040E000200048656174696E673A00202020202016
:1040F0002000202D2D25006572726F722100202076
:1041000020202020202020202020202020202020AF
:1041100020200045787472756465723A2020202D45
:104120002D2D2F2D2D2D430052204578747275644E
:1041300065723A202D2D2D2F2D2D2D43004C20451D
:10414000787472756465723A202D2D2D2F2D2D2DCA
:104150004300506C6174666F726D3A2020202D2DE3
:104160002D2F2D2D2D430020204E412020202000DA
:1041700077616974696E6720002F20202043004317
:1041800020202020006820206D0020507265686586
:1041900061742053657474696E6773202020005227
:1041A0006967687420546F6F6C20202020202020C5
:1041B000202020004C65667420546F6F6C202020F6
:1041C000202020202020202000506C6174666F7217
:1041D0006D2020202020202020002052657365744F
:1041E0002053657474696E677320746F20200020FB
:1041F00044656661756C742076616C7565733F000B
:10420000556E5061757365202020202020202020CD
:104210002020200050617573652020202020202060
:10422000202020202020200043616E63656C204206
:1042300075696C642020202020202000576169745B
:10424000696E6720666F7220486F6D696E67200027
:104250004368616E67652046696C616D656E7420A8
:1042600020202000536C6565702028436F6C64200B
:104270005061757365292000526573756D65204224
:1042800075696C6420202020202020005A20506175
:1042900075736520486569676874202020202000B8
:1042A0004C454420436F6C6F72202020202020203A
:1042B00020202000524544202020004F52414E47EC
:1042C000450050494E4B202000475245454E2000A6
:1042D000424C5545202000505552504C45005748FF
:1042E0004954452000435553544F4D004F464620F6
:1042F00020200046696C616D656E742046616E20F9
:10430000202020202020004275696C6420537461B5
:1043100074697374696373202020004261636B20A9
:10432000746F204D6F6E69746F72202020200042E0
:1043300075696C642046696E697368656421202024
:10434000202020202020202020202020202020206D
:10435000202020202020204275696C642054696D43
:10436000652020202020206820206D004275696C87
:10437000642054696D653A20202020206820206D3B
:10438000004C696E653A202020202020202020202B
:10439000202020202000457374696D6174656420BD
:1043A0004275696C642054696D654C696665746911
:1043B0006D6520546F74616C3A2020202068004C99
:1043C000617374204275696C643A20202020206853
:1043D00020206D0043616E63656C207468697320F2
:1043E0006275696C643F0051756974207468697303
:1043F0002070726F636573733F004275696C64204F
:1044000066726F6D205344202020202020005072BF
:104410006568656174202020202020202020202035
:1044200020005574696C6974696573202020202010
:10443000202020202000496E666F20616E6420538A
:10444000657474696E67732020004D6F6E69746FB8
:1044500072204D6F646520202020202020004368BA
:10446000616E67652046696C616D656E7420202001
:1044700020004C6576656C204275696C6420506C38
:104480006174652020004A6F67204D6F64652020AD
:1044900020202020202020202000486F6D65204112
:1044A00078657320202020202020202020005275B5
:1044B0006E205374617274757020536372697074E6
:1044C0002000456E61626C65205374657070657282
:1044D00073202020200044697361626C652053744E
:1044E0006570706572732020200053746F702042D5
:1044F0006C696E6B696E6721202020202000426C61
:10450000696E6B204C454473202020202020202001
:10451000200043616C696272617465204E6F7A7A23
:104520006C657320200065786974206D656E752058
:1045300020202020202020202000426F742053744F
:1045400061746973746963732020202020004765BB
:104550006E6572616C2053657474696E6773202098
:104560002000507265686561742053657474696ECB
:1045700067732020200056657273696F6E204E7538
:104580006D626572202020202000526573746F7266
:10459000652044656661756C7473202020002020BE
:1045A000205A2050617573652048656967687420DA
:1045B0002020005A20506F736974696F6E2020208C
:1045C0002020206D6D20005061757365204163745B
:1045D0006976652020202020202000536F756E64AE
:1045E00020202020202020202020202020200048C3
:1045F000656174656420506C61746500546F6F6C04
:1046000020436F756E742020202020202020200061
:1046100053494E474C45004455414C2020004865C5
:104620006174204C4544732020202020202020202D
:1046300020004865617420486F6C64202020202091
:10464000206D2020200048656C702054657874200F
:1046500020202020202020202000416363656C65FD
:1046600072617465202020202020202020004E6FC1
:10467000205344206361726420666F756E6400533A
:104680004420636172642072656164206572726F98
:104690007200492063616E27742072656164207422
:1046A0006869732020205344206361726420666F20
:1046B000726D61742120202020205472792072654F
:1046C000666F726D617474696E6720202020746853
:1046D00065206361726420746F2046415431362E28
:1046E000202000492063616E277420726561642078
:1046F0005344202020202063617264732077697402
:10470000682073746F7261676520206C61726765E1
:1047100072207468616E203247422E2020202020B3
:104720002020202020202020202020202020202089
:104730002020200020534420636172642072656150
:1047400064206572726F720049276D20616C72651A
:10475000616479206275696C64696E670057617283
:104760006E696E673A4275696C6420737065656442
:1047700073666173746572207468616E2035306D84
:104780006D2F7320207265717569726520783367AB
:1047900020666F726D61742020666F72206265738F
:1047A0007420726573756C74732E20202000D0FE07
:1047B000C0FF18FFD0FF63FFE0FFB1FFF0FF000074
:1047C000000051001000A4002000F800300040015B
:1047D0004000A2015000F70160004B0270009F02F0
:1047E0008000F20290004503A0009703B000E803A8
:1047F000C0003A04D0008C04E000DF04F000320571
:10480000000186051001DB0520012F063001DA06C4
:1048100050013007600186077001DC0780016808DD
:10482000900120F9C9FFE0FCE7FFF8FF000000005D
:104830000000080000002003190040063200600953
:104840004B00000A5000800C640000108000010042
:104850009403360009016B00D800A000BD00D5000C
:10486000AB000A019D003F01840074017C00A90196
:104870007400DE016D0013026600480260007D02D4
:104880005900B2025200E7024B001C0344005103DE
:104890003A0086033000BB032200F0030200E63337
:1048A0000D340038BA413D42B74C5F4ED9513653B2
:1048B000C5665B786A7B7686A887CB88CC897C8B3B
:1048C000AB8B6A8D2299D199A89D3A9E239FE09F38
:1048D0000AA132A67EA67FAA52AEDECF9CD123D3F8
:1048E0006DD426D502D611241FBECFEFD1E2DEBF94
:1048F000CDBF15E0A0E0B2E0E8EAF9EB01E00BBFC4
:1049000002C007900D92AE3BB107D9F72DE1AEEB97
:10491000B5E001C01D92A037B207E1F718E4C6EE7A
:10492000D8E400E006C022970109FE010BBF0E94F7
:10493000C1DBCE39D10780E00807A9F70E940A42FF
:104940000C94D2DC0C940000FA01DC0102C005904A
:104950000D9221503040D8F70895F89480910206C6
:10496000909103062091000630910106281B390B17
:104970007894C90108958093F905089581E08093A2
:10498000F70508958091F90508958091F805089537
:10499000209102063091030681E0232B09F080E08C
:1049A00008951092030610920206109205061092C6
:1049B000040610920806109209061092FB05109248
:1049C000FC051092FD051092FE051092FA0510925A
:1049D000F9051092F8051092F2051092F305109265
:1049E000F4051092F5051092DD051092F105109274
:1049F000F0051092EF05089581E02091EF053091C8
:104A0000F0052630310509F080E008956091FB053E
:104A10007091FC058091FD059091FE05089510921E
:104A2000FB051092FC051092FD051092FE050895FD
:104A30004F925F926F927F928F929F92AF92BF92AE
:104A4000CF92DF92EF92FF920F931F93CF93DF935A
:104A5000CDB7DEB7C256D1090FB6F894DEBF0FBE90
:104A6000CDBFCE018D5B9F4F0E94AA7D84E1FE01E8
:104A7000ED5BFF4FA1ECB5E001900D928A95E1F757
:104A800045E06CE97AE1CE01CD960E94C1D2CE011B
:104A9000CD960E9403D38093C00564E070E081EC62
:104AA00095E00E94BF4EDC016D917D918D919C91AE
:104AB0000E9486D82B013C0184E00E94E67A9B018B
:104AC000AC0163E070E081EC95E0A0962FAFA09779
:104AD000A1963FAFA197A2964FAFA297A3965FAFC3
:104AE000A3970E94BF4EFC0180809180A280B3807A
:104AF00083E00E94E67A6B966CAF7DAF8EAF9FAF7E
:104B00006B9762E070E081EC95E00E94BF4EDC01A3
:104B1000CD90DD90ED90FC9061E070E081EC95E04F
:104B20000E94BF4EDC018D919D910D90BC91A02DF6
:104B30006F968CAF9DAFAEAFBFAF6F9760E070E088
:104B400081EC95E00E94BF4E8C016B966CAD7DAD03
:104B50008EAD9FAD6B970E9458D8860E971EA81EEB
:104B6000B91ED8018D919D910D90BC91A02D6B9691
:104B70008CAF9DAFAEAFBFAF6B97A0962FADA09798
:104B8000A1963FADA197A2964FADA297A3965FAD18
:104B9000A397C301B2010E9436D70E9453D89F93B6
:104BA0008F937F936F936F960CAD1DAD2EAD3FAD80
:104BB0006F976B964CAD5DAD6EAD7FAD6B97CE01D3
:104BC00089960E94834E48E052E060E070E0CE019A
:104BD00089960E94407E8DE499E00E941AA49093E9
:104BE000D8058093D7058CEE99E00E941AA4909383
:104BF000DA058093D9058CE29CE00E941AA4909378
:104C0000D6058093D5050F900F900F900F9080914F
:104C1000F605882391F060E070E08DE499E00E9451
:104C200044A360E070E08CEE99E00E9444A360E051
:104C300070E08CE29CE00E9444A384E1FE01B996FE
:104C4000DE01559601900D928A95E1F762E070E0E1
:104C5000CE0145960E94BF4E8C0182E00E94E67A0A
:104C60000E9453D89B01AC01A6E9B0E00E9488DA0B
:104C7000F801608371838283938384E1FE017596DA
:104C8000DE01119601900D928A95E1F760E070E0E7
:104C9000CE0101960E94BF4E8C0180E00E94E67A10
:104CA00020E030E04DED52EC0E948AD90E9453D8AA
:104CB000D8016D937D938D939C93139761E070E081
:104CC000CE0101960E94BF4E8C0181E00E94E67ADF
:104CD00020E030E044E952EC0E948AD90E9453D887
:104CE000F80160837183828393834CE850E060E035
:104CF00070E0CE0145960E94407E42E850E060E0C0
:104D000070E0CE0101960E94407E60E087ED98E061
:104D10000E94544BCE59DF4F0FB6F894DEBF0FBE42
:104D2000CDBFDF91CF911F910F91FF90EF90DF905A
:104D3000CF90BF90AF909F908F907F906F905F903B
:104D40004F9008950F931F93CF93DF93CDB7DEB7A6
:104D500064970FB6F894DEBF0FBECDBFCE010196AB
:104D60000E94AA7D63E070E0CE0101960E94BF4ED2
:104D70008C0163E070E081EC95E00E94BF4EFC0185
:104D80004081518162817381F80140835183628344
:104D9000738364E070E0CE0101960E94BF4E8C01E7
:104DA00064E070E081EC95E00E94BF4EFC01408120
:104DB000518162817381F8014083518362837383DF
:104DC000CE0101960E942D7C62E070E0CE0101963A
:104DD0000E94BF4E8C0162E070E081EC95E00E9481
:104DE000BF4EFC014081518162817381F801408393
:104DF0005183628373834CE850E060E070E0CE0141
:104E000001960E94407E42E850E060E070E081EC54
:104E100095E00E94407E6091C00587ED98E00E9479
:104E2000544B64960FB6F894DEBF0FBECDBFDF9132
:104E3000CF911F910F9108956091D7057091D8057A
:104E40008DE499E00E9444A36091D9057091DA0540
:104E50008CEE99E00E9444A36091D5057091D6052F
:104E60008CE29CE00E9444A38CE29CE00E942EA471
:104E7000882329F18CE29CE00E9448A481111FC084
:104E800017C061E08DE499E00E947AA481E08093EC
:104E9000FA058CEE99E00E9448A4811110C061E0EF
:104EA0008CEE99E00E947AA481E08093FA0508953F
:104EB0008DE499E00E9448A48111EBCFE2CF0895E0
:104EC000CF93DF93EB0170930502609304029091FE
:104ED000F805981709F44BC0882329F1209781F42D
:104EE00081E08093F6056CE171E081EE9AE00E942A
:104EF000AEA781E090E09093DC058093DB050FC0C6
:104F00006130710561F41092F60569E571E081EE9A
:104F10009AE00E94AEA7D093DC05C093DB0581E048
:104F20008093F80524C08091DB059091DC058130E9
:104F3000910529F41092DC051092DB0516C0823031
:104F4000910529F40E941C2784E090E006C0039795
:104F500049F40E941C2785E090E09093DC05809343
:104F6000DB0505C06230710511F41092F805DF9180
:104F7000CF910895CF93FC01C62F828193816081E8
:104F800071818617970798F44281538184819581B6
:104F9000840F951F0E9409DAA681B781A80FB91F57
:104FA000CC938281938101969383828302C081E0B6
:104FB0008087CF910895682F80E096E00C94BA27FF
:104FC000CF93DF93FC0182819381892B21F481E0CF
:104FD000818780E019C08481958120813181B90168
:104FE0000E9409DAC681D781C80FD91F84819581B3
:104FF0000196B9010E9409DA9583848382819381A5
:105000000197938382838881DF91CF9108951F93C5
:10501000CF93DF9300D0CDB7DEB780E096E00E945B
:10502000E027682F80E096E06A830E94E027782FCF
:1050300080E096E079830E94E027182F80E096E0D8
:105040000E94E027982F6A817981812F0F900F901D
:10505000DF91CF911F910895CF9380E096E00E9459
:10506000E027C82F80E096E00E94E027982F8C2F41
:10507000CF91089580E096E00C94E027CF93DF93E2
:105080000E943A28D82F0E943A28C82F0E943A2816
:10509000CA3009F4E8C098F4C63009F4E1C048F415
:1050A000C43009F4E0C008F0DEC0C33009F0DEC04F
:1050B0001AC0C83009F4D7C008F0D5C0D1C0CE306E
:1050C00009F4D1C030F4CC3009F46CC008F078C0D9
:1050D000CAC0C73109F45FC0CF3109F47AC0CF30FC
:1050E00009F0C4C0C0C08091BF058823A1F08DE441
:1050F00099E00E944AA28CEE99E00E944AA2809117
:10510000BE05811104C08CE29CE00E944AA210926C
:10511000BE051092BF050E942C28BC01D13019F4A5
:1051200084EE99E002C085E499E008960E9444A3C9
:105130008CE29CE00E942EA4882309F4A2C08CE299
:105140009CE00E9448A481119CC0D13019F484EEE7
:1051500099E002C085E499E008960E9448A4811174
:1051600090C086C084EE99E061E003C084EE99E0CF
:1051700060E008960E947AA440E061E070E087ED6C
:1051800098E00E943745D13009F08EC00E94B735B3
:1051900081117DC089C09091F90581E089270E9425
:1051A000103C82C00E943A28682F6170D13019F4F7
:1051B00084EE99E002C085E499E00E945C8974C0A5
:1051C0000E943A28682F617087ED98E00E94544B46
:1051D0006BC061E087ED98E00E944F4B8091BF0566
:1051E000882319F081E08093BE050E942C28BC0121
:1051F0008CE29CE00E9444A38CE29CE00E9448A4C4
:10520000C1E0C827C093FA056C2F8DE499E00E9495
:105210007AA46C2F8CEE99E00E947AA440E061E0C1
:1052200070E087ED98E00E9437450E94A436811116
:105230003BC00E949A3B059739F040E067EE71E071
:1052400087ED98E00E94194560E070E08CE29CE0F8
:105250000E9444A360E087ED98E00E944F4B24C079
:105260000E94072821C00E943A281EC080E01DC06D
:1052700081E08093FA05D13009F474CF85E499E098
:1052800073CFD13009F472CF85E499E071CF40E05B
:1052900066E971E087ED98E00E94194560E070E0F2
:1052A0008CEE99E00E9444A381E0DF91CF910895B4
:1052B0002F923F924F925F926F927F928F929F9226
:1052C000AF92BF92CF92DF92EF92FF920F931F9314
:1052D000CF93DF93CDB7DEB7E7970FB6F894DEBF75
:1052E0000FBECDBF0E944050882309F492C0809128
:1052F00002069091030620910006309101062817BE
:10530000390711F40C94C5320E94AD5081110C94F0
:10531000CB320C94C532C090F205D090F305E090EA
:10532000F405F090F5050E94EF4FC616D706E80683
:10533000F90610F00C94F2328091DD0581110C9485
:10534000F2320C94E73281EE9AE00E94D4A640E05B
:1053500068E372E087ED98E00E94194581E0809350
:10536000DD050E94788310920306109202061092C7
:10537000050610920406109208061092090660E0D5
:1053800070E08DE499E00E9444A360E070E08CEE50
:1053900099E00E9444A360E070E08CE29CE00E94EF
:1053A00044A3CE0101960E94167D62E070E0CE011A
:1053B00001960E94BF4E8C0182E00E94E67A20E0B6
:1053C00030E046E153E40E948AD90E9453D8F801A4
:1053D00060837183828393831092F90546E950E0DC
:1053E00060E070E0CE0101960E94407E0E94BF50B6
:1053F0001092F1050EC08091020690910306892B50
:1054000041F48091EF059091F005892B11F40C94F3
:10541000F9320E942987882311F180910206909128
:10542000030620910006309101062817390711F470
:105430000C94FD320E94328781110C9404330C9439
:10544000FD328091020690910306892B41F48091F0
:10545000EF059091F005892B11F40C940D33809198
:10546000FA05882391F08CE29CE00E94F6A3882341
:1054700061F060E08DE499E00E947AA460E08CEE37
:1054800099E00E947AA41092FA058091F9058111A1
:105490000C94CD338091F70581110C94CD3380911C
:1054A000EF059091F005039789F40E94897B8111A3
:1054B00001C008C080EE95E00E949CD4882331F0A2
:1054C0000E9478831092F0051092EF058091EF050D
:1054D0009091F005019741F40E94897B811104C0ED
:1054E0001092F0051092EF058091EF059091F00574
:1054F000029751F480EE95E00E949CD4882321F01D
:105500001092F0051092EF058091EF059091F00553
:10551000049709F049C080EE95E00E949CD488234E
:1055200049F040E069E872E087ED98E00E94194593
:105530000C941E338091FF05813019F484EE99E0BC
:1055400002C085E499E008960E94F6A3882311F42E
:105550000C9411338091FF05813019F484EE99E0A9
:1055600002C085E499E0FC01E258FF4F808181117F
:105570000C9411330C941B3385E499E008960E9437
:105580002EA4811111C08091FF05813019F484EEA1
:1055900099E002C085E499E0FC01E258FF4F808168
:1055A000882311F40C941E338091EF059091F0053F
:1055B0000597F9F480EE95E00E949CD4882341F091
:1055C00040E066EC72E087ED98E00E9419450DC05E
:1055D0008CE29CE00E942EA4811101C006C08CE2E6
:1055E0009CE00E94F6A3882321F01092F00510920F
:1055F000EF058091EF059091F005069709F03FC007
:1056000080EE95E00E949CD48823B1F08091DE0565
:1056100081FF06C060E087ED98E00E94D84B2FC064
:105620001092F0051092EF0540E060E170E087ED28
:1056300098E00E94374523C081EE9AE00E9477AA45
:105640008823E9F08091DE0582FF04C081EE9AE0B4
:105650000E9443A840E050E060E070E087ED98E0F1
:105660000E940A4840E060E170E087ED98E00E9407
:1056700037450E94248A1092F0051092EF05809120
:10568000EF059091F005892B09F064C78091F8052A
:10569000882309F4E2C08091DB059091DC05019735
:1056A00009F0D2C70E9493658111D5C7CDC763E0C9
:1056B00073E004C0019731F464E573E081EE9AE091
:1056C0000E94AEA70E94182582E090E096C00E943A
:1056D00093658111D1C7C7C740E059EE64EA75E30D
:1056E00080EE95E00E9478D486E00E94224E809160
:1056F000040290910502892B11F00C94CD3364E1E2
:1057000080E00E948F8264E181E00E948F8264E1E8
:1057100083E00E948F8264E184E00E948F820C9477
:10572000CD338091040290910502019711F00C9401
:10573000CD3380EE95E00E949CD48111ADC70C94CE
:10574000CD33049749F08091DB059091DC058530DD
:10575000910509F0DEC7E2C70E9493658111DEC79B
:10576000F2CF6FE780E00E948F826FE781E00E94B6
:105770008F828091040290910502892B41F46FE79A
:1057800083E00E948F826FE784E00E948F8262EE46
:1057900073E081EE9AE00E94AEA71092FF0585E0CB
:1057A00090E09093F0058093EF0540E052ED69E4BE
:1057B0007BE680EE95E00E9478D486E090E09093BE
:1057C000DC058093DB0524E140E063E087ED98E0B1
:1057D0000E946045E2C71092FF0584E090E090933C
:1057E000F0058093EF0540E052ED69E47BE680EE42
:1057F00095E00E9478D487E090E09093DC05809358
:10580000DB05CBC787309105A1F481E08093FF05CC
:1058100084E090E09093F0058093EF0540E052ED36
:1058200069E47BE680EE95E00E9478D488E090E021
:10583000E4CF8830910549F487ED98E00E947645E1
:105840000E94A22689E090E0D8CF099709F0A5C769
:105850000E94936581116AC7A0C78091020690914A
:105860000306892B09F476C687ED98E00E949847D5
:1058700080910406909105066091000670910106E2
:105880000E9409DAE0910606F0910706E80FF91F79
:1058900010811B3809F45DC71E3809F462C71B3933
:1058A00009F44FC7193809F464C7163909F432C32B
:1058B000163809F46AC71C3841F4809102069091A9
:1058C0000306459708F446C6CEC11C3909F422C325
:1058D000103909F41FC3133809F41CC3143809F430
:1058E00019C3183809F416C30E949365811149C77A
:1058F00054C787ED98E00E9498470E943A2881E0BB
:1059000090E09093F0058093EF050E94072868A728
:1059100079A78AA79BA70E9407286CA77DA78EA7B7
:105920009FA70E9407286B017C010E9407284B015A
:105930005C010E940728162F072F382E292E0E945F
:1059400007282B013C018091FB059091FC05A0915B
:10595000FD05B091FE050196A11DB11D8093FB05CB
:105960009093FC05A093FD05B093FE052F923F9206
:105970000F931F930CA51DA52EA53FA548A559A5BE
:105980006AA57BA5CE0101960E94834EB301A201B8
:10599000CE0101960E94407E58C087ED98E00E949B
:1059A00098470E943A2881E090E09093F005809318
:1059B000EF050E94072868A779A78AA79BA70E94DE
:1059C00007286CA77DA78EA79FA70E9407286B01B9
:1059D0007C010E9407284B015C010E940728162FBA
:1059E000072F282E9EAB0E9407282B013C010E9406
:1059F0003A28382E8091FB059091FC05A091FD0579
:105A0000B091FE050196A11DB11D8093FB059093F9
:105A1000FC05A093FD05B093FE052EA92F932F92B0
:105A20000F931F930CA51DA52EA53FA548A559A50D
:105A30006AA57BA5CE0101960E94834E232DB3015A
:105A4000A201CE0101960E942F7F0F900F900F9020
:105A50000F9080C587ED98E00E9498470E943A28F1
:105A600081E090E09093F0058093EF050E94072875
:105A700068A779A78AA79BA70E9407286CA77DA77C
:105A80008EA79FA70E9407286B017C010E94072810
:105A90004B015C010E940728162F072F282E9EAB72
:105AA0000E9407282B013C010E943A28382E0E94B0
:105AB000072868AB79AB8AAB9BAB0E942C289DABC7
:105AC0008CAB8091FB059091FC05A091FD05B091F8
:105AD000FE050196A11DB11D8093FB059093FC0569
