:100000000C9499220C94C8220C94C8220C94C822F7
:100010000C94C8220C94C8220C94C8220C94C822B8
:100020000C94C8220C94C8220C94C8220C94C822A8
:100030000C94C8220C9412490C94C8220C94C82227
:100040000C94C8220C94C8220C94C8220C94C82288
:100050000C94C8220C94C8220C94C8220C94C82278
:100060000C94C8220C94A6D30C94C8220C94D2D31E
:100070000C94C8220C94479B0C94C8220C94C82260
:100080000C94C8220C94C8220C94C8220C94C82248
:100090000C94C8220C94C8220C94C8220C94C82238
:1000A0000C94C8220C94C8220C94C8220C94C82228
:1000B0000C94C8220C94C8220C94C8220C94B64507
:1000C0000C94C8220C94C8220C94C8220C94C82208
:1000D0000C94C8220C94C8220C94C8220C94C822F8
:1000E0000C94C822E33D0B3E103EED3D153E623EB2
:1000F000623EED3D333E623E383E403E453E4A3E26
:100100001F3E243E293EED3D2E3E623EE83D1A3E16
:100110004F3E543E583E623E623E5C3E50726570B9
:100120006172696E6720666F7220736C6565703AE4
:1001300049276D20636F6D706C6574696E6720610F
:100140006E792020717565756564206D6F766573B5
:100150002E20202020202020004368616E67696ED9
:10016000672046696C616D656E743A202049276D81
:1001700020636F6D706C6574696E6720616E7920A5
:1001800020717565756564206D6F7665732E20200E
:10019000202020202000494E56414C494420544FF5
:1001A0004F4C3A2020202020202049207265636592
:1001B000697665642061204C656674202020546F48
:1001C0006F6C20636F6D6D616E642C20627574209E
:1001D00049206F6E6C792068617665206F6E6520AE
:1001E000546F6F6C2E2000494E56414C49442043B9
:1001F0004F4D4D414E443A202020204920726563E6
:100200006569766564206120636F6D6D616E6466FB
:100210006F7220612068656174656420706C617420
:10022000652C20627574204920646F6E27742068E5
:10023000617665206F6E65004920736177206120CB
:10024000676C6974636820696E206D79534420631C
:100250006172642E20496620746869732069732076
:10026000746865206669727374206572726F722C8F
:100270002074727974686973206D6F64656C206195
:100280006761696E2E20202000492074696D6564C5
:10029000206F7574207768696C6520202061747404
:1002A000656D7074696E6720746F20686561742075
:1002B000206D792065787472756465722E20202017
:1002C000202020202000492074696D6564206F750E
:1002D00074207768696C65202020617474656D7086
:1002E00074696E6720746F206865617420206D7971
:1002F00020706C6174666F726D2E2020202020208B
:10030000202000507265706172696E6720666F729E
:1003100020736C6565703A49276D20636F6F6C6957
:100320006E67206D7920202020202068656174652B
:10033000727320616E6420676F696E6720746F6DE1
:1003400079207761697420706F736974696F6E2E9C
:10035000202020004368616E67696E672046696CE3
:10036000616D656E743A202049276D20676F696E54
:100370006720746F206D792077616974706F73697D
:1003800074696F6E2E202020202020202020202025
:10039000004D7920686561746572732074696D65BC
:1003A00064206F75744920616D206E6F7720696ECF
:1003B00020536C65657020202028436F6C642050AA
:1003C00061757365292E20202020202020202020E8
:1003D000202020202020202020202020202020201D
:1003E000200052657374617274696E672074686569
:1003F000204275696C640054686973206973206ECB
:100400006F7420746865207833672076657273692D
:100410006F6E204920776F726B206265737420774E
:100420006974682E20466F722068656C7020736551
:10043000653A206D616B6572626F742E636F6D2F0C
:1004400068656C70202020005468697320627569AB
:100450006C6420697320666F72202020616E6F7457
:1004600068657220626F742E205365653A202020E3
:100470006D616B6572626F742E636F6D2F68656C52
:100480007020202000546865205265706C6963619B
:100490007430720049276D2043616E63656C6C692E
:1004A0006E672E2020202020506C656173652057D8
:1004B0006169742E20202020202020200020004868
:1004C0006561746572732073687574646F776E20EC
:1004D00020202064756520746F20696E61637469E3
:1004E000766974792020200048656174696E672000
:1004F0004661696C7572652023312120536F6674E3
:10050000776172652054656D70204C696D69742047
:10051000526561636865642120506C656173652074
:100520002020202053687574646F776E206F7220CE
:1005300052657374617274200048656174696E67F6
:10054000204661696C75726520233221204D792027
:1005500065787472756465727320617265206E6F60
:100560007468656174696E672070726F7065726C13
:10057000792E202020436865636B206D7920636F9E
:100580006E6E656374696F6E730048656174696E41
:1005900067204661696C75726520233321204D798F
:1005A00020657874727564657273206172652020AD
:1005B00020206C6F73696E672074656D7065726161
:1005C000747572652E20436865636B206D792063B6
:1005D0006F6E6E656374696F6E73004865617469F0
:1005E0006E67204661696C7572652023352120494C
:1005F000276D2072656164696E67206F7574206F66
:1006000066202072616E67652074656D7065726129
:1006100074757265732E20436865636B206D792055
:10062000636F6E6E656374696F6E730048656174A5
:10063000696E67204661696C7572652023342120DC
:100640004D792074656D7065726174757265207284
:1006500065616473617265206661696C696E6721AA
:1006600020506C6561736520436865636B206D790C
:1006700020636F6E6E656374696F6E7300930269B9
:100680000000006900EE016900000069002601B861
:10069000010000000020065500000055002D0855FF
:1006A00000000055004D0A550000005500400CABFD
:1006B000000000AB002D095500000055002D085525
:1006C00000000055004D0AAB00000055000000007E
:1006D00001C00D5500000055002D08560100000016
:1006E00000C00D20015311BC005B12B101000000DD
:1006F00000C00DC80000001400C00DC800000014A8
:1007000000910E9001000014005A10900100001496
:1007100000C00D200300000000C805C80000001440
:1007200000C805C80000001400C805C80000001477
:1007300000DD04B004000014007505C800000014BA
:10074000007505C800000014007505C800000014FD
:10075000009704B00400000000B8075500000055E1
:1007600000B909AB000000AB007D06550000005544
:1007700000C805550000005500B807AB000000ABED
:1007800000C805550000005500DD04550000005567
:1007900000C805550000005500B807550000005579
:1007A000007D065601000000003F03550000005583
:1007B00000FA0C5500000055003F0355000000559D
:1007C00000B9095500000055003F035500000055D1
:1007D000002D095500000055003F0355000000554D
:1007E00000EA0A5500000055003F0355000000557F
:1007F00000B909AB0000000000534420436172645B
:100800002052656D6F766564202020200024F4045A
:10081000D9201BC40C5C0E9804C4095F02650771E3
:1008200001F405F900FB04B30048048700C1036923
:10083000005803550003034500BE023A008402310C
:100840000053022A002902250004022000E4011CB2
:1008500000C8011900AF01170098011400840113AA
:1008600000710110006101100051010E0043010DE3
:100870000036010B002B010B0020010B00150109B4
:10088000000C01090003010800FB000800F3000848
:1008900000EB000700E4000600DE000600D80006BA
:1008A00000D2000600CC000500C7000500C200050C
:1008B00000BD000400B9000400B5000400B100044C
:1008C00000AD000400A9000400A5000300A200037D
:1008D000009F0004009B00030098000300950002A5
:1008E0000093000300900003008D0002008B0003C2
:1008F00000880002008600020084000300810002DC
:10090000007F0002007D0002007B000200790002EF
:1009100000770001007600020074000200720001FE
:1009200000710002006F0002006D0001006C000207
:10093000006A000100690002006700010066000112
:100940000065000100640002006200010061000116
:1009500000600001005F0002005D0001005C00011A
:10096000005B0001005A000100590001005800011D
:10097000005700010056000100550001005400011D
:10098000005300000053000100520001005100011B
:1009900000500001004F0001004E0000004E000119
:1009A000004D0001004C0001004B0000004B000115
:1009B000004A000100490001004800000048000111
:1009C000004700010046000000460001004500000D
:1009D0000045000100440001004300000043000105
:1009E00000420000004200010041000000410001FF
:1009F00000400001003F0000003F0001003E0000F9
:100A0000003E0001003D0000003D0001003C0000F0
:100A1000003C0000003C0001003B0000003B0001E6
:100A2000003A0000003A00010039000000390001DE
:100A300000380000003800000038000100370000D6
:100A400000370001003600000036000000360001CB
:100A500000350000003500000035000100340000C2
:100A600000340000003400010033000000330000B7
:100A700000330001003200000032000000320001AB
:100A800000310000003100000031000100300000A2
:100A90000030000000300001002F0000002F000097
:100AA000002F0000002F0001002E0000002E00008B
:100AB000002E0001002D0000002D0000002D000080
:100AC000002D0001002C0000002C0000002C000074
:100AD000002C0001002B0000002B0000002B000068
:100AE000002B0001002A0000002A0000002A00005C
:100AF000002A000100290000002900000029000050
:100B00000029000000290001002800000028000042
:100B10000028000000280000002800010027000035
:100B20000027000000270000002700000027000128
:100B3000002600000026000000260000002600001D
:100B4000002600010025000000250000002500000F
:100B50000025000000250000002500010024000001
:100B600000240000002400000024000000240001F4
:100B700000230000002300000023000000230000E9
:100B800000230000002300000023000100220000D9
:100B900000220000002200000022000000220000CD
:100BA00000220001002100000021000000210000BF
:100BB00000210000002100000021000000210001B0
:100BC00000200000002000000020000000200000A5
:100BD0000020000000200000002000000020000194
:100BE000001F0000001F0000001F0000001F000089
:100BF000001F0000001F0000001F0001001E000079
:100C0000001E0000001E0000001E00000024F4D49E
:100C10003050C38E20C2A24017828B7011127A917D
:100C20000D816CD90AA861E108C758660761514374
:100C3000061E4B5D05C145A7041A411104093D98E4
:100C400003713931034036DB0265339102D43054ED
:100C500002802E1D02632CEE01752AC501B028A06A
:100C600001102781018F2564012B244B01E02234E0
:100C700001AC211F018D200D01801FFC00841EEDA1
:100C800000971DDF00B81CD200E61BC600201BBC6D
:100C900000641AB200B219A8000A19A0006A1899D3
:100CA00000D117910040178B00B516840031167ED5
:100CB00000B31579003A157300C7146F0058146A11
:100CC00000EE1366008813630025135E00C7125BF5
:100CD000006C12570015125400C111510070114FD1
:100CE0000021114B00D61049008D104700461044DA
:100CF0000002104200C00F4000800F3E00420F3C37
:100D000000060F3B00CB0E3800930E37005C0E350B
:100D100000270E3400F30D3200C10D3100900D306C
:100D200000600D2E00320D2D00050D2C00D90C2B6E
:100D300000AE0C2900850C29005C0C2700350C271F
:100D4000000E0C2600E80B2400C40B2400A00B238B
:100D5000007D0B23005A0B2100390B2100180B20BA
:100D600000F80A1F00D90A1E00BB0A1E009D0A1DBA
:100D700000800A1D00630A1C00470A1B002C0A1B86
:100D800000110A1A00F7091A00DD091900C409192F
:100D900000AB091900920917007B091800630917B5
:100DA000004C09160036091600200916000A09151C
:100DB00000F5081500E0081400CC081400B8081469
:100DC00000A4081400900813007D0812006B08139B
:100DD00000580812004608120034081100230811B8
:100DE000001208110001081100F0071000E00710C0
:100DF00000D0071000C0071000B0070F00A10710B7
:100E00000091070E0083070F0074070F0065070E9F
:100E10000057070E0049070E003B070D002E070E76
:100E20000020070D0013070D0006070D00F9060C42
:100E300000ED060D00E0060C00D4060C00C8060C00
:100E400000BC060C00B0060C00A4060B0099060CB2
:100E5000008D060B0082060B0077060B006C060B5C
:100E60000061060A0057060B004C060A0042060AFB
:100E70000038060A002E060A0024060A001A060A8E
:100E8000001006090007060A00FD050900F405091F
:100E900000EB050900E2050900D9050900D00509A4
:100EA00000C7050900BE050900B5050800AD050825
:100EB00000A50509009C050800940508008C05089C
:100EC00000840508007C050800740508006C05070F
:100ED00000650508005D050700560508004E05077A
:100EE00000470507004005080038050700310507E1
:100EF000002A050700230507001C05060016050744
:100F0000000F0507000805060002050700FB0406A0
:100F100000F5040700EE040600E8040600E20407FA
:100F200000DB040600D5040600CF040600C9040651
:100F300000C3040600BD040600B7040600B10405A2
:100F400000AC040600A6040600A00405009B0406ED
:100F50000095040500900406008A04050085040538
:100F600000800406007A040500750405007004057D
:100F7000006B04050066040500610405005C0405BF
:100F80000057040500520405004D040500480405FF
:100F900000430405003E0404003A0405003504053E
:100FA00000300404002C0405002704040023040579
:100FB000001E0404001A04040016040500110404B1
:100FC000000D0404000904050004040400000404E6
:100FD00000FC030400F8030400F4030400F003041D
:100FE00000EC030400E8030400E4030400E003044D
:100FF00000DC030400D8030400D4030400D003047D
:1010000000CC030400C8030300C5030300950200DD
:101010000000506C6561736520776169742E2E2E17
:101020000084036901000014008304880000001498
:10103000008C000000000000000030F8FFFF0000FE
:101040000000000000008E00000000000000000012
:1010500000000000000000000000005729040018F4
:101060008304DC0500001400901F891F9502000016
:1010700000506C6561736520776169740084036951
:10108000010000140083048800000014008C00009C
:1010900000000000000030F8FFFF0000000000002A
:1010A00000008E00000000000000000000000000B2
:1010B0000000000000000057290400188304DC052C
:1010C000000014008CE5370000941B0000000000B5
:1010D00000000000000000000095000000004669CC
:1010E0006E64207468652034206B6E6F6273206FAD
:1010F0006E2000950100000074686520626F7474B2
:101100006F6E206F662074686520202000950100B6
:101110000000706C6174666F726D20616E64207483
:1011200069676874656E009507000000666F7572E8
:10113000206F722066697665207475726E732E005A
:10114000950000000049276D20676F696E67207465
:101150006F206D6F766520202000950100000074DF
:10116000686520657874727564657220746F2020DC
:10117000202020009501000000766172696F757370
:1011800020706F736974696F6E732020200095075B
:10119000000000666F722061646A7573746D656E1D
:1011A000742E009500000000496E20656163682080
:1011B000706F736974696F6E2C2020200095010098
:1011C000000077652077696C6C206E65656420741B
:1011D0006F202020202000950100000061646A75C6
:1011E00073742032206B6E6F627320617420202034
:1011F0000095070000007468652073616D652074B8
:10120000696D652E0095000000004E6F7A7A6C655E
:1012100073206172652061742074686520200095D8
:101220000100000072696768742068656967687406
:10123000207768656E202020009501000000796FFE
:10124000752063616E206A75737420736C696465C0
:1012500020610095070000007368656574206F6663
:1012600020706170657200950000000062657477FF
:1012700065656E20746865206E6F7A7A6C652020D3
:10128000009501000000616E642074686520706C38
:101290006174652E20202020202000950100000090
:1012A000477261622061207368656574206F6620F3
:1012B00020202020009507000000706170657220DA
:1012C000746F206173736973742075732E009502B7
:1012D000000000506C65617365207761697400954A
:1012E00002000000506C65617365207761697400CD
:1012F0008EE6370000951B0000D0070000000000BC
:1013000000000000009AE90300188E00000000CAE7
:10131000E4FFFFD007000000000000000000002AEA
:101320000D3B00188E00000000C9E4FFFF00000024
:101330000000000000000000009AE903001895007A
:1013400000000041646A75737420746865206672D9
:101350006F6E742074776F0095010000006B6E6FE4
:10136000627320756E74696C2070617065722020E4
:10137000200095010000006A75737420736C696425
:101380006573206265747765656E200095070000BF
:10139000006E6F7A7A6C6520616E6420706C617487
:1013A00065009502000000506C65617365207761EF
:1013B0006974008E00000000CAE4FFFFD00700003F
:1013C00000000000000000009AE90300188E0000F1
:1013D00000007A1A0000D0070000000000000000A2
:1013E000000051812800188E000000007A1A0000C9
:1013F0000000000000000000000000009AE9030067
:1014000018950000000041646A7573742074686563
:10141000206261636B2074776F20009501000000EB
:101420006B6E6F627320756E74696C20706170658D
:10143000722020200095010000006A7573742073EB
:101440006C69646573206265747765656E200095CC
:10145000070000006E6F7A7A6C6520616E64207000
:101460006C617465009502000000506C65617365E5
:101470002077616974008E000000007A1A0000D0A5
:1014800007000000000000000000009AE9030018B7
:101490008EC624000000000000D0070000000000FD
:1014A0000000000000A82F2200188EC624000000B3
:1014B0000000000000000000000000000000009A92
:1014C000E9030018950000000041646A75737420F8
:1014D0007468652072696768742074776F0095017D
:1014E0000000006B6E6F627320756E74696C207003
:1014F000617065722020200095010000006A7573FC
:101500007420736C69646573206265747765656EB9
:10151000200095070000006E6F7A7A6C6520616E7E
:101520006420706C617465009502000000506C6569
:101530006173652077616974008EC6240000000025
:101540000000D007000000000000000000009AE941
:101550000300188E3ADBFFFF00000000D0070000F8
:1015600000000000000000008B7C3700188E3ADB82
:10157000FFFF00000000000000000000000000006D
:1015800000009AE9030018950000000041646A75A4
:10159000737420746865206C6566742074776F209E
:1015A0000095010000006B6E6F627320756E7469A8
:1015B0006C20706170657220202000950100000091
:1015C0006A75737420736C696465732062657477DF
:1015D00065656E200095070000006E6F7A7A6C6575
:1015E00020616E6420706C617465009502000000DB
:1015F000506C656173652077616974008E3ADBFF1A
:10160000FF00000000D00700000000000000000004
:10161000009AE90300188E0000000000000000D0CE
:10162000070000000000000000000045BE1B00187D
:101630008E0000000000000000000000000000001C
:1016400000000000009AE903001895000000004324
:101650006865636B207468617420706170657220C6
:101660002020200095010000006A75737420736CBF
:1016700069646573206265747765656E20009507FF
:101680000000006E6F7A7A6C6520616E6420706C69
:1016900061746500891F9502000000506C656173DC
:1016A0006520776169740084036901000014008378
:1016B000048800000014008C0000000000000000FE
:1016C00030F8FFFF00000000000000008E00000066
:1016D000000000000000000000000000000000000A
:1016E0000057290400188304DC05000014008CE571
:1016F000370000941B000000000000000000000004
:10170000000000950000000046696E642074686562
:101710002034206B6E6F6273206F6E200095010085
:10172000000074686520626F74746F6E206F6620AD
:10173000746865202020009501000000706C6174C1
:10174000666F726D20616E64207469676874656E7F
:10175000009507000000666F7572206F7220666941
:101760007665207475726E732E0095000000004936
:10177000276D20676F696E6720746F206D6F7665C7
:1017800020202000950100000074686520657874B1
:10179000727564657220746F2020202020009501EE
:1017A000000000766172696F757320706F736974E1
:1017B000696F6E73202020009507000000666F722D
:1017C0002061646A7573746D656E742E00950000F7
:1017D0000000496E206561636820706F73697469E9
:1017E0006F6E2C2020200095010000007765207787
:1017F000696C6C206E65656420746F202020202049
:1018000000950100000061646A7573742032206BDA
:101810006E6F627320617420202000950700000025
:101820007468652073616D652074696D652E00951F
:10183000000000004E6F7A7A6C657320617265203B
:1018400061742074686520200095010000007269B1
:1018500067687420686569676874207768656E20BA
:101860002020009501000000796F752063616E20D3
:101870006A75737420736C69646520610095070054
:1018800000007368656574206F6620706170657212
:101890000095000000006265747765656E207468CD
:1018A00065206E6F7A7A6C6520200095010000003B
:1018B000616E642074686520706C6174652E2020F0
:1018C0002020202000950100000047726162206105
:1018D000207368656574206F6620202020200095A5
:1018E00007000000706170657220746F206173736F
:1018F0006973742075732E009502000000506C65AA
:101900006173652077616974009502000000506C76
:10191000656173652077616974008EE53700009416
:101920001B0000D007000000000000000000009A2B
:10193000E90300188E11060000CAE4FFFFD007007B
:10194000000000000000000000DADF3700188E12EF
:10195000060000CAE4FFFF000000000000000000D5
:101960000000009AE9030018950000000041646A35
:10197000757374207468652066726F6E7420747756
:101980006F0095010000006B6E6F627320756E74BE
:10199000696C207061706572202020009501000044
:1019A000006A75737420736C696465732062657472
:1019B0007765656E200095070000006E6F7A7A6C7F
:1019C0006520616E6420706C617465009502000092
:1019D00000506C656173652077616974008E110633
:1019E0000000C9E4FFFFD007000000000000000075
:1019F00000009AE90300188E110600007B1A00000F
:101A0000D007000000000000000000005181280005
:101A1000188E110600007A1A000000000000000075
:101A20000000000000009AE9030018950000000083
:101A300041646A75737420746865206261636B2009
:101A400074776F200095010000006B6E6F62732049
:101A5000756E74696C20706170657220202000952D
:101A6000010000006A75737420736C6964657320EB
:101A70006265747765656E200095070000006E6FE3
:101A80007A7A6C6520616E6420706C617465009573
:101A900002000000506C6561736520776169740015
:101AA0008E120600007A1A0000D007000000000025
:101AB00000000000009AE90300188E2A27000000A9
:101AC000000000D00700000000000000000000CF70
:101AD000F91F00188E2A27000000000000000000F7
:101AE0000000000000000000009AE90300189500C3
:101AF00000000041646A757374207468652072691F
:101B00006768742074776F0095010000006B6E6F3A
:101B1000627320756E74696C20706170657220202C
:101B2000200095010000006A75737420736C69646D
:101B30006573206265747765656E20009507000007
:101B4000006E6F7A7A6C6520616E6420706C6174CF
:101B500065009502000000506C6561736520776137
:101B60006974008E2927000000000000D0070000E3
:101B700000000000000000009AE90300188EF9E45C
:101B8000FFFF00000000D007000000000000000080
:101B9000000017F03100188EF9E4FFFF000000008C
:101BA0000000000000000000000000009AE90300AF
:101BB00018950000000041646A75737420746865AC
:101BC000206C6566742074776F200095010000001A
:101BD0006B6E6F627320756E74696C2070617065D6
:101BE000722020200095010000006A757374207334
:101BF0006C69646573206265747765656E20009515
:101C0000070000006E6F7A7A6C6520616E64207048
:101C10006C617465009502000000506C656173652D
:101C20002077616974008EF9E4FFFF00000000D0A6
:101C300007000000000000000000009AE9030018FF
:101C40008E1106000000000000D007000000000018
:101C500000000000000BF81800188E1106000000AC
:101C60000000000000000000000000000000009ADA
:101C7000E90300189500000000436865636B207459
:101C800068617420706170657220202020009501C9
:101C90000000006A75737420736C69646573206258
:101CA00065747765656E200095070000006E6F7A99
:101CB0007A6C6520616E6420706C61746500891FA8
:101CC00099000000006E6F7A7A6C6543616C6962FE
:101CD000726174696F6E00960000860084033E0195
:101CE000000014008304A600000014008C00000013
:101CF000000000000030F8FFFF00000000000000BE
:101D0000008B000000000000000000000000000048
:101D1000000000000000A60000008304DC050000B5
:101D20001400901F8CE5370000941B000000000099
:101D30000000000000000000008BD1D6FFFF28E566
:101D4000FFFF60EA000000000000000000008000CB
:101D5000000091011491001491041491031488005F
:101D60001F026E008D006400580288000302E60026
:101D700088010302E60087006400580287016400BE
:101D8000580291017F91007F91047F91037F8B43E3
:101D9000E6FFFFB8E9FFFF68010000000000000057
:101DA000000000800000008B43E6FFFFB8E9FFFF62
:101DB00068010000E4FFFFFF000000000C030000CA
:101DC0008B43E6FFFFB8E9FFFFF0000000D0FFFF04
:101DD000FF000000003E0000008B43E6FFFFB8E973
:101DE000FFFFF0000000B3FFFFFF000000008501CF
:101DF00000008B8DD7FFFFB8E9FFFFF00000004F18
:101E0000FEFFFF000000004A0300008B43E6FFFFD7
:101E10006EEDFFFFF00000007FFEFFFF00000000FE
:101E2000C70000008B43E6FFFF6EEDFFFFF00000F0
:101E30000063FEFFFF00000000850100008B3BDB1C
:101E4000FFFF6EEDFFFFF0000000FEFCFFFF000053
:101E500000004C0300008B43E6FFFF25F1FFFFF07D
:101E60000000002EFDFFFF00000000CB0000008BF3
:101E700043E6FFFF25F1FFFFF000000012FDFFFF2A
:101E800000000000850100008B3BDBFFFF25F1FF18
:101E9000FFF0000000ADFBFFFF000000004C03005E
:101EA000008B43E6FFFFDCF4FFFFF0000000DDFBEA
:101EB000FFFF00000000CB0000008B43E6FFFFDCCB
:101EC000F4FFFFF0000000C1FBFFFF0000000085F1
:101ED0000100008B3BDBFFFFDCF4FFFFF0000000A4
:101EE0005CFAFFFF000000004C0300008B43E6FF9C
:101EF000FF93F8FFFFF00000008DFAFFFF000000E5
:101F000000CB0000008B43E6FFFF93F8FFFFF000DB
:101F1000000070FAFFFF00000000850100008B3B0D
:101F2000DBFFFF93F8FFFFF00000000BF9FFFF005D
:101F30000000004C0300008B43E6FFFF4AFCFFFF5C
:101F4000F00000003CF9FFFF00000000CB000000A3
:101F50008B43E6FFFF4AFCFFFFF00000001FF9FF84
:101F6000FF00000000850100008B3BDBFFFF4AFC07
:101F7000FFFFF0000000BAF7FFFF000000004C0375
:101F800000008B43E6FFFF00000000F0000000EBC4
:101F9000F7FFFF00000000CB0000008B43E6FFFFCF
:101FA00000000000F0000000CEF7FFFF000000007E
:101FB000850100008B3BDBFFFF00000000F000000C
:101FC0000069F6FFFF000000004C0300008B43E6B1
:101FD000FFFFB6030000F00000009AF6FFFF0000CC
:101FE0000000CB0000008B43E6FFFFB6030000F0CB
:101FF0000000007DF6FFFF00000000850100008B5F
:102000003BDBFFFFB6030000F000000019F5FFFF07
:10201000000000004C0300008B43E6FFFF6D07004B
:1020200000F000000049F5FFFF00000000CB0000B9
:10203000008B43E6FFFF6D070000F00000002CF569
:10204000FFFF00000000850100008B3BDBFFFF6D00
:10205000070000F0000000C8F3FFFF000000004C84
:102060000300008B43E6FFFF240B0000F00000009C
:10207000F8F3FFFF00000000CB0000008B43E6FFF9
:10208000FF240B0000F0000000DBF3FFFF00000066
:1020900000850100008B3BDBFFFF240B0000F000FC
:1020A000000077F2FFFF000000004C0300008B43AC
:1020B000E6FFFFDB0E0000F0000000A7F2FFFF00CC
:1020C000000000CB0000008B43E6FFFFDB0E0000AA
:1020D000F00000008AF2FFFF000000008501000010
:1020E0008B3BDBFFFFDB0E0000F000000026F1FF62
:1020F000FF000000004C0300008B43E6FFFF92123C
:102100000000F000000056F1FFFF00000000CB00CF
:1021100000008B43E6FFFF92120000F00000003940
:10212000F1FFFF00000000850100008B3BDBFFFF9B
:1021300092120000F0000000D5EFFFFF0000000049
:102140004C0300008B43E6FFFF48160000F0000040
:102150000005F0FFFF00000000CB0000008B43E60D
:10216000FFFF48160000F0000000E8EFFFFF00004E
:102170000000850100008B3BDBFFFF48160000F0EC
:1021800000000084EEFFFF000000004C0300008B05
:10219000C0F4FFFFA6F8FFFF68010000B4EEFFFFE8
:1021A00000000000FE0000008BC0F4FFFFA6F8FF57
:1021B000FFF000000084EEFFFF000000009C000024
:1021C000008BC0F4FFFFA6F8FFFFF000000067EEF1
:1021D000FFFF00000000850100008BC0F4FFFF5AE4
:1021E000070000F000000003EDFFFF000000004AC0
:1021F0000300008B77F8FFFFA6F8FFFFF000000058
:1022000033EDFFFF00000000C70000008B77F8FFF0
:10221000FFA6F8FFFFF000000016EDFFFF00000032
:1022200000850100008B77F8FFFFAD030000F00090
:102230000000B2EBFFFF000000004C0300008B2DFC
:10224000FCFFFFA6F8FFFFF0000000E2EBFFFF003D
:10225000000000CB0000008B2DFCFFFFA6F8FFFF65
:10226000F0000000C5EBFFFF00000000850100004A
:102270008B2DFCFFFFAD030000F000000061EAFFC2
:10228000FF000000004C0300008BE4FFFFFFA6F8F6
:10229000FFFFF000000091EAFFFF00000000CB000C
:1022A00000008BE4FFFFFFA6F8FFFFF000000074C2
:1022B000EAFFFF00000000850100008BE4FFFFFF44
:1022C000AD030000F000000010E9FFFF0000000077
:1022D0004C0300008B9A030000A6F8FFFFF00000FB
:1022E0000040E9FFFF00000000CB0000008B9A03D4
:1022F0000000A6F8FFFFF000000023E9FFFF000048
:102300000000850100008B9A030000AD030000F07F
:10231000000000BFE7FFFF000000004C0300008B3F
:1023200051070000A6F8FFFFF0000000EFE7FFFFF5
:1023300000000000CB0000008B51070000A6F8FF52
:10234000FFF0000000D2E7FFFF0000000085010061
:10235000008B51070000AD030000F00000006EE6A6
:10236000FFFF000000004C0300008B080B0000A6DC
:10237000F8FFFFF00000009EE6FFFF00000000CB2A
:102380000000008B080B0000A6F8FFFFF000000023
:1023900081E6FFFF00000000850100008B080B00B4
:1023A00000AD030000F00000001DE5FFFF0000008D
:1023B000004C0300008BBF0E0000A6F8FFFFF000EA
:1023C00000004DE5FFFF00000000CB0000008BBFC8
:1023D0000E0000A6F8FFFFF000000030E5FFFF0050
:1023E000000000850100008BBF0E0000AD0300005F
:1023F000F0000000CCE3FFFF000000004C030000F1
:102400008B75120000A6F8FFFFF0000000FCE3FF50
:10241000FF00000000CB0000008B75120000A6F842
:10242000FFFFF0000000DFE3FFFF00000000850178
:1024300000008B75120000AD030000F00000007B6F
:10244000E2FFFF000000004C0300008B2C16000090
:10245000A6F8FFFFF0000000ABE2FFFF0000000065
:10246000CB0000008B2C160000A6F8FFFFF0000048
:10247000008EE2FFFF00000000850100008B2C169B
:102480000000AD030000F00000002AE1FFFF0000A3
:1024900000004C0300008BE3190000A6F8FFFFF0DA
:1024A0000000005AE1FFFF00000000CB0000008B9D
:1024B000E3190000A6F8FFFFF00000003DE1FFFF78
:1024C00000000000850100008BE3190000AD03004F
:1024D00000F0000000D9DFFFFF000000004C030007
:1024E000008B9A1D0000A6F8FFFFF000000009E035
:1024F000FFFF00000000CB0000008B9A1D0000A62B
:10250000F8FFFFF0000000ECDFFFFF000000008597
:102510000100008B9A1D0000AD030000F0000000D8
:1025200088DEFFFF000000004C0300008B512100FB
:1025300000A6F8FFFFF0000000B8DEFFFF0000007B
:1025400000CB0000008B51210000A6F8FFFFF00037
:1025500000009BDEFFFF00000000850100008B51A2
:10256000210000AD030000F000000037DDFFFF0098
:102570000000004C0300008B51210000AD0300005F
:10258000F000000067DDFFFF000000000C0300000A
:102590008C51210000AD030000F00000000000009D
:1025A0000000000000860189188B43E6FFFFF0E978
:1025B000FFFF680100000000000000000000D200E2
:1025C00000008B43E6FFFFF0E9FFFF680100000019
:1025D000000000E4FFFFFF0C0300008B43E6FFFF59
:1025E000F0E9FFFFF000000000000000D0FFFFFF57
:1025F0003E0000008B43E6FFFFF0E9FFFFF0000024
:102600000000000000B3FFFFFF850100008B4BF1CD
:10261000FFFFF0E9FFFFF0000000000000004FFEA8
:10262000FFFF4C0300008B43E6FFFF9EEDFFFFF032
:10263000000000000000007FFEFFFFCB0000008BC9
:1026400043E6FFFF9EEDFFFFF000000000000000EA
:1026500063FEFFFF850100008B4BF1FFFF9EEDFF46
:10266000FFF000000000000000FEFCFFFF4C030034
:10267000008B43E6FFFF4BF1FFFFF000000000007E
:1026800000002EFDFFFFCB0000008B43E6FFFF4B59
:10269000F1FFFFF00000000000000012FDFFFF85C9
:1026A0000100008B4BF1FFFF4BF1FFFFF00000003A
:1026B00000000000ADFBFFFF4C0300008B43E6FF72
:1026C000FFF8F4FFFFF000000000000000DDFBFF5A
:1026D000FFCB0000008B43E6FFFFF8F4FFFFF000A4
:1026E000000000000000C1FBFFFF850100008B4BD4
:1026F000F1FFFFF8F4FFFFF0000000000000005CB5
:10270000FAFFFF4C0300008B43E6FFFFA6F8FFFF34
:10271000F0000000000000008DFAFFFFCB00000079
:102720008B43E6FFFFA6F8FFFFF00000000000006B
:102730000070FAFFFF850100008B4BF1FFFFA6F848
:10274000FFFFF0000000000000000BF9FFFF4C034A
:1027500000008B43E6FFFF53FCFFFFF0000000008A
:102760000000003CF9FFFFCB0000008B43E6FFFFB9
:1027700053FCFFFFF0000000000000001FF9FFFF06
:10278000850100008B4BF1FFFF53FCFFFFF00000C1
:102790000000000000BAF7FFFF4C0300008B43E687
:1027A000FFFF00000000F000000000000000EBF759
:1027B000FFFFCB0000008B43E6FFFF00000000F0AE
:1027C00000000000000000CEF7FFFF850100008B35
:1027D0004BF1FFFF00000000F000000000000000CF
:1027E00069F6FFFF4C0300008B43E6FFFFAD0300DB
:1027F00000F0000000000000009AF6FFFFCB000090
:10280000008B43E6FFFFAD030000F0000000000076
:1028100000007DF6FFFF850100008B4BF1FFFFAD4F
:10282000030000F00000000000000019F5FFFF4C5D
:102830000300008B43E6FFFF5A070000F000000092
:102840000000000049F5FFFFCB0000008B43E6FFCE
:10285000FF5A070000F0000000000000002CF5FF08
:10286000FF850100008B4BF1FFFF5A070000F000CD
:10287000000000000000C8F3FFFF4C0300008B4382
:10288000E6FFFF080B0000F000000000000000F869
:10289000F3FFFFCB0000008B43E6FFFF080B0000B7
:1028A000F000000000000000DBF3FFFF85010000E6
:1028B0008B4BF1FFFF080B0000F000000000000050
:1028C0000077F2FFFF4C0300008B43E6FFFFB50EDD
:1028D0000000F000000000000000A7F2FFFFCB00A6
:1028E00000008B43E6FFFFB50E0000F00000000083
:1028F0000000008AF2FFFF850100008B4BF1FFFF13
:10290000B50E0000F00000000000000026F1FFFFFF
:102910004C0300008B43E6FFFF62120000F0000052
:10292000000000000056F1FFFFCB0000008B43E6E3
:10293000FFFF62120000F00000000000000039F10B
:10294000FFFF850100008B4BF1FFFF62120000F0DA
:1029500000000000000000D5EFFFFF4C0300008BDB
:1029600043E6FFFF10160000F0000000000000002A
:1029700005F0FFFFCB0000008B43E6FFFF101600C1
:1029800000F000000000000000E8EFFFFF850100FC
:10299000008B4BF1FFFF10160000F000000000005C
:1029A000000084EEFFFF4C0300008BF8F4FFFF9E55
:1029B000EDFFFF6801000000000000B4EEFFFFC162
:1029C0000000008BF8F4FFFF9EEDFFFFF000000019
:1029D0000000000084EEFFFF9C0000008BF8F4FF75
:1029E000FF9EEDFFFFF00000000000000067EEFF1B
:1029F000FF850100008BF8F4FFFFA6F8FFFFF00051
:102A000000000000000003EDFFFF4C0300008BA658
:102A1000F8FFFF9EEDFFFFF0000000000000003314
:102A2000EDFFFFCB0000008BA6F8FFFF9EEDFFFF40
:102A3000F00000000000000016EDFFFF850100001F
:102A40008BA6F8FFFFA6F8FFFFF0000000000000D3
:102A500000B2EBFFFF4C0300008B53FCFFFF9EED29
:102A6000FFFFF000000000000000E2EBFFFFCB00E2
:102A700000008B53FCFFFF9EEDFFFFF00000000005
:102A8000000000C5EBFFFF850100008B53FCFFFF3A
:102A9000A6F8FFFFF00000000000000061EAFFFF61
:102AA0004C0300008B000000009EEDFFFFF00000D3
:102AB000000000000091EAFFFFCB0000008B000047
:102AC00000009EEDFFFFF00000000000000074EA2F
:102AD000FFFF850100008B00000000A6F8FFFFF05B
:102AE0000000000000000010E9FFFF4C0300008B15
:102AF000AD0300009EEDFFFFF000000000000000AD
:102B000040E9FFFFCB0000008BAD0300009EEDFF0E
:102B1000FFF00000000000000023E9FFFF85010036
:102B2000008BAD030000A6F8FFFFF00000000000DE
:102B30000000BFE7FFFF4C0300008B5A0700009E18
:102B4000EDFFFFF000000000000000EFE7FFFFCB0B
:102B50000000008B5A0700009EEDFFFFF000000010
:102B600000000000D2E7FFFF850100008B5A07003C
:102B700000A6F8FFFFF0000000000000006EE6FF76
:102B8000FF4C0300008B080B00009EEDFFFFF000E0
:102B90000000000000009EE6FFFFCB0000008B0855
:102BA0000B00009EEDFFFFF0000000000000008120
:102BB000E6FFFF850100008B080B0000A6F8FFFF71
:102BC000F0000000000000001DE5FFFF4C030000C6
:102BD0008BB50E00009EEDFFFFF00000000000002E
:102BE000004DE5FFFFCB0000008BB50E00009EED11
:102BF000FFFFF00000000000000030E5FFFF85014E
:102C000000008BB50E0000A6F8FFFFF000000000EA
:102C1000000000CCE3FFFF4C0300008B62120000B9
:102C20009EEDFFFFF000000000000000FCE3FFFF4E
:102C3000CB0000008B621200009EEDFFFFF0000051
:102C40000000000000DFE3FFFF850100008B62123F
:102C50000000A6F8FFFFF0000000000000007BE28B
:102C6000FFFF4C0300008B101600009EEDFFFFF0ED
:102C700000000000000000ABE2FFFFCB0000008B73
:102C8000101600009EEDFFFFF000000000000000A5
:102C90008EE2FFFF850100008B10160000A6F8FFF2
:102CA000FFF0000000000000002AE1FFFF4C0300DD
:102CB000008BBD1900009EEDFFFFF000000000003A
:102CC00000005AE1FFFFCB0000008BBD1900009E01
:102CD000EDFFFFF0000000000000003DE1FFFF8578
:102CE0000100008BBD190000A6F8FFFFF0000000F6
:102CF00000000000D9DFFFFF4C0300008B6B1D00BC
:102D0000009EEDFFFFF00000000000000009E0FF62
:102D1000FFCB0000008B6B1D00009EEDFFFFF0005D
:102D2000000000000000ECDFFFFF850100008B6B5E
:102D30001D0000A6F8FFFFF0000000000000008862
:102D4000DEFFFF4C0300008B182100009EEDFFFF0B
:102D5000F000000000000000B8DEFFFFCB00000024
:102D60008B182100009EEDFFFFF000000000000026
:102D7000009BDEFFFF850100008B18210000A6F8F4
:102D8000FFFFF00000000000000037DDFFFF4C03F4
:102D900000008B18210000A6F8FFFF30F2000000B1
:102DA00000000037DDFFFFC5000000890088000338
:102DB00002000088010302000088001F0200005F7B
:102DC000002A062A06FF10202054686520526570EC
:102DD0006C696361746F7220202020002020546889
:102DE00065205265706C696361746F7220202020C9
:102DF00000202020202D2D2D2D2D2D2D2D2D2D2071
:102E0000202020202000496E7465726E616C205273
:102E1000656C6561736520202020004669726D77BE
:102E20006172652056657273696F6E20372E2000BF
:102E3000436F6F6C21005374617274205072656827
:102E40006561742100526967687420546F6F6C006B
:102E50004E4120004F4E20004F4646004578747288
:102E600075646572004C65667420546F6F6C005019
:102E70006C6174666F726D0057656C636F6D652170
:102E800020202020202020202020202049276D20C5
:102E9000546865205265706C696361746F722E208E
:102EA00050726573732074686520726564204D20CC
:102EB000746F202067657420737461727465642177
:102EC00020202020202020200057656C636F6D6536
:102ED0002120202020202020202020202049276D74
:102EE00020546865205265706C696361746F722E3E
:102EF0002050726573732074686520726564204D7C
:102F000020746F2020676574207374617274656427
:102F1000212020202020202020004120626C696E8A
:102F20006B696E6720274D27206D65616E73492799
:102F30006D2077616974696E6720616E64207769BE
:102F40006C6C636F6E74696E7565207768656E2052
:102F5000796F752020207072657373207468652006
:102F6000627574746F6E2E2E2E20004120736F6C6C
:102F7000696420274D27206D65616E7320202049EC
:102F8000276D20776F726B696E6720616E642077A2
:102F9000696C6C757064617465206D7920737461FF
:102FA000747573202020207768656E2049276D2076
:102FB00066696E69736865642E2E2E004F757220E7
:102FC0006E6578742073746570732077696C6C20FB
:102FD000676574206D6520736574207570212020ED
:102FE0002020202046697273742C207765276C6C32
:102FF00020726573746F72656D79206275696C6497
:1030000020706C6174666F726D2E2E2E00736F20AF
:1030100069742773206E69636520616E64202020C7
:10302000206C6576656C2E20497427732070726F52
:103030006261626C796120626974206F66662066E5
:10304000726F6D2020202020207368697070696E77
:10305000672E2E2E202020202020202020004161BD
:1030600061682C2074686174206665656C7320202B
:1030700020206D756368206265747465722E20204F
:103080002020202020204C6574277320676F206F3C
:103090006E20616E64206C6F6164736F6D65206675
:1030A000696C616D656E74212020202020200057FE
:1030B00065276C6C2074727920616761696E2120CC
:1030C0002020202020202020202020202020202000
:1030D00020202020202020202020202020202020F0
:1030E00020202020202020202020202020202020E0
:1030F00020202020202020202020202020202000F0
:103100005765276C6C206B65657020676F696E670B
:1031100020202020616E64206C6F616420736F6DCD
:10312000652020202020202066696C616D656E740A
:103130002C466F722068656C7020676F746F206D0D
:10314000616B6572626F742E636F6D2F68656C7052
:10315000005765276C6C20676F20746F207468655A
:10316000206D61696E6D656E752E20496620796FE0
:1031700075206E65656420202068656C7020676F1F
:1031800020746F3A2020202020202020206D616BA9
:103190006572626F742E636F6D2F68656C7020208E
:1031A0002000417765736F6D65212020202020204D
:1031B0002020202020205765276C6C20676F20740A
:1031C0006F20746865205344202063617264206D11
:1031D000656E7520616E6420796F752020206361B3
:1031E0006E2073656C6563742061206D6F64656C1F
:1031F00021200049276D20676F696E6720746F205A
:103200006D616B6520202061207365726965732094
:103210006F66206C696E657320736F7765206361DC
:103220006E2066696E64206D792020202020206E3B
:103230006F7A7A6C6520616C69676E6D656E742E4D
:10324000202020004C6F6F6B20666F7220746865C1
:1032500020626573742020206D617463686564204A
:103260006C696E6520696E20656163686178697359
:10327000207365742E204C696E6573206172652021
:103280006E756D626572656420312D313320616E1B
:10329000642E2E2E006C696E65206F6E652069733A
:1032A0002065787472612020206C6F6E672E205428
:1032B000686520592061786973207365746973208B
:1032C0006C656674206F6E2074686520706C617424
:1032D00065616E642058206178697320697320727B
:1032E000696768742E004772656174212020492740
:1032F0007665207361766564202074686573652047
:1033000073657474696E677320616E642020492749
:103310006C6C20757365207468656D20746F202057
:1033200020206D616B65206E696365206D6F64653B
:103330006C73212020200053656C656374206265E6
:103340007374206C696E65732E0058204178697320
:10335000204C696E65002D2D3E0020202000592054
:1033600041786973204C696E6500446F6E65210079
:103370004D792074656D7065726174757265207722
:10338000617320206368616E676564206578746589
:10339000726E616C6C792E20526573656C65637416
:1033A0002066696C616D656E742020206D656E7598
:1033B00020746F2074727920616761696E2E2020FD
:1033C000004D79206578747275646572732061723E
:1033D00065202020206E6F742068656174696E67B7
:1033E0002075702E2020202020436865636B206D9F
:1033F00079202020202020202020202020636F6E94
:103400006E656374696F6E73212020202020202058
:103410002000507265737320646F776E206F6E208A
:10342000746865202020677265792072696E677301
:1034300020617420746F70206F66746865206578F1
:103440007472756465727320616E642020207075DB
:103450006C6C2074686520626C61636B2E2E2E206C
:10346000202000507265737320646F776E206F6E3A
:1034700020746865202020677265792072696E6704
:1034800020617420746F70206F66207468652065F9
:103490007874727564657220616E642020202070DB
:1034A000756C6C2074686520626C61636B2E2E2EC7
:1034B00020202000506C656173652077616974205D
:1034C0007768696C6520492068656174206D792092
:1034D0006578747275646572212020202020202078
:1034E00020202020202020202020202020202020DC
:1034F00020202020202020202020202020202020CC
:1035000020202020006775696465207475626573EA
:10351000206F75742E204E6F77666565642066692E
:103520006C616D656E742066726F6D2020746865C5
:10353000206261636B207468726F756768207468BD
:1035400065747562657320756E74696C2069742E7C
:103550002E2E2020200067756964652074756265D1
:10356000206F75742E20204E6F7766656564206627
:10357000696C616D656E742066726F6D2020746871
:1035800065206261636B207468726F756768207470
:1035900068657475626520756E74696C2069742E37
:1035A0002E2E2020202000706F7073206F757420E5
:1035B000696E2066726F6E742E202049276D206818
:1035C000656174696E67207570206D7920202065B3
:1035D0007874727564657220736F207765206361FB
:1035E0006E20206C6F6164207468652066696C6170
:1035F0006D656E742E2E2E0054686973206D696798
:1036000068742074616B65206120202066657720D6
:103610006D696E757465732E202020202020202077
:10362000416E64207761746368206F75742C207418
:10363000686520206E6F7A7A6C652077696C6C20E3
:1036400067657420484F54210048656174696E674E
:103650002050726F67726573733A202020202020FB
:10366000202020202020202020202020202020205A
:10367000202020202020202020202020202020204A
:10368000202020202020202020202020202020203A
:10369000202020202020202020004F4B2049276D73
:1036A00020726561647921202020202020204E6F27
:1036B00077207765276C6C206C6F61642074686577
:1036C0002020726967687420657874727564657209
:1036D0002E2020202020507573682066696C616D53
:1036E000656E7420696E2E2E2E20004F4B204927C8
:1036F0006D207265616479212020202020202050D7
:10370000757368207468652066696C616D656E7498
:103710002020207468726F7567682E2E2E2020205E
:103720002020202020202020202020202020202099
:1037300020202020202020202020200049276D202C
:103740007265616479212050756C6C207468652005
:1037500067756964652074756265206F66662061AF
:103760006E64202070757368207468652066696CCB
:10377000616D656E742020207468726F7567682EA5
:103780002E2E202020202020202020200049276DC0
:10379000207265616479212050756C6C20746865B5
:1037A0002067756964652074756265206F666620A0
:1037B000616E64202070756C6C2074686520666989
:1037C0006C616D656E7420202067656E746C792E57
:1037D0002E2E2020202020202020202020004927BD
:1037E0006D2072656164792120446574616368208D
:1037F000202074686520677569646520747562654A
:103800002C206F70656E746865206C65766572201B
:1038100061726D20616E6420202070756C6C206672
:10382000696C616D656E7420667265652E20004955
:10383000276D207265616479212044657461636835
:10384000202020746865206775696465207475623E
:10385000652C206F70656E746865206C6576657286
:103860002061726D20616E6420202070756C6C2068
:1038700066696C616D656E7420667265652E2000E8
:10388000756E74696C20796F75206665656C20743F
:10389000686520206D6F746F72207475672069747D
:1038A00020696E2E202020205075736820666F726C
:1038B000206120666577206D6F7265207365636F88
:1038C0006E64732C207468656E20776169742E2095
:1038D000005768656E2066696C616D656E7420695D
:1038E00073202020206265696E6720657874727588
:1038F0006465642066726F6D20746865206E6F7AEF
:103900007A6C652C205072657373204D20746F2083
:1039100073746F7020657874727564696E672E2099
:1039200020005768656E2066696C616D656E742055
:103930006973202020206265696E67206578747243
:10394000756465642066726F6D20746865206E6FA3
:103950007A7A6C652C202020202020202020507294
:1039600065737320274D2720746F20657869742E46
:103970002020005768656E206D792066696C616D46
:10398000656E742069732072656C65617365642C63
:1039900020202020202020202020205072657373BA
:1039A00020274D2720746F20657869742E202020F1
:1039B0002020202020202020202020202020202007
:1039C000202020005768656E206D792066696C6143
:1039D0006D656E742069732072656C6561736564D2
:1039E0002C202020202020202020202050726573B1
:1039F0007320274D2720746F20657869742E20204E
:103A000020202020202020202020202020202020B6
:103A10002020202000477265617421202049276CF6
:103A20006C2073746F7020202072756E6E696E67E3
:103A3000206D792065787472756465722E50726598
:103A40007373204D20746F20636F6E74696E75659B
:103A50002E20202020202020202020202020202058
:103A60002020202020004F4B212049276C6C206B08
:103A7000656570206D79202020206D6F746F722035
:103A800072756E6E696E672E20596F7520206D619C
:103A900079206E65656420746F20707573682020CE
:103AA00020206861726465722E2E2E202020202036
:103AB000202020202020005765276C6C206B656536
:103AC0007020676F696E672E202020496620796F0D
:103AD0007527726520686176696E672020202074E2
:103AE000726F75626C652C20636865636B206F75FF
:103AF0007420206D616B6572626F742E636F6D2F21
:103B000068656C70202020004D79206D6F746F7295
:103B10002074696D6564206F75742020616674651A
:103B2000722035206D696E757465732E20202020FB
:103B30005072657373204D20746F20657869742E00
:103B40002020202020202020202020202020202075
:103B5000202020202020202000486F772764206923
:103B60007420676F3F205265616479202000746F74
:103B7000206D616B6520736F6D657468696E673F5A
:103B8000202000596573202020004E6F2020202027
:103B900000446F6573206D79206E6F7A7A6C6520B2
:103BA0000068656967687420636865636B206F757A
:103BB000743F20004D7920686569676874206973D7
:103BC00020676F6F64212020004C65742773207478
:103BD000727920616761696E2E0044696420706C9F
:103BE000617374696320657874727564652000661A
:103BF000726F6D20746865206E6F7A7A6C653F20F5
:103C0000202020004C6F6164207269676874004C4A
:103C10006F616400556E6C6F6164207269676874CF
:103C200000556E6C6F6164004C6F6164206C65665A
:103C30007400556E6C6F6164206C656674002020A2
:103C40002020204A6F67206D6F646520202020208F
:103C50002020002020202020202020582B20202041
:103C6000202020202020200020202020202028424A
:103C700061636B29202020592D3E20200020202028
:103C80002020202020582D202020202020202020EF
:103C900020002020202020202020592B2020202000
:103CA0002020202020200020203C2D582028426168
:103CB000636B2920205A2D3E202020002020202028
:103CC00020202020592D20202020202020202020AE
:103CD0000020202020202020205A2D2020202020BD
:103CE00020202020200020203C2D592028426163E4
:103CF0006B29202020202020202000202020202090
:103D00002020205A2B20202020202020202020008E
:103D100047414D45204F5645522100486561746921
:103D20006E673A2020202020202020202020200004
:103D300048656174696E673A0020202020202000C9
:103D4000202D2D25006572726F7221002020202009
:103D50002020202020202020202020202020202063
:103D60000045787472756465723A2020202D2D2DDF
:103D70002F2D2D2D43005220457874727564657285
:103D80003A202D2D2D2F2D2D2D43004C20457874BC
:103D900072756465723A202D2D2D2F2D2D2D430027
:103DA000506C6174666F726D3A2020202D2D2D2F7E
:103DB0002D2D2D430020204E412020202000776112
:103DC0006974696E6720002F202020430043202063
:103DD0002020006820206D002050726568656174A5
:103DE0002053657474696E677320202000526967E0
:103DF000687420546F6F6C20202020202020202009
:103E000020004C65667420546F6F6C2020202020A9
:103E100020202020202000506C6174666F726D207D
:103E2000202020202020200020526573657420531C
:103E3000657474696E677320746F20200020446578
:103E40006661756C742076616C7565733F00556EA4
:103E50005061757365202020202020202020202004
:103E60002000506175736520202020202020202014
:103E700020202020200043616E63656C204275691C
:103E80006C64202020202020200057616974696E16
:103E90006720666F7220486F6D696E672000436807
:103EA000616E67652046696C616D656E74202020C7
:103EB0002000536C6565702028436F6C642050614E
:103EC000757365292000526573756D6520427569AB
:103ED0006C6420202020202020005A20506175731F
:103EE00065204865696768742020202020004C45C3
:103EF0004420436F6C6F722020202020202020203F
:103F00002000524544202020004F52414E4745009A
:103F100050494E4B202000475245454E2000424C10
:103F20005545202000505552504C450057484954A3
:103F3000452000435553544F4D004F464620202006
:103F40000046696C616D656E742046616E202020AC
:103F500020202020004275696C64205374617469CC
:103F60007374696373202020004261636B20746F57
:103F7000204D6F6E69746F72202020200042756999
:103F80006C642046696E6973686564212020202076
:103F90002020202020202020202020202020202021
:103FA00020202020204275696C642054696D6520B2
:103FB00020202020206820206D004275696C64203C
:103FC00054696D653A20202020206820206D004C27
:103FD000696E653A202020202020202020202020EB
:103FE00020202000457374696D61746564204275FA
:103FF000696C642054696D654C69666574696D65AA
:1040000020546F74616C3A2020202068004C61734A
:1040100074204275696C643A20202020206820209A
:104020006D0043616E63656C20746869732062750E
:10403000696C643F005175697420746869732070FD
:10404000726F636573733F004275696C64206672BA
:104050006F6D20534420202020202000507265687E
:104060006561742020202020202020202020200096
:104070005574696C697469657320202020202020A4
:1040800020202000496E666F20616E6420536574A5
:1040900074696E67732020004D6F6E69746F7220B3
:1040A0004D6F646520202020202020004368616E31
:1040B00067652046696C616D656E74202020200064
:1040C0004C6576656C204275696C6420506C617437
:1040D000652020004A6F67204D6F646520202020F6
:1040E0002020202020202000486F6D652041786529
:1040F00073202020202020202020200052756E20B8
:104100005374617274757020536372697074200007
:10411000456E61626C6520537465707065727320C2
:104120002020200044697361626C652053746570BF
:10413000706572732020200053746F7020426C6988
:104140006E6B696E6721202020202000426C696E12
:104150006B204C454473202020202020202020006C
:1041600043616C696272617465204E6F7A7A6C6526
:104170007320200065786974206D656E752020209D
:104180002020202020202000426F7420537461746E
:1041900069737469637320202020200047656E6571
:1041A00072616C2053657474696E677320202000FF
:1041B000507265686561742053657474696E6773C5
:1041C0002020200056657273696F6E204E756D62F7
:1041D0006572202020202000526573746F72652064
:1041E00044656661756C7473202020002020205A7D
:1041F00020506175736520486569676874202020C8
:10420000005A20506F736974696F6E20202020203F
:10421000206D6D200050617573652041637469766F
:10422000652020202020202000536F756E64202000
:1042300020202020202020202020202000486561F0
:1042400074656420506C61746500546F6F6C20431A
:104250006F756E74202020202020202020005349DC
:104260004E474C45004455414C2020004865617440
:10427000204C454473202020202020202020200096
:104280004865617420486F6C642020202020206DD8
:104290002020200048656C70205465787420202010
:1042A0002020202020202000416363656C6572611E
:1042B0007465202020202020202020004E6F2053D5
:1042C00044206361726420666F756E6400534420FD
:1042D000636172642072656164206572726F72003E
:1042E000492063616E277420726561642074686977
:1042F000732020205344206361726420666F726DC6
:104300006174212020202020547279207265666F0C
:10431000726D617474696E67202020207468652056
:104320006361726420746F2046415431362E202020
:1043300000492063616E27742072656164205344D4
:1043400020202020206361726473207769746820C4
:1043500073746F7261676520206C6172676572208B
:104360007468616E203247422E20202020202020B9
:10437000202020202020202020202020202020203D
:1043800020002053442063617264207265616420C0
:104390006572726F720049276D20616C726561648D
:1043A00079206275696C64696E67005761726E6925
:1043B0006E673A4275696C642073706565647366F4
:1043C0006173746572207468616E2035306D6D2F75
:1043D0007320207265717569726520783367206675
:1043E0006F726D61742020666F7220626573742035
:1043F000726573756C74732E20202000D0FEC0FF90
:1044000018FFD0FF63FFE0FFB1FFF0FF00000000E6
:1044100051001000A4002000F800300040014000CE
:10442000A2015000F70160004B0270009F02800063
:10443000F20290004503A0009703B000E803C0001B
:104440003A04D0008C04E000DF04F00032050001E3
:1044500086051001DB0520012F063001DA06500128
:104460003007600186077001DC0780016808900151
:1044700020F9C9FFE0FCE7FFF8FF000000000000A2
:1044800008000000200319004006320060094B00BC
:10449000000A5000800C64000010800001004903F5
:1044A0003600FF006B00D100A000B800D500A600C8
:1044B0000A0199003F018E0074018400A9017C006B
:1044C000DE01740013026C00480265007D025D008D
:1044D000B2025600E7024E001C03460051033D00A5
:1044E00086033200BB032200F00303001032373290
:1044F000E935A43F08405E4AFE4B784FD5506464CE
:10450000FA75097915844785308619874588A48A04
:104510005C960B97E29A749B5D9C1A9D449E6CA3DB
:10452000B8A3B9A78CAB2DCDEBCE72D075D22ED35C
:104530000AD411241FBECFEFD1E2DEBFCDBF15E0FC
:10454000A0E0B2E0E8EBF5EB01E00BBF02C00790A2
:104550000D92A23BB107D9F72DE1A2EBB5E001C066
:104560001D92AA34B207E1F714E4C2E3D5E400E0F7
:1045700006C022970109FE010BBF0E94C9D9CC3E9B
:10458000D10780E00807A9F70E94F43F0C94DADA1B
:104590000C940000FA01DC0102C005900D9221503C
:1045A0003040D8F70895F8948091F6059091F7057A
:1045B0002091F4053091F505281B390B7894C90139
:1045C00008958093ED05089581E08093EB050895AB
:1045D0008091ED0508958091EC0508952091F605F0
:1045E0003091F70581E0232B09F080E008951092C7
:1045F000F7051092F6051092F9051092F805109241
:10460000FC051092FD051092EF051092F005109236
:10461000F1051092F2051092EE051092ED05109240
:10462000EC051092E6051092E7051092E80510924D
:10463000E9051092D1051092E5051092E40510925B
:10464000E305089581E02091E3053091E4052630EB
:10465000310509F080E008956091EF057091F00553
:104660008091F1059091F20508951092EF05109256
:10467000F0051092F1051092F20508954F925F92A5
:104680006F927F928F929F92AF92BF92CF92DF9262
:10469000EF92FF920F931F93CF93DF93CDB7DEB7C7
:1046A000C256D1090FB6F894DEBF0FBECDBFCE0102
:1046B0008D5B9F4F0E94497B84E1FE01ED5BFF4FC4
:1046C000A5EBB5E001900D928A95E1F745E06EE625
:1046D0007AE1CE01CD960E9410D0CE01CD960E94F7
:1046E00052D08093B40564E070E085EB95E00E94C1
:1046F0005E4CDC016D917D918D919C910E948ED6D6
:104700002B013C0184E00E9485789B01AC0163E0B1
:1047100070E085EB95E0A0962FAFA097A1963FAFF4
:10472000A197A2964FAFA297A3965FAFA3970E94BF
:104730005E4CFC0180809180A280B38083E00E9467
:1047400085786B966CAF7DAF8EAF9FAF6B9762E055
:1047500070E085EB95E00E945E4CDC01CD90DD9031
:10476000ED90FC9061E070E085EB95E00E945E4C7E
:10477000DC018D919D910D90BC91A02D6F968CAF19
:104780009DAFAEAFBFAF6F9760E070E085EB95E097
:104790000E945E4C8C016B966CAD7DAD8EAD9FAD75
:1047A0006B970E9460D6860E971EA81EB91ED80170
:1047B0008D919D910D90BC91A02D6B968CAF9DAF6E
:1047C000AEAFBFAF6B97A0962FADA097A1963FADB0
:1047D000A197A2964FADA297A3965FADA397C301F1
:1047E000B2010E943ED50E945BD69F938F937F9328
:1047F0006F936F960CAD1DAD2EAD3FAD6F976B9661
:104800004CAD5DAD6EAD7FAD6B97CE0189960E94CC
:10481000224C48E052E060E070E0CE0189960E94B0
:10482000DF7B8BE199E00E9454A19093CC058093AB
:10483000CB058BEC99E00E9454A19093CE05809318
:10484000CD058BE09CE00E9454A19093CA05809313
:10485000C9050F900F900F900F908091EA05882363
:1048600091F060E070E08BE199E00E947EA060E052
:1048700070E08BEC99E00E947EA060E070E08BE03D
:104880009CE00E947EA084E1FE01B996DE0155966F
:1048900001900D928A95E1F762E070E0CE014596B5
:1048A0000E945E4C8C0182E00E9485780E945BD65B
:1048B0009B01AC01A6E9B0E00E9490D8F8016083AA
:1048C00071838283938384E1FE017596DE011196E4
:1048D00001900D928A95E1F760E070E0CE010196BB
:1048E0000E945E4C8C0180E00E94857820E030E0E0
:1048F0004DED52EC0E9492D70E945BD6D8016D9389
:104900007D938D939C93139761E070E0CE010196A7
:104910000E945E4C8C0181E00E94857820E030E0AE
:1049200044E952EC0E9492D70E945BD6F801608362
:104930007183828393834CE850E060E070E0CE01A5
:1049400045960E94DF7B42E850E060E070E0CE01D7
:1049500001960E94DF7B60E08CEC98E00E942E4A7A
:10496000CE59DF4F0FB6F894DEBF0FBECDBFDF913B
:10497000CF911F910F91FF90EF90DF90CF90BF905C
:10498000AF909F908F907F906F905F904F90089521
:104990000F931F93CF93DF93CDB7DEB764970FB616
:1049A000F894DEBF0FBECDBFCE0101960E94497BB9
:1049B00063E070E0CE0101960E945E4C8C0163E0E2
:1049C00070E085EB95E00E945E4CFC0140815181D6
:1049D00062817381F801408351836283738364E051
:1049E00070E0CE0101960E945E4C8C0164E070E0A4
:1049F00085EB95E00E945E4CFC0140815181628113
:104A00007381F8014083518362837383CE010196E1
:104A10000E94CC7962E070E0CE0101960E945E4C6B
:104A20008C0162E070E085EB95E00E945E4CFC0139
:104A30004081518162817381F80140835183628397
:104A400073834CE850E060E070E0CE0101960E9474
:104A5000DF7B42E850E060E070E085EB95E00E948B
:104A6000DF7B6091B4058CEC98E00E942E4A64963E
:104A70000FB6F894DEBF0FBECDBFDF91CF911F916F
:104A80000F9108956091CB057091CC058BE199E071
:104A90000E947EA06091CD057091CE058BEC99E0CF
:104AA0000E947EA06091C9057091CA058BE09CE0D0
:104AB0000E947EA08BE09CE00E9468A1882329F1DF
:104AC0008BE09CE00E9482A181111FC017C061E0B1
:104AD0008BE199E00E94B4A181E08093EE058BEC1C
:104AE00099E00E9482A1811110C061E08BEC99E0F5
:104AF0000E94B4A181E08093EE0508958BE199E0D6
:104B00000E9482A18111EBCFE2CF0895CF93DF9372
:104B1000EB0170930502609304029091EC059817E5
:104B200009F44BC0882329F1209781F481E0809318
:104B3000EA056CE171E080EC9AE00E94E8A481E073
:104B400090E09093D0058093CF050FC06130710540
:104B500061F41092EA0569E571E080EC9AE00E9448
:104B6000E8A4D093D005C093CF0581E08093EC05F5
:104B700024C08091CF059091D0058130910529F412
:104B80001092D0051092CF0516C08230910529F4FD
:104B90000E94422584E090E006C0039749F40E94F9
:104BA000422585E090E09093D0058093CF0505C025
:104BB0006230710511F41092EC05DF91CF910895E8
:104BC000CF93FC01C62F828193816081718186170A
:104BD000970798F44281538184819581840F951FB2
:104BE0000E9411D8A681B781A80FB91FCC938281EA
:104BF000938101969383828302C081E08087CF9165
:104C00000895682F84EF95E00C94E025CF93DF930F
:104C1000FC0182819381892B21F481E0818780E0EE
:104C200019C08481958120813181B9010E9411D8F8
:104C3000C681D781C80FD91F848195810196B9019A
:104C40000E9411D8958384838281938101979383F5
:104C500082838881DF91CF9108951F93CF93DF9353
:104C600000D0CDB7DEB784EF95E00E940626682F0E
:104C700084EF95E06A830E940626782F84EF95E002
:104C800079830E940626182F84EF95E00E9406265D
:104C9000982F6A817981812F0F900F90DF91CF91AA
:104CA0001F910895CF9384EF95E00E940626C82FA8
:104CB00084EF95E00E940626982F8C2FCF910895BF
:104CC00084EF95E00C940626CF93DF930E94602634
:104CD000D82F0E946026C82F0E946026CA3009F48F
:104CE000E8C098F4C63009F4E1C048F4C43009F4CF
:104CF000E0C008F0DEC0C33009F0DEC01AC0C83022
:104D000009F4D7C008F0D5C0D1C0CE3009F4D1C065
:104D100030F4CC3009F46CC008F078C0CAC0C73198
:104D200009F45FC0CF3109F47AC0CF3009F0C4C0B4
:104D3000C0C08091B3058823A1F08BE199E00E9467
:104D4000849F8BEC99E00E94849F8091B205811131
:104D500004C08BE09CE00E94849F1092B2051092E8
:104D6000B3050E945226BC01D13019F482EB99E0C0
:104D700002C082E099E049960E947EA08BE09CE010
:104D80000E9468A1882309F4A2C08BE09CE00E94E5
:104D900082A181119CC0D13019F482EB99E002C04C
:104DA00082E099E049960E9482A1811190C086C05C
:104DB00082EB99E061E003C082EB99E060E0499604
:104DC0000E94B4A140E061E070E08CEC98E00E94A9
:104DD000EC42D13009F08EC00E94A03381117DC019
:104DE00089C09091ED0581E089270E94F63982C043
:104DF0000E946026682F6170D13019F482EB99E02F
:104E000002C082E099E00E94D18774C00E946026AF
:104E1000682F61708CEC98E00E942E4A6BC061E0B4
:104E20008CEC98E00E94294A8091B305882319F000
:104E300081E08093B2050E945226BC018BE09CE089
:104E40000E947EA08BE09CE00E9482A1C1E0C82766
:104E5000C093EE056C2F8BE199E00E94B4A16C2FFA
:104E60008BEC99E00E94B4A140E061E070E08CEC32
:104E700098E00E94EC420E948D3481113BC00E9458
:104E80008039059739F040E067EE71E08CEC98E0EE
:104E90000E94CE4260E070E08BE09CE00E947EA029
:104EA00060E08CEC98E00E94294A24C00E942D26E4
:104EB00021C00E9460261EC080E01DC081E080935A
:104EC000EE05D13009F474CF82E099E073CFD13090
:104ED00009F472CF82E099E071CF40E066E971E0B9
:104EE0008CEC98E00E94CE4260E070E08BEC99E0A0
:104EF0000E947EA081E0DF91CF9108952F923F9292
:104F00004F925F926F927F928F929F92AF92BF92D9
:104F1000CF92DF92EF92FF920F931F93CF93DF9385
:104F2000CDB7DEB7E7970FB6F894DEBF0FBECDBFA3
:104F30000E94DF4D882309F492C08091F60590917C
:104F4000F7052091F4053091F5052817390711F47C
:104F50000C94EF300E944C4E81110C94F5300C945F
:104F6000EF30C090E605D090E705E090E805F090BE
:104F7000E9050E948E4DC616D706E806F90610F020
:104F80000C941C318091D10581110C941C310C942E
:104F9000113180EC9AE00E940EA440E068E372E0D8
:104FA0008CEC98E00E94CE4281E08093D1050E9473
:104FB00017811092F7051092F6051092F9051092DC
:104FC000F8051092FC051092FD0560E070E08BE1A1
:104FD00099E00E947EA060E070E08BEC99E00E9476
:104FE0007EA060E070E08BE09CE00E947EA0CE019D
:104FF00001960E94B57A62E070E0CE0101960E94AF
:105000005E4C8C0182E00E94857820E030E046E131
:1050100053E40E9492D70E945BD6F80160837183AB
:10502000828393831092ED0546E950E060E070E0E2
:10503000CE0101960E94DF7B0E945E4E1092E50534
:105040000EC08091F6059091F705892B41F480916F
:10505000E3059091E405892B11F40C9423310E940F
:10506000C884882311F18091F6059091F70520916D
:10507000F4053091F5052817390711F40C94273100
:105080000E94D18481110C942E310C94273180918F
:10509000F6059091F705892B41F48091E3059091F5
:1050A000E405892B11F40C9437318091EE058823A7
:1050B00091F08BE09CE00E9430A1882361F060E0D9
:1050C0008BE199E00E94B4A160E08BEC99E00E9432
:1050D000B4A11092EE058091ED0581110C94F73189
:1050E0008091EB0581110C94F7318091E30590914B
:1050F000E405039789F40E942879811101C008C052
:1051000084ED95E00E94A4D2882331F00E9417819B
:105110001092E4051092E3058091E3059091E40577
:10512000019741F40E942879811104C01092E4058E
:105130001092E3058091E3059091E405029751F404
:1051400084ED95E00E94A4D2882321F01092E4051A
:105150001092E3058091E3059091E405049709F02E
:1051600049C084ED95E00E94A4D2882349F040E034
:1051700069E872E08CEC98E00E94CE420C944831D1
:105180008091F305813019F482EB99E002C082E04E
:1051900099E049960E9430A1882311F40C943B3188
:1051A0008091F305813019F482EB99E002C082E02E
:1051B00099E0FC01E157FF4F808181110C943B3154
:1051C0000C94453182E099E049960E9468A18111D2
:1051D00011C08091F305813019F482EB99E002C08F
:1051E00082E099E0FC01E157FF4F8081882311F4B0
:1051F0000C9448318091E3059091E4050597F9F40A
:1052000084ED95E00E94A4D2882341F040E066EC52
:1052100072E08CEC98E00E94CE420DC08BE09CE0E6
:105220000E9468A1811101C006C08BE09CE00E9431
:1052300030A1882321F01092E4051092E3058091BB
:10524000E3059091E405069709F03FC084ED95E0F1
:105250000E94A4D28823B1F08091D20581FF06C0BC
:1052600060E08CEC98E00E9437482FC01092E40573
:105270001092E30540E060E170E08CEC98E00E9461
:10528000EC4223C080EC9AE00E94B1A78823E9F0A9
:105290008091D20582FF04C080EC9AE00E947DA537
:1052A00040E050E060E070E08CEC98E00E9417462F
:1052B00040E060E170E08CEC98E00E94EC420E94DB
:1052C000FE891092E4051092E3058091E305909128
:1052D000E405892B09F068C78091EC05882309F45F
:1052E000E2C08091CF059091D005019709F0D6C713
:1052F0000E9432638111D9C7D1C763E073E004C053
:10530000019731F464E573E080EC9AE00E94E8A430
:105310000E943E2382E090E096C00E943263811199
:10532000D5C7CBC740E059EE64EA75E384ED95E05C
:105330000E9480D286E00E94C14B8091040290912D
:105340000502892B11F00C94F73164E180E00E9492
:105350002E8064E181E00E942E8064E183E00E945F
:105360002E8064E184E00E942E800C94F7318091BD
:10537000040290910502019711F00C94F73184ED2D
:1053800095E00E94A4D28111B1C70C94F731049723
:1053900049F08091CF059091D0058530910509F0B5
:1053A000E2C7E6C70E9432638111E2C7F2CF6FE71E
:1053B00080E00E942E806FE781E00E942E80809125
:1053C000040290910502892B41F46FE783E00E946B
:1053D0002E806FE784E00E942E8062EE73E080EC06
:1053E0009AE00E94E8A41092F30585E090E0909383
:1053F000E4058093E30540E052ED69E47BE684ED4B
:1054000095E00E9480D286E090E09093D005809352
:10541000CF0524E140E063E08CEC98E00E94154366
:10542000E6C71092F30584E090E09093E405809342
:10543000E30540E052ED69E47BE684ED95E00E94EF
:1054400080D287E090E09093D0058093CF05CFC7BE
:1054500087309105A1F481E08093F30584E090E02A
:105460009093E4058093E30540E052ED69E47BE628
:1054700084ED95E00E9480D288E090E0E4CF88300F
:10548000910549F48CEC98E00E942B430E94C824BB
:1054900089E090E0D8CF099709F0A9C70E9432634C
:1054A00081116EC7A4C78091F6059091F705892BED
:1054B00009F47AC68CEC98E00E9450458091F8057A
:1054C0009091F9056091F4057091F5050E9411D84D
:1054D000E091FA05F091FB05E80FF91F10811B38E8
:1054E00009F461C71E3809F466C71B3909F453C7AC
:1054F000193809F468C7163909F432C3163809F4A3
:105500006EC71C3841F48091F6059091F7054597D8
:1055100008F44AC6CEC11C3909F422C3103909F473
:105520001FC3133809F41CC3143809F419C31838FD
:1055300009F416C30E94326381114DC758C78CEC21
:1055400098E00E9450450E94602681E090E0909390
:10555000E4058093E3050E942D2668A779A78AA712
:105560009BA70E942D266CA77DA78EA79FA70E94B0
:105570002D266B017C010E942D264B015C010E94AF
:105580002D26162F072F382E292E0E942D262B016F
:105590003C018091EF059091F005A091F105B0914B
:1055A000F2050196A11DB11D8093EF059093F005C2
:1055B000A093F105B093F2052F923F920F931F93A2
:1055C0000CA51DA52EA53FA548A559A56AA57BA597
:1055D000CE0101960E94224CB301A201CE01019698
:1055E0000E94DF7B58C08CEC98E00E9450450E94DE
:1055F000602681E090E09093E4058093E3050E94AB
:105600002D2668A779A78AA79BA70E942D266CA79D
:105610007DA78EA79FA70E942D266B017C010E946B
:105620002D264B015C010E942D26162F072F282EB8
:105630009EAB0E942D262B013C010E946026382E35
:105640008091EF059091F005A091F105B091F205E0
:105650000196A11DB11D8093EF059093F005A093D5
:10566000F105B093F2052EA92F932F920F931F935C
:105670000CA51DA52EA53FA548A559A56AA57BA5E6
:10568000CE0101960E94224C232DB301A201CE012E
:1056900001960E94CE7C0F900F900F900F9084C5C2
:1056A0008CEC98E00E9450450E94602681E090E0DA
:1056B0009093E4058093E3050E942D2668A779A7BF
:1056C0008AA79BA70E942D266CA77DA78EA79FA7C0
:1056D0000E942D266B017C010E942D264B015C014E
:1056E0000E942D26162F072F282E9EAB0E942D26B6
:1056F0002B013C010E946026382E0E942D2668ABAB
:1057000079AB8AAB9BAB0E9452269DAB8CAB809150
:10571000EF059091F005A091F105B091F205019689
:10572000A11DB11D8093EF059093F005A093F105A5
:10573000B093F2052EA92F932F920F931F930CA5D0
:105740001DA52EA53FA548A559A56AA57BA5CE01F7
:1057500001960E94224CCCA8DDA8E8A8F9A80AA9C5
:105760001BA9232DB301A201CE0101960E94DE7D6B
:1057700092CF0E9460260E9460268093F30540919C
:10578000EF055091F0056091F1057091F2054F5FC2
:105790005F4F6F4F7F4F4093EF055093F00560933D
:1057A000F1057093F2050E943C80FEC40E946026C1
:1057B0000E946026E82E4091EF055091F00560911F
:1057C000F1057091F2054F5F5F4F6F4F7F4F409330
:1057D000EF055093F0056093F1057093F2050E9478
:1057E0003263882309F4E0C4DE2CDD1CDD24DD1CDB
:1057F00000E010E0F12CC701002E02C095958795BE
:105800000A94E2F780FF04C06D2D802F0E9415805E
:105810000F5F1F4F0530110571F7C6C48091F60563
:105820009091F7050B9708F4BFC40E9460260E9470
:105830006026182F0E946026282F30E0F4E61F9F74
:10584000200D311D11242436310539F040E067EF79
:1058500073E08CEC98E00E94CE420E9460260E9489
:105860002D260E9452268431934D39F040E068E4A1
:1058700074E08CEC98E00E94CE420E9452260E9476
:105880002D260E942D260E9460268091EF05909182
:10589000F005A091F105B091F2050196A11DB11D91
:1058A0008093EF059093F005A093F105B093F20576
:1058B0007BC40E9460260E942D262B013C010E9481
:1058C0002D2668A779A78AA79BA70E942D266B0182
:1058D0007C010E942D264B015C010E942D269B011C
:1058E0004091EF055091F0056091F1057091F2053E
:1058F0004F5F5F4F6F4F7F4F4093EF055093F00521
:105900006093F1057093F2059F938F933F932F93CC
:1059100008A519A52AA53BA5B301A201CE010196B0
:105920000E94224CCE0101960E94CC79B4CE15384B
:1059300049F58091F6059091F705059708F434C470
:1059400082E090E09093E4058093E3050E94602656
:105950000E942D269B01AC018091EF059091F005EE
:10596000A091F105B091F2050196A11DB11D8093A2
:10597000EF059093F005A093F105B093F205A8EE22
:10598000B3E074C1143909F047C08091F6059091D5
:10599000F705059708F408C40E9460260E94602657
:1059A0008093D3050E9452268C010E94602680932A
:1059B000D2054091EF055091F0056091F10570918D
:1059C000F2054F5F5F4F6F4F7F4F4093EF0550934E
:1059D000F0056093F1057093F2050115110571F062
:1059E000D80120E432E44FE050E00E9490D8AB01AF
:1059F000BC0184ED95E00E9480D296C0CE01459610
:105A00000E947CD28FE0FE017596A4EDB5E0019076
:105A10000D928A95E1F788C0153909F0A1C080EC94
:105A20009AE00E942FA48C018091F6059091F705D1
:105A3000069708F4B9C30E9460260E946026E82EEB
:105A40000E946026C82E0E946026D82E0E946026E2
:105A5000F82E4091EF055091F0056091F10570919D
:105A6000F2054F5F5F4F6F4F7F4F4093EF055093AD
:105A7000F0056093F1057093F205E0FC03C0C801E6
:105A80000E945EC9F801C282D38264EF75E0C8014A
:105A90000E94C2C8E1FE88C3E091EF0BEE0FFF0B3E
:105AA000EF51F44F208131812017310731F0B801D7
:105AB00080EC9AE00E944BA403C0C8010E94A7C9D1
:105AC0008E2D8470FF2039F0811105C06F2DC80123
:105AD0000E9497C969C3882309F466C3FF2079F03F
