:100000000C9449220C9478220C9478220C94782237
:100010000C9478220C9478220C9478220C947822F8
:100020000C9478220C9478220C9478220C947822E8
:100030000C9478220C94F8510C9478220C94782229
:100040000C9478220C9478220C9478220C947822C8
:100050000C9478220C9478220C9478220C947822B8
:100060000C9478220C9445D80C9478220C9471D876
:100070000C9478220C9406A40C9478220C94782288
:100080000C9478220C9478220C9478220C94782288
:100090000C9478220C9478220C9478220C94782278
:1000A0000C9478220C9478220C9478220C94782268
:1000B0000C9478220C9478220C9478220C94B94DEC
:1000C0000C9478220C9478220C9478220C94782248
:1000D0000C9478220C9478220C9478220C94782238
:1000E0000C947822507265706172696E6720666F39
:1000F0007220736C6565703A49276D20636F6D706F
:100100006C6574696E6720616E7920207175657504
:100110006564206D6F7665732E004368616E676954
:100120006E672046696C616D656E743A20204927C0
:100130006D20636F6D706C6574696E6720616E7998
:100140002020717565756564206D6F7665732E006E
:10015000494E56414C494420544F4F4C3A202020A0
:1001600020202020492072656365697665642061DE
:1001700020636F6D6D616E64666F7220546F6F6C7B
:100180002023322C20627574204920206F6E6C79F8
:100190002068617665206F6E6520546F6F6C2E202D
:1001A00000494E56414C494420434F4D4D414E4429
:1001B0003A202020204920726563656976656420B5
:1001C0006120636F6D6D616E64666F72206120687F
:1001D000656174656420706C6174652C206275744F
:1001E000204920646F6E27742068617665206F6EE9
:1001F00065004920736177206120676C69746368CA
:1002000020696E206D79534420636172642E204909
:100210006620746869732069732074686520666954
:10022000727374206572726F722C207472797468A4
:100230006973206D6F64656C20616761696E2E2043
:10024000202000492074696D6564206F75742077E3
:1002500068696C65202020617474656D7074696EC6
:100260006720746F206865617420206D792065783F
:100270007472756465722E00492074696D6564201E
:100280006F7574207768696C6520202061747465CF
:100290006D7074696E6720746F20686561742020CA
:1002A0006D7920706C6174666F726D2E005072658E
:1002B000706172696E6720666F7220736C6565701D
:1002C0003A49276D20636F6F6C696E67206D7920E6
:1002D00020202020206865617465727320616E643F
:1002E00020676F696E6720746F6D7920776169741C
:1002F00020706F736974696F6E2E004368616E675A
:10030000696E672046696C616D656E743A2020499C
:10031000276D20676F696E6720746F206D79207775
:10032000616974706F736974696F6E2E00526573C2
:1003300074617274696E6720746865204275696CB7
:10034000640054686973206973206E6F7420746848
:1003500065207833672076657273696F6E20492057
:10036000776F726B206265737420776974682E20D2
:10037000466F722068656C70207365653A206D6108
:100380006B6572626F742E636F6D2F68656C702081
:100390002020004920616D2061205265706C6963E6
:1003A00061746F722E202054686973206275696CC5
:1003B0006420697320666F72202020616E6F7468FC
:1003C000657220626F742E205365653A2020206D7F
:1003D000616B6572626F742E636F6D2F68656C70F0
:1003E0000054686973206973206E6F7420746865A7
:1003F000207833672076657273696F6E20492077A5
:100400006F726B206265737420776974682E204662
:100410006F722068656C70207365653A206D616B42
:100420006572626F742E636F6D2F68656C7020202B
:100430002000546865205265706C69636174307285
:100440000049276D2043616E63656C6C696E672E91
:100450002020202020506C656173652057616974ED
:100460002E0020004865617465727320736875748E
:10047000646F776E2020202064756520746F20697A
:100480006E61637469766974792020200045787400
:100490007275646572204F7665726865617421209B
:1004A00020536F6674776172652054656D70204CBF
:1004B000696D697420526561636865642120506CC0
:1004C00065617365202020202053687574646F7700
:1004D0006E206F722052657374617274004865619A
:1004E00074696E67204661696C75726521202020F1
:1004F000204D79206578747275646572732061721D
:1005000065206E6F7468656174696E672070726FC4
:100510007065726C792E202020436865636B206DB6
:100520007920636F6E6E656374696F6E73004865E2
:100530006174696E67204661696C7572652120205F
:1005400020204D792065787472756465727320611E
:100550007265202020206C6F73696E672074656D52
:1005600070657261747572652E20436865636B20D7
:100570006D7920636F6E6E656374696F6E7300488A
:100580006561746572204572726F7221202020208F
:1005900020202049276D2072656164696E67206F95
:1005A0007574206F66202072616E67652074656DBA
:1005B0007065726174757265732E20436865636B34
:1005C000206D7920636F6E6E656374696F6E730062
:1005D000486561746572204572726F722120202017
:1005E000202020204D792074656D706572617475CE
:1005F0007265207265616473617265206661696C01
:10060000696E672120506C6561736520436865637E
:100610006B206D7920636F6E6E656374696F6E73A6
:10062000009302690000006900EE016900000069A2
:10063000002601B80100000000200655000000550A
:10064000002D085500000055004D0A5500000055CA
:1006500000400CAB000000AB002D09550000005518
:10066000002D085500000055004D0AAB0000005554
:100670000000000001C00D5500000055002D085677
:100680000100000000C00D20015311BC005B12B13D
:100690000100000000C00DC80000001400C00DC81B
:1006A0000000001400910E9001000014005A1090F8
:1006B0000100001400C00D200300000000C805C8A0
:1006C0000000001400C805C80000001400C805C8D8
:1006D0000000001400DD04B004000014007505C81B
:1006E00000000014007505C800000014007505C85E
:1006F00000000014009704B00400000000B8075583
:100700000000005500B909AB000000AB007D0655A4
:100710000000005500C805550000005500B807ABA3
:10072000000000AB00C805550000005500DD045571
:100730000000005500C805550000005500B80755D9
:1007400000000055007D065601000000003F0355E3
:100750000000005500FA0C5500000055003F0355FD
:100760000000005500B9095500000055003F035531
:1007700000000055002D095500000055003F0355AD
:100780000000005500EA0A5500000055003F0355DF
:100790000000005500B909AB0000000000534420E0
:1007A000436172642052656D6F7665640024F404C1
:1007B000D9201BC40C5C0E9804C4095F0265077144
:1007C00001F405F900FB04B30048048700C1036984
:1007D000005803550003034500BE023A008402316D
:1007E0000053022A002902250004022000E4011C13
:1007F00000C8011900AF011700980114008401130B
:1008000000710110006101100051010E0043010D43
:100810000036010B002B010B0020010B0015010914
:10082000000C01090003010800FB000800F30008A8
:1008300000EB000700E4000600DE000600D800061A
:1008400000D2000600CC000500C7000500C200056C
:1008500000BD000400B9000400B5000400B10004AC
:1008600000AD000400A9000400A5000300A20003DD
:10087000009F0004009B0003009800030095000205
:100880000093000300900003008D0002008B000322
:10089000008800020086000200840003008100023C
:1008A000007F0002007D0002007B00020079000250
:1008B000007700010076000200740002007200015F
:1008C00000710002006F0002006D0001006C000268
:1008D000006A000100690002006700010066000173
:1008E0000065000100640002006200010061000177
:1008F00000600001005F0002005D0001005C00017B
:10090000005B0001005A000100590001005800017D
:10091000005700010056000100550001005400017D
:10092000005300000053000100520001005100017B
:1009300000500001004F0001004E0000004E000179
:10094000004D0001004C0001004B0000004B000175
:10095000004A000100490001004800000048000171
:10096000004700010046000000460001004500006D
:100970000045000100440001004300000043000165
:10098000004200000042000100410000004100015F
:1009900000400001003F0000003F0001003E000059
:1009A000003E0001003D0000003D0001003C000051
:1009B000003C0000003C0001003B0000003B000147
:1009C000003A0000003A000100390000003900013F
:1009D0000038000000380000003800010037000037
:1009E000003700010036000000360000003600012C
:1009F0000035000000350000003500010034000023
:100A00000034000000340001003300000033000017
:100A1000003300010032000000320000003200010B
:100A20000031000000310000003100010030000002
:100A30000030000000300001002F0000002F0000F7
:100A4000002F0000002F0001002E0000002E0000EB
:100A5000002E0001002D0000002D0000002D0000E0
:100A6000002D0001002C0000002C0000002C0000D4
:100A7000002C0001002B0000002B0000002B0000C8
:100A8000002B0001002A0000002A0000002A0000BC
:100A9000002A0001002900000029000000290000B0
:100AA00000290000002900010028000000280000A3
:100AB0000028000000280000002800010027000096
:100AC0000027000000270000002700000027000189
:100AD000002600000026000000260000002600007E
:100AE0000026000100250000002500000025000070
:100AF0000025000000250000002500010024000062
:100B00000024000000240000002400000024000154
:100B10000023000000230000002300000023000049
:100B20000023000000230000002300010022000039
:100B3000002200000022000000220000002200002D
:100B4000002200010021000000210000002100001F
:100B50000021000000210000002100000021000110
:100B60000020000000200000002000000020000005
:100B700000200000002000000020000000200001F4
:100B8000001F0000001F0000001F0000001F0000E9
:100B9000001F0000001F0000001F0001001E0000D9
:100BA000001E0000001E0000001E00000024F4D4FF
:100BB0003050C38E20C2A24017828B7011127A91DE
:100BC0000D816CD90AA861E108C7586607615143D5
:100BD000061E4B5D05C145A7041A411104093D9845
:100BE00003713931034036DB0265339102D430544E
:100BF00002802E1D02632CEE01752AC501B028A0CB
:100C000001102781018F2564012B244B01E0223440
:100C100001AC211F018D200D01801FFC00841EED01
:100C200000971DDF00B81CD200E61BC600201BBCCD
:100C300000641AB200B219A8000A19A0006A189933
:100C400000D117910040178B00B516840031167E35
:100C500000B31579003A157300C7146F0058146A71
:100C600000EE1366008813630025135E00C7125B55
:100C7000006C12570015125400C111510070114F31
:100C80000021114B00D61049008D1047004610443A
:100C90000002104200C00F4000800F3E00420F3C97
:100CA00000060F3B00CB0E3800930E37005C0E356C
:100CB00000270E3400F30D3200C10D3100900D30CD
:100CC00000600D2E00320D2D00050D2C00D90C2BCF
:100CD00000AE0C2900850C29005C0C2700350C2780
:100CE000000E0C2600E80B2400C40B2400A00B23EC
:100CF000007D0B23005A0B2100390B2100180B201B
:100D000000F80A1F00D90A1E00BB0A1E009D0A1D1A
:100D100000800A1D00630A1C00470A1B002C0A1BE6
:100D200000110A1A00F7091A00DD091900C409198F
:100D300000AB091900920917007B09180063091715
:100D4000004C09160036091600200916000A09157C
:100D500000F5081500E0081400CC081400B80814C9
:100D600000A4081400900813007D0812006B0813FB
:100D70000058081200460812003408110023081118
:100D8000001208110001081100F0071000E0071020
:100D900000D0071000C0071000B0070F00A1071017
:100DA0000091070E0083070F0074070F0065070E00
:100DB0000057070E0049070E003B070D002E070ED7
:100DC0000020070D0013070D0006070D00F9060CA3
:100DD00000ED060D00E0060C00D4060C00C8060C61
:100DE00000BC060C00B0060C00A4060B0099060C13
:100DF000008D060B0082060B0077060B006C060BBD
:100E00000061060A0057060B004C060A0042060A5B
:100E10000038060A002E060A0024060A001A060AEE
:100E2000001006090007060A00FD050900F405097F
:100E300000EB050900E2050900D9050900D0050904
:100E400000C7050900BE050900B5050800AD050885
:100E500000A50509009C050800940508008C0508FC
:100E600000840508007C050800740508006C05076F
:100E700000650508005D050700560508004E0507DA
:100E80000047050700400508003805070031050741
:100E9000002A050700230507001C050600160507A4
:100EA000000F0507000805060002050700FB040601
:100EB00000F5040700EE040600E8040600E204075B
:100EC00000DB040600D5040600CF040600C90406B2
:100ED00000C3040600BD040600B7040600B1040503
:100EE00000AC040600A6040600A00405009B04064E
:100EF0000095040500900406008A04050085040599
:100F000000800406007A04050075040500700405DD
:100F1000006B04050066040500610405005C04051F
:100F20000057040500520405004D0405004804055F
:100F300000430405003E0404003A0405003504059E
:100F400000300404002C04050027040400230405D9
:100F5000001E0404001A0404001604050011040411
:100F6000000D040400090405000404040000040446
:100F700000FC030400F8030400F4030400F003047D
:100F800000EC030400E8030400E4030400E00304AD
:100F900000DC030400D8030400D4030400D00304DD
:100FA00000CC030400C8030300C503030095000040
:100FB000000046696E64207468652034206B6E6F93
:100FC0006273206F6E200095010000007468652038
:100FD000626F74746F6D206F6620746865202020C6
:100FE000009501000000706C6174666F726D206185
:100FF0006E64207469676874656E00950700000070
:10100000666F7572206F72206669766520747572DE
:101010006E732E00950000000049276D20676F69F0
:101020006E6720746F206D6F76652020200095011B
:1010300000000074686520657874727564657220BC
:10104000746F20202020200095010000007661723E
:10105000696F757320706F736974696F6E73202088
:1010600020009507000000666F722061646A757346
:10107000746D656E742E009500000000496E206549
:1010800061636820706F736974696F6E2C20202013
:1010900000950100000077652077696C6C206E6513
:1010A000656420746F20202020200095010000003E
:1010B00061646A7573742032206B6E6F6273206195
:1010C000742020200095070000007468652073617B
:1010D0006D652074696D652E0095000000004E6FEF
:1010E0007A7A6C657320617265206174207468651A
:1010F000202000950100000072696768742068650F
:1011000069676874207768656E202020009501006B
:101110000000796F752063616E206A7573742073A7
:101120006C6964652061009507000000736865655F
:1011300074206F6620706170657200950000000079
:101140006265747765656E20746865206E6F7A7A63
:101150006C652020009501000000616E64207468B9
:101160006520706C6174666F726D2E202020009572
:101170000100000047726162206120736865657438
:10118000206F66202020202000950700000070615D
:1011900070657220746F2061737369737420757346
:1011A0002E009502000000506C6561736520776128
:1011B000697400840369010000140083048800003E
:1011C0000014008C000000000000000030F8FFFF59
:1011D00000000000000000008E0000000000000081
:1011E000000000000000000000000000005729047B
:1011F00000188304DC05000014008CE5370000941F
:101200001B0000000000000000000000000000952E
:1012100002000000506C656173652077616974009D
:101220008EE6370000941B0000D00700000000008D
:1012300000000000000D450300188E00000000CAE9
:10124000E4FFFFD007000000000000000000002ABB
:101250000D3B00188E00000000C9E4FFFF000000F5
:101260000000000000000000000D4503001895007C
:1012700000000041646A75737420746865206672AA
:101280006F6E742074776F0095010000006B6E6FB5
:10129000627320756E74696C2070617065722020B5
:1012A000200095010000006A75737420736C6964F6
:1012B0006573206265747765656E20009507000090
:1012C000006E6F7A7A6C6520616E6420706C617458
:1012D000666F726D009502000000506C6561736569
:1012E0002077616974008E00000000CAE4FFFFD01F
:1012F00007000000000000000000000D450300187A
:101300008E000000007A1A0000D0070000000000E4
:10131000000000000051812800188E000000007AB3
:101320001A00000000000000000000000000000D96
:1013300045030018950000000041646A757374202D
:10134000746865206261636B2074776F200095017B
:101350000000006B6E6F627320756E74696C207094
:10136000617065722020200095010000006A75738D
:101370007420736C69646573206265747765656E4B
:10138000200095070000006E6F7A7A6C6520616E10
:101390006420706C6174666F726D009502000000CD
:1013A000506C656173652077616974008E00000080
:1013B000007A1A0000D007000000000000000000C2
:1013C000000D450300188EC624000000000000D068
:1013D0000700000000000000000000A82F220018F5
:1013E0008EC6240000000000000000000000000085
:1013F00000000000000D45030018950000000041AA
:10140000646A7573742074686520726967687420F3
:1014100074776F0095010000006B6E6F627320752A
:101420006E74696C207061706572202020009501D7
:101430000000006A75737420736C696465732062C0
:1014400065747765656E200095070000006E6F7A01
:101450007A6C6520616E6420706C6174666F726D69
:10146000009502000000506C65617365207761692A
:1014700074008EC624000000000000D007000000A9
:10148000000000000000000D450300188E3ADBFF4D
:10149000FF00000000D00700000000000000000076
:1014A000008B7C3700188E3ADBFFFF000000000045
:1014B00000000000000000000000000D45030018BF
:1014C000950000000041646A75737420746865209B
:1014D0006C6566742074776F200095010000006BC6
:1014E0006E6F627320756E74696C207061706572C6
:1014F0002020200095010000006A75737420736C31
:1015000069646573206265747765656E2000950770
:101510000000006E6F7A7A6C6520616E6420706CDA
:101520006174666F726D009502000000506C656119
:1015300073652077616974008E3ADBFFFF0000005D
:1015400000D007000000000000000000000D45036F
:1015500000188E0000000000000000D0070000000E
:101560000000000000000045BE1B00188E000000B7
:10157000000000000000000000000000000000006B
:10158000000D450300189500000000436865636B7B
:1015900020746861742070617065722020202000C2
:1015A00095010000006A75737420736C696465733B
:1015B000206265747765656E200095070000006EF7
:1015C0006F7A7A6C6520616E6420706C6174666FEE
:1015D000726D00891F9502000000506C6561736593
:1015E00020776169742E2E2E008403690100001497
:1015F0000083048800000014008C0000000000003C
:10160000000030F8FFFF00000000000000008E0026
:1016100000000000000000000000000000000000CA
:1016200000000057290400188304DC0500001400A2
:10163000901F891F950000000046696E6420746841
:10164000652034206B6E6F6273206F6E20009501F1
:1016500000000074686520626F74746F6D206F669F
:1016600020746865202020009501000000706C61E6
:1016700074666F726D20616E64207469676874654A
:101680006E009507000000666F7572206F7220660D
:10169000697665207475726E732E009500000000E7
:1016A00049276D20676F696E6720746F206D6F76B4
:1016B0006520202000950100000074686520657891
:1016C00074727564657220746F202020202000954C
:1016D00001000000766172696F757320706F736925
:1016E00074696F6E73202020009507000000666FFC
:1016F000722061646A7573746D656E742E00950056
:10170000000000496E206561636820706F73697422
:10171000696F6E2C20202000950100000077652065
:1017200077696C6C206E65656420746F20202020C2
:101730002000950100000061646A757374203220F6
:101740006B6E6F627320617420202000950700008B
:10175000007468652073616D652074696D652E0085
:1017600095000000004E6F7A7A6C65732061726597
:1017700020617420746865202000950100000072CB
:101780006967687420686569676874207768656E42
:10179000202020009501000000796F752063616EA4
:1017A000206A75737420736C696465206100950705
:1017B0000000007368656574206F66207061706555
:1017C000720095000000006265747765656E207494
:1017D0006865206E6F7A7A6C6520200095010000A4
:1017E00000616E642074686520706C6174666F724D
:1017F0006D2E2020200095010000004772616220BC
:1018000061207368656574206F66202020202000A9
:101810009507000000706170657220746F2061731D
:10182000736973742075732E009502000000506C6C
:101830006561736520776169740084036901000044
:10184000140083048800000014008C0000000000D5
:1018500000000030F8FFFF00000000000000008ED4
:101860000000000000000000000000000000000078
:101870000000000057290400188304DC0500001450
:10188000008CE5370000941B000000000000000001
:101890000000000000009502000000506C656173BC
:1018A000652077616974008EE5370000941B0000A5
:1018B000D007000000000000000000000D450300FC
:1018C000188E12060000CAE4FFFFD00700000000D7
:1018D000000000000000DADF3700188E110600005B
:1018E000CAE4FFFF0000000000000000000000004C
:1018F0000D45030018950000000041646A7573747B
:10190000207468652066726F6E742074776F00951E
:10191000010000006B6E6F627320756E74696C203D
:1019200070617065722020200095010000006A75CA
:10193000737420736C696465732062657477656580
:101940006E200095070000006E6F7A7A6C6520614A
:101950006E6420706C6174666F726D009502000099
:1019600000506C656173652077616974008E1106A3
:101970000000C9E4FFFFD0070000000000000000E5
:1019800000000D450300188E110600007A1A0000B1
:10199000D007000000000000000000005181280076
:1019A000188E120600007A1A0000000000000000E5
:1019B0000000000000000D45030018950000000025
:1019C00041646A75737420746865206261636B207A
:1019D00074776F200095010000006B6E6F627320BA
:1019E000756E74696C20706170657220202000959E
:1019F000010000006A75737420736C69646573205C
:101A00006265747765656E200095070000006E6F53
:101A10007A7A6C6520616E6420706C6174666F7296
:101A20006D009502000000506C6561736520776160
:101A30006974008E110600007B1A0000D0070000B8
:101A400000000000000000000D450300188E2A274A
:101A5000000000000000D0070000000000000000AF
:101A60000000CFF91F00188E2A2700000000000098
:101A70000000000000000000000000000D45030011
:101A800018950000000041646A75737420746865DD
:101A90002072696768742074776F009501000000F8
:101AA0006B6E6F627320756E74696C207061706507
:101AB000722020200095010000006A757374207365
:101AC0006C69646573206265747765656E20009546
:101AD000070000006E6F7A7A6C6520616E6420707A
:101AE0006C6174666F726D009502000000506C6549
:101AF0006173652077616974008E2A2700000000F9
:101B00000000D007000000000000000000000D45AC
:101B10000300188EF8E4FFFF00000000D00700006B
:101B2000000000000000000017F03100188EF9E4FA
:101B3000FFFF0000000000000000000000000000A7
:101B400000000D45030018950000000041646A750F
:101B5000737420746865206C6566742074776F20D8
:101B60000095010000006B6E6F627320756E7469E2
:101B70006C207061706572202020009501000000CB
:101B80006A75737420736C69646573206265747719
:101B900065656E200095070000006E6F7A7A6C65AF
:101BA00020616E6420706C6174666F726D009502C6
:101BB000000000506C656173652077616974008E68
:101BC000F9E4FFFF00000000D00700000000000063
:101BD000000000000D450300188E110600000000F3
:101BE0000000D007000000000000000000000BF81B
:101BF0001800188E11060000000000000000000010
:101C000000000000000000000D45030018950000D2
:101C10000000436865636B207468617420706170B4
:101C20006572202020200095010000006A75737401
:101C300020736C69646573206265747765656E20D6
:101C40000095070000006E6F7A7A6C6520616E6403
:101C500020706C6174666F726D00891F99000000BE
:101C60000052657047204275696C64009600FF86DB
:101C700000860088001F026E0088011F026E008629
:101C80000088000302DC00860188010302DC008476
:101C90000369010000140083048800000014008C14
:101CA000000000000000000030F8FFFF000000000E
:101CB000000000008E000000000000000000000096
:101CC00000000000000000000057290400188304F1
:101CD000DC0500001400901F8B5ED7FFFFCAE4FFF5
:101CE000FF60EA000000000000000000008000002B
:101CF00000910014910114910214910314910414A1
:101D00008600860087006400FFFF8D006400FFFFEF
:101D10008601860187016400FFFF8D006400FFFFDC
:101D200091007F91017F91022891037F91047F862A
:101D3000008E5DD7FFFFC9E4FFFF500000000000E8
:101D40000000000000000338750018898888000A28
:101D5000010388000401FF8E000000000000000065
:101D600000000000C0FEFFFF0000000060E316005E
:101D70001F8E42E6FFFFB7E9FFFF680100005BFF2F
:101D8000FFFF000000002ED60B00188E43E6FFFF79
:101D9000B8E9FFFF68010000E3FFFFFF000000005B
:101DA0001C5800001889888E42E6FFFFB7E9FFFF44
:101DB000F0000000ECFFFFFF000000000032000018
:101DC000188E42E6FFFFB7E9FFFFF0000000E3FFD7
:101DD000FFFF00000000F22B0000188E8DD7FFFFE0
:101DE000B7E9FFFFF00000009CFEFFFF00000000CD
:101DF000862F3000188E42E6FFFF6EEDFFFFF000E9
:101E00000000300000000000000012720B00188E6D
:101E100042E6FFFF6EEDFFFFF0000000E4FFFFFF72
:101E200000000000F12B0000188E3ADBFFFF6EED82
:101E3000FFFFF00000009BFEFFFF00000000A52355
:101E40002400188E42E6FFFF25F1FFFFF00000009E
:101E5000300000000000000031C80800188E43E682
:101E6000FFFF24F1FFFFF0000000E4FFFFFF000090
:101E70000000F12B0000188E3ADBFFFF25F1FFFF79
:101E8000F00000009BFEFFFF00000000A5232400DF
:101E9000188E42E6FFFFDCF4FFFFF0000000300088
:101EA00000000000000031C80800188E42E6FFFF65
:101EB000DBF4FFFFF0000000E4FFFFFF0000000084
:101EC000F22B0000188E3ADBFFFFDCF4FFFFF0007E
:101ED00000009BFEFFFF00000000A5232400188ED9
:101EE00042E6FFFF92F8FFFFF00000003100000023
:101EF0000000000031C80800188E42E6FFFF93F88A
:101F0000FFFFF0000000E3FFFFFF00000000F22BE6
:101F10000000188E3BDBFFFF92F8FFFFF00000008F
:101F20009BFEFFFF00000000A5232400188E42E660
:101F3000FFFF49FCFFFFF00000003100000000003F
:101F4000000031C80800188E42E6FFFF49FCFFFF81
:101F5000F0000000E3FFFFFF00000000F22B000094
:101F6000188E3ADBFFFF49FCFFFFF00000009BFEEC
:101F7000FFFF00000000A5232400188E42E6FFFFAB
:101F800000000000F0000000310000000000000030
:101F900031C80800188E42E6FFFF00000000F00084
:101FA0000000E3FFFFFF00000000F22B0000188E8E
:101FB0003ADBFFFF00000000F00000009BFEFFFF87
:101FC00000000000A5232400188E43E6FFFFB7039E
:101FD0000000F0000000310000000000000031C8E7
:101FE0000800188E42E6FFFFB7030000F000000073
:101FF000E3FFFFFF00000000F22B0000188E3ADB29
:10200000FFFFB7030000F00000009CFEFFFF000090
:102010000000A5232400188E42E6FFFF6E07000093
:10202000F0000000300000000000000031C808008F
:10203000188E42E6FFFF6D070000F0000000E3FF8E
:10204000FFFF00000000F22B0000188E3ADBFFFFBC
:102050006E070000F00000009CFEFFFF0000000083
:10206000A5232400188E43E6FFFF240B0000F00098
:102070000000300000000000000031C80800188E89
:1020800042E6FFFF250B0000F0000000E3FFFFFF2A
:1020900000000000F12B0000188E3ADBFFFF240B3C
:1020A0000000F00000009CFEFFFF00000000A523E0
:1020B0002400188E42E6FFFFDB0E0000F000000057
:1020C000300000000000000031C80800188E42E611
:1020D000FFFFDC0E0000F0000000E3FFFFFF000048
:1020E0000000F12B0000188E3ADBFFFFDB0E000032
:1020F000F00000009CFEFFFF00000000A52324006C
:10210000188E43E6FFFF92120000F000000030003E
:1021100000000000000031C80800188E42E6FFFFF2
:1021200092120000F0000000E3FFFFFF000000003B
:10213000F12B0000188E3ADBFFFF92120000F00036
:1021400000009CFEFFFF00000000A5232400188E65
:1021500042E6FFFF49160000F000000030000000DA
:102160000000000031C80800188E42E6FFFF491643
:102170000000F0000000E3FFFFFF00000000F12B73
:102180000000188E3ADBFFFF49160000F000000047
:102190009CFEFFFF00000000A5232400188EC0F461
:1021A000FFFFA5F8FFFF68010000300000000000FD
:1021B000000018821D00188EBFF4FFFFA5F8FFFF76
:1021C000F0000000D0FFFFFF00000000AE2500007F
:1021D000188EBFF4FFFFA5F8FFFFF0000000E3FF3B
:1021E000FFFF00000000F12B0000188EC0F4FFFF7D
:1021F0005B070000F00000009CFEFFFF00000000F5
:10220000862F3000188E76F8FFFFA5F8FFFFF0004C
:102210000000300000000000000012720B00188E59
:1022200076F8FFFFA5F8FFFFF0000000E3FFFFFFD7
:1022300000000000F12B0000188E76F8FFFFAE03BF
:102240000000F00000009CFEFFFF00000000A5233E
:102250002400188E2DFCFFFFA5F8FFFFF000000002
:10226000300000000000000031C80800188E2DFC6E
:10227000FFFFA5F8FFFFF0000000E3FFFFFF0000F5
:102280000000F12B0000188E2DFCFFFFAE030000B4
:10229000F00000009CFEFFFF00000000A5232400CA
:1022A000188EE4FFFFFFA5F8FFFFF00000003000EC
:1022B00000000000000031C80800188EE3FFFFFF97
:1022C000A5F8FFFFF0000000E3FFFFFF00000000A3
:1022D000F12B0000188EE4FFFFFFAD030000F000BB
:1022E00000009CFEFFFF00000000A5232400188EC4
:1022F0009B030000A6F8FFFFF00000003000000084
:102300000000000031C80800188E9A030000A5F8EC
:10231000FFFFF0000000E3FFFFFF00000000F12BD3
:102320000000188E9B030000AD030000F0000000C9
:102330009CFEFFFF00000000A5232400188E51071B
:102340000000A5F8FFFFF0000000300000000000D2
:10235000000031C80800188E52070000A6F8FFFFE1
:10236000F0000000E3FFFFFF00000000F12B000081
:10237000188E51070000AD030000F00000009CFE25
:10238000FFFF00000000A5232400188E080B0000AA
:10239000A5F8FFFFF0000000300000000000000082
:1023A00031C80800188E080B0000A5F8FFFFF000E8
:1023B0000000E3FFFFFF00000000F12B0000188E7B
:1023C000090B0000AE030000F00000009CFEFFFFC0
:1023D00000000000A5232400188EBF0E0000A5F801
:1023E000FFFFF0000000300000000000000031C8D6
:1023F0000800188EBF0E0000A5F8FFFFF0000000D7
:10240000E3FFFFFF00000000F12B0000188EBF0E5D
:102410000000AE030000F00000009CFEFFFF000083
:102420000000A5232400188E75120000A5F8FFFFF8
:10243000F0000000300000000000000031C808007B
:10244000188E76120000A5F8FFFFF0000000E3FFF1
:10245000FFFF00000000F12B0000188E7612000034
:10246000AD030000F00000009CFEFFFF0000000034
:10247000A5232400188E2D160000A6F8FFFFF000FB
:102480000000300000000000000031C80800188E75
:102490002C160000A5F8FFFFF0000000E3FFFFFF8F
:1024A00000000000F12B0000188E2D160000AD0377
:1024B0000000F00000009CFEFFFF00000000A523CC
:1024C0002400188EE3190000A5F8FFFFF0000000BB
:1024D000300000000000000031C80800188EE41928
:1024E0000000A6F8FFFFF0000000E3FFFFFF000080
:1024F0000000F12B0000188EE3190000AD0300006E
:10250000F00000009CFEFFFF00000000A523240057
:10251000188E9A1D0000A5F8FFFFF00000003000A3
:1025200000000000000031C80800188E9B1D00004C
:10253000A6F8FFFFF0000000E3FFFFFF000000002F
:10254000F12B0000188E9A1D0000AD030000F00072
:1025500000009CFEFFFF00000000A5232400188E51
:1025600051210000A5F8FFFFF0000000300000003E
:102570000000000031C80800188E51210000A5F8A5
:10258000FFFFF0000000E3FFFFFF00000000F12B61
:102590000000188E51210000AE030000F000000082
:1025A0009CFEFFFF00000000A5232400188E51218F
:1025B0000000AD030000F00000003000000000004B
:1025C0000000D9920000188908860189188C5121D1
:1025D0000000AD030000F0000000992200000000A0
:1025E00000008E42E6FFFFF0E9FFFF6801000000F7
:1025F00000000000000000A89A3000188E43E6FF9B
:10260000FFEFE9FFFF6801000000000000E3FFFFAB
:10261000FF1C5800001889908E42E6FFFFF0E9FF8A
:10262000FFF000000000000000EDFFFFFF0032009F
:1026300000188E42E6FFFFF0E9FFFFF00000000007
:10264000000000E3FFFFFFF22B0000188E4AF1FFAD
:10265000FFEFE9FFFFF0000000000000009CFEFF1C
:10266000FFA5232400188E43E6FFFF9DEDFFFFF03A
:102670000000000000000030000000EFC508001856
:102680008E42E6FFFF9DEDFFFFF00000000000001E
:1026900000E3FFFFFFF12B0000188E4AF1FFFF9DC2
:1026A000EDFFFFF0000000000000009CFEFFFFA512
:1026B000232400188E42E6FFFF4BF1FFFFF00000DD
:1026C000000000000030000000EFC50800188E4335
:1026D000E6FFFF4AF1FFFFF000000000000000E30A
:1026E000FFFFFFF12B0000188E4AF1FFFF4AF1FFB8
:1026F000FFF0000000000000009CFEFFFFA5232467
:1027000000188E42E6FFFFF8F4FFFFF00000000023
:1027100000000030000000EFC50800188E43E6FFFF
:10272000FFF8F4FFFFF000000000000000E3FFFFEF
:10273000FFF22B0000188E4AF1FFFFF8F4FFFFF0C4
:10274000000000000000009CFEFFFFA523240018ED
:102750008E42E6FFFFA5F8FFFFF00000000000003A
:102760000030000000EFC50800188E42E6FFFFA50C
:10277000F8FFFFF000000000000000E3FFFFFFF2A1
:102780002B0000188E4BF1FFFFA6F8FFFFF00000B2
:1027900000000000009CFEFFFFA5232400188E42CD
:1027A000E6FFFF52FCFFFFF00000000000000030D9
:1027B000000000EFC50800188E42E6FFFF53FCFF43
:1027C000FFF000000000000000E3FFFFFFF22B001D
:1027D00000188E4BF1FFFF52FCFFFFF000000000DD
:1027E0000000009CFEFFFFA5232400188E42E6FF98
:1027F000FF00000000F000000000000000300000BA
:1028000000EFC50800188E42E6FFFF00000000F050
:1028100000000000000000E3FFFFFFF22B000018A3
:102820008E4BF1FFFF00000000F0000000000000F0
:10283000009CFEFFFFA5232400188E42E6FFFFAE9A
:10284000030000F00000000000000030000000EF76
:10285000C50800188E42E6FFFFAD030000F000003F
:102860000000000000E3FFFFFFF22B0000188E4A7B
:10287000F1FFFFAE030000F0000000000000009C2C
:10288000FEFFFFA5232400188E43E6FFFF5A070032
:1028900000F00000000000000030000000EFC5085C
:1028A00000188E42E6FFFF5B070000F0000000000A
:1028B000000000E3FFFFFFF22B0000188E4AF1FF3B
:1028C000FF5B070000F0000000000000009CFEFF1E
:1028D000FFA5232400188E42E6FFFF080B0000F03E
:1028E0000000000000000030000000EFC5080018E4
:1028F0008E43E6FFFF080B0000F000000000000020
:1029000000E3FFFFFFF12B0000188E4AF1FFFF08E4
:102910000B0000F0000000000000009CFEFFFFA57F
:10292000232400188E42E6FFFFB60E0000F00000E0
:10293000000000000030000000EFC50800188E43C2
:10294000E6FFFFB60E0000F000000000000000E30C
:10295000FFFFFFF12B0000188E4AF1FFFFB50E00BC
:1029600000F0000000000000009CFEFFFFA52324F3
:1029700000188E42E6FFFF63120000F00000000026
:1029800000000030000000EFC50800188E42E6FF8E
:10299000FF63120000F000000000000000E3FFFFF2
:1029A000FFF12B0000188E4BF1FFFF63120000F0C7
:1029B000000000000000009CFEFFFFA5232400187B
:1029C0008E42E6FFFF11160000F00000000000003C
:1029D0000030000000EFC50800188E42E6FFFF102F
:1029E000160000F000000000000000E3FFFFFFF110
:1029F0002B0000188E4BF1FFFF10160000F00000B6
:102A000000000000009CFEFFFFA5232400188EF7A5
:102A1000F4FFFF9DEDFFFF680100000000000030A3
:102A2000000000BEA41E00188EF8F4FFFF9DEDFF0D
:102A3000FFF000000000000000D0FFFFFFAE250007
:102A400000188EF8F4FFFF9DEDFFFFF0000000007E
:102A5000000000E3FFFFFFF12B0000188EF8F4FFE9
:102A6000FFA6F8FFFFF0000000000000009CFEFF42
:102A7000FFA5232400188EA5F8FFFF9DEDFFFFF0B2
:102A80000000000000000030000000EFC508001842
:102A90008EA5F8FFFF9DEDFFFFF000000000000095
:102AA00000E3FFFFFFF12B0000188EA6F8FFFFA543
:102AB000F8FFFFF0000000000000009CFEFFFFA5F3
:102AC000232400188E52FCFFFF9DEDFFFFF0000055
:102AD000000000000030000000EFC50800188E5311
:102AE000FCFFFF9DEDFFFFF000000000000000E391
:102AF000FFFFFFF12B0000188E52FCFFFFA5F8FF2F
:102B0000FFF0000000000000009CFEFFFFA5232452
:102B100000188E000000009DEDFFFFF00000000097
:102B200000000030000000EFC50800188E00000013
:102B3000009DEDFFFFF000000000000000E3FFFF3C
:102B4000FFF12B0000188E00000000A5F8FFFFF039
:102B5000000000000000009CFEFFFFA523240018D9
:102B60008EAE0300009DEDFFFFF0000000000000AE
:102B70000030000000EFC50800188EAD0300009D76
:102B8000EDFFFFF000000000000000E3FFFFFFF199
:102B90002B0000188EAE030000A6F8FFFFF0000027
:102BA00000000000009CFEFFFFA5232400188E5AA1
:102BB0000700009DEDFFFFF0000000000000003066
:102BC000000000EFC50800188E5B0700009DEDFFB8
:102BD000FFF000000000000000E4FFFFFFF12B0009
:102BE00000188E5B070000A5F8FFFFF00000000052
:102BF0000000009BFEFFFFA5232400188E080B0099
:102C0000009DEDFFFFF0000000000000003000001C
:102C100000EFC50800188E080B00009DEDFFFFF0C7
:102C200000000000000000E4FFFFFFF12B0000188F
:102C30008E080B0000A5F8FFFFF000000000000068
:102C4000009BFEFFFFA5232400188EB60E00009DFA
:102C5000EDFFFFF00000000000000030000000EF7A
:102C6000C50800188EB60E00009DEDFFFFF00000B5
:102C70000000000000E4FFFFFFF12B0000188EB5FC
:102C80000E0000A5F8FFFFF0000000000000009B10
:102C9000FEFFFFA5232400188E631200009DEDFFA8
:102CA000FFF00000000000000030000000EFC50849
:102CB00000188E631200009DEDFFFFF00000000081
:102CC000000000E4FFFFFFF12B0000188E631200EC
:102CD00000A5F8FFFFF0000000000000009BFEFFD1
:102CE000FFA5232400188E111600009DEDFFFFF0B4
:102CF0000000000000000031000000EFC5080018CF
:102D00008E101600009EEDFFFFF000000000000096
:102D100000E3FFFFFFF12B0000188E10160000A546
:102D2000F8FFFFF0000000000000009BFEFFFFA581
:102D3000232400188EBE1900009DEDFFFFF0000057
:102D4000000000000031000000EFC50800188EBE32
:102D50001900009DEDFFFFF000000000000000E3FF
:102D6000FFFFFFF12B0000188EBE190000A5F8FF31
:102D7000FFF0000000000000009BFEFFFFA52324E1
:102D800000188E6B1D00009DEDFFFFF0000000009D
:102D900000000031000000EFC50800188E6B1D0018
:102DA000009DEDFFFFF000000000000000E3FFFFCA
:102DB000FFF12B0000188E6B1D0000A5F8FFFFF03F
:102DC000000000000000009CFEFFFFA52324001867
:102DD0008E192100009DEDFFFFF0000000000000B3
:102DE0000030000000EFC50800188E182100009D7B
:102DF000EDFFFFF000000000000000E3FFFFFFF127
:102E00002B0000188E19210000A5F8FFFFF000002C
:102E100000000000009CFEFFFFA52324001889107D
:102E20008E18210000A6F8FFFF30F200000000001D
:102E300000000000007CD178001888010A01028897
:102E4000010401FF891F860088000302000086013B
:102E5000880103020000860088001F02000088012C
:102E60001F020000891F5F0028060A1200002020B0
:102E7000546865205265706C696361746F722020BC
:102E8000202000202020202D2D2D2D2D2D2D2D2DED
:102E90002D20202020202000496E7465726E616C08
:102EA0002052656C656173652020202000466972A0
:102EB0006D776172652056657273696F6E20352E6D
:102EC0002000436F6F6C2100537461727420507244
:102ED00065686561742100526967687420546F6F7A
:102EE0006C004E4120004F4E20004F464600457872
:102EF000747275646572004C65667420546F6F6CF3
:102F000000506C6174666F726D0057656C636F6D15
:102F1000652120202020202020202020202049273B
:102F20006D20746865205265706C696361746F729E
:102F30002E2050726573732074686520726564205A
:102F40004D20746F202067657420737461727465FE
:102F500064212020202020202020004120626C6954
:102F60006E6B696E6720274D27206D65616E734912
:102F7000276D2077616974696E6720616E642077C0
:102F8000696C6C636F6E74696E7565207768656EC9
:102F900020796F75202020707265737320746865C6
:102FA00020627574746F6E2E2E2E20004120736F78
:102FB0006C696420274D27206D65616E7320202089
:102FC00049276D20776F726B696E6720616E642090
:102FD00077696C6C757064617465206D79207374A9
:102FE00061747573202020207768656E2049276DF5
:102FF0002066696E69736865642E2E2E004F7572A7
:10300000206E6578742073746570732077696C6CBA
:1030100020676574206D65207365742075702120AC
:10302000202020202046697273742C207765276C3D
:103030006C20726573746F72656D79206275696C4E
:103040006420706C6174666F726D2E2E2E00736F2B
:103050002069742773206E69636520616E64202087
:1030600020206C6576656C2E204974277320707261
:103070006F6261626C796120626974206F6666209C
:1030800066726F6D2020202020207368697070693F
:103090006E672E2E2E202020202020202020004170
:1030A0006161682C2074686174206665656C7320AA
:1030B0002020206D756368206265747465722E200F
:1030C000202020202020204C6574277320676F204B
:1030D0006F6E20616E64206C6F6164736F6D65202C
:1030E000706C6173746963212020202020202000EF
:1030F0005765276C6C2074727920616761696E2155
:1031000020202020202020202020202020202020BF
:1031100020202020202020202020202020202020AF
:10312000202020202020202020202020202020209F
:10313000202020202020202020202020202020208F
:10314000005765276C6C206B65657020676F696E32
:103150006720202020616E64206C6F616420736F93
:103160006D6520202020202020706C6173746963BD
:103170002120466F722068656C7020676F746F2025
:103180006D616B6572626F742E636F6D2F68656C15
:1031900070005765276C6C20676F20746F2074680F
:1031A00065206D61696E6D656E752E2049662079AA
:1031B0006F75206E65656420202068656C702067DF
:1031C0006F20746F3A2020202020202020206D6165
:1031D0006B6572626F742E636F6D2F68656C702003
:1031E000202000417765736F6D652120202020200D
:1031F000202020202020205765276C6C20676F201E
:10320000746F2074686520534420206361726420C9
:103210006D656E7520616E6420796F752020206366
:10322000616E2073656C6563742061206D6F6465E9
:103230006C21200049276D20676F696E6720746FCD
:10324000206D616B65202020612073657269657354
:10325000206F66206C696E657320736F77652063DD
:10326000616E2066696E64206D7920202020202008
:103270006E6F7A7A6C6520616C69676E6D656E74CD
:103280002E202020004C6F6F6B20666F72207468B8
:103290006520626573742020206D617463686564C5
:1032A000206C696E6520696E20656163686178696C
:1032B00073207365742E204C696E6573206172658E
:1032C000206E756D626572656420312D3133206129
:1032D0006E642E2E2E006C696E65206F6E652069FF
:1032E000732065787472612020206C6F6E672E20C9
:1032F0005468652059206178697320736574697317
:10330000206C656674206F6E2074686520706C6137
:103310007465616E64205820617869732069732038
:1033200072696768742E00477265617421202049B4
:1033300027766520736176656420207468657365FF
:103340002073657474696E677320616E6420204910
:10335000276C6C20757365207468656D20746F2010
:103360002020206D616B65206E696365206D6F6440
:10337000656C73212020200053656C6563742062A6
:10338000657374206C696E65732E005820417869EE
:1033900073204C696E65002D2D3E002020200059C1
:1033A0002041786973204C696E6500446F6E652119
:1033B000004D792074656D70657261747572652059
:1033C00077617320206368616E6765642065787437
:1033D00065726E616C6C792E20526573656C6563E5
:1033E000742066696C616D656E742020206D656E59
:1033F0007520746F2074727920616761696E2E0088
:103400004D79206578747275646572732061726598
:10341000202020206E6F742068656174696E6720BB
:1034200075702E2020202020436865636B206D7905
:10343000202020202020202020202020636F6E6E5E
:10344000656374696F6E7321202020202020202066
:1034500000507265737320646F776E206F6E2074F6
:103460006865202020677265792072696E67732015
:10347000617420746F70206F66746865206578745D
:1034800072756465727320616E6420202070756CA3
:103490006C2074686520626C61636B2E2E2E202078
:1034A0002000507265737320646F776E206F6E20FA
:1034B000746865202020677265792072696E6720C4
:1034C000617420746F70206F662074686520657861
:1034D00074727564657220616E642020202070759E
:1034E0006C6C2074686520626C61636B2E2E2E20DC
:1034F00020200049276D2068656174696E6720751A
:1035000070206D7920202065787472756465722151
:103510002020202020202020202020506C65617356
:103520006520776169742E20202020202020202013
:10353000202020202020202020202020202020208B
:1035400020202000677569646520747562657320AA
:103550006F75742E204E6F77666565642066696CA2
:10356000616D656E742066726F6D202074686520D1
:103570006261636B207468726F7567682074686538
:10358000747562657320756E74696C2069742E2E73
:103590002E2020200067756964652074756265209F
:1035A0006F75742E20204E6F77666565642066699E
:1035B0006C616D656E742066726F6D202074686535
:1035C000206261636B207468726F7567682074682D
:1035D000657475626520756E74696C2069742E2E31
:1035E0002E2020202000706F7073206F757420696A
:1035F0006E2066726F6E742E202049276D206865DC
:103600006174696E67207570206D7920202065785F
:1036100074727564657220736F2077652063616EC4
:1036200020206C6F6164207468652066696C616D30
:10363000656E742E2E2E0054686973206D6967685C
:10364000742074616B652061202020666577206D91
:10365000696E757465732E20202020202020204163
:103660006E64207761746368206F75742C207468B1
:103670006520206E6F7A7A6C652077696C6C2067A4
:10368000657420484F54210048656174696E672055
:1036900050726F67726573733A20202020202020BB
:1036A000202020202020202020202020202020201A
:1036B000202020202020202020202020202020200A
:1036C00020202020202020202020202020202020FA
:1036D0002020202020202020004F4B2049276D2033
:1036E00072656164792120202020202020466972A3
:1036F0007374207765276C6C206C6F61642074682C
:103700006572696768742065787472756465722E75
:103710002020202020507573682066696C616D65DB
:103720006E7420696E2E2E2E200047726561742102
:10373000204E6F77207765276C6C202020206C6FDF
:10374000616420746865206C6566742020202020E8
:10375000202065787472756465722E2050757368C8
:1037600020202020202066696C616D656E742074B5
:1037700068726F7567682E2E2E20004F4B204927E8
:103780006D20726561647921202020202020205046
:10379000757368207468652066696C616D656E7408
:1037A000202020646F776E207468726F7567682EB2
:1037B0002E2E2020202020202020202020202020ED
:1037C0002020202020202020202020004F4B204996
:1037D000276D20726561647921202020202020201F
:1037E000506F702074686520677569646520747512
:1037F000626520206F666620616E64207075736854
:10380000207468652020202066696C616D656E7487
:10381000207468726F7567682E2E2E20004F4B2023
:1038200049276D20726561647921202020202020A5
:1038300020506F7020746865206775696465207416
:1038400075626520206F666620616E642070756CFD
:103850006C202020202020202066696C616D656E20
:10386000742067656E746C792E2E2E20200074688B
:103870006520657874727564657220626C6F636B25
:103880002020756E74696C20796F75206665656C93
:103890002074686520206D6F746F7220747567677F
:1038A000696E6720746865202020706C617374698C
:1038B0006320696E2E2E2E202020202020200057ED
:1038C00068656E2066696C616D656E742069732031
:1038D000202020657874727564696E67206F757436
:1038E000206F66207468656E6F7A7A6C652C205044
:1038F0007265737320274D27202020746F20737406
:103900006F7020657874727564696E672E20200070
:103910005768656E2066696C616D656E74206973A9
:1039200020202020657874727564696E67206F7539
:1039300074206F66207468656E6F7A7A6C652C20CF
:10394000507265737320274D27202020746F2065E7
:103950007869742020202020202020202020202072
:10396000005768656E206D792066696C616D656EC3
:10397000742069732072656C65617365642C202006
:1039800020202020202020202050726573732027C3
:103990004D2720746F20657869742E202020202008
:1039A0002020202020202020202020202020202017
:1039B0002000477265617421202049276C6C2073B8
:1039C000746F7020202072756E6E696E67206D793D
:1039D0002065787472756465722E507265737320F9
:1039E0004D20746F20636F6E74696E75652E202094
:1039F00020202020202020202020202020202020C7
:103A00002020004F4B212049276C6C206B6565708E
:103A1000206D79202020206D6F746F722072756E7A
:103A20006E696E672E20596F7520206D6179206E4A
:103A300065656420746F207075736820202020688D
:103A400061726465722E2E2E2020202020202020DE
:103A5000202020005765276C6C206B6565702067FF
:103A60006F696E672E2020204C6574732074727904
:103A700020746865206C65667420202065787472F7
:103A8000756465722E2050757368202020202020D8
:103A900066696C616D656E7420646F776E2E2E2E74
:103AA00020202020005765276C6C206B65657020F6
:103AB000676F696E672E202020496620796F752711
:103AC000726520686176696E672020202074726FAD
:103AD00075626C652C20636865636B206F7574205C
:103AE000206D616B6572626F742E636F6D2F6865F8
:103AF0006C70202020004D79206D6F746F722074DF
:103B0000696D6564206F757420206166746572202C
:103B100035206D696E757465732E202020205072DB
:103B2000657373204D20746F20657869742E202092
:103B30002020202020202020202020202020202085
:103B400020202020202000486F77276420697420DF
:103B5000676F3F205265616479202000746F206D8B
:103B6000616B6520736F6D657468696E673F2020B7
:103B700000596573202020004E6F20202020004433
:103B80006F6573206D79206E6F7A7A6C6500686559
:103B90006967687420636865636B206F75743F00A4
:103BA0004D792068656967687420697320676F6F55
:103BB0006421004C657427732074727920616761F9
:103BC000696E2E0044696420706C617374696320AF
:103BD00065787472756465200066726F6D20746814
:103BE00065206E6F7A7A6C653F00556E6C6F61640C
:103BF00020726967687400556E6C6F6164004C6F69
:103C00006164206C65667400556E6C6F6164206C35
:103C1000656674004C6F6164207269676874004C5B
:103C20006F61640020202020204A6F67206D6F6440
:103C3000652020202020202000202020202020205F
:103C400020582B2020202020202020202000202051
:103C500020202020284261636B29202020592D3EFE
:103C60002020002020202020202020582D2020202F
:103C70002020202020202000202020202020202064
:103C8000592B202020202020202020200020203CF4
:103C90002D5820284261636B2920205A2D3E202078
:103CA00020002020202020202020592D20202020EE
:103CB0002020202020200020202020202020205AEA
:103CC0002D202020202020202020200020203C2DDE
:103CD0005920284261636B292020202020202020A9
:103CE0000020202020202020205A2B2020202020AF
:103CF00020202020200047414D45204F564552218D
:103D00000048656174696E673A20202020202020D9
:103D100020202020200048656174696E673A0020E9
:103D20002D2D25006572726F722100202020202029
:103D300020202020202020202020202020202000A3
:103D400045787472756465723A2020202D2D2D2FD0
:103D50002D2D2D4300522045787472756465723A9A
:103D6000202D2D2D2F2D2D2D43004C2045787472A4
:103D7000756465723A202D2D2D2F2D2D2D43005069
:103D80006C6174666F726D3A2020202D2D2D2F2DC1
:103D90002D2D430020204E412020202000776169F6
:103DA00074696E6720002F202020430043202020CC
:103DB00020002050726568656174205365747469D1
:103DC0006E677320202000526967687420546F6FFB
:103DD0006C20202020202020202020004C656674AC
:103DE00020546F6F6C2020202020202020202020B5
:103DF00000506C6174666F726D202020202020209E
:103E000020002052657365742053657474696E6771
:103E10007320746F2020002044656661756C7420E7
:103E200076616C7565733F00556E506175736520E2
:103E30002020202020202020202020005061757389
:103E4000652020202020202020202020202020004D
:103E500043616E63656C204275696C64202020208C
:103E6000202020004368616E67652046696C616DA3
:103E7000656E742020202000536C656570202843F7
:103E80006F6C6420506175736529200052657375ED
:103E90006D65204275696C64202020202020200060
:103EA0004C454420436F6C6F72202020202020203E
:103EB00020202000524544202020004F52414E47F0
:103EC00045200050494E4B202000475245454E208A
:103ED00000424C5545202000505552504C4500574B
:103EE000484954452000435553544F4D004F4646D2
:103EF0002020200046696C616D656E742046616EFD
:103F00002020202020202020004275696C6420534E
:103F10007461746973746963732020200042616363
:103F20006B20746F204D6F6E69746F72202020209B
:103F3000004275696C642046696E69736865642126
:103F40002020202020202020202020202020202071
:103F50002020202020202020204275696C642054DD
:103F6000696D652020202020206820206D0042758A
:103F7000696C642054696D653A20202020206820F7
:103F8000206D004C696E653A2020202020202020E2
:103F90002020202020202000457374696D61746505
:103FA00064204275696C642054696D654C6966656E
:103FB00074696D6520546F74616C3A20202020680C
:103FC000004C617374204275696C643A2020202093
:103FD000206820206D0043616E63656C2074686901
:103FE00073206275696C643F005175697420746850
:103FF00069732070726F636573733F004275696CFB
:10400000642066726F6D2053442020202020200001
:1040100050726568656174202020202020202020B7
:10402000202020005574696C697469657320202014
:104030002020202020202000496E666F20616E64C1
:104040002053657474696E67732020004D6F6E692C
:10405000746F72204D6F6465202020202020200086
:104060004368616E67652046696C616D656E74209A
:10407000202020004C6576656C204275696C6420B8
:10408000506C6174652020004A6F67204D6F646535
:10409000202020202020202020202000486F6D6537
:1040A000204178657320202020202020202020001F
:1040B00052756E2053746172747570205363726907
:1040C00070742000456E61626C6520537465707079
:1040D000657273202020200044697361626C652042
:1040E00053746570706572732020200053746F7074
:1040F00020426C696E6B696E6721202020202000B1
:10410000426C696E6B204C45447320202020202097
:104110002020200043616C696272617465204E6FDB
:104120007A7A6C657320200065786974206D656EFD
:10413000752020202020202020202000426F742085
:1041400053746174697374696373202020202000A4
:1041500047656E6572616C2053657474696E677330
:104160002020200050726568656174205365747466
:10417000696E67732020200056657273696F6E2028
:104180004E756D6265722020202020005265737488
:104190006F72652044656661756C74732020200021
:1041A000536F756E642020202020202020202020A6
:1041B0002020200048656174656420506C6174653E
:1041C00000546F6F6C20436F756E74202020202088
:1041D000202020200053494E474C45004455414C77
:1041E00020200048656174204C4544732020202025
:1041F0002020202020200048656C702054657874B1
:104200002020202020202020202000416363656C96
:104210006572617465202020202020202020004E1F
:104220006F205344206361726420666F756E640072
:104230005344206361726420726561642065727208
:104240006F7200492063616E27742072656164207B
:10425000746869732020205344206361726420666F
:104260006F726D6174212020202020547279207299
:1042700065666F726D617474696E672020202074AA
:104280006865206361726420746F20464154313642
:104290002E2000492063616E2774207265616420BE
:1042A000534420092020206361726473207769746D
:1042B000682073746F7261676520206C6172676536
:1042C00072207468616E203247422E202020202008
:1042D00020202020202020202020202020202020DE
:1042E0002000205344206361726420726561642061
:1042F0006572726F72002049276D20616C72656172
:104300006479206275696C64696E67005761726ECA
:10431000696E673A4275696C642073706565647391
:10432000666173746572207468616E2035306D6DDE
:104330002F7320207265717569726520783367204C
:10434000666F726D61742020666F7220626573748F
:1043500020726573756C74732E2020200001004953
:10436000033600FF006B00D100A000B800D500A606
:10437000000A0199003F018E0074018400A9017CAC
:1043800000DE01740013026C00480265007D025DCE
:1043900000B2025600E7024E001C03460051033DE6
:1043A0000086033200BB032200F0030300D0FEC0EE
:1043B000FF18FFD0FF63FFE0FFB1FFF0FF00000038
:1043C0000051001000A4002000F80030004001401F
:1043D00000A2015000F70160004B0270009F0280B4
:1043E00000F20290004503A0009703B000E803C06C
:1043F000003A04D0008C04E000DF04F00032050035
:104400000186051001DB0520012F063001DA065078
:10441000013007600186077001DC078001680890A1
:10442000012039C9FFE03CE7FFF83F000000000031
:104430000008000000200319004006320060094B0C
:1044400000000A5000800C64000010800000743BE3
:104450009C3B1A3F4949AA496453F8547058DE59A5
:10446000AD6DB57FCD82028D7E8E138F5490A1925B
:10447000059FE69F9EA335A427A5E6A56BA7B5AB30
:1044800006AC64AF2DB394D164D321D50FD7CAD76E
:10449000AAD811241FBECFEFD1E2DEBFCDBF16E0F8
:1044A000A0E0B2E0EAE0FCEB01E00BBF02C0079045
:1044B0000D92A636B107D9F71DE1A6E6B6E001C018
:1044C0001D92A436B107E1F714E4C2E9D4E400E098
:1044D00006C022970109FE010BBF0E9471DDCE3498
:1044E000D10780E00807A9F70E949A490C9403DEDF
:1044F0000C940000A0E3B0E0E0E8F2E20C943CDDB4
:10450000298F3A8F4B8F5C8F6D8F7E8F8F8F98A303
:10451000A98ABA8ACB8ADC8AED8AFE8A0F8B188F29
:10452000098D1A8D2B8D3C8D09A31AA32BA33CA3B7
:10453000680179018FEF9FEFA0E0B0E0C822D92297
:10454000EA22FB2289012227332709A71AA72BA7D2
:104550003CA709891A892B893C890DA31EA32FA387
:1045600038A74801590188229922AA22BB22290191
:1045700066247724C501B401A70196010E94ABDC33
:104580006DA77EA78FA798ABC301B2010E94ABDCD9
:104590006B017C01C501B40129A53AA54BA55CA519
:1045A0000E94ABDC4B015C01C301B2010E94ABDC99
:1045B000AB01BC01C80CD91CEA1CFB1C0DA51EA537
:1045C0002FA538A9C901AA27BB27C80ED91EEA1EE4
:1045D000FB1EC814D904EA04FB0420F440505040E8
:1045E0006F4F7F4FC701AA27BB27840F951FA61FB8
:1045F000B71F8D839E83AF83B8877601DD24CC24DB
:104600004DA55EA56FA578A960707070C40ED51E0B
:10461000E61EF71EC982DA82EB82FC821C2D0A811B
:104620008B804C808D878E818E878F818F87888548
:10463000888B2D893E894F89588D69A17AA18BA1DC
:104640009CA10E94ABDC6B017C012D8D3E8D4F8DBA
:1046500058A16DA17EA18FA198A50E94ABDCDC01C1
:10466000CB01C80ED91EEA1EFB1E8D859E85AF8527
:10467000B8898C0D9D1DAE1DBF1D8D879E87AF8790
:10468000B88B682F7E85212F302F482D542D8F8594
:104690009889E096E0E10C9458DD0F93CF93DF9377
:1046A000CDB7DEB760970FB6F894DEBF0FBECDBFB3
:1046B000002309F456C029873A874B875C876D87AA
:1046C0007E878F87988B20E2201B8D859E85AF8506
:1046D000B889AC01BD011216B4F0770F440B542F0A
:1046E000BA014D835E836F837887332727FD30952A
:1046F000309521953F4F04C0B595A795979587951F
:104700002A95D2F722C0002E04C07595679557955B
:1047100047950A94D2F74D835E836F83788704C0F0
:10472000880F991FAA1FBB1F2A95D2F749855A8562
:104730006B857C8504C076956795579547950A9556
:10474000D2F7842B952BA62BB72B89839A83AB8327
:10475000BC8329813A814B815C816D817E818F810F
:10476000988560960FB6F894DEBF0FBECDBFDF917F
:10477000CF910F910895A8E4B0E0E1ECF3E20C943E
:104780003BDDF50129A33AA34BA35CA36DA37EA354
:104790008FA398A7A98EFA8FCB8EDC8EED8EFE8E1E
:1047A0000F8F18A38DA09EA0AFA0B8A4B7FE67C0BE
:1047B0002195B1E0121608F0B0E03195A1E0131692
:1047C00008F0A0E0B32EBB1ABB2D882483943B15C0
:1047D00008F08824A829419531E0141608F030E04B
:1047E000B42EBA1AAB2D882483944B1508F0882474
:1047F0003829519541E0151608F040E0452E431A3E
:1048000031E0541508F030E0432B619531E0161685
:1048100008F030E0862E841A41E0681508F040E088
:10482000342B719541E0171608F040E0572F531BC9
:1048300031E0751708F030E0432B819531E0181610
:1048400008F030E0682F641B462F61E0841708F001
:1048500060E0362B9195931B29A3BAA3ABA34CA27E
:104860008DA25EA34FA398A78FEF9FEFAFEFBFEF8F
:1048700025968CAF9DAFAEAFBFAF259706C02596EE
:104880001CAE1DAE1EAE1FAE25978D8D9E8DAF8DBD
:10489000B8A1B7FF68C025962CAD3DAD4EAD5FAD5C
:1048A0002597209530954095509525962CAF3DAF96
:1048B0004EAF5FAF2597E19581E01E1608F080E0CE
:1048C000F19591E01F1608F090E04F2F481B81E012
:1048D000F41708F080E0982BC19481E01C1408F0D4
:1048E00080E06C2D691B91E0C61608F090E0892BE2
:1048F000D19491E01D1408F090E05D2D581B81E0EB
:10490000D51608F080E0982BE19481E01E1408F0A1
:1049100080E03E2D391B91E0E31608F090E0892BF2
:10492000F19491E01F1408F090E02F2D281B81E0F6
:10493000F21608F080E0982B019581E0101608F03F
:1049400080E0702F791B972F71E0091708F070E055
:10495000872B1195181BE98F4A8F6B8F5C8F3D8FCA
:104960002E8F9F8F18A3798D6A8D5B8D4C8D3D8D19
:104970002E8D9F8D88A1E9A1E98BEAA1EA8BEBA19D
:10498000EB8BECA1EC8BEDA1ED8BEEA1EE8BEFA10F
:10499000EF8BE8A5E88F79876A875B874C873D872F
:1049A0002E879F87888B89849A84AB84BC848D856D
:1049B0009E85AF85B889E988FA880B891C89EDAA9C
:1049C000FEAA0FAB18AFCD88DE88EF88F88C009771
:1049D000A105B10509F0BFC3C814D904EA04FB045A
:1049E00008F04EC100E0801600E0900601E0A0064D
:1049F00000E0B00660F41FEF81169104A104B10439
:104A000009F098F480E090E0A0E0B0E017C020E06A
:104A1000821620E0920620E0A20621E0B20650F4C1
:104A200080E190E0A0E0B0E009C088E090E0A0E084
:104A3000B0E004C088E190E0A0E0B0E0B501A401DE
:104A4000082E04C076956795579547950A94D2F736
:104A5000FA01E25AFD4F208140E250E060E070E050
:104A6000481B590B6A0B7B0B421B510961097109E9
:104A70004115510561057105A1F1042E04C0880C92
:104A8000991CAA1CBB1C0A94D2F797018601042E1C
:104A900004C0000F111F221F331F0A94D2F780E2B7
:104AA00090E0841B950BCDA8DEA8EFA8F8AC04C05D
:104AB000F694E794D794C7948A95D2F7C02AD12A5E
:104AC000E22AF32A0DA91EA92FA938AD04C0000FB0
:104AD000111F221F331F4A95D2F70DAB1EAB2FAB10
:104AE00038AF250166247724950184012070307049
:104AF00009AB1AAB2BAB3CABC701B601A3019201CA
:104B00000E94FDDC2DA73EA74FA758AB69A77AA747
:104B10008BA79CA7C701B601A30192010E94FDDCEF
:104B2000CA01B90129A93AA94BA95CA90E94ABDC29
:104B3000AB01BC0109A51AA52BA53CA57801DD2474
:104B4000CC240DA91EA92FA938ADC901AA27BB27BE
:104B5000C82AD92AEA2AFB2A0DA51EA52FA538A9FD
:104B6000C416D506E606F70638F501501040204079
:104B7000304009A71AA72BA73CA7C80CD91CEA1CD0
:104B8000FB1CC814D904EA04FB04D0F0C416D506F3
:104B9000E606F706A8F40DA51EA52FA538A9025014
:104BA00010402040304009A71AA72BA73CA7C80CEB
:104BB000D91CEA1CFB1C04C009A71AA72BA73CA7F9
:104BC000C41AD50AE60AF70AC701B601A301920181
:104BD0000E94FDDC2DA73EA74FA758AB69AF7AAF67
:104BE0008BAF9CAFC701B601A30192010E94FDDC0F
:104BF000CA01B90129A93AA94BA95CA90E94ABDC59
:104C00006B017C0149AD5AAD6BAD7CAD9A011127AA
:104C100000274DA95EA96FA978AD60707070042B54
:104C2000152B262B372B8DA59EA5AFA5B8A90C1546
:104C30001D052E053F05C0F40197A109B109080D16
:104C4000191D2A1D3B1D081519052A053B0560F095
:104C50000C151D052E053F0538F48DA59EA5AFA5A5
:104C6000B8A90297A109B10909A51AA52BA53CA5C8
:104C70007801DD24CC24C82AD92AEA2AFB2AB9C41F
:104C800081149104A104B10451F461E070E080E06A
:104C900090E0A50194010E94FDDC49015A0110E059
:104CA000811610E0910611E0A10610E0B10660F453
:104CB0002FEF82169104A104B10409F098F480E06A
:104CC00090E0A0E0B0E017C030E0831630E093063B
:104CD00030E0A30631E0B30650F480E190E0A0E0BC
:104CE000B0E009C088E090E0A0E0B0E004C088E156
:104CF00090E0A0E0B0E0B501A401082E04C07695D4
:104D00006795579547950A94D2F7FA01E25AFD4FF5
:104D10002081AC01BD01420F511D611D711D80E25A
:104D200090E0A0E0B0E0841B950BA60BB70B51F40C
:104D3000C818D908EA08FB08F1E04F2E512C612C65
:104D4000712C28C1082E04C0880C991CAA1CBB1CFD
:104D50000A94D2F797018601042E04C03695279550
:104D6000179507950A94D2F709AB1AAB2BAB3CAB5E
:104D700097018601082E04C0000F111F221F331F48
:104D80000A94D2F70DA71EA72FA738ABEDA8FEA84F
:104D90000FA918AD04C016950795F794E7944A95A6
:104DA000D2F7B801A7010DA51EA52FA538A9042B80
:104DB000152B262B372B0DA71EA72FA738ABEDA839
:104DC000FEA80FA918AD04C0EE0CFF1C001F111F98
:104DD0008A95D2F7EDAAFEAA0FAB18AF250166247B
:104DE0007724950184012070307009AF1AAF2BAF82
:104DF0003CAF69A97AA98BA99CA9A30192010E9441
:104E0000FDDC29A73AA74BA75CA76B017C0169A928
:104E10007AA98BA99CA9A30192010E94FDDCCA0179
:104E2000B90129AD3AAD4BAD5CAD0E94ABDCAB0135
:104E3000BC017601DD24CC240DA51EA52FA538A923
:104E4000C901AA27BB27C82AD92AEA2AFB2A09A509
:104E50001AA52BA53CA5C416D506E606F70638F517
:104E6000015010402040304009AB1AAB2BAB3CAB9B
:104E7000C80CD91CEA1CFB1CC814D904EA04FB04A6
:104E8000D0F0C416D506E606F706A8F409A51AA5BB
:104E90002BA53CA5025010402040304009AB1AAB76
:104EA0002BAB3CABC80CD91CEA1CFB1C04C009ABE7
:104EB0001AAB2BAB3CABC41AD50AE60AF70AC701FA
:104EC000B601A30192010E94FDDC29A73AA74BA7D6
:104ED0005CA721966CAF7DAF8EAF9FAF2197C701C6
:104EE000B601A30192010E94FDDCCA01B90129ADFE
:104EF0003AAD4BAD5CAD0E94ABDC8B019C012196C1
:104F00004CAD5DAD6EAD7FAD2197DA019927882755
:104F10004DA55EA56FA578A960707070842B952B48
:104F2000A62BB72B49A55AA56BA57CA58017910781
:104F3000A207B307F0F44150504060407040880D24
:104F4000991DAA1DBB1D88159905AA05BB0588F0EA
:104F500080179107A207B30760F449A55AA56BA56E
:104F60007CA54250504060407040880D991DAA1D9C
:104F7000BB1D6C017D01C01AD10AE20AF30A09A91E
:104F80001AA92BA93CA9380155244424442A552A9E
:104F9000662A772A8501222733270DA71EA72FA768
:104FA00038AB950184012070307009AF1AAF2BAF78
:104FB0003CAFC701B6012DA53EA54FA558A90E943B
:104FC000FDDC29A73AA74BA75CA769AB7AAB8BABF3
:104FD0009CABC701B6012DA53EA54FA558A90E94BF
:104FE000FDDCCA01B90129AD3AAD4BAD5CAD0E9403
:104FF000ABDCAB01BC0109A91AA92BA93CA978011A
:10500000DD24CC240DA91EA92FA938ADC901AA27DA
:10501000BB27C82AD92AEA2AFB2A09A51AA52BA543
:105020003CA5C416D506E606F70638F50150104033
:105030002040304009AB1AAB2BAB3CABC80CD91CA1
:10504000EA1CFB1CC814D904EA04FB04D0F0C41603
:10505000D506E606F706A8F409A51AA52BA53CA5D2
:10506000025010402040304009AB1AAB2BAB3CAB98
:10507000C80CD91CEA1CFB1C04C009AB1AAB2BAB37
:105080003CABC41AD50AE60AF70AC701B6012DA53A
:105090003EA54FA558A90E94FDDC29A73AA74BA71A
:1050A0005CA721966CAF7DAF8EAF9FAF2197C701F4
:1050B000B6012DA53EA54FA558A90E94FDDCCA0149
:1050C000B90129AD3AAD4BAD5CAD0E94ABDC8B01B3
:1050D0009C0121964CAD5DAD6EAD7FAD2197DA019F
:1050E000992788274DA95EA96FA978AD6070707067
:1050F000842B952BA62BB72B49A55AA56BA57CA570
:1051000080179107A207B307D0F441505040604088
:105110007040880D991DAA1DBB1D88159905AA050B
:10512000BB0568F080179107A207B30740F449A5B3
:105130005AA56BA57CA5425050406040704009A91B
:105140001AA92BA93CA97801DD24CC24C42AD52A8C
:10515000E62AF72A51C2C816D906EA06FB0608F461
:1051600038C2803010E0910711E0A10710E0B107CC
:1051700058F48F3F9105A105B10509F090F400E0C6
:1051800010E020E030E016C0803020E0920720E000
:10519000A20721E0B20750F400E110E020E030E087
:1051A00009C008E010E020E030E004C008E110E0B1
:1051B00020E030E0AC01BD01002E04C0769567957B
:1051C000579547950A94D2F7FA01E25AFD4F40816C
:1051D000040F111D211D311D40E250E060E070E020
:1051E000401B510B620B730BA1F48C159D05AE0592
:1051F000BF0508F4F5C1EDA8FEA80FA918AD442419
:1052000055243201E814F9040A051B0508F0EBC126
:10521000E3C1342E2C013D0104C0440C551C661C16
:10522000771C4A95D2F7D501C401002E04C0B6956B
:10523000A795979587950A94D2F7482A592A6A2AFA
:105240007B2AA5019401032C04C0220F331F441FA5
:10525000551F0A94D2F729AF3AAF4BAF5CAFB701F5
:10526000A601002E04C076956795579547950A9438
:10527000D2F749AB5AAB6BAB7CABC701B601032C81
:1052800004C0660F771F881F991F0A94D2F76DA775
:105290007EA78FA798AB8DA99EA9AFA9B8AD04C072
:1052A000B695A795979587950A95D2F74DA55EA5D2
:1052B0006FA578A9482B592B6A2B7B2B4DA75EA78E
:1052C0006FA778AB4301AA24BB249301820120700D
:1052D000307021960CAF1DAF2EAF3FAF219769A95B
:1052E0007AA98BA99CA9A50194010E94FDDC29A79C
:1052F0003AA74BA75CA76B017C0169A97AA98BA986
:105300009CA9A50194010E94FDDCCA01B901219666
:105310002CAD3DAD4EAD5FAD21970E94ABDCDC0105
:10532000CB017601DD24CC240DA51EA52FA538A91F
:10533000A90166277727C42AD52AE62AF72A09A5CC
:105340001AA52BA53CA5C816D906EA06FB0638F512
:10535000015010402040304009AB1AAB2BAB3CABA6
:10536000C40CD51CE61CF71CC414D504E604F704D1
:10537000D0F0C816D906EA06FB06A8F409A51AA5B6
:105380002BA53CA5025010402040304009AB1AAB81
:105390002BAB3CABC40CD51CE61CF71C04C009AB02
:1053A0001AAB2BAB3CABC81AD90AEA0AFB0AC701F5
:1053B000B601A50194010E94FDDC29A73AA74BA7DD
:1053C0005CA729966CAF7DAF8EAF9FAF2997C701C1
:1053D000B601A50194010E94FDDCCA01B901219624
:1053E0002CAD3DAD4EAD5FAD21970E94ABDC4B01C6
:1053F0005C0129964CAD5DAD6EAD7FAD29979A01EC
:10540000112700278DA59EA5AFA5B8A9A070B070E3
:10541000082B192B2A2B3B2B89A59AA5ABA5BCA53C
:10542000081519052A053B05E0F40197A109B10902
:10543000040D151D261D371D0415150526053705F8
:1054400080F0081519052A053B0558F489A59AA589
:10545000ABA5BCA50297A109B109040D151D261D18
:10546000371DB901A801481959096A097B094DA7D7
:105470005EA76FA778AB09A91AA92BA93CA9780147
:10548000DD24CC24C82AD92AEA2AFB2AFFEF8F2E52
:10549000FFEF9F2EA12CB12C8C209D20AE20BF2091
:1054A00087012227332709A71AA72BA73CA749ACB6
:1054B0005AAC6BAC7CAC2FEF3FEF40E050E04222A7
:1054C00053226422752229AD3AAD4BAD5CAD8A0101
:1054D0002227332709AB1AAB2BAB3CABC501B40178
:1054E000A30192010E94ABDC69AF7AAF8BAF9CAF96
:1054F000C501B40129A93AA94BA95CA90E94ABDC5A
:105500004B015C0169A57AA58BA59CA5A30192011D
:105510000E94ABDC2B013C0169A57AA58BA59CA55B
:1055200029A93AA94BA95CA90E94ABDCAB01BC013B
:10553000840C951CA61CB71C09AD1AAD2BAD3CAD57
:10554000C901AA27BB27880E991EAA1EBB1E841458
:105550009504A604B70420F4405050406F4F7F4F8D
:10556000C501AA27BB27840F951FA61FB71F0DA52E
:105570001EA52FA538A9081719072A073B0718F1F8
:1055800080179107A207B307A1F554019924882435
:1055900089AD9AADABADBCADA070B070880E991E50
:1055A000AA1EBB1E4DA95EA96FA978AD032C04C02D
:1055B000440F551F661F771F0A94D2F748155905E7
:1055C0006A057B05B0F40894C108D108E108F10828
:1055D00010C0442455243201CC24DD2476010CC0B3
:1055E00044245524320181E0C82ED12CE12CF12C29
:1055F00003C0442455243201FE01319688E0DF01C6
:105600001D928A95E9F7C982DA82EB82FC824D828B
:105610005E826F8278862C2D3A814B815C81642D6D
:105620007E818F8198852596ECACFDAC0EAD1FADCB
:105630002597E114F1040105110509F456C02195DF
:10564000E1E0121608F0E0E03195F1E0131608F001
:10565000F0E0032F0E1BE1E0301708F0E0E0FE2B36
:105660004195E1E0141608F0E0E0142F1F1B31E033
:10567000411708F030E0E32B5195F1E0151608F0E2
:10568000F0E0B52FBE1B31E05B1708F030E0F32BE4
:105690006195E1E0161608F0E0E0462E4F1A31E081
:1056A000641508F030E0E32B7195F1E0171608F06F
:1056B000F0E0A72FAE1B31E07A1708F030E0F32BB3
:1056C0008195E1E0181608F0E0E0F82EFF1AFF2DB2
:1056D00031E08F1508F030E0E32B9195302F412F0A
:1056E0005B2F642D7A2F8F2F9E1BC85BDF4FE1E16C
:1056F0000C9457DDFA01DC0102C005900D92215097
:105700003040D8F70895F8942091A7063091A80664
:105710008091A5069091A606821B930B789408951C
:1057200080939E06089581E080939C060895809161
:105730009E06089580919D0608952091A7063091B8
:10574000A80681E02115310509F080E00895482F71
:105750008091A7069091A8066091A5067091A60673
:1057600086179707E8F42091A7063091A806809144
:10577000A9069091AA06820F931F0E94D6DCE091A1
:10578000AB06F091AC06E80FF91F40838091A706A5
:105790009091A80601969093A8068093A706089575
:1057A00081E0E5EAF6E0808708951092A80610925D
:1057B000A7061092AA061092A9061092AD061092A2
:1057C000AE061092A0061092A1061092A2061092A8
:1057D000A30610929F0610929E0610929D061092AC
:1057E0009706109298061092990610929A061092B7
:1057F00082061092960610929506109294060895CD
:1058000081E020919406309195062630310509F00B
:1058100080E008956091A0067091A1068091A20693
:105820009091A30608951092A0061092A1061092DE
:10583000A2061092A30608954F925F926F927F92F4
:105840008F929F92AF92BF92CF92DF92EF92FF9290
:105850000F931F93CF93DF93CDB7DEB7C056D040E1
:105860000FB6F894DEBF0FBECDBFCE01CD960E941D
:10587000F383A6E6B6E0FE01FD9684E101900D9269
:105880008150E1F786E696E060E070E00E945955AD
:10589000FC01208131814281538165962CAF3DAF5F
:1058A0004EAF5FAF659786E696E061E070E00E94DC
:1058B0005955FC01208131814281538169962CAF79
:1058C0003DAF4EAF5FAF699786E696E062E070E06D
:1058D0000E945955FC0120813181428153816D968E
:1058E0002CAF3DAF4EAF5FAF6D9786E696E063E0BD
:1058F00070E00E945955FC0180809180A280B380A5
:1059000083E00E9422826B017C0186E696E064E0DF
:1059100070E00E945955FC01608171818281938100
:105920000E9444DB2B013C0184E00E9422829B0107
:10593000AC0100D000D00DB71EB70F5F1F4FC701DD
:10594000B6016E962FAF6E976F963FAF6F97A0968A
:105950004FAFA097A1965FAFA1970E9416DBDC0125
:10596000CB01880E991EAA1EBB1EC301B2016E9602
:105970002FAD6E976F963FAD6F97A0964FADA097E6
:10598000A1965FADA1970E94F4D90E9411DBDC01C2
:10599000CB01F80180839183A283B383CE018996E2
:1059A00065964CAD5DAD6EAD7FAD659769960CADFE
:1059B0001DAD2EAD3FAD69976D96CCACDDACEEACB8
:1059C000FFAC6D970E941D550F900F900F900F9098
:1059D000CE01899648E052E060E070E00E948E843B
:1059E00089EB99E00E9499A990937D0680937C06AB
:1059F00089E69AE00E9499A990937F0680937E069B
:105A00008AE19CE00E9499A990937B0680937A0694
:105A100080919B06882391F089EB99E060E070E02B
:105A20000E94C8A889E69AE060E070E00E94C8A8D9
:105A30008AE19CE060E070E00E94C8A8DE01559613
:105A4000FE01B99684E101900D928150E1F7CE01FB
:105A5000459662E070E00E9459554C0182E00E9438
:105A600022820E9411DB26E930E040E050E00E94F3
:105A7000ABDCDC01CB01F40180839183A283B3838F
:105A8000DE011196FE01759684E101900D92815020
:105A9000E1F7CE01019660E070E00E9459554C019B
:105AA00080E00E94228220E030E04DED52EC0E9426
:105AB00048DC0E9411DBDC01CB01F401808391837F
:105AC000A283B383CE01019661E070E00E94595534
:105AD0004C0181E00E94228220E030E044E952EC57
