:100000000C9486310C94B5310C94B5310C94B53107
:100010000C94B5310C94B5310C94B5310C94B531C8
:100020000C94B5310C94B5310C94B5310C94B531B8
:100030000C94B5310C9464610C94B5310C94B531C9
:100040000C94B5310C94B5310C94B5310C94B53198
:100050000C94B5310C94B5310C94B5310C94B53188
:100060000C94B5310C945CEE0C94B5310C9488EE84
:100070000C94B5310C9467B80C94B5310C94B5312F
:100080000C94B5310C94B5310C94B5310C94B53158
:100090000C94B5310C94B5310C94B5310C94B53148
:1000A0000C94B5310C94B5310C94B5310C94B53138
:1000B0000C94B5310C94B5310C94B5310C94A35E0D
:1000C0000C94B5310C94B5310C94B5310C94B53118
:1000D0000C94B5310C94B5310C94B5310C94B53108
:1000E0000C94B53147577057755751577A57C457C5
:1000F000C45751579857C4579D57A257A757AC5745
:10010000845789578E5751579357C4574C577F5729
:10011000B157B657BA57C457C457BE5750726570D7
:100120006172696E6720666F7220736C6565703AE4
:1001300049276D20636F6D706C6574696E6720610F
:100140006E792020717565756564206D6F766573B5
:100150002E004368616E67696E672046696C616D49
:10016000656E743A202049276D20636F6D706C6551
:1001700074696E6720616E7920207175657565649C
:10018000206D6F7665732E00494E56414C494420D0
:10019000544F4F4C3A2020202020202049207265C7
:1001A0006365697665642061204C65667420202053
:1001B000546F6F6C20636F6D616E642C2062757478
:1001C000204920206F6E6C792068617665206F6E03
:1001D0006520546F6F6C2E00494E56414C494420A7
:1001E000434F4D4D414E443A202020204920726516
:1001F000636569766564206120636F6D6D616E640F
:10020000666F7220612068656174656420706C613E
:1002100074652C20627574204920646F6E277420E9
:1002200068617665206F6E65004920736177206193
:1002300020676C6974636820696E206D795344206F
:10024000636172642E204966207468697320697343
:1002500020746865206669727374206572726F72AB
:100260002C2074727974686973206D6F64656C20DA
:10027000616761696E2E20202000492074696D65D8
:1002800064206F7574207768696C65202020617424
:1002900074656D7074696E6720746F206865617431
:1002A00020206D792065787472756465722E00491E
:1002B0002074696D6564206F7574207768696C655A
:1002C000202020617474656D7074696E6720746F8E
:1002D000206865617420206D7920706C6174666F90
:1002E000726D2E00507265706172696E6720666F64
:1002F0007220736C6565703A49276D20636F6F6C6F
:10030000696E67206D792020202020206865617447
:1003100065727320616E6420676F696E6720746F09
:100320006D79207761697420706F736974696F6E7D
:100330002E004368616E67696E672046696C616D67
:10034000656E743A202049276D20676F696E6720BB
:10035000746F206D792077616974706F7369746947
:100360006F6E2E0052657374617274696E672074CB
:100370006865204275696C6400546869732069730C
:10038000206E6F74207468652078336720766572FC
:1003900073696F6E204920776F726B20626573748A
:1003A00020776974682E20466F722068656C702013
:1003B0007365653A206D616B6572626F742E636F51
:1003C0006D2F68656C70202020004920616D2061D0
:1003D000205265706C696361746F7220322E5468AC
:1003E0006973206275696C6420697320666F72207E
:1003F0002020616E6F7468657220626F742E2053C6
:1004000065653A2020206D616B6572626F742E63A2
:100410006F6D2F68656C7000546865205265706C54
:100420006963617430720049276D2043616E6365B2
:100430006C6C696E672E2020202020506C656173E3
:100440006520576169742E002000486561746572EB
:10045000732073687574646F776E20202020647534
:100460006520746F20696E616374697669747920A0
:100470002020004578747275646572204F7665722D
:1004800068656174212020536F66747761726520FE
:1004900054656D70204C696D6974205265616368A4
:1004A00065642120506C65617365202020202053F5
:1004B000687574646F776E206F7220526573746113
:1004C00072740048656174696E67204661696C7575
:1004D000726521202020204D792065787472756422
:1004E00065727320617265206E6F746865617469EE
:1004F0006E672070726F7065726C792E20202043B9
:100500006865636B206D7920636F6E6E65637469D7
:100510006F6E730048656174696E67204661696C2F
:1005200075726521202020204D79206578747275C0
:100530006465727320617265202020206C6F73697E
:100540006E672074656D70657261747572652E20BA
:10055000436865636B206D7920636F6E6E656374AD
:10056000696F6E7300486561746572204572726FC1
:1005700072212020202020202049276D20726561D3
:1005800064696E67206F7574206F66202072616EDB
:1005900067652074656D7065726174757265732E20
:1005A00020436865636B206D7920636F6E6E6563B1
:1005B00074696F6E7300486561746572204572726C
:1005C0006F7221202020202020204D792074656D1D
:1005D00070657261747572652072656164736172B1
:1005E00065206661696C696E672120506C65617376
:1005F0006520436865636B206D7920636F6E6E655F
:100600006374696F6E73009302690000006900EE05
:10061000016900000069002601B801000000002007
:10062000065500000055002D085500000055004DEE
:100630000A550000005500400CAB000000AB002D37
:10064000095500000055002D085500000055004DCB
:100650000AAB000000550000000001C00D5500006D
:100660000055002D08560100000000C00D20015368
:1006700011BC005B12B10100000000C00DC80000F9
:10068000001400C00DC80000001400910E9001007D
:100690000014005A10900100001400C00D20030047
:1006A000000000C805C80000001400C805C800000C
:1006B000001400C805C80000001400DD04B00400E8
:1006C0000014007505C800000014007505C800007E
:1006D0000014007505C800000014009704B0040061
:1006E000000000B807550000005500B909AB000034
:1006F00000AB007D06550000005500C80555000000
:10070000005500B807AB000000AB00C8055500005D
:10071000005500DD04550000005500C805550000D7
:10072000005500B8075500000055007D0656010031
:100730000000003F03550000005500FA0C55000072
:100740000055003F03550000005500B90955000051
:100750000055003F035500000055002D09550000CD
:100760000055003F03550000005500EA0A550000FF
:100770000055003F03550000005500B909AB0000CB
:10078000000000534420436172642052656D6F760F
:1007900065640024F404D9201BC40C5C0E9804C4C6
:1007A000095F0265077101F405F900FB04B3004815
:1007B000048700C10369005803550003034500BEC8
:1007C000023A008402310053022A00290225000463
:1007D000022000E4011C00C8011900AF01170098B5
:1007E0000114008401130071011000610110005117
:1007F000010E0043010D0036010B002B010B002000
:10080000010B00150109000C01090003010800FBA0
:10081000000800F3000800EB000700E4000600DE1B
:10082000000600D8000600D2000600CC000500C774
:10083000000500C2000500BD000400B9000400B5B9
:10084000000400B1000400AD000400A9000400A5EC
:10085000000300A20003009F0004009B0003009817
:100860000003009500020093000300900003008D38
:100870000002008B00030088000200860002008452
:10088000000300810002007F0002007D0002007B67
:100890000002007900020077000100760002007477
:1008A00000020072000100710002006F0002006D82
:1008B0000001006C0002006A00010069000200678C
:1008C0000001006600010065000100640002006292
:1008D00000010061000100600001005F0002005D96
:1008E0000001005C0001005B0001005A000100599A
:1008F000000100580001005700010056000100559A
:100900000001005400010053000000530001005298
:1009100000010051000100500001004F0001004E95
:100920000000004E0001004D0001004C0001004B92
:100930000000004B0001004A00010049000100488E
:10094000000000480001004700010046000000468A
:100950000001004500000045000100440001004383
:10096000000000430001004200000042000100417D
:1009700000000041000100400001003F0000003F76
:100980000001003E0000003E0001003D0000003D6F
:100990000001003C0000003C0000003C0001003B66
:1009A0000000003B0001003A0000003A000100395D
:1009B0000000003900010038000000380000003855
:1009C000000100370000003700010036000000364B
:1009D0000000003600010035000000350000003541
:1009E0000001003400000034000000340001003336
:1009F000000000330000003300010032000000322C
:100A00000000003200010031000000310000003120
:100A10000001003000000030000000300001002F15
:100A20000000002F0000002F0000002F0001002E0A
:100A30000000002E0000002E0001002D0000002DFF
:100A40000000002D0000002D0001002C0000002CF3
:100A50000000002C0000002C0001002B0000002BE7
:100A60000000002B0000002B0001002A0000002ADB
:100A70000000002A0000002A0001002900000029CF
:100A800000000029000000290000002900010028C2
:100A900000000028000000280000002800000028B6
:100AA00000010027000000270000002700000027A9
:100AB000000000270001002600000026000000269C
:100AC000000000260000002600010025000000258F
:100AD0000000002500000025000000250000002582
:100AE0000001002400000024000000240000002475
:100AF0000000002400010023000000230000002368
:100B00000000002300000023000000230000002359
:100B1000000100220000002200000022000000224C
:100B2000000000220000002200010021000000213E
:100B30000000002100000021000000210000002131
:100B40000000002100010020000000200000002023
:100B50000000002000000020000000200000002015
:100B6000000000200001001F0000001F0000001F07
:100B70000000001F0000001F0000001F0000001FF9
:100B80000001001E0000001E0000001E0000001EEC
:100B900000000024F4D43050C38E20C2A24017823B
:100BA0008B7011127A910D816CD90AA861E108C786
:100BB000586607615143061E4B5D05C145A7041ADF
:100BC000411104093D9803713931034036DB026558
:100BD000339102D4305402802E1D02632CEE017535
:100BE0002AC501B028A001102781018F2564012B9F
:100BF000244B01E0223401AC211F018D200D018026
:100C00001FFC00841EED00971DDF00B81CD200E61B
:100C10001BC600201BBC00641AB200B219A8000A4F
:100C200019A0006A189900D117910040178B00B5E0
:100C300016840031167E00B31579003A157300C78B
:100C4000146F0058146A00EE1366008813630025C1
:100C5000135E00C7125B006C12570015125400C1DE
:100C600011510070114F0021114B00D61049008D19
:100C70001047004610440002104200C00F400080A0
:100C80000F3E00420F3C00060F3B00CB0E38009396
:100C90000E37005C0E3500270E3400F30D3200C114
:100CA0000D3100900D3000600D2E00320D2D00052D
:100CB0000D2C00D90C2B00AE0C2900850C29005CF2
:100CC0000C2700350C27000E0C2600E80B2400C46E
:100CD0000B2400A00B23007D0B23005A0B210039AD
:100CE0000B2100180B2000F80A1F00D90A1E00BBB8
:100CF0000A1E009D0A1D00800A1D00630A1C004791
:100D00000A1B002C0A1B00110A1A00F7091A00DD41
:100D1000091900C4091900AB091900920917007BD1
:100D2000091800630917004C09160036091600203F
:100D30000916000A091500F5081500E0081400CC92
:100D4000081400B8081400A4081400900813007DCB
:100D50000812006B081300580812004608120034ED
:100D6000081100230811001208110001081100F0F9
:100D7000071000E0071000D0071000C0071000B0F7
:100D8000070F00A107100091070E0083070F0074E2
:100D9000070F0065070E0057070E0049070E003BBE
:100DA000070D002E070E0020070D0013070D00068B
:100DB000070D00F9060C00ED060D00E0060C00D44E
:100DC000060C00C8060C00BC060C00B0060C00A403
:100DD000060B0099060C008D060B0082060B0077AF
:100DE000060B006C060B0061060A0057060B004C50
:100DF000060A0042060A0038060A002E060A0024E7
:100E0000060A001A060A001006090007060A00FD75
:100E1000050900F4050900EB050900E2050900D900
:100E2000050900D0050900C7050900BE050900B580
:100E3000050800AD050800A50509009C05080094FB
:100E40000508008C050800840508007C050800746E
:100E50000508006C050700650508005D05070056DC
:100E60000508004E05070047050700400508003843
:100E7000050700310507002A050700230507001CA8
:100E8000050600160507000F050700080506000205
:100E9000050700FB040600F5040700EE040600E861
:100EA000040600E2040700DB040600D5040600CFB8
:100EB000040600C9040600C3040600BD040600B70A
:100EC000040600B1040500AC040600A6040600A058
:100ED0000405009B04060095040500900406008AA2
:100EE00004050085040500800406007A04050075E9
:100EF000040500700405006B04050066040500612C
:100F00000405005C04050057040500520405004D6B
:100F100004050048040500430405003E0404003AAB
:100F200004050035040500300404002C04050027E6
:100F3000040400230405001E0404001A040400161F
:100F4000040500110404000D040400090405000454
:100F500004040000040400FC030400F8030400F48B
:100F6000030400F0030400EC030400E8030400E4BD
:100F7000030400E0030400DC030400D8030400D4ED
:100F8000030400D0030400CC030400C8030300C51D
:100F90000303009502000000506C656173652077C3
:100FA0006169742E2E2E00840369010000140083F1
:100FB000048800000014008C000000000000000005
:100FC00030F8FFFF00000000000000008E0000006D
:100FD0000000000000000000000000000000000011
:100FE0000057290400188304DC0500001400901F3A
:100FF000891F9502000000506C6561736520776160
:1010000069740084037D01000014008304880000DB
:101010000014008C000000000000000030F8FFFF0A
:1010200000000000000000008E0000000000000032
:10103000000000000000000000000000005729042C
:1010400000188304DC05000014008C97340000F3C2
:1010500019000000000000000000000000000095E2
:10106000000000005469676874656E2065616368FC
:10107000206F662074686520009501000000746888
:10108000726565206B6E6F627320756E6465722089
:101090002020009501000000746865206275696C6D
:1010A0006420706C6174666F726D2020009507007B
:1010B000000061626F757420666F757220747572BE
:1010C0006E732E00950000000049276D20676F6940
:1010D0006E6720746F206D6F7665206D79009501C5
:1010E00000000065787472756465722061726F75B6
:1010F0006E6420746F202000950100000064696612
:10110000666572656E7420706F696E747320736F9C
:1011100020009507000000796F752063616E2063E1
:101120006865636B2E2E2E009500000000746865C4
:10113000206865696768742E204174206561636862
:1011400020009501000000706F696E742C206C6F98
:101150006F73656E20746865202020009501000083
:1011600000737065636966696564206B6E6F6220E9
:10117000756E74696C009507000000746865206ED8
:101180006F7A7A6C6520616C6D6F73742E2E2E00F1
:101190009500000000746F7563686573207468655E
:1011A000206275696C6420202000950100000070A9
:1011B0006C6174652E20546865206E6F7A7A6C6558
:1011C0002069730095010000006174207468652037
:1011D000726967687420686569676874200095079C
:1011E0000000007768656E2061207468696E207069
:1011F000696563652E2E2E0095000000006F662045
:1012000070617065722077696C6C20736C696465BD
:10121000200095010000006265747765656E20749A
:101220006865206E6F7A7A6C652020009501000059
:1012300000616E64206275696C6420706C61746515
:10124000207769746800950700000020736F6D6552
:10125000206672696374696F6E2E0095020000004B
:10126000506C656173652077616974008E000000C1
:10127000003818000000000000000000000000001E
:10128000006C692E0018950000000041646A7573B7
:1012900074207468652072656172206B6E6F6200E5
:1012A0009501000000756E74696C20706170657244
:1012B000206A7573742020202000950100000073BF
:1012C0006C69646573206265747765656E20746807
:1012D0006520200095070000006E6F7A7A6C65200B
:1012E000616E6420706C61746500950200000050AE
:1012F0006C656173652077616974008E0000000081
:1013000038180000D00700000000000000000000B6
:10131000E0930400188E9C100000C8E7FFFFD00780
:1013200000000000000000000000802A2D00188E40
:101330009B100000C8E7FFFF000000000000000055
:1013400000000000E09304001895000000004164D4
:101350006A7573742066726F6E7420726967687440
:1013600020200095010000006B6E6F6220756E7486
:10137000696C20706170657220202020009501004A
:1013800000006A75737420736C696465732062650C
:10139000747765656E200095070000006E6F7A7A9D
:1013A0006C6520616E6420706C617465009502004C
:1013B0000000506C656173652077616974008E9CD4
:1013C000100000C8E7FFFFD0070000000000000089
:1013D000000000E0930400188E64EFFFFFC8E7FFF1
:1013E000FFD00700000000000000000000004C1DBE
:1013F00000188E65EFFFFFC8E7FFFF000000000048
:1014000000000000000000E09304001895000000B8
:101410000041646A7573742066726F6E74206C6527
:1014200066742020200095010000006B6E6F622022
:10143000756E74696C2070617065722020202000C8
:1014400095010000006A75737420736C696465739C
:10145000206265747765656E200095070000006E58
:101460006F7A7A6C6520616E6420706C61746500BF
:101470009502000000506C656173652077616974A6
:10148000008E64EFFFFFC8E7FFFFD00700000000F9
:10149000000000000000E093040018950000000028
:1014A0004E6F772049276D20676F696E6720746FD4
:1014B0002020202000950100000073656E64206DDF
:1014C0007920657874727564657220746F20009558
:1014D00001000000616C6C20746872656520706F9B
:1014E000696E74732020202000950700000061675A
:1014F00061696E20746F207265636865636B2E008E
:101500009502000000506C65617365207761697415
:10151000008E0000000038180000D0070000000016
:1015200000000000000080191B00188E0000000061
:10153000381800000000000000000000000000005B
:10154000E093040018950000000041646A7573740C
:10155000207468652072656172202020202000952B
:10156000010000006B6E6F6220756E74696C2070F4
:1015700061706572202020200095010000006A75CE
:10158000737420736C696465732062657477656534
:101590006E200095070000006E6F7A7A6C652061FE
:1015A0006E6420706C617465009502000000506CE0
:1015B000656173652077616974008E0000000038F2
:1015C000180000D00700000000000000000000E04C
:1015D000930400188E402B0000C8E7FFFFD00700DF
:1015E000000000000000000000A65D2200188E3FF1
:1015F0002B0000C8E7FFFF00000000000000000013
:10160000000000E093040018950000000041646AA7
:101610007573742066726F6E7420726967687420C7
:10162000200095010000006B6E6F6220756E74697A
:101630006C207061706572202020200095010000F0
:10164000006A75737420736C6964657320626574D5
:101650007765656E200095070000006E6F7A7A6CE2
:101660006520616E6420706C6174650095020000F5
:1016700000506C656173652077616974008E402B42
:101680000000C8E7FFFFD0070000000000000000D6
:101690000000E0930400188EC0D4FFFFC7E7FFFFEF
:1016A000D00700000000000000000000C0C62D00B0
:1016B000188EC1D4FFFFC8E7FFFF00000000000044
:1016C000000000000000E0930400189500000000F6
:1016D00041646A7573742066726F6E74206C6566FF
:1016E000742020200095010000006B6E6F62207551
:1016F0006E74696C207061706572202020200095E6
:10170000010000006A75737420736C69646573204E
:101710006265747765656E200095070000006E6F46
:101720007A7A6C6520616E6420706C6174650095D6
:1017300002000000506C6561736520776169740078
:101740008EC0D4FFFFC8E7FFFFD0070000000000F5
:101750000000000000E0930400188E00000000006C
:10176000000000D007000000000000000000009111
:101770003B1A00188E00000000000000000000006E
:10178000000000000000000000E093040018950035
:101790000000004E6F77206C6574277320747269A7
:1017A000706C6520202020009501000000636865B2
:1017B000636B2D2D2070617065722073686F756C7E
:1017C000640095010000006A75737420736C69648D
:1017D00065206265747765656E20200095070000BE
:1017E000006E6F7A7A6C6520616E6420706C617433
:1017F0006500891F9502000000506C6561736520CB
:10180000776169740084037D0100001400830488FB
:1018100000000014008C000000000000000030F800
:10182000FFFF00000000000000008E00000000002C
:101830000000000000000000000000000000005751
:10184000290400188304DC05000014008C97340080
:1018500000F319000000000000000000000000007C
:101860000095000000005469676874656E2065612A
:101870006368206F66207468652000950100000091
:101880007468726565206B6E6F627320756E646537
:1018900072202020009501000000746865206275A8
:1018A000696C6420706C6174666F726D20200095A5
:1018B0000700000061626F757420666F7572207496
:1018C00075726E732E00950000000049276D206729
:1018D0006F696E6720746F206D6F7665206D79007B
:1018E00095010000006578747275646572206172FC
:1018F0006F756E6420746F202000950100000064F5
:101900006966666572656E7420706F696E747320A7
:10191000736F20009507000000796F752063616E7A
:1019200020636865636B2E2E2E0095000000007406
:101930006865206865696768742E20417420656158
:10194000636820009501000000706F696E742C20A0
:101950006C6F6F73656E20746865202020009501A0
:10196000000000737065636966696564206B6E6F63
:101970006220756E74696C009507000000746865DC
:10198000206E6F7A7A6C6520616C6D6F73742E2E89
:101990002E009500000000746F75636865732074F5
:1019A0006865206275696C64202020009501000044
:1019B00000706C6174652E20546865206E6F7A7AB1
:1019C0006C652069730095010000006174207468E3
:1019D00065207269676874206865696768742000AB
:1019E00095070000007768656E2061207468696E55
:1019F0002070696563652E2E2E0095000000006F33
:101A0000662070617065722077696C6C20736C69F8
:101A10006465200095010000006265747765656E5D
:101A200020746865206E6F7A7A6C652020009501BD
:101A3000000000616E64206275696C6420706C61E6
:101A40007465207769746800950700000020736F43
:101A50006D65206672696374696F6E2E0095020071
:101A60000000506C656173652077616974008EB504
:101A70000500003818000000000000000000000011
:101A80000000002461290018950000000041646AEC
:101A9000757374207468652072656172206B6E6F57
:101AA00062009501000000756E74696C20706170B1
:101AB0006572206A75737420202020009501000053
:101AC00000736C69646573206265747765656E2068
:101AD00074686520200095070000006E6F7A7A6CAC
:101AE0006520616E6420706C617465009502000071
:101AF00000506C656173652077616974008EB6056E
:101B0000000038180000D0070000000000000000AE
:101B10000000E0930400188E51160000C8E7FFFF94
:101B2000D00700000000000000000000802A2D0007
:101B3000188E51160000C8E7FFFF000000000000EB
:101B4000000000000000E093040018950000000071
:101B500041646A7573742066726F6E74207269676F
:101B6000687420200095010000006B6E6F62207584
:101B70006E74696C20706170657220202020009561
:101B8000010000006A75737420736C6964657320CA
:101B90006265747765656E200095070000006E6FC2
:101BA0007A7A6C6520616E6420706C617465009552
:101BB00002000000506C65617365207761697400F4
:101BC0008E51160000C8E7FFFFD00700000000009C
:101BD0000000000000E0930400188E69F4FFFFC8C5
:101BE000E7FFFFD007000000000000000000003FFA
:101BF000E81D00188E68F4FFFFC8E7FFFF00000033
:101C0000000000000000000000E0930400189500B0
:101C100000000041646A7573742066726F6E7420F0
:101C20006C6566742020200095010000006B6E6FCB
:101C30006220756E74696C2070617065722020205E
:101C4000200095010000006A75737420736C69644C
:101C50006573206265747765656E200095070000E6
:101C6000006E6F7A7A6C6520616E6420706C6174AE
:101C700065009502000000506C6561736520776116
:101C80006974008E69F4FFFFC8E7FFFFD00700000A
:101C90000000000000000000E09304001895000020
:101CA00000004E6F772049276D20676F696E6720AF
:101CB000746F2020202000950100000073656E6481
:101CC000206D7920657874727564657220746F2058
:101CD000009501000000616C6C20746872656520DD
:101CE000706F696E7473202020200095070000003B
:101CF000616761696E20746F207265636865636BEC
:101D00002E009502000000506C65617365207761BC
:101D10006974008EB605000038180000D007000076
:101D2000000000000000000078381B00188EB50588
:101D30000000381800000000000000000000000053
:101D40000000E093040018950000000041646A75EB
:101D500073742074686520726561722020202020D1
:101D60000095010000006B6E6F6220756E74696CE7
:101D70002070617065722020202000950100000015
:101D80006A75737420736C69646573206265747717
:101D900065656E200095070000006E6F7A7A6C65AD
:101DA00020616E6420706C61746500950200000013
:101DB000506C656173652077616974008EB60500AB
:101DC0000038180000D007000000000000000000EC
:101DD00000E0930400188E2C290000C8E7FFFFD014
:101DE00007000000000000000000005AC51F001896
:101DF0008E2C290000C8E7FFFF0000000000000053
:101E00000000000000E0930400189500000000416D
:101E1000646A7573742066726F6E74207269676885
:101E20007420200095010000006B6E6F6220756EBB
:101E300074696C207061706572202020200095010B
:101E40000000006A75737420736C696465732062A6
:101E500065747765656E200095070000006E6F7AE7
:101E60007A6C6520616E6420706C61746500950207
:101E7000000000506C656173652077616974008EA5
:101E80002C290000C8E7FFFFD00700000000000079
:101E900000000000E0930400188E13E2FFFFC8E783
:101EA000FFFFD00700000000000000000000D0A0ED
:101EB0002500188E12E2FFFFC7E7FFFF00000000B9
:101EC0000000000000000000E093040018950000EE
:101ED000000041646A7573742066726F6E74206CC2
:101EE0006566742020200095010000006B6E6F6213
:101EF00020756E74696C20706170657220202020DE
:101F00000095010000006A75737420736C69646544
:101F100073206265747765656E2000950700000088
:101F20006E6F7A7A6C6520616E6420706C61746586
:101F3000009502000000506C65617365207761694F
:101F400074008E12E2FFFFC8E7FFFFD00700000019
:101F500000000000000000E0930400188EB60500A9
:101F60000000000000D0070000000000000000009A
:101F70000095CD1600188EB5050000000000000089
:101F80000000000000000000000000E093040018C2
:101F900095000000004E6F77206C657427732074E5
:101FA0007269706C6520202020009501000000639C
:101FB0006865636B2D2D2070617065722073686F8A
:101FC000756C640095010000006A75737420736C71
:101FD000696465206265747765656E2020009507E9
:101FE0000000006E6F7A7A6C6520616E6420706C00
:101FF00061746500891F99000000006E6F7A7A6C29
:102000006543616C6962726174696F6E009600006D
:10201000860084035201000014008304A60000001F
:1020200014008C000000000000000030F8FFFF00EA
:10203000000000000000008B000000000000000015
:10204000000000000000000000000000A6000000EA
:102050008304DC0500001400901F8C97340000F20C
:102060001900000000000000000000000000008BCC
:1020700040D9FFFFBFE6FFFF60EA0000000000005C
:1020800000000000800000009101149100149104F0
:102090001491031488001F026E008D006400580222
:1020A00088000302E60088010302E600870064005E
:1020B000580287016400580291017F91007F9104CA
:1020C0007F91037F8BC8E7FFFF09EBFFFF680100EB
:1020D000000000000000000000800000008BC8E746
:1020E000FFFF09EBFFFF68010000E4FFFFFF0000B6
:1020F00000000C0300008BC8E7FFFF09EBFFFFF0B7
:10210000000000D0FFFFFF000000003E0000008B39
:10211000C8E7FFFF09EBFFFFF0000000B3FFFFFF80
:1021200000000000850100008BF1D9FFFF09EBFFE3
:10213000FFF00000004FFEFFFF000000007F0300E3
:10214000008BC8E7FFFF88EEFFFFF00000007FFE76
:10215000FFFF00000000D30000008BC8E7FFFF88EE
:10216000EEFFFFF000000063FEFFFF0000000085AF
:102170000100008B67DDFFFF88EEFFFFF00000002D
:10218000FEFCFFFF00000000820300008BC8E7FF99
:10219000FF06F2FFFFF00000002EFDFFFF00000031
:1021A00000D80000008BC8E7FFFF06F2FFFFF00039
:1021B000000012FDFFFF00000000850100008B679A
:1021C000DDFFFF06F2FFFFF0000000ADFBFFFF00A8
:1021D000000000820300008BC8E7FFFF85F5FFFFCA
:1021E000F0000000DDFBFFFF00000000D800000051
:1021F0008BC8E7FFFF85F5FFFFF0000000C1FBFF84
:10220000FF00000000850100008B67DDFFFF85F502
:10221000FFFFF00000005CFAFFFF000000008203F7
:1022200000008BC8E7FFFF03F9FFFFF00000008DFF
:10223000FAFFFF00000000D80000008BC8E7FFFF96
:1022400003F9FFFFF000000070FAFFFF000000003C
:10225000850100008B67DDFFFF03F9FFFFF0000041
:10226000000BF9FFFF00000000820300008BC8E7AD
:10227000FFFF82FCFFFFF00000003CF9FFFF0000C1
:102280000000D80000008BC8E7FFFF82FCFFFFF0D2
:102290000000001FF9FFFF00000000850100008B17
:1022A00067DDFFFF82FCFFFFF0000000BAF7FFFFD1
:1022B00000000000820300008BC8E7FFFF00000061
:1022C00000F0000000EBF7FFFF00000000D8000066
:1022D000008BC8E7FFFF00000000F0000000CEF711
:1022E000FFFF00000000850100008B67DDFFFF009D
:1022F000000000F000000069F6FFFF00000000820F
:102300000300008BC8E7FFFF7E030000F000000021
:102310009AF6FFFF00000000D80000008BC8E7FF1E
:10232000FF7E030000F00000007DF6FFFF000000CC
:1023300000850100008B67DDFFFF7E030000F000D9
:10234000000019F5FFFF00000000820300008BC8A9
:10235000E7FFFFFD060000F000000049F5FFFF0069
:10236000000000D80000008BC8E7FFFFFD0600005A
:10237000F00000002CF5FFFF0000000085010000C8
:102380008B67DDFFFFFD060000F0000000C8F3FFD3
:10239000FF00000000820300008BC8E7FFFF7B0AFC
:1023A0000000F0000000F8F3FFFF00000000D8007C
:1023B00000008BC8E7FFFF7B0A0000F0000000DB95
:1023C000F3FFFF00000000850100008B67DDFFFFC9
:1023D0007B0A0000F000000077F2FFFF0000000021
:1023E000820300008BC8E7FFFFFA0D0000F0000039
:1023F00000A7F2FFFF00000000D80000008BC8E734
:10240000FFFFFA0D0000F00000008AF2FFFF00005D
:102410000000850100008B67DDFFFFFA0D0000F072
:1024200000000026F1FFFF00000000820300008B87
:10243000C8E7FFFF78110000F000000056F1FFFF31
:1024400000000000D80000008BC8E7FFFF781100F3
:1024500000F000000039F1FFFF00000000850100DE
:10246000008B67DDFFFF78110000F0000000D5EF62
:10247000FFFF00000000820300008BC8E7FFFFF7AA
:10248000140000F000000005F0FFFF00000000D87D
:102490000000008BC8E7FFFFF7140000F000000009
:1024A000E8EFFFFF00000000850100008B67DDFF03
:1024B000FFF7140000F000000084EEFFFF000000B2
:1024C00000820300008B6AF5FFFF15F9FFFF68012A
:1024D0000000B4EEFFFF000000000E0100008B6A58
:1024E000F5FFFF15F9FFFFF000000084EEFFFF008D
:1024F0000000009C0000008B6AF5FFFF15F9FFFF4C
:10250000F000000067EEFFFF000000008501000002
:102510008B6AF5FFFFEB060000F000000003EDFF03
:10252000FF000000007F0300008BE9F8FFFF15F9B2
:10253000FFFFF000000033EDFFFF00000000D300BC
:1025400000008BE9F8FFFF15F9FFFFF0000000160F
:10255000EDFFFF00000000850100008BE9F8FFFFA0
:1025600075030000F0000000B2EBFFFF0000000068
:10257000820300008B67FCFFFF15F9FFFFF00000EE
:1025800000E2EBFFFF00000000D80000008B67FCBA
:10259000FFFF15F9FFFFF0000000C5EBFFFF000093
:1025A0000000850100008B67FCFFFF75030000F051
:1025B00000000061EAFFFF00000000820300008BC2
:1025C000E6FFFFFF15F9FFFFF000000091EAFFFFB3
:1025D00000000000D80000008BE6FFFFFF15F9FFA8
:1025E000FFF000000074EAFFFF000000008501001A
:1025F000008BE6FFFFFF75030000F000000010E90C
:10260000FFFF00000000820300008B640300001540
:10261000F9FFFFF000000040E9FFFF00000000D8D4
:102620000000008B6403000015F9FFFFF0000000BC
:1026300023E9FFFF00000000850100008B64030018
:102640000075030000F0000000BFE7FFFF0000007E
:1026500000820300008BE206000015F9FFFFF00086
:102660000000EFE7FFFF00000000D80000008BE251
:1026700006000015F9FFFFF0000000D2E7FFFF00A1
:10268000000000850100008BE206000075030000D9
:10269000F00000006EE6FFFF000000008203000073
:1026A0008B610A000015F9FFFFF00000009EE6FFB5
:1026B000FF00000000D80000008B610A000015F93F
:1026C000FFFFF000000081E6FFFF00000000850131
:1026D00000008B610A000075030000F00000001D7F
:1026E000E5FFFF00000000820300008BDF0D00000B
:1026F00015F9FFFFF00000004DE5FFFF00000000AE
:10270000D80000008BDF0D000015F9FFFFF000007E
:102710000030E5FFFF00000000850100008BDF0DA9
:10272000000075030000F0000000CCE3FFFF000094
:102730000000820300008B5E11000015F9FFFFF01E
:10274000000000FCE3FFFF00000000D80000008B49
:102750005E11000015F9FFFFF0000000DFE3FFFF4E
:1027600000000000850100008B5E11000075030071
:1027700000F00000007BE2FFFF0000000082030089
:10278000008BDC14000015F9FFFFF0000000ABE245
:10279000FFFF00000000D80000008BDC14000015D3
:1027A000F9FFFFF00000008EE2FFFF00000000854F
:1027B0000100008BDC14000075030000F000000035
:1027C0002AE1FFFF00000000820300008B5B18007D
:1027D0000015F9FFFFF00000005AE1FFFF000000C4
:1027E00000D80000008B5B18000015F9FFFFF00017
:1027F00000003DE1FFFF00000000850100008B5B51
:1028000018000075030000F0000000D9DFFFFF0092
:10281000000000820300008BDA1B000015F9FFFFA7
:10282000F000000009E0FFFF00000000D8000000F9
:102830008BDA1B000015F9FFFFF0000000ECDFFF52
:10284000FF00000000850100008BDA1B000075030B
:102850000000F000000088DEFFFF0000000082039F
:1028600000008B581F000015F9FFFFF0000000B8B2
:10287000DEFFFF00000000D80000008B581F0000A2
:1028800015F9FFFFF00000009BDEFFFF00000000D5
:10289000850100008B581F000075030000F0000048
:1028A0000037DDFFFF00000000820300008B581F8F
:1028B000000075030000F000000067DDFFFF00006E
:1028C00000000C0300008C581F000075030000F08E
:1028D0000000000000000000000000860189188B45
:1028E000C8E7FFFF3EEBFFFF6801000000000000AB
:1028F00000000000DF0000008BC8E7FFFF3EEBFF99
:10290000FF6801000000000000E4FFFFFF0C03006F
:10291000008BC8E7FFFF3EEBFFFFF0000000000068
:102920000000D0FFFFFF3E0000008BC8E7FFFF3E26
:10293000EBFFFFF000000000000000B3FFFFFF8589
:102940000100008B2AF2FFFF3EEBFFFFF0000000CA
:10295000000000004FFEFFFF820300008BC8E7FF6E
:10296000FFB4EEFFFFF0000000000000007FFEFF5C
:10297000FFD80000008BC8E7FFFFB4EEFFFFF000B8
:1029800000000000000063FEFFFF850100008B2AAD
:10299000F2FFFFB4EEFFFFF000000000000000FEB9
:1029A000FCFFFF820300008BC8E7FFFF2AF2FFFF56
:1029B000F0000000000000002EFDFFFFD800000026
:1029C0008BC8E7FFFF2AF2FFFFF0000000000000C5
:1029D0000012FDFFFF850100008B2AF2FFFF2AF2A3
:1029E000FFFFF000000000000000ADFBFFFF8203CE
:1029F00000008BC8E7FFFF9FF5FFFFF0000000001D
:102A0000000000DDFBFFFFD80000008BC8E7FFFFE0
:102A10009FF5FFFFF000000000000000C1FBFFFF7A
:102A2000850100008B2AF2FFFF9FF5FFFFF00000F9
:102A300000000000005CFAFFFF820300008BC8E783
:102A4000FFFF15F9FFFFF0000000000000008DFA05
:102A5000FFFFD80000008BC8E7FFFF15F9FFFFF06C
:102A60000000000000000070FAFFFF850100008BED
:102A70002AF2FFFF15F9FFFFF00000000000000040
:102A80000BF9FFFF820300008BC8E7FFFF8BFCFF01
:102A9000FFF0000000000000003CF9FFFFD800003C
:102AA000008BC8E7FFFF8BFCFFFFF0000000000079
:102AB00000001FF9FFFF850100008B2AF2FFFF8B4A
:102AC000FCFFFFF000000000000000BAF7FFFF82EB
:102AD0000300008BC8E7FFFF00000000F0000000CB
:102AE00000000000EBF7FFFFD80000008BC8E7FFF5
:102AF000FF00000000F000000000000000CEF7FF23
:102B0000FF850100008B2AF2FFFF00000000F000AB
:102B100000000000000069F6FFFF820300008BC880
:102B2000E7FFFF75030000F0000000000000009ABE
:102B3000F6FFFFD80000008BC8E7FFFF7503000019
:102B4000F0000000000000007DF6FFFF850100009E
:102B50008B2AF2FFFF75030000F000000000000068
:102B60000019F5FFFF820300008BC8E7FFFFEB06AB
:102B70000000F00000000000000049F5FFFFD80051
:102B800000008BC8E7FFFFEB060000F0000000002C
:102B90000000002CF5FFFF850100008B2AF2FFFFEB
:102BA000EB060000F000000000000000C8F3FFFF8B
:102BB000820300008BC8E7FFFF610A0000F00000FD
:102BC0000000000000F8F3FFFFD80000008BC8E70A
:102BD000FFFF610A0000F000000000000000DBF3CE
:102BE000FFFF850100008B2AF2FFFF610A0000F061
:102BF0000000000000000077F2FFFF820300008B5E
:102C0000C8E7FFFFD60D0000F00000000000000044
:102C1000A7F2FFFFD80000008BC8E7FFFFD60D002A
:102C200000F0000000000000008AF2FFFF850100B4
:102C3000008B2AF2FFFFD60D0000F000000000001C
:102C4000000026F1FFFF820300008BC8E7FFFF4C66
:102C5000110000F00000000000000056F1FFFFD856
:102C60000000008BC8E7FFFF4C110000F0000000DF
:102C70000000000039F1FFFF850100008B2AF2FF00
:102C8000FF4C110000F000000000000000D5EFFF35
:102C9000FF820300008BC8E7FFFFC2140000F000B2
:102CA00000000000000005F0FFFFD80000008BC806
:102CB000E7FFFFC2140000F000000000000000E881
:102CC000EFFFFF850100008B2AF2FFFFC214000016
:102CD000F00000000000000084EEFFFF820300000F
:102CE0008B9FF5FFFFB4EEFFFF68010000000000BE
:102CF00000B4EEFFFFCE0000008B9FF5FFFFB4EEA7
:102D0000FFFFF00000000000000084EEFFFF9C00C9
:102D100000008B9FF5FFFFB4EEFFFFF00000000006
:102D200000000067EEFFFF850100008B9FF5FFFFAD
:102D300015F9FFFFF00000000000000003EDFFFFA9
:102D4000820300008B15F9FFFFB4EEFFFFF00000D7
:102D5000000000000033EDFFFFD80000008B15F9E4
:102D6000FFFFB4EEFFFFF00000000000000016EDD2
:102D7000FFFF850100008B15F9FFFF15F9FFFFF03C
:102D800000000000000000B2EBFFFF820300008B98
:102D90008BFCFFFFB4EEFFFFF0000000000000001E
:102DA000E2EBFFFFD80000008B8BFCFFFFB4EEFFCF
:102DB000FFF000000000000000C5EBFFFF850100F0
:102DC000008B8BFCFFFF15F9FFFFF00000000000F7
:102DD000000061EAFFFF820300008B00000000B4E6
:102DE000EEFFFFF00000000000000091EAFFFFD8B6
:102DF0000000008B00000000B4EEFFFFF0000000B8
:102E00000000000074EAFFFF850100008B00000055
:102E10000015F9FFFFF00000000000000010E9FFBE
:102E2000FF820300008B75030000B4EEFFFFF0008B
:102E300000000000000040E9FFFFD80000008B7593
:102E4000030000B4EEFFFFF00000000000000023CC
:102E5000E9FFFF850100008B7503000015F9FFFFF6
:102E6000F000000000000000BFE7FFFF8203000049
:102E70008BEB060000B4EEFFFFF000000000000046
:102E800000EFE7FFFFD80000008BEB060000B4EE78
:102E9000FFFFF000000000000000D2E7FFFF850107
:102EA00000008BEB06000015F9FFFFF000000000AA
:102EB0000000006EE6FFFF820300008B610A000045
:102EC000B4EEFFFFF0000000000000009EE6FFFFF0
:102ED000D80000008B610A0000B4EEFFFFF0000094
:102EE000000000000081E6FFFF850100008B610A01
:102EF000000015F9FFFFF0000000000000001DE5D4
:102F0000FFFF820300008BD60D0000B4EEFFFFF040
:102F1000000000000000004DE5FFFFD80000008B1E
:102F2000D60D0000B4EEFFFFF0000000000000002E
:102F300030E5FFFF850100008BD60D000015F9FF7D
:102F4000FFF000000000000000CCE3FFFF82030060
:102F5000008B4C110000B4EEFFFFF00000000000F9
:102F60000000FCE3FFFFD80000008B4C110000B410
:102F7000EEFFFFF000000000000000DFE3FFFF8530
:102F80000100008B4C11000015F9FFFFF00000005C
:102F9000000000007BE2FFFF820300008BC21400F0
:102FA00000B4EEFFFFF000000000000000ABE2FF05
:102FB000FFD80000008BC2140000B4EEFFFFF00049
:102FC0000000000000008EE2FFFF850100008BC2C0
:102FD00014000015F9FFFFF0000000000000002AB7
:102FE000E1FFFF820300008B38180000B4EEFFFF02
:102FF000F0000000000000005AE1FFFFD8000000D0
:103000008B38180000B4EEFFFFF000000000000055
:10301000003DE1FFFF850100008B3818000015F925
:10302000FFFFF000000000000000D9DFFFFF820377
:1030300000008BAD1B0000B4EEFFFFF000000000AD
:1030400000000009E0FFFFD80000008BAD1B00006E
:10305000B4EEFFFFF000000000000000ECDFFFFF17
:10306000850100008BAD1B000015F9FFFFF000008B
:10307000000000000088DEFFFF820300008B231F9A
:103080000000B4EEFFFFF000000000000000B8DE1A
:10309000FFFFD80000008B231F0000B4EEFFFFF0FD
:1030A000000000000000009BDEFFFF850100008B98
:1030B000231F000015F9FFFFF000000000000000D2
:1030C00037DDFFFF820300008B231F000015F9FF8F
:1030D000FF30F200000000000037DDFFFFC50000F8
:1030E00000890088000302000088010302000088B4
:1030F000001F0200005F000208FF1000009900009E
:103100000000504F53545F4C4556454C009600000C
:1031100084035201000014008304A6000000140080
:103120008C000000000000000030F8FFFF000000ED
:1031300000000000008B0000000000000000000004
:1031400000000000000000000000A6000000830452
:10315000DC0500001400901F8C97340000F2190069
:10316000000000000000000000000000008B40D9BB
:10317000FFFFBFE6FFFF60EA000000000000000064
:10318000000080000000910114910014910414913A
:10319000031488001F026E008D0064005802860030
:1031A00088000302E60087006400580291017F91C5
:1031B000007F91047F91037F8BCED9FFFF66E6FFEE
:1031C000FF6C000000000000000000000080000014
:1031D000008BCED9FFFF66E6FFFF6C000000A0FF6A
:1031E000FFFF00000000070200008B0CDAFFFF5A0F
:1031F000ECFFFF6C000000FBFEFFFF000000001B67
:103200000100008B0CDAFFFF5AECFFFF6C0000009E
:103210005BFFFFFF00000000070200009603008B29
:103220000CDAFFFF5AECFFFF6C000000FBFEFFFF13
:1032300000000000070200008B16DAFFFF50ECFFD1
:10324000FF6C000000FAFEFFFF000000008F01008D
:10325000008BDCDCFFFF50ECFFFF6C000000D7FEB2
:10326000FFFF000000001A0100008BE7DCFFFF5A9F
:10327000ECFFFF6C000000D6FEFFFF000000008F97
:103280000100008BE7DCFFFF20EFFFFF6C00000078
:10329000B3FEFFFF000000001A0100008BDCDCFF22
:1032A000FF2AEFFFFF6C000000B2FEFFFF000000EE
:1032B000008F0100008B16DAFFFF2AEFFFFF6C0082
:1032C00000008EFEFFFF000000001A0100008B0CC2
:1032D000DAFFFF20EFFFFF6C0000008EFEFFFF0013
:1032E0000000008F0100008B0CDAFFFF5AECFFFF9B
:1032F0006C0000006AFEFFFF000000001A010000E1
:103300009604008B05DAFFFF49ECFFFF6C0000001C
:1033100069FEFFFF000000002F0100009606008BF1
:1033200005DAFFFF31EFFFFF6C00000044FEFFFFF6
:10333000000000001A0100008BEDDCFFFF31EFFF01
:10334000FF6C0000001FFEFFFF000000001A0100DC
:10335000008BEDDCFFFF49ECFFFF6C000000FAFD85
:10336000FFFF000000001A0100008B05DAFFFF4993
:10337000ECFFFF6C000000D5FDFFFF000000001A0D
:10338000010000960A008B05DAFFFF49ECFFFF6C95
:1033900000000035FEFFFF00000000070200008B68
:1033A0000CDAFFFF9EFEFFFF6C00000035FEFFFF02
:1033B00000000000E10000008B0CDAFFFF9EFEFF22
:1033C000FF6C000000D5FDFFFF00000000070200B9
:1033D000008B16DAFFFF93FEFFFF6C000000D4FDA8
:1033E000FFFF000000008F0100008BDCDCFFFF937B
:1033F000FEFFFF6C000000B1FDFFFF000000001A9F
:103400000100008BE7DCFFFF9EFEFFFF6C00000069
:10341000B0FDFFFF000000008F0100008BE7DCFF24
:10342000FF620100006C0000008CFDFFFF00000047
:10343000001A0100008BDCDCFFFF6D0100006C0056
:1034400000008CFDFFFF000000008F0100008B16C4
:10345000DAFFFF6D0100006C00000068FDFFFF0057
:103460000000001A0100008B0CDAFFFF620100006F
:103470006C00000068FDFFFF000000008F010000ED
:103480008B0CDAFFFF9EFEFFFF6C00000044FDFF87
:10349000FF000000001A010000960B008B05DAFF08
:1034A000FF8DFEFFFF6C00000043FDFFFF000000EA
:1034B000002F010000960D008B05DAFFFF7301005D
:1034C000006C0000001EFDFFFF000000001A01005C
:1034D000008BEDDCFFFF730100006C000000F9FCC5
:1034E000FFFF000000001A0100008BEDDCFFFF8DE4
:1034F000FEFFFF6C000000D4FCFFFF000000001A7C
:103500000100008B05DAFFFF8DFEFFFF6C0000005D
:10351000AFFCFFFF000000001A0100009611008BB5
:1035200005DAFFFF8DFEFFFF6C0000000FFDFFFFBF
:1035300000000000070200008B0CDAFFFFE0100023
:10354000006C0000000FFDFFFF00000000E1000024
:10355000008B0CDAFFFFE01000006C000000AFFCF5
:10356000FFFF00000000070200008B16DAFFFFD605
:103570001000006C000000AEFCFFFF000000008F98
:103580000100008BDCDCFFFFD61000006C000000A7
:103590008AFCFFFF000000001A0100008BE7DCFF3F
:1035A000FFE01000006C0000008AFCFFFF0000003C
:1035B000008F0100008BE7DCFFFFA61300006C000A
:1035C000000066FCFFFF000000001A0100008BDC19
:1035D000DCFFFFB01300006C00000066FCFFFF0082
:1035E0000000008F0100008B16DAFFFFB01300000F
:1035F0006C00000042FCFFFF000000001A01000008
:103600008B0CDAFFFFA61300006C00000041FCFFEA
:10361000FF000000008F0100008B0CDAFFFFE010BC
:1036200000006C0000001EFCFFFF000000001A01FB
:1036300000008B05DAFFFFCF1000006C0000001DBA
:10364000FCFFFF000000002F0100009613008B0517
:10365000DAFFFFB71300006C000000F8FBFFFF006B
:103660000000001A0100008BEDDCFFFFB713000023
:103670006C000000D3FBFFFF000000001A010000F7
:103680008BEDDCFFFFCF1000006C000000AEFBFFF5
:10369000FF000000001A0100008B05DAFFFFCF10C9
:1036A00000006C00000088FBFFFF000000001A0112
:1036B00000009617008B05DAFFFFCF1000006C00AA
:1036C0000000E9FBFFFF00000000070200008B5034
:1036D000ECFFFFE01000006C000000E9FBFFFF00C2
:1036E000000000E10000008B50ECFFFFE010000044
:1036F0006C00000088FBFFFF0000000007020000D4
:103700008B5AECFFFFD61000006C00000088FBFF16
:10371000FF000000008F0100008B20EFFFFFD6109C
:1037200000006C00000064FBFFFF000000001A01B5
:1037300000008B2AEFFFFFE01000006C0000006328
:10374000FBFFFF000000008F0100008B2AEFFFFF4E
:10375000A61300006C00000040FBFFFF000000000B
:103760001A0100008B20EFFFFFB01300006C000077
:10377000003FFBFFFF000000008F0100008B5AECB0
:10378000FFFFB01300006C0000001CFBFFFF0000F7
:1037900000001A0100008B50ECFFFFA61300006C24
:1037A0000000001BFBFFFF000000008F0100008BEA
:1037B00050ECFFFFE01000006C000000F8FAFFFF83
:1037C000000000001A0100009618008B49ECFFFF72
:1037D000CF1000006C000000F7FAFFFF00000000AF
:1037E0002F010000961A008B49ECFFFFB713000071
:1037F0006C000000D2FAFFFF000000001A01000078
:103800008B31EFFFFFB71300006C000000ACFAFF34
:10381000FF000000001A0100008B31EFFFFFCF1006
:1038200000006C00000087FAFFFF000000001A0192
:1038300000008B49ECFFFFCF1000006C000000621D
:10384000FAFFFF000000001A010000961E008B49DD
:10385000ECFFFFCF1000006C000000C2FAFFFF0079
:10386000000000070200008B50ECFFFF9EFEFFFFF0
:103870006C000000C2FAFFFF00000000E100000041
:103880008B50ECFFFF9EFEFFFF6C00000062FAFF12
:10389000FF00000000070200008B5AECFFFF93FEC0
:1038A000FFFF6C00000061FAFFFF000000008F01C5
:1038B00000008B20EFFFFF93FEFFFF6C0000003E37
:1038C000FAFFFF000000001A0100008B2AEFFFFF43
:1038D0009EFEFFFF6C0000003DFAFFFF00000000AD
:1038E0008F0100008B2AEFFFFF620100006C0000D7
:1038F000001AFAFFFF000000001A0100008B20EF01
:10390000FFFF6D0100006C00000019FAFFFF0000CE
:1039100000008F0100008B5AECFFFF6D0100006C6E
:10392000000000F6F9FFFF000000001A0100008B04
:1039300050ECFFFF620100006C000000F5F9FFFF92
:10394000000000008F0100008B50ECFFFF9EFEFF87
:10395000FF6C000000D1F9FFFF000000001A010019
:1039600000961F008B49ECFFFF8DFEFFFF6C0000EF
:1039700000D0F9FFFF000000002F01000096210099
:103980008B49ECFFFF730100006C000000ABF9FFF6
:10399000FF000000001A0100008B31EFFFFF7301F0
:1039A00000006C00000086F9FFFF000000001A0113
:1039B00000008B31EFFFFF8DFEFFFF6C0000006108
:1039C000F9FFFF000000001A0100008B49ECFFFF27
:1039D0008DFEFFFF6C0000003CF9FFFF00000000BF
:1039E0001A0100009624008B49ECFFFF8DFEFFFFBB
:1039F0006C0000009CF9FFFF0000000007020000BF
:103A00008B50ECFFFF5AECFFFF6C0000009CF9FFAD
:103A1000FF00000000E10000008B50ECFFFF5AECBB
:103A2000FFFF6C0000003CF9FFFF000000000702F0
:103A300000008B5AECFFFF50ECFFFF6C0000003BD6
:103A4000F9FFFF000000008F0100008B20EFFFFF57
:103A500050ECFFFF6C00000018F9FFFF00000000B1
:103A60001A0100008B2AEFFFFF5AECFFFF6C0000E9
:103A70000017F9FFFF000000008F0100008B2AEF04
:103A8000FFFF20EFFFFF6C000000F4F8FFFF0000D5
:103A900000001A0100008B20EFFFFF2AEFFFFF6CF0
:103AA000000000F3F8FFFF000000008F0100008B12
:103AB0005AECFFFF2AEFFFFF6C000000CFF8FFFF7A
:103AC000000000001A0100008B50ECFFFF20EFFF08
:103AD000FF6C000000CFF8FFFF000000008F010026
:103AE000008B50ECFFFF5AECFFFF6C000000ABF8BE
:103AF000FFFF000000001A0100009625008B49EC32
:103B0000FFFF49ECFFFF6C000000AAF8FFFF000078
:103B100000002F0100009627008B49ECFFFF31EFDA
:103B2000FFFF6C00000085F8FFFF000000001A0195
:103B300000008B31EFFFFF31EFFFFF6C00000060F2
:103B4000F8FFFF000000001A0100008B31EFFFFFBB
:103B500049ECFFFF6C0000003BF8FFFF0000000095
:103B60001A0100008B49ECFFFF49ECFFFF6C0000DD
:103B70000016F8FFFF000000001A010000962B005D
:103B80008B49ECFFFF49ECFFFF6C00000076F8FF6B
:103B9000FF00000000070200008B93FEFFFF5AECBD
:103BA000FFFF6C00000076F8FFFF00000000E1005E
:103BB00000008B93FEFFFF5AECFFFF6C0000001625
:103BC000F8FFFF00000000070200008B9EFEFFFFD1
:103BD00050ECFFFF6C00000015F8FFFF0000000034
:103BE0008F0100008B6201000050ECFFFF6C0000B1
:103BF00000F2F7FFFF000000001A0100008B6D01CA
:103C000000005AECFFFF6C000000F1F7FFFF00001E
:103C100000008F0100008B6D01000020EFFFFF6CA2
:103C2000000000CDF7FFFF000000001A0100008B2C
:103C3000620100002AEFFFFF6C000000CDF7FFFFDC
:103C4000000000008F0100008B9EFEFFFF2AEFFFA7
:103C5000FF6C000000A9F7FFFF000000001A010040
:103C6000008B93FEFFFF20EFFFFF6C000000A8F722
:103C7000FFFF000000008F0100008B93FEFFFF5A42
:103C8000ECFFFF6C00000085F7FFFF000000001A4A
:103C9000010000962C008B8DFEFFFF49ECFFFF6CAE
:103CA00000000084F7FFFF000000002F01000096D5
:103CB0002E008B8DFEFFFF31EFFFFF6C0000005FD9
:103CC000F7FFFF000000001A0100008B73010000E5
:103CD00031EFFFFF6C0000003AF7FFFF000000002B
:103CE0001A0100008B7301000049ECFFFF6C00001B
:103CF0000015F7FFFF000000001A0100008B8DFE89
:103D0000FFFF49ECFFFF6C000000F0F6FFFF000032
:103D100000001A0100009632008B8DFEFFFF49EC77
:103D2000FFFF6C00000050F7FFFF000000000702DB
:103D300000008B93FEFFFF9EFEFFFF6C0000005013
:103D4000F7FFFF00000000E10000008B93FEFFFF83
:103D50009EFEFFFF6C000000F0F6FFFF0000000079
:103D6000070200008B9EFEFFFF93FEFFFF6C00002A
:103D700000EFF6FFFF000000008F0100008B6201E2
:103D8000000093FEFFFF6C000000CBF6FFFF000079
:103D900000001A0100008B6D0100009EFEFFFF6C09
:103DA000000000CBF6FFFF000000008F0100008B39
:103DB0006D010000620100006C000000A7F6FFFF2B
:103DC000000000001A0100008B620100006D01007C
:103DD000006C000000A6F6FFFF000000008F01004D
:103DE000008B9EFEFFFF6D0100006C00000083F65B
:103DF000FFFF000000001A0100008B93FEFFFF622E
:103E00000100006C00000082F6FFFF000000008F40
:103E10000100008B93FEFFFF9EFEFFFF6C00000081
:103E20005FF6FFFF000000001A0100009633008BD0
:103E30008DFEFFFF8DFEFFFF6C0000005EF6FFFFB2
:103E4000000000002F0100009635008B8DFEFFFF63
:103E5000730100006C00000039F6FFFF0000000055
:103E60001A0100008B73010000730100006C000058
:103E70000014F6FFFF000000001A0100008B730120
:103E800000008DFEFFFF6C000000EEF5FFFF00005C
:103E900000001A0100008B8DFEFFFF8DFEFFFF6CFE
:103EA000000000C9F5FFFF000000001A01000096A5
:103EB00038008B8DFEFFFF8DFEFFFF6C0000002A97
:103EC000F6FFFF00000000070200008B93FEFFFFDB
:103ED000E01000006C0000002AF6FFFF0000000068
:103EE000E10000008B93FEFFFFE01000006C00007B
:103EF00000C9F5FFFF00000000070200008B9EFED6
:103F0000FFFFD61000006C000000C9F5FFFF0000A5
:103F100000008F0100008B62010000D61000006CD1
:103F2000000000A5F5FFFF000000001A0100008B53
:103F30006D010000E01000006C000000A4F5FFFF20
:103F4000000000008F0100008B6D010000A613002F
:103F5000006C00000081F5FFFF000000001A010066
:103F6000008B62010000B01300006C00000080F5BF
:103F7000FFFF000000008F0100008B9EFEFFFFB0DE
:103F80001300006C0000005DF5FFFF000000001A48
:103F90000100008B93FEFFFFA61300006C000000E1
:103FA0005CF5FFFF000000008F0100008B93FEFF17
:103FB000FFE01000006C00000039F5FFFF0000007A
:103FC000001A0100009639008B8DFEFFFFCF100014
:103FD000006C00000038F5FFFF000000002F01001A
:103FE00000963B008B8DFEFFFFB71300006C0000B6
:103FF0000013F5FFFF000000001A0100008B7301A1
:104000000000B71300006C000000EDF4FFFF00009B
:1040100000001A0100008B73010000CF1000006C3B
:10402000000000C8F4FFFF000000001A0100008B30
:104030008DFEFFFFCF1000006C000000A3F4FFFF17
:10404000000000001A010000963F008B8DFEFFFF6C
:10405000CF1000006C00000003F5FFFF000000001F
:10406000070200008BD6100000E01000006C00007A
:104070000003F5FFFF00000000E10000008BD610F8
:104080000000E01000006C000000A3F4FFFF00003F
:104090000000070200008BE0100000D61000006C4A
:1040A000000000A2F4FFFF000000008F0100008B61
:1040B000A6130000D61000006C0000007FF4FFFF84
:1040C000000000001A0100008BB0130000E0100097
:1040D000006C0000007EF4FFFF000000008F010074
:1040E000008BB0130000A61300006C0000005BF40E
:1040F000FFFF000000001A0100008BA6130000B0B3
:104100001300006C0000005AF4FFFF000000008F55
:104110000100008BE0100000B01300006C000000F4
:1041200037F4FFFF000000001A0100008BD61000DA
:1041300000A61300006C00000036F4FFFF00000032
:10414000008F0100008BD6100000E01000006C0012
:10415000000012F4FFFF000000001A01000096406A
:10416000008BCF100000CF1000006C00000012F494
:10417000FFFF000000002F0100009642008BCF10CF
:104180000000B71300006C000000ECF3FFFF00001C
:1041900000001A0100008BB7130000B71300006C79
:1041A000000000C7F3FFFF000000001A0100008BB1
:1041B000B7130000CF1000006C000000A2F3FFFF57
:1041C000000000001A0100008BCF100000CF10008B
:1041D000006C0000007DF3FFFF000000001A0100EA
:1041E000009646008BCF100000CF1000006C00003E
:1041F00000DDF3FFFF00000000070200008BE0106D
:10420000000093FEFFFF6C000000DDF3FFFF0000E5
:104210000000E10000008BE010000093FEFFFF6C47
:104220000000007DF3FFFF00000000070200008B8C
:10423000A613000093FEFFFF6C00000059F3FFFF80
:10424000000000001A0100008BB01300009EFEFF6A
:10425000FF6C00000059F3FFFF000000008F010019
:10426000008BB0130000620100006C00000035F309
:10427000FFFF000000001A0100008BA61300006D74
:104280000100006C00000035F3FFFF000000008F0C
:104290000100008BE01000006D0100006C000000C8
:1042A00011F3FFFF000000001A0100008BD6100080
:1042B00000620100006C00000010F3FFFF0000002E
:1042C000008F0100008BD61000009EFEFFFF6C00E7
:1042D0000000EDF2FFFF000000001A0100008BE07B
:1042E00010000093FEFFFF6C000000ECF2FFFF00E7
:1042F0000000008F0100008BCF1000008DFEFFFF3B
:104300006C000000EBF2FFFF000000002F01000036
:104310009649008BCF100000730100006C00000074
:10432000C6F2FFFF000000001A0100008BB7130067
:1043300000730100006C000000A1F2FFFF0000000C
:10434000001A0100008BB71300008DFEFFFF6C0008
:1043500000007CF2FFFF000000001A0100008BCF7C
:104360001000008DFEFFFF6C00000057F2FFFF0001
:104370000000001A010000964C008BCF1000008D49
:10438000FEFFFF6C000000B7F2FFFF000000000717
:104390000200008BE010000050ECFFFF6C000000FA
:1043A000B7F2FFFF00000000E10000008BE010000A
:1043B0000050ECFFFF6C00000057F2FFFF00000010
:1043C00000070200008BA613000050ECFFFF6C00FA
:1043D000000033F2FFFF000000001A0100008BB064
:1043E0001300005AECFFFF6C00000033F2FFFF00E7
:1043F0000000008F0100008BB013000020EFFFFFD2
:104400006C0000000FF2FFFF000000001A01000026
:104410008BA61300002AEFFFFF6C0000000EF2FFD6
:10442000FF000000008F0100008BE01000002AEF69
:10443000FFFF6C000000EBF1FFFF000000001A011D
:1044400000008BD610000020EFFFFF6C000000EA98
:10445000F1FFFF000000008F0100008BD61000006C
:104460005AECFFFF6C000000C7F1FFFF00000000E6
:104470001A0100008BE010000050ECFFFF6C000000
:1044800000C6F1FFFF000000008F010000964D0004
:104490008BCF10000049ECFFFF6C000000C5F1FF5E
:1044A000FF000000002F010000964F008BCF10008E
:1044B0000031EFFFFF6C000000A0F1FFFF000000E3
:1044C000001A0100008BB713000031EFFFFF6C00F2
:1044D00000007BF1FFFF000000001A0100008BB715
:1044E00013000049ECFFFF6C00000056F1FFFF00D5
:1044F0000000001A0100008BCF10000049ECFFFF04
:104500006C00000031F1FFFF000000001A01000004
:104510009653008BCF10000049ECFFFF6C000000A9
:1045200091F1FFFF00000000070200008B24230030
:104530000050ECFFFF6C00000091F1FFFF00000055
:1045400000E10000008B2423000050ECFFFF6C0012
:10455000000031F1FFFF00000000070200008BEABD
:1045600025000050ECFFFF6C0000000DF1FFFF0084
:104570000000001A0100008BF42500005AECFFFF38
:104580006C0000000CF1FFFF000000008F01000034
:104590008BF425000020EFFFFF6C000000E9F0FF26
:1045A000FF000000001A0100008BEA2500002AEF3E
:1045B000FFFF6C000000E8F0FFFF000000008F012B
:1045C00000008B242300002AEFFFFF6C000000C5D1
:1045D000F0FFFF000000001A0100008B192300000B
:1045E00020EFFFFF6C000000C4F0FFFF00000000A0
:1045F0008F0100008B192300005AECFFFF6C0000B4
:1046000000A0F0FFFF000000001A0100008B24232F
:10461000000050ECFFFF6C000000A0F0FFFF000066
:1046200000008F0100009654008B1323000049EC1A
:10463000FFFF6C0000009FF0FFFF000000002F0153
:1046400000009656008B1323000031EFFFFF6C0033
:1046500000007AF0FFFF000000001A0100008BFB51
:1046600025000031EFFFFF6C00000055F0FFFF0058
:104670000000001A0100008BFB25000049ECFFFF41
:104680006C0000002FF0FFFF000000001A01000086
:104690008B1323000049ECFFFF6C0000000AF0FFC1
:1046A000FF000000001A010000965A008B1323003F
:1046B0000049ECFFFF6C0000006BF0FFFF00000002
:1046C00000070200008B2423000093FEFFFF6C0014
:1046D00000006BF0FFFF00000000E10000008B24F1
:1046E00023000093FEFFFF6C0000000AF0FFFF00B4
:1046F000000000070200008BEA25000093FEFFFF88
:104700006C000000E7EFFFFF000000001A0100004E
:104710008BF42500009EFEFFFF6C000000E6EFFF1B
:10472000FF000000008F0100008BF42500006201F3
:1047300000006C000000C3EFFFFF000000001A0142
:1047400000008BEA2500006D0100006C000000C233
:10475000EFFFFF000000008F0100008B242300000A
:104760006D0100006C0000009EEFFFFF00000000E4
:104770001A0100008B19230000620100006C000088
:10478000009EEFFFFF000000008F0100008B192347
:1047900000009EFEFFFF6C0000007AEFFFFF0000AC
:1047A00000001A0100008B2423000093FEFFFF6C21
:1047B0000000007AEFFFFF000000008F0100008B77
:1047C000132300008DFEFFFF6C00000079EFFFFF58
:1047D000000000002F010000965C008B13230000F6
:1047E000730100006C00000053EFFFFF00000000A9
:1047F0001A0100008BFB250000730100006C000013
:10480000002EEFFFFF000000001A0100008BFB25C7
:1048100000008DFEFFFF6C00000009EFFFFF0000AD
:1048200000001A0100008B132300008DFEFFFF6CB7
:10483000000000E4EEFFFF000000001A01000096F7
:1048400060008B132300008DFEFFFF6C000000440E
:10485000EFFFFF00000000070200008B192300009B
:10486000E01000006C00000044EFFFFF00000000BB
:10487000E10000008B19230000E01000006C000034
:1048800000E4EEFFFF00000000070200008B24237D
:104890000000D61000006C000000E3EEFFFF0000F7
:1048A00000008F0100008BEA250000D61000006C8C
:1048B000000000C0EEFFFF000000001A0100008BA6
:1048C000F4250000E01000006C000000BFEEFFFFC8
:1048D000000000008F0100008BF4250000A61300EB
:1048E000006C0000009CEEFFFF000000001A0100B9
:1048F000008BEA250000B01300006C0000009BEE66
:10490000FFFF000000008F0100008B24230000B097
:104910001300006C00000078EEFFFF000000001A9A
:104920000100008B19230000A61300006C0000009A
:1049300077EEFFFF000000008F0100008B192300BD
:1049400000E01000006C00000053EEFFFF000000CC
:10495000001A0100009661008B13230000CF1000A5
:10496000006C00000052EEFFFF000000002F01006D
:10497000009663008B13230000B71300006C000047
:10498000002DEEFFFF000000001A0100008BFB2548
:104990000000B71300006C00000008EEFFFF0000ED
:1049A00000001A0100008BFB250000CF1000006CF6
:1049B000000000E3EDFFFF000000001A0100008B83
:1049C00013230000CF1000006C000000BEEDFFFFBD
:1049D000000000001A0100008B13230000CF10001C
:1049E000006C0000001EEEFFFF0000000007020048
:1049F000008B13230000CF100000D80000001EEE33
:104A0000FFFF00000000800000008B13230000CF98
:104A1000100000440100001EEEFFFF0000000080B7
:104A200000000089188B13230000CF10000030F223
:104A300000001EEEFFFF0000000080000000840365
:104A40003E0100001400890788001F020000880052
:104A50000302000097019664009A0099000000008C
:104A6000504F53545F4C4556454C0096000084030C
:104A70005201000014008304A600000014008C0002
:104A80000000000000000030F8FFFF000000000000
:104A90000000008B0000000000000000000000008B
:104AA0000000000000000000A60000008304DC05F8
:104AB00000001400901F8C97340000F219000000D1
:104AC00000000000000000000000008B40D9FFFF44
:104AD000BFE6FFFF60EA00000000000000000000E9
:104AE00080000000910114910014910414910314AA
:104AF000860088000302E6008700640058029101E6
:104B00007F91007F91047F91037F89188B1323008D
:104B100000CF10000030F200001EEEFFFF0000008A
:104B200000800000008403520100001400890788FF
:104B3000000302000097019664009A002054686503
:104B4000205265706C696361746F7220322020207E
:104B50000020546865205265706C696361746F72DF
:104B600020325820200020202D2D2D2D2D2D2D2DB3
:104B70002D2D2D2D2D2D2020202000202020202007
:104B80002020202020202020202020202020200045
:104B90004669726D776172652056657273696F6ED2
:104BA00020352E2000436F6F6C21005374617274A6
:104BB00020507265686561742100526967687420CD
:104BC000546F6F6C004E4120004F4E20004F464600
:104BD000004578747275646572004C656674205483
:104BE0006F6F6C00506C6174666F726D0057656C0E
:104BF000636F6D65212049276D2020202020202013
:104C000020546865205265706C696361746F72200E
:104C1000322E2020205072657373207468652072D4
:104C20006564204D20746F20206765742073746163
:104C300072746564212020202020202020005765E8
:104C40006C636F6D65212049276D20202020202076
:104C50002020546865205265706C696361746F72BE
:104C60002032582E2020507265737320746865209E
:104C7000726564204D20746F202067657420737402
:104C800061727465642120202020202020200041B2
:104C900020626C696E6B696E6720274D27206D65F9
:104CA000616E7349276D2077616974696E67206151
:104CB0006E642077696C6C636F6E74696E756520C5
:104CC0007768656E20796F75202020707265737328
:104CD0002074686520627574746F6E2E2E2E20000D
:104CE0004120736F6C696420274D27206D65616ECC
:104CF0007320202049276D20776F726B696E6720C3
:104D0000616E642077696C6C757064617465206D88
:104D10007920737461747573202020207768656E24
:104D20002049276D2066696E69736865642E2E2E92
:104D3000004F7572206E65787420737465707320EF
:104D400077696C6C20676574206D652073657420CD
:104D500075702120202020202046697273742C2039
:104D60007765276C6C20726573746F72656D79203E
:104D70006275696C6420706C6174666F726D2E2E42
:104D80002E00736F2069742773206E69636520613C
:104D90006E64202020206C6576656C2E2049742777
:104DA000732070726F6261626C7961206269742035
:104DB0006F66662066726F6D202020202020736849
:104DC000697070696E672E2E2E20202020202020F2
:104DD000202000416161682C207468617420666540
:104DE000656C73202020206D756368206265747483
:104DF00065722E20202020202020204C65742773EF
:104E000020676F206F6E20616E64206C6F61647329
:104E10006F6D652066696C616D656E742120202060
:104E2000202020005765276C6C2074727920616700
:104E300061696E2120202020202020202020202099
:104E40002020202020202020202020202020202062
:104E50002020202020202020202020202020202052
:104E60002020202020202020202020202020202042
:104E700020202020005765276C6C206B6565702012
:104E8000676F696E6720202020616E64206C6F61FF
:104E90006420736F6D652020202020202066696CBF
:104EA000616D656E742C466F722068656C7020674A
:104EB0006F746F206D616B6572626F742E636F6DBE
:104EC0002F68656C70005765276C6C20676F2074C5
:104ED0006F20746865206D61696E6D656E752E203A
:104EE000496620796F75206E6565642020206865AD
:104EF0006C7020676F20746F3A20202020202020C3
:104F000020206D616B6572626F742E636F6D2F6808
:104F1000656C7020202000417765736F6D652120DE
:104F200020202020202020202020205765276C6C66
:104F300020676F20746F20746865205344202063BD
:104F4000617264206D656E7520616E6420796F7585
:104F500020202063616E2073656C6563742061207E
:104F60006D6F64656C21200049276D20676F696E45
:104F70006720746F206D616B652020206120736550
:104F800072696573206F66206C696E657320736F3C
:104F900077652063616E2066696E64206D792020DC
:104FA000202020206E6F7A7A6C6520616C69676EB4
:104FB0006D656E742E202020004C6F6F6B20666F25
:104FC000722074686520626573742020206D61749E
:104FD00063686564206C696E6520696E2065616335
:104FE0006861786973207365742E204C696E6573EF
:104FF00020617265206E756D626572656420312D69
:10500000313320616E642E2E2E006C696E65206F28
:105010006E652069732065787472612020206C6F42
:105020006E672E205468652059206178697320735B
:1050300065746973206C656674206F6E2074686592
:1050400020706C617465616E6420582061786973AA
:105050002069732072696768742E004772656174F5
:1050600021202049277665207361766564202074AD
:10507000686573652073657474696E677320616E0B
:1050800064202049276C6C20757365207468656DF9
:1050900020746F202020206D616B65206E69636530
:1050A000206D6F64656C73212020200053656C6552
:1050B00063742062657374206C696E65732E00588A
:1050C0002041786973204C696E65002D2D3E0020CB
:1050D000202000592041786973204C696E65004496
:1050E0006F6E6521004D792074656D706572617415
:1050F0007572652077617320206368616E676564EF
:105100002065787465726E616C6C792E20526573BF
:10511000656C6563742066696C616D656E742020D2
:10512000206D656E7520746F2074727920616761DF
:10513000696E2E004D79206578747275646572739E
:1051400020617265202020206E6F74206865617474
:10515000696E672075702E202020202043686563CB
:105160006B206D792020202020202020202020204E
:10517000636F6E6E656374696F6E732120202020EB
:10518000202020200049276D2068656174696E67C2
:10519000207570206D7920202065787472756465A3
:1051A0007220736F2077652063616E20206C6F61C1
:1051B00064207468652066696C616D656E742E206C
:1051C000204265206361726566756C2C2074686589
:1051D0002E2E2E20200049276D2068656174696E8F
:1051E00067207570206D7920202065787472756451
:1051F000657220736F2077652063616E20206C6F6D
:105200006164207468652066696C616D656E742EDA
:1052100020204265206361726566756C2C2074687D
:10522000652E2E2E202000506C65617365207761FD
:105230006974207768696C6520492068656174200D
:105240006D79206578747275646572212020202044
:10525000202020202020202020202020202020204E
:10526000202020202020202020202020202020203E
:1052700020202020202020006E6F7A7A6C65207715
:10528000696C6C2067657420686F74215768696C5D
:10529000652049276D2068656174696E672C202040
:1052A00072656D6F7665207468652066696C616DE6
:1052B000656E7420747562652066726F6D20746807
:1052C000652E2E2E20202020006E6F7A7A6C6520AD
:1052D00077696C6C2067657420686F742157686902
:1052E0006C652049276D2068656174696E672C20A4
:1052F0002072656D6F7665207468652066696C61E3
:105300006D656E7420747562652066726F6D2074B1
:1053100068652E2E2E20202020006578747275641A
:10532000657220626C6F636B2E20466565646669EA
:105330006C616D656E742066726F6D207468652097
:10534000202073706F6F6C207468726F75676820AF
:105350007468652020207475626520756E74696CB0
:105360002069742E2E2E2020202000706F70732054
:105370006F757420696E2066726F6E742E202057D0
:1053800068656E207468652066696C616D656E7411
:1053900020697372656164792C2070726573732063
:1053A000274D2720746F20636F6E74696E75652EAC
:1053B000202020202020202020202000486561740B
:1053C000696E672050726F67726573733A20202090
:1053D00020202020202020202020202020202020CD
:1053E00020202020202020202020202020202020BD
:1053F00020202020202020202020202020202020AD
:10540000202020202020202020202020004F4B2062
:1054100049276D2072656164792120202020202099
:10542000204669727374207765276C6C206C6F61FD
:105430006420746865726967687420657874727531
:105440006465722E202020202050757368206669C4
:105450006C616D656E7420696E2E2E2E2000477271
:1054600065617421204E6F77207765276C6C202052
:1054700020206C6F616420746865206C6566742000
:1054800020202020202065787472756465722E209B
:105490005075736820202020202066696C616D653E
:1054A0006E74207468726F7567682E2E2E20004F00
:1054B0004B2049276D2072656164792120202020CE
:1054C00020202050757368207468652066696C61BF
:1054D0006D656E742020207468726F7567682E2E5B
:1054E0002E202020202020202020202020202020AE
:1054F00020202020202020202020202020202000CC
:1055000049276D207265616479212050756C6C208B
:105510007468652067756964652074756265206FBD
:10552000666620616E6420207075736820746865FB
:105530002066696C616D656E742020207468726FDE
:105540007567682E2E2E202020202020202020204D
:105550000049276D207265616479212050756C6C5B
:1055600020746865206775696465207475626520BC
:105570006F666620616E64202070756C6C207468A4
:10558000652066696C616D656E7420202067656EAC
:10559000746C792E2E2E20202020202020202020E8
:1055A000200049276D20726561647921204465746B
:1055B00061636820202074686520677569646520D0
:1055C0007475626520616E6420206D6F766520744D
:1055D0006865206C6576657220746F202020746881
:1055E000652072696768742E202050756C6C2E2EB1
:1055F0002E200049276D2072656164792120446561
:10560000746163682020207468652067756964652B
:10561000207475626520616E6420206D6F76652050
:10562000746865206C6576657220746F2020207424
:105630006865206C6566742E202050756C6C2E2E6B
:105640002E202000756E74696C20796F7520666558
:10565000656C2074686520206D6F746F722074759E
:105660006720697420696E2E202020205075736891
:1056700020666F72206120666577206D6F726520ED
:105680007365636F6E64732C207468656E20776138
:1056900069742E20005768656E2066696C616D65BF
:1056A0006E74206973202020206265696E67206512
:1056B000787472756465642066726F6D20746865B5
:1056C000206E6F7A7A6C652C205072657373204D52
:1056D00020746F2073746F702065787472756469BC
:1056E0006E672E2020005768656E2066696C616DBC
:1056F000656E74206973202020206265696E6720C2
:1057000065787472756465642066726F6D20746864
:1057100065206E6F7A7A6C652C2020202020202056
:105720002020507265737320274D2720746F2065E9
:105730007869742E2020005768656E206D79206688
:10574000696C616D656E742069732072656C65614A
:105750007365642C20202020202020202020205031
:105760007265737320274D2720746F2065786974E4
:105770002E2020202020202020202020202020201B
:10578000202020202020200066696C616D656E74E9
:10579000206672656520616E64202020636C6F73E3
:1057A0006520746865206C657665722E2020202047
:1057B000507265737320274D2720746F20657869B8
:1057C000742E202020202020202020202020202077
:1057D0002020202020202020004772656174212095
:1057E0002049276C6C2073746F7020202072756EB6
:1057F0006E696E67206D7920657874727564657264
:105800002E5072657373204D20746F20636F6E7419
:10581000696E75652E202020202020202020202049
:10582000202020202020202020004F4B212049270D
:105830006C6C206B656570206D79202020206D6F69
:10584000746F722072756E6E696E672E20596F7557
:1058500020206D6179206E65656420746F207075FD
:105860007368202020206861726465722E2E2E20BD
:1058700020202020202020202020005765276C6C2D
:10588000206B65657020676F696E672E2020204C45
:105890006574732074727920746865206C65667411
:1058A00020202065787472756465722E205075739F
:1058B0006820202020202066696C616D656E742050
:1058C000646F776E2E2E2E20202020005765276CC7
:1058D0006C206B65657020676F696E672E202020D5
:1058E000496620796F7527726520686176696E67F1
:1058F0002020202074726F75626C652C20636865AF
:10590000636B206F757420206D616B6572626F74BC
:105910002E636F6D2F68656C70202020004D7920FC
:105920006D6F746F722074696D6564206F7574207B
:105930002061667465722035206D696E75746573BB
:105940002E202020205072657373204D20746F200C
:10595000657869742E2020202020202020202020FF
:105960002020202020202020202020202000486FE0
:1059700077276420697420676F3F205265616479DE
:10598000202000746F206D616B6520736F6D6574EE
:1059900068696E673F202000596573202020004E03
:1059A0006F2020202000446F6573206D79206E6F7A
:1059B0007A7A6C65006865696768742063686563F6
:1059C0006B206F75743F004D792068656967687456
:1059D00020697320676F6F6421004C657427732002
:1059E00074727920616761696E2E00446964207069
:1059F0006C617374696320657874727564650066A0
:105A0000726F6D20746865206E6F7A7A6C653F00E6
:105A1000556E6C6F616420726967687400556E6CB6
:105A20006F6164004C6F6164206C65667400556E34
:105A30006C6F6164206C656674004C6F61642072E9
:105A400069676874004C6F61640020202020204A40
:105A50006F67206D6F6465202020202020200020AB
:105A600020202020202020582B20202020202020F3
:105A700020202000202020202020284261636B2944
:105A8000202020592D3E20200020202020202020D2
:105A900020582D20202020202020202020002020E1
:105AA000202020202020592B2020202020202020B2
:105AB00020200020203C2D5820284261636B2920A3
:105AC000205A2D3E20202000202020202020202091
:105AD000592D2020202020202020202000202020A0
