:100000000C94CE240C94FD240C94FD240C94FD241B
:100010000C94FD240C94FD240C94FD240C94FD24DC
:100020000C94FD240C94FD240C94FD240C94FD24CC
:100030000C94FD240C94674A0C94FD240C94FD242C
:100040000C94FD240C94FD240C94FD240C94FD24AC
:100050000C94FD240C94FD240C94FD240C94FD249C
:100060000C94FD240C94FBD50C94FD240C9427D601
:100070000C94FD240C943B9E0C94FD240C94FD24C4
:100080000C94FD240C94FD240C94FD240C94FD246C
:100090000C94FD240C94FD240C94FD240C94FD245C
:1000A0000C94FD240C94FD240C94FD240C94FD244C
:1000B0000C94FD240C94FD240C94FD240C94F34723
:1000C0000C94FD240C94FD240C94FD240C94FD242C
:1000D0000C94FD240C94FD240C94FD240C94FD241C
:1000E0000C94FD2453407B4080405D408540D240CD
:1000F000D2405D40A340D240A840B040B540BA4095
:100100008F40944099405D409E40D24058408A4084
:10011000BF40C440C840D240D240CC40507265700D
:100120006172696E6720666F7220736C6565703AE4
:1001300049276D20636F6D706C6574696E6720610F
:100140006E792020717565756564206D6F766573B5
:100150002E20202020202020004368616E67696ED9
:10016000672046696C616D656E743A202049276D81
:1001700020636F6D706C6574696E6720616E7920A5
:1001800020717565756564206D6F7665732E20200E
:10019000202020202000494E56414C494420544FF5
:1001A0004F4C3A2020202020202049207265636592
:1001B000697665642061204C656674202020546F48
:1001C0006F6C20636F6D6D616E642C20627574209E
:1001D00049206F6E6C792068617665206F6E6520AE
:1001E000546F6F6C2E2000494E56414C49442043B9
:1001F0004F4D4D414E443A202020204920726563E6
:100200006569766564206120636F6D6D616E6466FB
:100210006F7220612068656174656420706C617420
:10022000652C20627574204920646F6E27742068E5
:10023000617665206F6E65004920736177206120CB
:10024000676C6974636820696E206D79534420631C
:100250006172642E20496620746869732069732076
:10026000746865206669727374206572726F722C8F
:100270002074727974686973206D6F64656C206195
:100280006761696E2E20202000492074696D6564C5
:10029000206F7574207768696C6520202061747404
:1002A000656D7074696E6720746F20686561742075
:1002B000206D792065787472756465722E20202017
:1002C000202020202000492074696D6564206F750E
:1002D00074207768696C65202020617474656D7086
:1002E00074696E6720746F206865617420206D7971
:1002F00020706C6174666F726D2E2020202020208B
:10030000202000507265706172696E6720666F729E
:1003100020736C6565703A49276D20636F6F6C6957
:100320006E67206D7920202020202068656174652B
:10033000727320616E6420676F696E6720746F6DE1
:1003400079207761697420706F736974696F6E2E9C
:10035000202020004368616E67696E672046696CE3
:10036000616D656E743A202049276D20676F696E54
:100370006720746F206D792077616974706F73697D
:1003800074696F6E2E202020202020202020202025
:10039000004D7920686561746572732074696D65BC
:1003A00064206F75744920616D206E6F7720696ECF
:1003B00020536C65657020202028436F6C642050AA
:1003C00061757365292E20202020202020202020E8
:1003D000202020202020202020202020202020201D
:1003E000200052657374617274696E672074686569
:1003F000204275696C640054686973206973206ECB
:100400006F7420746865207833672076657273692D
:100410006F6E204920776F726B206265737420774E
:100420006974682E20466F722068656C7020736551
:10043000653A206D616B6572626F742E636F6D2F0C
:1004400068656C70202020004920616D2061205279
:1004500065706C696361746F7220322E54686973C1
:10046000206275696C6420697320666F7220202099
:10047000616E6F7468657220626F742E20536565BB
:100480003A2020206D616B6572626F742E636F6D10
:100490002F68656C702020200054686520526570BC
:1004A0006C6963617430720049276D2043616E632B
:1004B000656C6C696E672E2020202020506C656171
:1004C000736520576169742E202020202020202071
:1004D00000200048656174657273207368757464E8
:1004E0006F776E2020202064756520746F20696E00
:1004F00061637469766974792020200048656174AD
:10050000696E67204661696C757265202331212010
:10051000536F6674776172652054656D70204C6905
:100520006D697420526561636865642120506C6553
:10053000617365202020202053687574646F776E86
:10054000206F722052657374617274200048656177
:1005500074696E67204661696C757265202332216B
:10056000204D7920657874727564657273206172AC
:1005700065206E6F7468656174696E672070726F54
:100580007065726C792E202020436865636B206D46
:100590007920636F6E6E656374696F6E7300486572
:1005A0006174696E67204661696C757265202333DA
:1005B00021204D79206578747275646572732061AD
:1005C0007265202020206C6F73696E672074656DE2
:1005D00070657261747572652E20436865636B2067
:1005E0006D7920636F6E6E656374696F6E7300481A
:1005F000656174696E67204661696C757265202358
:1006000035212049276D2072656164696E67206F0E
:100610007574206F66202072616E67652074656D49
:100620007065726174757265732E20436865636BC3
:10063000206D7920636F6E6E656374696F6E7300F1
:1006400048656174696E67204661696C75726520E2
:10065000233421204D792074656D70657261747545
:100660007265207265616473617265206661696C90
:10067000696E672120506C6561736520436865630E
:100680006B206D7920636F6E6E656374696F6E7336
:10069000009302690000006900EE01690000006932
:1006A000002601B80100000000200655000000559A
:1006B000002D085500000055004D0A55000000555A
:1006C00000400CAB000000AB002D095500000055A8
:1006D000002D085500000055004D0AAB00000055E4
:1006E0000000000001C00D5500000055002D085607
:1006F0000100000000C00D20015311BC005B12B1CD
:100700000100000000C00DC80000001400C00DC8AA
:100710000000001400910E9001000014005A109087
:100720000100001400C00D200300000000C805C82F
:100730000000001400C805C80000001400C805C867
:100740000000001400DD04B004000014007505C8AA
:1007500000000014007505C800000014007505C8ED
:1007600000000014009704B00400000000B8075512
:100770000000005500B909AB000000AB007D065534
:100780000000005500C805550000005500B807AB33
:10079000000000AB00C805550000005500DD045501
:1007A0000000005500C805550000005500B8075569
:1007B00000000055007D065601000000003F035573
:1007C0000000005500FA0C5500000055003F03558D
:1007D0000000005500B9095500000055003F0355C1
:1007E00000000055002D095500000055003F03553D
:1007F0000000005500EA0A5500000055003F03556F
:100800000000005500B909AB00000000005344206F
:10081000436172642052656D6F76656420202020EC
:100820000024F404D9201BC40C5C0E9804C4095F96
:100830000265077101F405F900FB04B30048048761
:1008400000C10369005803550003034500BE023A86
:10085000008402310053022A0029022500040220EC
:1008600000E4011C00C8011900AF01170098011431
:100870000084011300710110006101100051010E8C
:100880000043010D0036010B002B010B0020010B72
:1008900000150109000C01090003010800FB000814
:1008A00000F3000800EB000700E4000600DE00068D
:1008B00000D8000600D2000600CC000500C70005E5
:1008C00000C2000500BD000400B9000400B500042A
:1008D00000B1000400AD000400A9000400A500035D
:1008E00000A20003009F0004009B00030098000387
:1008F000009500020093000300900003008D0002A9
:10090000008B0003008800020086000200840003C0
:1009100000810002007F0002007D0002007B0002D7
:1009200000790002007700010076000200740002E6
:100930000072000100710002006F0002006D0001F2
:10094000006C0002006A00010069000200670001FB
:100950000066000100650001006400020062000101
:100960000061000100600001005F0002005D000105
:10097000005C0001005B0001005A00010059000109
:100980000058000100570001005600010055000109
:100990000054000100530000005300010052000108
:1009A0000051000100500001004F0001004E000006
:1009B000004E0001004D0001004C0001004B000002
:1009C000004B0001004A00010049000100480000FE
:1009D00000480001004700010046000000460001F9
:1009E00000450000004500010044000100430000F4
:1009F00000430001004200000042000100410000ED
:100A00000041000100400001003F0000003F0001E4
:100A1000003E0000003E0001003D0000003D0001DE
:100A2000003C0000003C0000003C0001003B0000D6
:100A3000003B0001003A0000003A000100390000CC
:100A400000390001003800000038000000380001C3
:100A500000370000003700010036000000360000BB
:100A600000360001003500000035000000350001AF
:100A700000340000003400000034000100330000A6
:100A8000003300000033000100320000003200009B
:100A9000003200010031000000310000003100018F
:100AA000003000000030000000300001002F000086
:100AB000002F0000002F0000002F0001002E00007A
:100AC000002E0000002E0001002D0000002D00006F
:100AD000002D0000002D0001002C0000002C000063
:100AE000002C0000002C0001002B0000002B000057
:100AF000002B0000002B0001002A0000002A00004B
:100B0000002A0000002A000100290000002900003E
:100B10000029000000290000002900010028000031
:100B20000028000000280000002800000028000124
:100B30000027000000270000002700000027000019
:100B4000002700010026000000260000002600000B
:100B500000260000002600010025000000250000FE
:100B600000250000002500000025000000250001F0
:100B700000240000002400000024000000240000E5
:100B800000240001002300000023000000230000D7
:100B900000230000002300000023000000230001C8
:100BA00000220000002200000022000000220000BD
:100BB00000220000002200010021000000210000AE
:100BC00000210000002100000021000000210000A1
:100BD0000021000100200000002000000020000093
:100BE0000020000000200000002000000020000085
:100BF00000200001001F0000001F0000001F000077
:100C0000001F0000001F0000001F0000001F000167
:100C1000001E0000001E0000001E0000001E00005C
:100C20000024F4D43050C38E20C2A24017828B70AF
:100C300011127A910D816CD90AA861E108C7586632
:100C400007615143061E4B5D05C145A7041A4111BA
:100C500004093D9803713931034036DB0265339155
:100C600002D4305402802E1D02632CEE01752AC579
:100C700001B028A001102781018F2564012B244B8E
:100C800001E0223401AC211F018D200D01801FFCE9
:100C900000841EED00971DDF00B81CD200E61BC6C5
:100CA00000201BBC00641AB200B219A8000A19A0E7
:100CB000006A189900D117910040178B00B516846F
:100CC0000031167E00B31579003A157300C7146F12
:100CD0000058146A00EE1366008813630025135E43
:100CE00000C7125B006C12570015125400C111515D
:100CF0000070114F0021114B00D61049008D104794
:100D0000004610440002104200C00F4000800F3E19
:100D100000420F3C00060F3B00CB0E3800930E370D
:100D2000005C0E3500270E3400F30D3200C10D318A
:100D300000900D3000600D2E00320D2D00050D2CA1
:100D400000D90C2B00AE0C2900850C29005C0C2767
:100D500000350C27000E0C2600E80B2400C40B24E1
:100D600000A00B23007D0B23005A0B2100390B211F
:100D700000180B2000F80A1F00D90A1E00BB0A1E2B
:100D8000009D0A1D00800A1D00630A1C00470A1B03
:100D9000002C0A1B00110A1A00F7091A00DD0919B4
:100DA00000C4091900AB091900920917007B091842
:100DB00000630917004C09160036091600200916B1
:100DC000000A091500F5081500E0081400CC081405
:100DD00000B8081400A4081400900813007D08123D
:100DE000006B08130058081200460812003408115E
:100DF00000230811001208110001081100F007106B
:100E000000E0071000D0071000C0071000B0070F67
:100E100000A107100091070E0083070F0074070F51
:100E20000065070E0057070E0049070E003B070D2F
:100E3000002E070E0020070D0013070D0006070DFA
:100E400000F9060C00ED060D00E0060C00D4060CBF
:100E500000C8060C00BC060C00B0060C00A4060B73
:100E60000099060C008D060B0082060B0077060B1E
:100E7000006C060B0061060A0057060B004C060AC0
:100E80000042060A0038060A002E060A0024060A56
:100E9000001A060A001006090007060A00FD0509E7
:100EA00000F4050900EB050900E2050900D9050970
:100EB00000D0050900C7050900BE050900B50508F1
:100EC00000AD050800A50509009C0508009405086B
:100ED000008C050800840508007C050800740508DE
:100EE000006C050700650508005D0507005605084C
:100EF000004E0507004705070040050800380507B4
:100F000000310507002A050700230507001C050618
:100F100000160507000F0507000805060002050773
:100F200000FB040600F5040700EE040600E80406D2
:100F300000E2040700DB040600D5040600CF040627
:100F400000C9040600C3040600BD040600B7040679
:100F500000B1040500AC040600A6040600A00405C8
:100F6000009B04060095040500900406008A040511
:100F70000085040500800406007A04050075040558
:100F800000700405006B040500660405006104059B
:100F9000005C04050057040500520405004D0405DB
:100FA0000048040500430405003E0404003A04051B
:100FB0000035040500300404002C04050027040457
:100FC00000230405001E0404001A0404001604058E
:100FD00000110404000D04040009040500040404C5
:100FE0000000040400FC030400F8030400F40304FC
:100FF00000F0030400EC030400E8030400E403042D
:1010000000E0030400DC030400D8030400D403045C
:1010100000D0030400CC030400C8030300C503038D
:10102000009502000000506C65617365207761696E
:10103000742E2E2E0084036901000014008304889E
:1010400000000014008C000000000000000030F8D8
:10105000FFFF00000000000000008E000000000004
:101060000000000000000000000000000000005729
:10107000290400188304DC0500001400901F891F58
:101080009502000000506C6561736520776169749A
:101090000084037D01000014008304880000001414
:1010A000008C000000000000000030F8FFFF00008E
:1010B0000000000000008E000000000000000000A2
:1010C0000000000000000000000000572904001884
:1010D0008304DC05000014008C97340000F3190031
:1010E000000000000000000000000000009500006B
:1010F00000005469676874656E2065616368206FDD
:1011000066207468652000950100000074687265AF
:1011100065206B6E6F627320756E6465722020208F
:10112000009501000000746865206275696C642098
:10113000706C6174666F726D20200095070000006E
:1011400061626F757420666F7572207475726E734C
:101150002E00950000000049276D20676F696E67BB
:1011600020746F206D6F7665206D79009501000009
:101170000065787472756465722061726F756E6453
:1011800020746F2020009501000000646966666588
:1011900072656E7420706F696E747320736F2000B7
:1011A0009507000000796F752063616E20636865A4
:1011B000636B2E2E2E009500000000746865206879
:1011C00065696768742E204174206561636820003A
:1011D0009501000000706F696E742C206C6F6F7346
:1011E000656E207468652020200095010000007362
:1011F0007065636966696564206B6E6F6220756EE9
:1012000074696C009507000000746865206E6F7A41
:101210007A6C6520616C6D6F73742E2E2E009500B4
:10122000000000746F7563686573207468652062E0
:1012300075696C64202020009501000000706C61CD
:1012400074652E20546865206E6F7A7A6C6520690B
:101250007300950100000061742074686520726954
:1012600067687420686569676874200095070000E6
:10127000007768656E2061207468696E207069650A
:1012800063652E2E2E0095000000006F66207061B1
:101290007065722077696C6C20736C6964652000DE
:1012A00095010000006265747765656E207468655D
:1012B000206E6F7A7A6C6520200095010000006135
:1012C0006E64206275696C6420706C61746520774F
:1012D00069746800950700000020736F6D652066D3
:1012E00072696374696F6E2E009502000000506C85
:1012F000656173652077616974008E97340000F32F
:10130000190000D007000000000000000000009A53
:10131000E90300188E0000000038180000D0070014
:101320000000000000000000006C692E00188E0014
:10133000000000381800000000000000000000005D
:10134000000000E093040018950000000041646A6A
:10135000757374207468652072656172206B6E6F9E
:1013600062009501000000756E74696C20706170F8
:101370006572206A7573742020202000950100009A
:1013800000736C69646573206265747765656E20AF
:1013900074686520200095070000006E6F7A7A6CF3
:1013A0006520616E6420706C6174650095020000B8
:1013B00000506C656173652077616974008E000070
:1013C000000038180000D0070000000000000000F6
:1013D0000000E0930400188E9C100000C8E7FFFF97
:1013E000D00700000000000000000000802A2D004F
:1013F000188E9B100000C8E7FFFF000000000000EF
:10140000000000000000E0930400189500000000B8
:1014100041646A7573742066726F6E7420726967B6
:10142000687420200095010000006B6E6F622075CB
:101430006E74696C207061706572202020200095A8
:10144000010000006A75737420736C696465732011
:101450006265747765656E200095070000006E6F09
:101460007A7A6C6520616E6420706C617465009599
:1014700002000000506C656173652077616974003B
:101480008E9C100000C8E7FFFFD00700000000009E
:101490000000000000E0930400188E64EFFFFFC816
:1014A000E7FFFFD007000000000000000000000080
:1014B0004C1D00188E65EFFFFFC8E7FFFF0000001E
:1014C000000000000000000000E0930400189500F8
:1014D00000000041646A7573742066726F6E742038
:1014E0006C6566742020200095010000006B6E6F13
:1014F0006220756E74696C207061706572202020A6
:10150000200095010000006A75737420736C696493
:101510006573206265747765656E2000950700002D
:10152000006E6F7A7A6C6520616E6420706C6174F5
:1015300065009502000000506C656173652077615D
:101540006974008E64EFFFFFC8E7FFFFD00700005B
:101550000000000000000000E09304001895000067
:1015600000004E6F772049276D20676F696E6720F6
:10157000746F2020202000950100000073656E64C8
:10158000206D7920657874727564657220746F209F
:10159000009501000000616C6C2074687265652024
:1015A000706F696E74732020202000950700000082
:1015B000616761696E20746F207265636865636B33
:1015C0002E009502000000506C6561736520776104
:1015D0006974008E0000000038180000D007000079
:1015E000000000000000000080191B00188E0000A1
:1015F000000038180000000000000000000000009B
:101600000000E093040018950000000041646A7532
:101610007374207468652072656172202020202018
:101620000095010000006B6E6F6220756E74696C2E
:10163000207061706572202020200095010000005C
:101640006A75737420736C6964657320626574775E
:1016500065656E200095070000006E6F7A7A6C65F4
:1016600020616E6420706C6174650095020000005A
:10167000506C656173652077616974008E000000AD
:101680000038180000D00700000000000000000033
:1016900000E0930400188E402B0000C8E7FFFFD045
:1016A0000700000000000000000000A65D220018F6
:1016B0008E3F2B0000C8E7FFFF0000000000000085
:1016C0000000000000E093040018950000000041B5
:1016D000646A7573742066726F6E742072696768CD
:1016E0007420200095010000006B6E6F6220756E03
:1016F00074696C2070617065722020202000950153
:101700000000006A75737420736C696465732062ED
:1017100065747765656E200095070000006E6F7A2E
:101720007A6C6520616E6420706C6174650095024E
:10173000000000506C656173652077616974008EEC
:10174000402B0000C8E7FFFFD007000000000000AA
:1017500000000000E0930400188EC0D4FFFFC7E72C
:10176000FFFFD00700000000000000000000C0C61E
:101770002D00188EC1D4FFFFC8E7FFFF0000000056
:101780000000000000000000E09304001895000035
:10179000000041646A7573742066726F6E74206C09
:1017A0006566742020200095010000006B6E6F625A
:1017B00020756E74696C2070617065722020202025
:1017C0000095010000006A75737420736C6964658C
:1017D00073206265747765656E20009507000000D0
:1017E0006E6F7A7A6C6520616E6420706C617465CE
:1017F000009502000000506C656173652077616997
:1018000074008EC0D4FFFFC8E7FFFFD007000000C0
:1018100000000000000000E0930400188E000000AB
:101820000000000000D007000000000000000000E1
:1018300000913B1A00188E0000000000000000001C
:101840000000000000000000000000E09304001809
:1018500095000000004E6F77206C6574277320742C
:101860007269706C652020202000950100000063E3
:101870006865636B2D2D2070617065722073686FD1
:10188000756C640095010000006A75737420736CB8
:10189000696465206265747765656E202000950730
:1018A0000000006E6F7A7A6C6520616E6420706C47
:1018B00061746500891F9502000000506C656173BA
:1018C0006520776169740084037D01000014008342
:1018D000048800000014008C0000000000000000DC
:1018E00030F8FFFF00000000000000008E00000044
:1018F00000000000000000000000000000000000E8
:101900000057290400188304DC05000014008C979C
:10191000340000F319000000000000000000000087
:1019200000000095000000005469676874656E202F
:1019300065616368206F662074686520009501000A
:1019400000007468726565206B6E6F627320756E3F
:1019500064657220202000950100000074686520F5
:101960006275696C6420706C6174666F726D2020A2
:1019700000950700000061626F757420666F7572D4
:10198000207475726E732E00950000000049276D5B
:1019900020676F696E6720746F206D6F7665206DAC
:1019A0007900950100000065787472756465722095
:1019B00061726F756E6420746F20200095010000C5
:1019C00000646966666572656E7420706F696E7416
:1019D0007320736F20009507000000796F752063F6
:1019E000616E20636865636B2E2E2E0095000000EB
:1019F00000746865206865696768742E20417420EA
:101A00006561636820009501000000706F696E7465
:101A10002C206C6F6F73656E207468652020200029
:101A20009501000000737065636966696564206BE9
:101A30006E6F6220756E74696C009507000000740B
:101A40006865206E6F7A7A6C6520616C6D6F737457
:101A50002E2E2E009500000000746F75636865736C
:101A600020746865206275696C64202020009501EF
:101A7000000000706C6174652E20546865206E6FE4
:101A80007A7A6C652069730095010000006174200A
:101A9000746865207269676874206865696768742E
:101AA000200095070000007768656E20612074684B
:101AB000696E2070696563652E2E2E00950000000A
:101AC000006F662070617065722077696C6C20739E
:101AD0006C6964652000950100000062657477659B
:101AE000656E20746865206E6F7A7A6C65202000C0
:101AF0009501000000616E64206275696C6420705D
:101B00006C61746520776974680095070000002097
:101B1000736F6D65206672696374696F6E2E0095D0
:101B200002000000506C6561736520776169740084
:101B30008E97340000F2190000D00700000000006A
:101B400000000000009AE90300188EB60500003975
:101B5000180000D007000000000000000000002472
:101B6000612900188EB5050000381800000000003B
:101B7000000000000000000000E093040018950041
:101B800000000041646A7573742074686520726592
:101B90006172206B6E6F62009501000000756E74BB
:101BA000696C207061706572206A757374202020E2
:101BB00020009501000000736C6964657320626504
:101BC000747765656E2074686520200095070000B5
:101BD000006E6F7A7A6C6520616E6420706C61743F
:101BE00065009502000000506C65617365207761A7
:101BF0006974008EB505000038180000D007000099
:101C00000000000000000000E0930400188E511650
:101C10000000C8E7FFFFD007000000000000000040
:101C20000000802A2D00188E51160000C8E7FFFF23
:101C3000000000000000000000000000E09304002D
:101C400018950000000041646A7573742066726F15
:101C50006E7420726967687420200095010000008E
:101C60006B6E6F6220756E74696C20706170657246
:101C7000202020200095010000006A7573742073F5
:101C80006C69646573206265747765656E20009584
:101C9000070000006E6F7A7A6C6520616E642070B8
:101CA0006C617465009502000000506C656173659D
:101CB0002077616974008E51160000C7E7FFFFD0DE
:101CC0000700000000000000000000E0930400187E
:101CD0008E69F4FFFFC8E7FFFFD007000000000097
:101CE00000000000003FE81D00188E69F4FFFFC8E7
:101CF000E7FFFF000000000000000000000000E01F
:101D000093040018950000000041646A7573742004
:101D100066726F6E74206C656674202020009501D9
:101D20000000006B6E6F6220756E74696C207061CC
:101D3000706572202020200095010000006A7573F4
:101D40007420736C69646573206265747765656E71
:101D5000200095070000006E6F7A7A6C6520616E36
:101D60006420706C617465009502000000506C6521
:101D70006173652077616974008E69F4FFFFC8E7BD
:101D8000FFFFD00700000000000000000000E0930B
:101D900004001895000000004E6F772049276D2041
:101DA000676F696E6720746F202020200095010006
:101DB000000073656E64206D7920657874727564B7
:101DC000657220746F20009501000000616C6C202A
:101DD000746872656520706F696E747320202020AE
:101DE000009507000000616761696E20746F2072C2
:101DF00065636865636B2E009502000000506C659A
:101E00006173652077616974008EB505000038182C
:101E10000000D0070000000000000000000078383B
:101E20001B00188EB60500003818000000000000E6
:101E30000000000000000000E0930400189500007E
:101E4000000041646A75737420746865207265616E
:101E50007220202020200095010000006B6E6F6230
:101E600020756E74696C207061706572202020206E
:101E70000095010000006A75737420736C696465D5
:101E800073206265747765656E2000950700000019
:101E90006E6F7A7A6C6520616E6420706C61746517
:101EA000009502000000506C6561736520776169E0
:101EB00074008EB505000038180000D0070000003F
:101EC00000000000000000E0930400188E2C2900A0
:101ED00000C8E7FFFFD0070000000000000000007E
:101EE000005AC51F00188E2D290000C8E7FFFF000B
:101EF0000000000000000000000000E09304001853
:101F0000950000000041646A7573742066726F6EFC
:101F10007420726967687420200095010000006BCE
:101F20006E6F6220756E74696C20706170657220CE
:101F30002020200095010000006A75737420736CE6
:101F400069646573206265747765656E2000950726
:101F50000000006E6F7A7A6C6520616E6420706C90
:101F6000617465009502000000506C656173652026
:101F700077616974008E2C290000C8E7FFFFD00745
:101F800000000000000000000000E0930400188E34
:101F900012E2FFFFC8E7FFFFD007000000000000CB
:101FA00000000000D0A02500188E13E2FFFFC8E754
:101FB000FFFF000000000000000000000000E093B0
:101FC000040018950000000041646A75737420666F
:101FD000726F6E74206C656674202020009501007D
:101FE00000006B6E6F6220756E74696C207061709A
:101FF0006572202020200095010000006A7573742E
:1020000020736C69646573206265747765656E2002
:102010000095070000006E6F7A7A6C6520616E642F
:1020200020706C617465009502000000506C656161
:1020300073652077616974008E12E2FFFFC8E7FFC5
:10204000FFD00700000000000000000000E0930443
:1020500000188EB505000000000000D00700000049
:102060000000000000000095CD1600188EB6050097
:102070000000000000000000000000000000000060
:1020800000E09304001895000000004E6F77206C6C
:102090006574277320747269706C6520202020009D
:1020A0009501000000636865636B2D2D20706170E1
:1020B00065722073686F756C640095010000006A9A
:1020C00075737420736C69646520626574776565E7
:1020D0006E20200095070000006E6F7A7A6C6520F4
:1020E000616E6420706C61746500891F9900000046
:1020F000006E6F7A7A6C6543616C696272617469B3
:102100006F6E0096000086008403520100001400E8
:102110008304A600000014008C00000000000000F2
:102120000030F8FFFF00000000000000008B0000FE
:10213000000000000000000000000000000000009F
:102140000000A60000008304DC0500001400901FBE
:102150008C97340000F2190000000000000000001D
:1021600000000000008B40D9FFFFBFE6FFFF60EAE0
:10217000000000000000000000008000000091014D
:102180001491001491041491031488001F026E002E
:102190008D006400580288000302E60088010302F3
:1021A000E60087006400580287016400580291012C
:1021B0007F91007F91047F91037F8BC8E7FFFF0928
:1021C000EBFFFF680100000000000000000000803D
:1021D0000000008BC8E7FFFF09EBFFFF680100006C
:1021E000E4FFFFFF000000000C0300008BC8E7FFC6
:1021F000FF09EBFFFFF0000000D0FFFFFF00000031
:10220000003E0000008BC8E7FFFF09EBFFFFF00076
:102210000000B3FFFFFF00000000850100008BF10C
:10222000D9FFFF09EBFFFFF00000004FFEFFFF00AA
:102230000000007F0300008BC8E7FFFF88EEFFFF70
:10224000F00000007FFEFFFF00000000D300000050
:102250008BC8E7FFFF88EEFFFFF000000063FEFF82
:10226000FF00000000850100008B67DDFFFF88EEA6
:10227000FFFFF0000000FEFCFFFF000000008203F3
:1022800000008BC8E7FFFF06F2FFFFF00000002E02
:10229000FDFFFF00000000D80000008BC8E7FFFF33
:1022A00006F2FFFFF000000012FDFFFF000000003B
:1022B000850100008B67DDFFFF06F2FFFFF00000E5
:1022C00000ADFBFFFF00000000820300008BC8E7A9
:1022D000FFFF85F5FFFFF0000000DDFBFFFF0000C2
:1022E0000000D80000008BC8E7FFFF85F5FFFFF076
:1022F000000000C1FBFFFF00000000850100008B13
:1023000067DDFFFF85F5FFFFF00000005CFAFFFFCF
:1023100000000000820300008BC8E7FFFF03F9FF05
:10232000FFF00000008DFAFFFF00000000D8000061
:10233000008BC8E7FFFF03F9FFFFF000000070FA11
:10234000FFFF00000000850100008B67DDFFFF0339
:10235000F9FFFFF00000000BF9FFFF000000008212
:102360000300008BC8E7FFFF82FCFFFFF0000000C6
:102370003CF9FFFF00000000D80000008BC8E7FF19
:10238000FF82FCFFFFF00000001FF9FFFF000000CC
:1023900000850100008B67DDFFFF82FCFFFFF0007E
:1023A0000000BAF7FFFF00000000820300008BC8A6
:1023B000E7FFFF00000000F0000000EBF7FFFF0068
:1023C000000000D80000008BC8E7FFFF00000000FD
:1023D000F0000000CEF7FFFF0000000085010000C4
:1023E0008B67DDFFFF00000000F000000069F6FFD2
:1023F000FF00000000820300008BC8E7FFFF7E03A0
:102400000000F00000009AF6FFFF00000000D80076
:1024100000008BC8E7FFFF7E030000F00000007D96
:10242000F6FFFF00000000850100008B67DDFFFF65
:102430007E030000F000000019F5FFFF000000001F
:10244000820300008BC8E7FFFFFD060000F00000DC
:102450000049F5FFFF00000000D80000008BC8E72E
:10246000FFFFFD060000F00000002CF5FFFF00005C
:102470000000850100008B67DDFFFFFD060000F016
:10248000000000C8F3FFFF00000000820300008B83
:10249000C8E7FFFF7B0A0000F0000000F8F3FFFF31
:1024A00000000000D80000008BC8E7FFFF7B0A0097
:1024B00000F0000000DBF3FFFF00000000850100DA
:1024C000008B67DDFFFF7B0A0000F000000077F261
:1024D000FFFF00000000820300008BC8E7FFFFFA47
:1024E0000D0000F0000000A7F2FFFF00000000D880
:1024F0000000008BC8E7FFFFFA0D0000F0000000AD
:102500008AF2FFFF00000000850100008B67DDFFFD
:10251000FFFA0D0000F000000026F1FFFF000000B0
:1025200000820300008BC8E7FFFF78110000F00075
:10253000000056F1FFFF00000000D80000008BC82B
:10254000E7FFFF78110000F000000039F1FFFF0005
:10255000000000850100008B67DDFFFF781100009F
:10256000F0000000D5EFFFFF000000008203000034
:102570008BC8E7FFFFF7140000F000000005F0FF34
:10258000FF00000000D80000008BC8E7FFFFF71431
:102590000000F0000000E8EFFFFF000000008501F0
:1025A00000008B67DDFFFFF7140000F000000084DF
:1025B000EEFFFF00000000820300008B6AF5FFFFC2
:1025C00015F9FFFF68010000B4EEFFFF00000000F6
:1025D0000E0100008B6AF5FFFF15F9FFFFF0000008
:1025E0000084EEFFFF000000009C0000008B6AF5F5
:1025F000FFFF15F9FFFFF000000067EEFFFF00008E
:102600000000850100008B6AF5FFFFEB060000F07B
:1026100000000003EDFFFF000000007F0300008BBF
:10262000E9F8FFFF15F9FFFFF000000033EDFFFFB1
:1026300000000000D30000008BE9F8FFFF15F9FF50
:10264000FFF000000016EDFFFF0000000085010014
:10265000008BE9F8FFFF75030000F0000000B2EB0B
:10266000FFFF00000000820300008B67FCFFFF15E6
:10267000F9FFFFF0000000E2EBFFFF00000000D8D0
:102680000000008B67FCFFFF15F9FFFFF000000062
:10269000C5EBFFFF00000000850100008B67FCFF19
:1026A000FF75030000F000000061EAFFFF0000007A
:1026B00000820300008BE6FFFFFF15F9FFFFF0002B
:1026C000000091EAFFFF00000000D80000008BE648
:1026D000FFFFFF15F9FFFFF000000074EAFFFF00A5
:1026E000000000850100008BE6FFFFFF750300007E
:1026F000F000000010E9FFFF00000000820300006E
:102700008B6403000015F9FFFFF000000040E9FFB3
:10271000FF00000000D80000008B6403000015F9E2
:10272000FFFFF000000023E9FFFF0000000085012B
:1027300000008B6403000075030000F0000000BF80
:10274000E7FFFF00000000820300008BE2060000AC
:1027500015F9FFFFF0000000EFE7FFFF00000000A9
:10276000D80000008BE206000015F9FFFFF0000022
:1027700000D2E7FFFF00000000850100008BE206A9
:10278000000075030000F00000006EE6FFFF00008F
:102790000000820300008B610A000015F9FFFFF0C2
:1027A0000000009EE6FFFF00000000D80000008B44
:1027B000610A000015F9FFFFF000000081E6FFFF4D
:1027C00000000000850100008B610A000075030015
:1027D00000F00000001DE5FFFF0000000082030084
:1027E000008BDF0D000015F9FFFFF00000004DE544
:1027F000FFFF00000000D80000008BDF0D00001577
:10280000F9FFFFF000000030E5FFFF000000008549
:102810000100008BDF0D000075030000F0000000D8
:10282000CCE3FFFF00000000820300008B5E11007C
:102830000015F9FFFFF0000000FCE3FFFF000000BF
:1028400000D80000008B5E11000015F9FFFFF000BA
:102850000000DFE3FFFF00000000850100008B5E49
:1028600011000075030000F00000007BE2FFFF0094
:10287000000000820300008BDC14000015F9FFFF4C
:10288000F0000000ABE2FFFF00000000D8000000F5
:102890008BDC14000015F9FFFFF00000008EE2FF52
:1028A000FF00000000850100008BDC1400007503B0
:1028B0000000F00000002AE1FFFF0000000082039A
:1028C00000008B5B18000015F9FFFFF00000005AB4
:1028D000E1FFFF00000000D80000008B5B18000043
:1028E00015F9FFFFF00000003DE1FFFF00000000D0
:1028F000850100008B5B18000075030000F00000EC
:1029000000D9DFFFFF00000000820300008BDA1B0C
:10291000000015F9FFFFF000000009E0FFFF0000D4
:102920000000D80000008BDA1B000015F9FFFFF053
:10293000000000ECDFFFFF00000000850100008BBD
:10294000DA1B000075030000F000000088DEFFFFC6
:1029500000000000820300008B581F000015F9FFE3
:10296000FFF0000000B8DEFFFF00000000D800000C
:10297000008B581F000015F9FFFFF00000009BDEE0
:10298000FFFF00000000850100008B581F0000754C
:10299000030000F000000037DDFFFF0000000082B0
:1029A0000300008B581F000075030000F0000000BA
:1029B00067DDFFFF000000000C0300008C581F00C3
:1029C0000075030000F0000000000000000000009F
:1029D00000860189188BC8E7FFFF3EEBFFFF680107
:1029E00000000000000000000000DF0000008BC8B5
:1029F000E7FFFF3EEBFFFF6801000000000000E47E
:102A0000FFFFFF0C0300008BC8E7FFFF3EEBFFFF5B
:102A1000F000000000000000D0FFFFFF3E000000BB
:102A20008BC8E7FFFF3EEBFFFFF000000000000057
:102A300000B3FFFFFF850100008B2AF2FFFF3EEB92
:102A4000FFFFF0000000000000004FFEFFFF8203C8
:102A500000008BC8E7FFFFB4EEFFFFF000000000AE
:102A60000000007FFEFFFFD80000008BC8E7FFFFDB
:102A7000B4EEFFFFF00000000000000063FEFFFF67
:102A8000850100008B2AF2FFFFB4EEFFFFF000008B
:102A90000000000000FEFCFFFF820300008BC8E77F
:102AA000FFFF2AF2FFFFF0000000000000002EFDF3
:102AB000FFFFD80000008BC8E7FFFF2AF2FFFFF0FE
:102AC0000000000000000012FDFFFF850100008BE8
:102AD0002AF2FFFF2AF2FFFFF000000000000000D2
:102AE000ADFBFFFF820300008BC8E7FFFF9FF5FFF0
:102AF000FFF000000000000000DDFBFFFFD8000039
:102B0000008BC8E7FFFF9FF5FFFFF000000000000B
:102B10000000C1FBFFFF850100008B2AF2FFFF9F31
:102B2000F5FFFFF0000000000000005CFAFFFF82EC
:102B30000300008BC8E7FFFF15F9FFFFF00000005E
:102B4000000000008DFAFFFFD80000008BC8E7FFEF
:102B5000FF15F9FFFFF00000000000000070FAFF11
:102B6000FF850100008B2AF2FFFF15F9FFFFF0003F
:102B70000000000000000BF9FFFF820300008BC87B
:102B8000E7FFFF8BFCFFFFF0000000000000003CAF
:102B9000F9FFFFD80000008BC8E7FFFF8BFCFFFFA9
:102BA000F0000000000000001FF9FFFF8501000099
:102BB0008B2AF2FFFF8BFCFFFFF0000000000000FB
:102BC00000BAF7FFFF820300008BC8E7FFFF000099
:102BD0000000F000000000000000EBF7FFFFD8004D
:102BE00000008BC8E7FFFF00000000F000000000BD
:102BF000000000CEF7FFFF850100008B2AF2FFFFE7
:102C000000000000F00000000000000069F6FFFF77
:102C1000820300008BC8E7FFFF75030000F000008F
:102C200000000000009AF6FFFFD80000008BC8E704
:102C3000FFFF75030000F0000000000000007DF6BB
:102C4000FFFF850100008B2AF2FFFF75030000F0F3
:102C50000000000000000019F5FFFF820300008B58
:102C6000C8E7FFFFEB060000F000000000000000D6
:102C700049F5FFFFD80000008BC8E7FFFFEB060017
:102C800000F0000000000000002CF5FFFF850100AF
:102C9000008B2AF2FFFFEB060000F00000000000AE
:102CA0000000C8F3FFFF820300008BC8E7FFFF614D
:102CB0000A0000F000000000000000F8F3FFFFD859
:102CC0000000008BC8E7FFFF610A0000F000000071
:102CD00000000000DBF3FFFF850100008B2AF2FFFC
:102CE000FF610A0000F00000000000000077F2FF22
:102CF000FF820300008BC8E7FFFFD60D0000F00045
:102D0000000000000000A7F2FFFFD80000008BC801
:102D1000E7FFFFD60D0000F0000000000000008A71
:102D2000F2FFFF850100008B2AF2FFFFD60D0000A5
:102D3000F00000000000000026F1FFFF8203000009
:102D40008BC8E7FFFF4C110000F0000000000000FE
:102D50000056F1FFFFD80000008BC8E7FFFF4C11C1
:102D60000000F00000000000000039F1FFFF8501C5
:102D700000008B2AF2FFFF4C110000F00000000061
:102D8000000000D5EFFFFF820300008BC8E7FFFFC4
:102D9000C2140000F00000000000000005F0FFFF7A
:102DA000D80000008BC8E7FFFFC2140000F000004D
:102DB0000000000000E8EFFFFF850100008B2AF211
:102DC000FFFFC2140000F00000000000000084EECD
:102DD000FFFF820300008B9FF5FFFFB4EEFFFF684B
:102DE00001000000000000B4EEFFFFCE0000008BE9
:102DF0009FF5FFFFB4EEFFFFF000000000000000B1
:102E000084EEFFFF9C0000008B9FF5FFFFB4EEFFF8
:102E1000FFF00000000000000067EEFFFF850100EA
:102E2000008B9FF5FFFF15F9FFFFF0000000000089
:102E3000000003EDFFFF820300008B15F9FFFFB4D4
:102E4000EEFFFFF00000000000000033EDFFFFD8B0
:102E50000000008B15F9FFFFB4EEFFFFF00000004B
:102E60000000000016EDFFFF850100008B15F9FF43
:102E7000FF15F9FFFFF000000000000000B2EBFFBB
:102E8000FF820300008B8BFCFFFFB4EEFFFFF0001E
:102E9000000000000000E2EBFFFFD80000008B8B79
:102EA000FCFFFFB4EEFFFFF000000000000000C5D3
:102EB000EBFFFF850100008B8BFCFFFF15F9FFFF87
:102EC000F00000000000000061EAFFFF8203000044
:102ED0008B00000000B4EEFFFFF0000000000000D7
:102EE0000091EAFFFFD80000008B00000000B4EE64
:102EF000FFFFF00000000000000074EAFFFF850102
:102F000000008B0000000015F9FFFFF0000000003A
:102F100000000010E9FFFF820300008B7503000032
:102F2000B4EEFFFFF00000000000000040E9FFFFEA
:102F3000D80000008B75030000B4EEFFFFF0000026
:102F4000000000000023E9FFFF850100008B7503EE
:102F5000000015F9FFFFF000000000000000BFE7CF
:102F6000FFFF820300008BEB060000B4EEFFFFF0D2
:102F700000000000000000EFE7FFFFD80000008B1A
:102F8000EB060000B4EEFFFFF000000000000000C0
:102F9000D2E7FFFF850100008BEB06000015F9FF6B
:102FA000FFF0000000000000006EE6FFFF8203005B
:102FB000008B610A0000B4EEFFFFF000000000008B
:102FC00000009EE6FFFFD80000008B610A0000B4FD
:102FD000EEFFFFF00000000000000081E6FFFF852B
:102FE0000100008B610A000015F9FFFFF0000000EE
:102FF000000000001DE5FFFF820300008BD60D00DE
:1030000000B4EEFFFFF0000000000000004DE5FFFF
:10301000FFD80000008BD60D0000B4EEFFFFF000DB
:1030200000000000000030E5FFFF850100008BD6A6
:103030000D000015F9FFFFF000000000000000CCBB
:10304000E3FFFF820300008B4C110000B4EEFFFF92
:10305000F000000000000000FCE3FFFFD8000000CB
:103060008B4C110000B4EEFFFFF0000000000000E8
:1030700000DFE3FFFF850100008B4C11000015F914
:10308000FFFFF0000000000000007BE2FFFF820372
:1030900000008BC2140000B4EEFFFFF0000000003F
:1030A000000000ABE2FFFFD80000008BC21400005C
:1030B000B4EEFFFFF0000000000000008EE2FFFF12
:1030C000850100008BC214000015F9FFFFF000001D
:1030D00000000000002AE1FFFF820300008B381887
:1030E0000000B4EEFFFFF0000000000000005AE115
:1030F000FFFFD80000008B38180000B4EEFFFFF08F
:10310000000000000000003DE1FFFF850100008B92
:103110003818000015F9FFFFF00000000000000063
:10312000D9DFFFFF820300008BAD1B0000B4EEFF70
:10313000FFF00000000000000009E0FFFFD80000E1
:10314000008BAD1B0000B4EEFFFFF000000000009C
:103150000000ECDFFFFF850100008BAD1B000015B8
:10316000F9FFFFF00000000000000088DEFFFF8292
:103170000300008B231F0000B4EEFFFFF0000000EF
:1031800000000000B8DEFFFFD80000008B231F0006
:1031900000B4EEFFFFF0000000000000009BDEFF27
:1031A000FF850100008B231F000015F9FFFFF000D1
:1031B00000000000000037DDFFFF820300008B23CA
:1031C0001F000015F9FFFF30F2000000000000377B
:1031D000DDFFFFC5000000890088000302000088B1
:1031E000010302000088001F0200005F003608365D
:1031F00008FF1020546865205265706C6963617423
:103200006F7220322020200020202D2D2D2D2D2DDD
:103210002D2D2D2D2D2D2D2D202020200020202066
:10322000202020202020202020202020202020209E
:1032300020004669726D7761726520566572736908
:103240006F6E20372E2000436F6F6C210053746126
:1032500072742050726568656174210052696768F4
:103260007420546F6F6C004E4120004F4E20004F71
:103270004646004578747275646572004C656674E4
:1032800020546F6F6C00506C6174666F726D0057E4
:10329000656C636F6D65212049276D2020202020FB
:1032A000202020546865205265706C696361746FDA
:1032B0007220322E2020205072657373207468654E
:1032C00020726564204D20746F2020676574207320
:1032D0007461727465642120202020202020200049
:1032E0004120626C696E6B696E6720274D27206DE7
:1032F00065616E7349276D2077616974696E672017
:10330000616E642077696C6C636F6E74696E75654D
:10331000207768656E20796F752020207072657344
:10332000732074686520627574746F6E2E2E2E2063
:10333000004120736F6C696420274D27206D656103
:103340006E7320202049276D20776F726B696E673E
:1033500020616E642077696C6C757064617465209F
:103360006D792073746174757320202020776865EF
:103370006E2049276D2066696E69736865642E2E1C
:103380002E004F7572206E657874207374657073AB
:103390002077696C6C20676574206D652073657497
:1033A0002075702120202020202046697273742C03
:1033B000207765276C6C20726573746F72656D7908
:1033C000206275696C6420706C6174666F726D2E1A
:1033D0002E2E00736F2069742773206E6963652039
:1033E000616E64202020206C6576656C2E20497407
:1033F00027732070726F6261626C796120626974F8
:10340000206F66662066726F6D202020202020735A
:1034100068697070696E672E2E2E20202020202073
:1034200020202000416161682C207468617420664E
:1034300065656C73202020206D756368206265745B
:103440007465722E20202020202020204C657427B7
:103450007320676F206F6E20616E64206C6F6164F3
:10346000736F6D652066696C616D656E74212020D7
:1034700020202020005765276C6C20747279206111
:103480006761696E2120202020202020202020201C
:10349000202020202020202020202020202020202C
:1034A000202020202020202020202020202020201C
:1034B000202020202020202020202020202020200C
:1034C0002020202020005765276C6C206B656570DC
:1034D00020676F696E6720202020616E64206C6F0A
:1034E000616420736F6D6520202020202020666994
:1034F0006C616D656E742C466F722068656C70200F
:10350000676F746F206D616B6572626F742E636F8D
:103510006D2F68656C70005765276C6C20676F2095
:10352000746F20746865206D61696E6D656E752EAF
:1035300020496620796F75206E65656420202068BB
:10354000656C7020676F20746F3A20202020202047
:103550002020206D616B6572626F742E636F6D2F1A
:1035600068656C7020202000417765736F6D652160
:103570002020202020202020202020205765276C7C
:103580006C20676F20746F2074686520534420207E
:1035900063617264206D656E7520616E6420796F61
:1035A0007520202063616E2073656C6563742061F3
:1035B000206D6F64656C21200049276D20676F695D
:1035C0006E6720746F206D616B6520202061207311
:1035D0006572696573206F66206C696E6573207310
:1035E0006F77652063616E2066696E64206D792057
:1035F00020202020206E6F7A7A6C6520616C6967CC
:103600006E6D656E742E202020004C6F6F6B2066EF
:103610006F722074686520626573742020206D616C
:103620007463686564206C696E6520696E206561ED
:10363000636861786973207365742E204C696E65C8
:103640007320617265206E756D62657265642031EC
:103650002D313320616E642E2E2E006C696E652034
:103660006F6E652069732065787472612020206C0C
:103670006F6E672E20546865205920617869732029
:103680007365746973206C656674206F6E2074684E
:103690006520706C617465616E6420582061786982
:1036A000732069732072696768742E0047726561C0
:1036B0007421202049277665207361766564202077
:1036C00074686573652073657474696E67732061CF
:1036D0006E64202049276C6C2075736520746865C2
:1036E0006D20746F202020206D616B65206E6963F2
:1036F00065206D6F64656C73212020200053656C1C
:103700006563742062657374206C696E65732E0046
:10371000582041786973204C696E65002D2D3E005C
:1037200020202000592041786973204C696E650083
:10373000446F6E6521004D792074656D706572610E
:10374000747572652077617320206368616E6765A8
:10375000642065787465726E616C6C792E20526598
:1037600073656C6563742066696C616D656E742049
:1037700020206D656E7520746F20747279206167EA
:1037800061696E2E2020004D792065787472756411
:1037900065727320617265202020206E6F7420682E
:1037A000656174696E672075702E2020202020438B
:1037B0006865636B206D7920202020202020202048
:1037C000202020636F6E6E656374696F6E732120B5
:1037D000202020202020200049276D20686561746A
:1037E000696E67207570206D79202020657874726D
:1037F0007564657220736F2077652063616E202089
:103800006C6F6164207468652066696C616D656EBB
:10381000742E20204265206361726566756C2C20D1
:103820007468652E2E2E20200049276D2068656162
:1038300074696E67207570206D792020206578741A
:10384000727564657220736F2077652063616E20E6
:10385000206C6F6164207468652066696C616D65B9
:103860006E742E20204265206361726566756C2C33
:10387000207468652E2E2E202000506C65617365C3
:103880002077616974207768696C652049206865D4
:103890006174206D79206578747275646572212079
:1038A0002020202020202020202020202020202018
:1038B0002020202020202020202020202020202008
:1038C00020202020202020202020006E6F7A7A6C7B
:1038D000652077696C6C2067657420686F74215768
:1038E00068696C652049276D2068656174696E6739
:1038F0002C202072656D6F7665207468652066697E
:103900006C616D656E7420747562652066726F6D92
:10391000207468652E2E2E20202020006E6F7A7A6B
:103920006C652077696C6C2067657420686F742102
:103930005768696C652049276D2068656174696EF8
:10394000672C202072656D6F76652074686520662F
:10395000696C616D656E7420747562652066726F46
:103960006D207468652E2E2E20202020006578742E
:10397000727564657220626C6F636B2E204665659C
:103980006466696C616D656E742066726F6D20741B
:10399000686520202073706F6F6C207468726F757B
:1039A0006768207468652020207475626520756ED4
:1039B00074696C2069742E2E2E2020202000706FD8
:1039C0007073206F757420696E2066726F6E742E2E
:1039D00020205768656E207468652066696C616D8B
:1039E000656E7420697372656164792C20707265EC
:1039F000737320274D2720746F20636F6E74696E78
:103A000075652E2020202020202020202020004806
:103A1000656174696E672050726F67726573733A7F
:103A20002020202020202020202020202020202096
:103A30002020202020202020202020202020202086
:103A40002020202020202020202020202020202076
:103A50002020202020202020202020202020200086
:103A60004F4B2049276D2072656164792120202009
:103A7000202020204669727374207765276C6C20A3
:103A80006C6F61642074686572696768742065781A
:103A90007472756465722E20202020205075736822
:103AA0002066696C616D656E7420696E2E2E2E2005
:103AB00000477265617421204E6F77207765276C0F
:103AC0006C202020206C6F616420746865206C6518
:103AD000667420202020202020657874727564652B
:103AE000722E205075736820202020202066696C7B
:103AF000616D656E74207468726F7567682E2E2E06
:103B000020004F4B2049276D207265616479212088
:103B1000202020202020507573682074686520665E
:103B2000696C616D656E742020207468726F7567B2
:103B3000682E2E2E20202020202020202020202013
:103B40002020202020202020202020202020202075
:103B500020200049276D207265616479212050750D
:103B60006C6C207468652067756964652074756283
:103B700065206F666620616E642020707573682012
:103B80007468652066696C616D656E7420202074B0
:103B900068726F7567682E2E2E202020202020202E
:103BA0002020200049276D20726561647921205012
:103BB000756C6C2074686520677569646520747520
:103BC0006265206F666620616E64202070756C6C83
:103BD000207468652066696C616D656E74202020B4
:103BE00067656E746C792E2E2E20202020202020D8
:103BF000202020200049276D2072656164792120F2
:103C00004465746163682020207468652067756965
:103C10006465207475626520616E6420206D6F7626
:103C20006520746865206C6576657220746F20204D
:103C3000207468652072696768742E202050756C46
:103C40006C2E2E2E200049276D207265616479212B
:103C5000204465746163682020207468652067755E
:103C6000696465207475626520616E6420206D6FE3
:103C7000766520746865206C6576657220746F20A7
:103C80002020746865206C6566742E202050756C49
:103C90006C2E2E2E202000756E74696C20796F7545
:103CA000206665656C2074686520206D6F746F7286
:103CB0002074756720697420696E2E2020202050A2
:103CC00075736820666F72206120666577206D6F5E
:103CD0007265207365636F6E64732C207468656E03
:103CE00020776169742E20005768656E2066696CC4
:103CF000616D656E74206973202020206265696E95
:103D0000672065787472756465642066726F6D20D3
:103D1000746865206E6F7A7A6C652C2050726573BA
:103D200073204D20746F2073746F702065787472E7
:103D30007564696E672E2020005768656E2066697D
:103D40006C616D656E742069732020202062656946
:103D50006E672065787472756465642066726F6D35
:103D600020746865206E6F7A7A6C652C2020202084
:103D70002020202020507265737320274D27207447
:103D80006F20657869742E2020005768656E206D5D
:103D9000792066696C616D656E7420697320726547
:103DA0006C65617365642C20202020202020202059
:103DB0002020507265737320274D2720746F206573
:103DC0007869742E202020202020202020202020F0
:103DD000202020202020202020200066696C616D9A
:103DE000656E74206672656520616E6420202063B4
:103DF0006C6F736520746865206C657665722E2023
:103E0000202020507265737320274D2720746F2067
:103E1000657869742E20202020202020202020205A
:103E200020202020202020202020200047726561B3
:103E30007421202049276C6C2073746F702020201F
:103E400072756E6E696E67206D7920657874727513
:103E50006465722E5072657373204D20746F2063F9
:103E60006F6E74696E75652E202020202020202022
:103E7000202020202020202020202020004F4B2107
:103E80002049276C6C206B656570206D792020209F
:103E9000206D6F746F722072756E6E696E672E2062
:103EA000596F7520206D6179206E65656420746F8F
:103EB0002070757368202020206861726465722EFE
:103EC0002E2E20202020202020202020200057657A
:103ED000276C6C206B65657020676F696E672E209C
:103EE00020204C6574732074727920746865206C8E
:103EF00065667420202065787472756465722E2062
:103F00005075736820202020202066696C616D65E3
:103F10006E7420646F776E2E2E2E20202020005786
:103F200065276C6C206B65657020676F696E672E06
:103F3000202020496620796F752772652068617698
:103F4000696E672020202074726F75626C652C206A
:103F5000636865636B206F757420206D616B65729B
:103F6000626F742E636F6D2F68656C702020200067
:103F70004D79206D6F746F722074696D6564206F68
:103F80007574202061667465722035206D696E75C8
:103F90007465732E202020205072657373204D208D
:103FA000746F20657869742E202020202020202026
:103FB0002020202020202020202020202020202001
:103FC00000486F77276420697420676F3F2052652F
:103FD000616479202000746F206D616B6520736FC0
:103FE0006D657468696E673F2020005965732020F5
:103FF00020004E6F2020202000446F6573206D79D3
:10400000206E6F7A7A6C6520006865696768742035
:10401000636865636B206F75743F20004D7920687D
:10402000656967687420697320676F6F6421202059
:10403000004C657427732074727920616761696E22
:104040002E0044696420706C617374696320657824
:104050007472756465200066726F6D2074686520E7
:104060006E6F7A7A6C653F20202020004C6F61646F
:10407000207269676874004C6F616400556E6C6FE4
:10408000616420726967687400556E6C6F616400CA
:104090004C6F6164206C65667400556E6C6F616472
:1040A000206C6566740020202020204A6F67206DF8
:1040B0006F64652020202020202000202020202048
:1040C000202020582B2020202020202020202000CD
:1040D000202020202020284261636B2920202059A5
:1040E0002D3E2020002020202020202020582D2080
:1040F00020202020202020202000202020202020E0
:104100002020592B2020202020202020202000208B
:10411000203C2D5820284261636B2920205A2D3ED7
:10412000202020002020202020202020592D202069
:10413000202020202020202000202020202020209F
:10414000205A2D2020202020202020202000202048
:104150003C2D5920284261636B29202020202020FB
:1041600020200020202020202020205A2B2020202A
:10417000202020202020200047414D45204F56453B
:1041800052210048656174696E673A202020202022
:10419000202020202020200048656174696E673A45
:1041A0000020202020202000202D2D250065727267
:1041B0006F7221002020202020202020202020207D
:1041C000202020202020202000457874727564650E
:1041D000723A2020202D2D2D2F2D2D2D43005220E1
:1041E00045787472756465723A202D2D2D2F2D2D12
:1041F0002D43004C2045787472756465723A202D09
:104200002D2D2F2D2D2D4300506C6174666F726D16
:104210003A2020202D2D2D2F2D2D2D430020204EF6
:1042200041202020200077616974696E6720002F8B
:1042300020202043004320202020006820206D0003
:1042400020507265686561742053657474696E6787
:104250007320202000526967687420546F6F6C20AF
:10426000202020202020202020004C65667420542F
:104270006F6F6C2020202020202020202020005044
:104280006C6174666F726D20202020202020200039
:104290002052657365742053657474696E6773206A
:1042A000746F2020002044656661756C742076610F
:1042B0006C7565733F00556E5061757365202020E5
:1042C00020202020202020202000506175736520B0
:1042D000202020202020202020202020200043619A
:1042E0006E63656C204275696C642020202020205C
:1042F000200057616974696E6720666F7220486F8D
:104300006D696E6720004368616E67652046696C61
:10431000616D656E742020202000536C65657020EF
:1043200028436F6C642050617573652920005265C5
:1043300073756D65204275696C64202020202020F3
:1043400020005A205061757365204865696768745C
:104350002020202020004C454420436F6C6F7220A9
:1043600020202020202020202000524544202020F2
:10437000004F52414E47450050494E4B20200047C8
:104380005245454E2000424C554520200050555284
:10439000504C450057484954452000435553544F0D
:1043A0004D004F46462020200046696C616D656EC9
:1043B000742046616E202020202020200042756954
:1043C0006C64205374617469737469637320202072
:1043D000004261636B20746F204D6F6E69746F7261
:1043E00020202020004275696C642046696E697344
:1043F00068656421202020202020202020202020EB
:1044000020202020202020202020202020427569EC
:104410006C642054696D65202020202020682020B5
:104420006D004275696C642054696D653A202020E6
:1044300020206820206D004C696E653A20202020E5
:104440002020202020202020202020004573746977
:104450006D61746564204275696C642054696D6592
:104460004C69666574696D6520546F74616C3A209F
:1044700020202068004C617374204275696C643A96
:1044800020202020206820206D0043616E63656C31
:104490002074686973206275696C643F00517569A6
:1044A0007420746869732070726F636573733F0062
:1044B0004275696C642066726F6D20534420202021
:1044C0002020200050726568656174202020202023
:1044D00020202020202020005574696C69746965B3
:1044E000732020202020202020202000496E666F8D
:1044F00020616E642053657474696E6773202000B8
:104500004D6F6E69746F72204D6F6465202020209E
:10451000202020004368616E67652046696C616DEC
:10452000656E7420202020004C6576656C204275F5
:10453000696C6420506C6174652020004A6F6720AC
:104540004D6F646520202020202020202020200086
:10455000486F6D6520417865732020202020202041
:104560002020200052756E20537461727475702083
:104570005363726970742000456E61626C652053EC
:104580007465707065727320202020004469736127
:10459000626C652053746570706572732020200012
:1045A00053746F7020426C696E6B696E67212020B6
:1045B00020202000426C696E6B204C454473202003
:1045C000202020202020200043616C6962726174E9
:1045D00065204E6F7A7A6C65732020006578697467
:1045E000206D656E752020202020202020202000B6
:1045F000426F74205374617469737469637320200B
:104600002020200047656E6572616C2053657474CC
:10461000696E6773202020005072656865617420A0
:1046200053657474696E6773202020005665727339
:10463000696F6E204E756D6265722020202020000B
:10464000526573746F72652044656661756C74732E
:10465000202020002020205A2050617573652048BA
:104660006569676874202020005A20506F73697450
:10467000696F6E2020202020206D6D200050617514
:1046800073652041637469766520202020202020F6
:1046900000536F756E6420202020202020202020D1
:1046A000202020200048656174656420506C61748E
:1046B0006500546F6F6C20436F756E74202020204E
:1046C00020202020200053494E474C4500445541AE
:1046D0004C20200048656174204C45447320202004
:1046E00020202020202020004865617420486F6C25
:1046F000642020202020206D2020200048656C7040
:1047000020546578742020202020202020202000A4
:10471000416363656C6572617465202020202020F0
:10472000202020004E6F2053442063617264206675
:104730006F756E640053442063617264207265611A
:1047400064206572726F7200492063616E27742065
:10475000726561642074686973202020534420636B
:1047600061726420666F726D6174212020202020A8
:10477000547279207265666F726D617474696E67C8
:1047800020202020746865206361726420746F208B
:1047900046415431362E202000492063616E277433
:1047A00020726561642053442020202020636172C0
:1047B000647320776974682073746F726167652011
:1047C000206C6172676572207468616E20324742A6
:1047D0002E202020202020202020202020202020CB
:1047E000202020202020202020002053442063610E
:1047F00072642072656164206572726F720049276D
:104800006D20616C7265616479206275696C6469A0
:104810006E67005761726E696E673A4275696C64C3
:104820002073706565647366617374657220746863
:10483000616E2035306D6D2F732020726571756942
:1048400072652078336720666F726D617420206610
:104850006F72206265737420726573756C74732E49
:1048600020202000D0FEC0FF18FFD0FF63FFE0FF34
:10487000B1FFF0FF0000000051001000A400200074
:10488000F800300040014000A2015000F701600034
:104890004B0270009F028000F20290004503A000CE
:1048A0009703B000E803C0003A04D0008C04E00095
:1048B000DF04F0003205000186051001DB05200150
:1048C0002F063001DA0650013007600186077001BB
:1048D000DC0780016808900120F9C9FFE0FCE7FFD0
:1048E000F8FF00000000000008000000200319008D
:1048F0004006320060094B00000A5000800C640042
:104900000010800001009403360009016B00D800FC
:10491000A000BD00D500AB000A019D003F0184004E
:1049200074017C00A9017400DE016D0013026600B1
:10493000480260007D025900B2025200E7024B00BB
:104940001C03440051033A0086033000BB032200DD
:10495000F0030200413468345B3814429742E54C5E
:104960008D4E07526453F3668978987BA486D68768
:10497000F988FA89AA8BD98B988D5099FF99D69D81
:10498000689E519F0EA038A160A6ACA6A7AA7AAED9
:104990003BD0F9D180D3CAD483D55FD611241FBEB2
:1049A000CFEFD1E2DEBFCDBF15E0A0E0B2E0E2E69E
:1049B000FAEB01E00BBF02C007900D92A03BB107DC
:1049C000D9F72DE1A0EBB5E001C01D92A335B207E8
:1049D000E1F719E4CCE9D9E400E006C02297010927
:1049E000FE010BBF0E941EDCC435D10780E0080722
:1049F000A9F70E9464420C942FDD0C940000FA0188
:104A0000DC0102C005900D9221503040D8F7089586
:104A1000F8948091F4059091F5052091F20530917C
:104A2000F305281B390B7894C90108958093EB0591
:104A3000089581E08093E90508958091EB0508953C
:104A40008091EA0508952091F4053091F50581E003
:104A5000232B09F080E008951092F5051092F405DB
:104A60001092F7051092F6051092FA051092FB05C8
:104A70001092ED051092EE051092EF051092F005E0
:104A80001092EC051092EB051092EA051092E405E5
:104A90001092E5051092E6051092E7051092CF05F9
:104AA0001092E3051092E2051092E105089581E06D
:104AB0002091E1053091E2052630310509F080E0D2
:104AC00008956091ED057091EE058091EF0590914C
:104AD000F00508951092ED051092EE051092EF0585
:104AE0001092F00508954F925F926F927F928F928D
:104AF0009F92AF92BF92CF92DF92EF92FF920F936D
:104B00001F93CF93DF93CDB7DEB7C256D1090FB64F
:104B1000F894DEBF0FBECDBFCE018D5B9F4F0E94CC
:104B2000D87D84E1FE01ED5BFF4FA3EBB5E0019082
:104B30000D928A95E1F745E06FE77AE1CE01CD96D7
:104B40000E941ED3CE01CD960E9460D38093B20501
:104B500064E070E083EB95E00E94ED4EDC016D9126
:104B60007D918D919C910E94E3D82B013C0184E0C2
:104B70000E94147B9B01AC0163E070E083EB95E045
:104B8000A0962FAFA097A1963FAFA197A2964FAF47
:104B9000A297A3965FAFA3970E94ED4EFC01808081
:104BA0009180A280B38083E00E94147B6B966CAFEF
:104BB0007DAF8EAF9FAF6B9762E070E083EB95E0C7
:104BC0000E94ED4EDC01CD90DD90ED90FC9061E017
:104BD00070E083EB95E00E94ED4EDC018D919D919C
:104BE0000D90BC91A02D6F968CAF9DAFAEAFBFAFB7
:104BF0006F9760E070E083EB95E00E94ED4E8C01D2
:104C00006B966CAD7DAD8EAD9FAD6B970E94B5D8A8
:104C1000860E971EA81EB91ED8018D919D910D90EC
:104C2000BC91A02D6B968CAF9DAFAEAFBFAF6B9715
:104C3000A0962FADA097A1963FADA197A2964FAD9C
:104C4000A297A3965FADA397C301B2010E9493D729
:104C50000E94B0D89F938F937F936F936F960CAD04
:104C60001DAD2EAD3FAD6F976B964CAD5DAD6EAD8E
:104C70007FAD6B97CE0189960E94B14E48E052E01D
:104C800060E070E0CE0189960E946E7E80E399E03C
:104C90000E9448A49093CA058093C9058FEC99E0BF
:104CA0000E9448A49093CC058093CB058FE09CE0B4
:104CB0000E9448A49093C8058093C7050F900F9059
:104CC0000F900F908091E805882391F060E070E0EC
:104CD00080E399E00E9472A360E070E08FEC99E0BD
:104CE0000E9472A360E070E08FE09CE00E9472A3DB
:104CF00084E1FE01B996DE01559601900D928A95E8
:104D0000E1F762E070E0CE0145960E94ED4E8C0125
:104D100082E00E94147B0E94B0D89B01AC01A6E9FE
:104D2000B0E00E94E5DAF8016083718382839383A7
:104D300084E1FE017596DE01119601900D928A952F
:104D4000E1F760E070E0CE0101960E94ED4E8C012B
:104D500080E00E94147B20E030E04DED52EC0E9498
:104D6000E7D90E94B0D8D8016D937D938D939C9321
:104D7000139761E070E0CE0101960E94ED4E8C0128
:104D800081E00E94147B20E030E044E952EC0E9474
:104D9000E7D90E94B0D8F80160837183828393833E
:104DA0004CE850E060E070E0CE0145960E946E7ED7
:104DB00042E850E060E070E0CE0101960E946E7E15
:104DC00060E089EC98E00E94834BCE59DF4F0FB62C
:104DD000F894DEBF0FBECDBFDF91CF911F910F9131
:104DE000FF90EF90DF90CF90BF90AF909F908F900B
:104DF0007F906F905F904F9008950F931F93CF9384
:104E0000DF93CDB7DEB764970FB6F894DEBF0FBE61
:104E1000CDBFCE0101960E94D87D63E070E0CE0147
:104E200001960E94ED4E8C0163E070E083EB95E00B
:104E30000E94ED4EFC014081518162817381F80135
:104E4000408351836283738364E070E0CE010196F6
:104E50000E94ED4E8C0164E070E083EB95E00E94CF
:104E6000ED4EFC014081518162817381F8014083E4
:104E7000518362837383CE0101960E945B7C62E062
:104E800070E0CE0101960E94ED4E8C0162E070E070
:104E900083EB95E00E94ED4EFC01408151816281DF
:104EA0007381F80140835183628373834CE850E03F
:104EB00060E070E0CE0101960E946E7E42E850E014
:104EC00060E070E083EB95E00E946E7E6091B20539
:104ED00089EC98E00E94834B64960FB6F894DEBF8D
:104EE0000FBECDBFDF91CF911F910F9108956091BB
:104EF000C9057091CA0580E399E00E9472A3609190
:104F0000CB057091CC058FEC99E00E9472A3609163
:104F1000C7057091C8058FE09CE00E9472A38FE0E6
:104F20009CE00E945CA4882329F18FE09CE00E9411
:104F300076A481111FC017C061E080E399E00E9450
:104F4000A8A481E08093EC058FEC99E00E9476A400
:104F5000811110C061E08FEC99E00E94A8A481E06B
:104F60008093EC05089580E399E00E9476A4811176
:104F7000EBCFE2CF0895CF93DF93EB01709305025F
:104F8000609304029091EA05981709F44BC08823B6
:104F900029F1209781F481E08093E8056CE171E0CC
:104FA00084EC9AE00E94DCA781E090E09093CE052B
:104FB0008093CD050FC06130710561F41092E80552
:104FC00069E571E084EC9AE00E94DCA7D093CE05FD
:104FD000C093CD0581E08093EA0524C08091CD0582
:104FE0009091CE058130910529F41092CE05109252
:104FF000CD0516C08230910529F40E94772784E000
:1050000090E006C0039749F40E94772785E090E07E
:105010009093CE058093CD0505C06230710511F4E3
:105020001092EA05DF91CF910895CF93FC01C62F2E
:1050300082819381608171818617970798F44281FC
:10504000538184819581840F951F0E9466DAA68121
:10505000B781A80FB91FCC93828193810196938366
:10506000828302C081E08087CF910895682F82EF0C
:1050700095E00C941528CF93DF93FC0182819381F6
:10508000892B21F481E0818780E019C0848195819A
:1050900020813181B9010E9466DAC681D781C80FAB
:1050A000D91F848195810196B9010E9466DA9583A2
:1050B0008483828193810197938382838881DF91A6
:1050C000CF9108951F93CF93DF9300D0CDB7DEB774
:1050D00082EF95E00E943B28682F82EF95E06A837B
:1050E0000E943B28782F82EF95E079830E943B282D
:1050F000182F82EF95E00E943B28982F6A817981D2
:10510000812F0F900F90DF91CF911F910895CF9332
:1051100082EF95E00E943B28C82F82EF95E00E9425
:105120003B28982F8C2FCF91089582EF95E00C9417
:105130003B28CF93DF930E949528D82F0E94952873
:10514000C82F0E949528CA3009F4E8C098F4C630E8
:1051500009F4E1C048F4C43009F4E0C008F0DEC04E
:10516000C33009F0DEC01AC0C83009F4D7C008F057
:10517000D5C0D1C0CE3009F4D1C030F4CC3009F460
:105180006CC008F078C0CAC0C73109F45FC0CF3125
:1051900009F47AC0CF3009F0C4C0C0C08091B10515
:1051A0008823A1F080E399E00E9478A28FEC99E037
:1051B0000E9478A28091B005811104C08FE09CE02C
:1051C0000E9478A21092B0051092B1050E94872823
:1051D000BC01D13019F487EC99E002C088E299E073
:1051E00008960E9472A38FE09CE00E945CA4882332
:1051F00009F4A2C08FE09CE00E9476A481119CC0BB
:10520000D13019F487EC99E002C088E299E0089661
:105210000E9476A4811190C086C087EC99E061E07D
:1052200003C087EC99E060E008960E94A8A440E0E3
:1052300061E070E089EC98E00E948B45D13009F084
:105240008EC00E94123681117DC089C09091EB05FD
:1052500081E089270E946A3C82C00E949528682FBD
:105260006170D13019F487EC99E002C088E299E0CE
:105270000E948A8974C00E949528682F617089EC09
:1052800098E00E94834B6BC061E089EC98E00E943B
:105290007E4B8091B105882319F081E08093B005A1
:1052A0000E948728BC018FE09CE00E9472A38FE0DF
:1052B0009CE00E9476A4C1E0C827C093EC056C2F47
:1052C00080E399E00E94A8A46C2F8FEC99E00E94E3
:1052D000A8A440E061E070E089EC98E00E948B4572
:1052E0000E94FF3681113BC00E94F53B059739F0C3
:1052F00040E067EE71E089EC98E00E946D4560E067
:1053000070E08FE09CE00E9472A360E089EC98E07E
:105310000E947E4B24C00E94622821C00E949528D2
:105320001EC080E01DC081E08093EC05D13009F4FF
:1053300074CF88E299E073CFD13009F472CF88E25C
:1053400099E071CF40E066E971E089EC98E00E9455
:105350006D4560E070E08FEC99E00E9472A381E0FF
:10536000DF91CF9108952F923F924F925F926F926B
:105370007F928F929F92AF92BF92CF92DF92EF92E5
:10538000FF920F931F93CF93DF93CDB7DEB7E797CD
:105390000FB6F894DEBF0FBECDBF0E946E508823BB
:1053A00009F492C08091F4059091F5052091F205E1
:1053B0003091F3052817390711F40C9420330E941B
:1053C000DB5081110C9426330C942033C090E405FB
:1053D000D090E505E090E605F090E7050E941D50AD
:1053E000C616D706E806F90610F00C944D338091E6
:1053F000CF0581110C944D330C94423384EC9AE028
:105400000E9402A740E068E372E089EC98E00E9405
:105410006D4581E08093CF050E94A6831092F5052B
:105420001092F4051092F7051092F6051092FA0505
:105430001092FB0560E070E080E399E00E9472A3A7
:1054400060E070E08FEC99E00E9472A360E070E091
:105450008FE09CE00E9472A3CE0101960E94447DE1
:1054600062E070E0CE0101960E94ED4E8C0182E078
:105470000E94147B20E030E046E153E40E94E7D92B
:105480000E94B0D8F8016083718382839383109265
:10549000EB0546E950E060E070E0CE0101960E9425
:1054A0006E7E0E94ED501092E3050EC08091F405CF
:1054B0009091F505892B41F48091E1059091E205E9
:1054C000892B11F40C9454330E945787882311F1CF
:1054D0008091F4059091F5052091F2053091F30546
:1054E0002817390711F40C9458330E9460878111F2
:1054F0000C945F330C9458338091F4059091F5052A
:10550000892B41F48091E1059091E205892B11F4FA
:105510000C9468338091EC05882391F08FE09CE037
:105520000E9424A4882361F060E080E399E00E9457
:10553000A8A460E08FEC99E00E94A8A41092EC056A
:105540008091EB0581110C9428348091E90581113B
:105550000C9428348091E1059091E205039789F439
:105560000E94B77B811101C008C082ED95E00E94C6
:10557000F9D4882331F00E94A6831092E20510929C
:10558000E1058091E1059091E205019741F40E94C7
:10559000B77B811104C01092E2051092E105809161
:1055A000E1059091E205029751F482ED95E00E94A9
:1055B000F9D4882321F01092E2051092E105809140
:1055C000E1059091E205049709F049C082ED95E06C
:1055D0000E94F9D4882349F040E069E872E089EC40
:1055E00098E00E946D450C9479338091F1058130EB
:1055F00019F487EC99E002C088E299E008960E94CD
:1056000024A4882311F40C946C338091F10581302B
:1056100019F487EC99E002C088E299E0FC01E258B5
:10562000FF4F808181110C946C330C94763388E2A7
:1056300099E008960E945CA4811111C08091F10547
:10564000813019F487EC99E002C088E299E0FC010E
:10565000E258FF4F8081882311F40C9479338091B4
:10566000E1059091E2050597F9F482ED95E00E943D
:10567000F9D4882341F040E066EC72E089EC98E0D0
:105680000E946D450DC08FE09CE00E945CA48111DA
:1056900001C006C08FE09CE00E9424A4882321F072
:1056A0001092E2051092E1058091E1059091E205EA
:1056B000069709F03FC082ED95E00E94F9D4882357
:1056C000B1F08091D00581FF06C060E089EC98E0E0
:1056D0000E94074C2FC01092E2051092E10540E0B5
:1056E00060E170E089EC98E00E948B4523C084EC77
:1056F0009AE00E949FAA8823E9F08091D00582FF5A
:1057000004C084EC9AE00E9471A840E050E060E0A0
:1057100070E089EC98E00E94544840E060E170E05D
:1057200089EC98E00E948B450E94528A1092E20513
:105730001092E1058091E1059091E205892B09F035
:1057400064C78091EA05882309F4E2C08091CD0501
:105750009091CE05019709F0D2C70E94C1658111D1
:10576000D5C7CDC763E073E004C0019731F464E5A9
:1057700073E084EC9AE00E94DCA70E94732582E02B
:1057800090E096C00E94C1658111D1C7C7C740E0B3
:1057900059EE64EA75E382ED95E00E94D5D486E087
:1057A0000E94504E8091040290910502892B11F0C5
:1057B0000C94283464E180E00E94BD8264E181E0C1
:1057C0000E94BD8264E183E00E94BD8264E184E0C6
:1057D0000E94BD820C9428348091040290910502AD
:1057E000019711F00C94283482ED95E00E94F9D4D1
:1057F0008111ADC70C942834049749F08091CD05F0
:105800009091CE058530910509F0DEC7E2C70E9470
:10581000C1658111DEC7F2CF6FE780E00E94BD82D3
:105820006FE781E00E94BD828091040290910502A1
:10583000892B41F46FE783E00E94BD826FE784E02B
:105840000E94BD8262EE73E084EC9AE00E94DCA7C5
:105850001092F10585E090E09093E2058093E105D8
:1058600040E052ED69E47BE682ED95E00E94D5D4FC
:1058700086E090E09093CE058093CD0524E140E052
:1058800063E089EC98E00E94B445E2C71092F1050C
:1058900084E090E09093E2058093E10540E052EDD2
:1058A00069E47BE682ED95E00E94D5D487E090E044
:1058B0009093CE058093CD05CBC787309105A1F499
:1058C00081E08093F10584E090E09093E20580937D
:1058D000E10540E052ED69E47BE682ED95E00E944F
:1058E000D5D488E090E0E4CF8830910549F489EC84
:1058F00098E00E94CA450E94FD2689E090E0D8CF3A
:10590000099709F0A5C70E94C16581116AC7A0C7A0
:105910008091F4059091F505892B09F476C689EC00
:1059200098E00E94EC478091F6059091F705609110
:10593000F2057091F3050E9466DAE091F805F091A6
:10594000F905E80FF91F10811B3809F45DC71E38EF
:1059500009F462C71B3909F44FC7193809F464C741
:10596000163909F432C3163809F46AC71C3841F4F1
:105970008091F4059091F505459708F446C6CEC18F
:105980001C3909F422C3103909F41FC3133809F470
:105990001CC3143809F419C3183809F416C30E943B
:1059A000C165811149C754C789EC98E00E94EC4752
:1059B0000E94952881E090E09093E2058093E105B4
:1059C0000E94622868A779A78AA79BA70E946228DD
:1059D0006CA77DA78EA79FA70E9462286B017C0100
:1059E0000E9462284B015C010E946228162F072F3B
:1059F000382E292E0E9462282B013C018091ED0552
:105A00009091EE05A091EF05B091F0050196A11DD2
:105A1000B11D8093ED059093EE05A093EF05B09333
:105A2000F0052F923F920F931F930CA51DA52EA555
:105A30003FA548A559A56AA57BA5CE0101960E9460
:105A4000B14EB301A201CE0101960E946E7E58C0F4
:105A500089EC98E00E94EC470E94952881E090E054
:105A60009093E2058093E1050E94622868A779A7D8
:105A70008AA79BA70E9462286CA77DA78EA79FA7D5
:105A80000E9462286B017C010E9462284B015C012C
:105A90000E946228162F072F282E9EAB0E94622894
:105AA0002B013C010E949528382E8091ED059091A4
:105AB000EE05A091EF05B091F0050196A11DB11D75
:105AC0008093ED059093EE05A093EF05B093F0055C
:105AD0002EA92F932F920F931F930CA51DA52EA5D2
