:100000000C9416250C9445250C9445250C944525F7
:100010000C9445250C9445250C9445250C944525B8
:100020000C9445250C9445250C9445250C944525A8
:100030000C9445250C949D450C9445250C94452520
:100040000C9445250C9445250C9445250C94452588
:100050000C9445250C9445250C9445250C94452578
:100060000C9445250C94CED10C9445250C94FAD1D2
:100070000C9445250C94F99B0C9445250C9445252E
:100080000C9445250C9445250C9445250C94452548
:100090000C9445250C9445250C9445250C94452538
:1000A0000C9445250C9445250C9445250C94452528
:1000B0000C9445250C9445250C9445250C94FC4442
:1000C0000C9445250C9445250C9445250C94452508
:1000D0000C9445250C9445250C9445250C944525F8
:1000E0000C944525F3289D299D299A299A299D2913
:1000F0009D299D299D29392948299D299D29A02986
:10010000A029A029A029A029A029A0293229A02915
:10011000A029A029A029A029A029A0295129863FEA
:10012000AE3FB33F903FB83F05400540903FD63FBC
:100130000540DB3FE33FE83FED3FC23FC73FCC3FD9
:10014000903FD13F05408B3FBD3FF23FF73FFB3F24
:1001500005400540FF3F52885988628866885E885E
:1001600056886B887B887088B4A5B8A5BCA5C0A547
:10017000C4A5E1A5C8A5E1A5DCA524A949A926A98E
:1001800029A92CA931A936A93BA942A978AE8CAEE0
:100190003FAF07AF32AFFAAEE6AED2AE4CAFC9AEAC
:1001A000B7AEBAAEBDAEC0AEC3AEC6AECFAECCAECD
:1001B000FAB2FDB200B303B306B365B319B31CB30F
:1001C00065B33EB346B365B361B367B9A8B8C7B802
:1001D000D6B804B922B935B981BA89BA8CBA96BAF7
:1001E000A4BAF1BAABBA05BB08BBE8BAD6BAD9BA59
:1001F000DCBADFBAE2BAE5BAEEBAEBBA2BBB43BB64
:1002000046BB61BB8ABB95BBA7BB9FBBA2BB78BCEF
:100210007BBC7EBC84BC81BC87BC8ABC9DBCA7BCAB
:10022000AEBCD3BCD6BCDDBCE2BCDFBCE8BCEBBC26
:10023000F9BC07BD11BD91BD9CBDE2BDA7BDD7BD39
:10024000CCBDADBDF0BD11BED9C47FC589C58FC5BC
:1002500092C5A3C5B7C5E3C5E6C554C6FEC51EC64F
:1002600041C6494E56414C494420544F4F4C3A20C8
:10027000202020202020492072656365697665640E
:100280002061204C656674202020546F6F6C2063C1
:100290006F6D6D616E642C206275742049206F6EE5
:1002A0006C792068617665206F6E6520546F6F6C85
:1002B0002E2000494E56414C494420434F4D4D415C
:1002C0004E443A2020202049207265636569766596
:1002D00064206120636F6D6D616E64666F72206172
:1002E0002068656174656420706C6174652C20629F
:1002F0007574204920646F6E2774206861766520CC
:100300006F6E6500492074696D6564206F75742097
:100310007768696C65202020617474656D707469FC
:100320006E6720746F206865617420206D79206588
:10033000787472756465722E202020202020202081
:1003400000492074696D6564206F75742077686951
:100350006C65202020617474656D7074696E67200F
:10036000746F206865617420206D7920706C6174F1
:10037000666F726D2E2020202020202020005468DF
:100380006973206275696C6420697320666F7220DE
:100390002020616E6F7468657220626F742E205326
:1003A00065653A2020206D616B6572626F742E6303
:1003B0006F6D2F68656C7020202000546869732071
:1003C0006973206E6F7420746865207833672076B7
:1003D000657273696F6E204920776F726B2062655A
:1003E000737420776974682E20466F722068656C7C
:1003F00070207365653A206D616B6572626F742E53
:10040000636F6D2F68656C702020200052657374D7
:10041000617274696E6720746865204275696C64E6
:1004200000507265706172696E6720666F7220732A
:100430006C6565703A49276D20636F6F6C696E67F4
:10044000206D7920202020202068656174657273FA
:1004500020616E6420676F696E6720746F6D79200C
:100460007761697420706F736974696F6E2E2020D4
:100470002000507265706172696E6720666F72202D
:10048000736C6565703A49276D20636F6D706C659C
:1004900074696E6720616E79202071756575656479
:1004A000206D6F7665732E20202020202020004DA7
:1004B0007920686561746572732074696D65642064
:1004C0006F75744920616D206E6F7720696E2053BF
:1004D0006C65657020202028436F6C642050617526
:1004E0007365292E2020202020202020202020205D
:1004F000202020202020202020202020202020001C
:100500004368616E67696E672046696C616D656EF0
:10051000743A202049276D20676F696E6720746FD9
:10052000206D792077616974706F736974696F6E7B
:100530002E20202020202020202020200043686121
:100540006E67696E672046696C616D656E743A20EE
:100550002049276D20636F6D706C6574696E67202C
:10056000616E792020717565756564206D6F7665A3
:10057000732E202020202020200049207361772026
:100580006120676C6974636820696E206D795344DB
:1005900020636172642E2049662074686973206943
:1005A0007320746865206669727374206572726F57
:1005B000722C2074727974686973206D6F64656C35
:1005C00020616761696E2E202020005468652052EA
:1005D00065706C6963617430720049276D204361F6
:1005E0006E63656C6C696E672E2020202020506C35
:1005F0006561736520576169742E202020202020BA
:1006000020200048656174696E67204661696C75D9
:100610007265202335212049276D20726561646948
:100620006E67206F7574206F66202072616E67653B
:100630002074656D7065726174757265732E2043E8
:100640006865636B206D7920636F6E6E6563746996
:100650006F6E730048656174696E67204661696CEE
:1006600075726520233421204D792074656D706585
:100670007261747572652072656164736172652060
:100680006661696C696E672120506C6561736520D5
:10069000436865636B206D7920636F6E6E6563746C
:1006A000696F6E730048656174696E6720466169A1
:1006B0006C75726520233321204D79206578747222
:1006C000756465727320617265202020206C6F73E1
:1006D000696E672074656D70657261747572652EE0
:1006E00020436865636B206D7920636F6E6E656370
:1006F00074696F6E730048656174696E6720466146
:10070000696C75726520233221204D7920657874DB
:1007100072756465727320617265206E6F746865AE
:100720006174696E672070726F7065726C792E20CB
:100730002020436865636B206D7920636F6E6E6562
:100740006374696F6E730048656174696E672046F3
:1007500061696C7572652023312120536F6674774F
:100760006172652054656D70204C696D697420520A
:100770006561636865642120506C65617365202044
:1007800020202053687574646F776E206F7220523A
:1007900065737461727420004865617465727320BA
:1007A00073687574646F776E2020202064756520EF
:1007B000746F20696E616374697669747920202092
:1007C0000020009302690000006900EE016900004A
:1007D0000069002601B80100000000B807550000BC
:1007E000005500B909AB000000AB007D06550000C4
:1007F000005500C805550000005500B807AB0000C3
:1008000000AB00C805550000005500DD0455000090
:10081000005500C805550000005500B807550000F8
:100820000055007D065601000000003F0355000002
:10083000005500FA0C5500000055003F035500001C
:10084000005500B9095500000055003F0355000050
:100850000055002D095500000055003F03550000CC
:10086000005500EA0A5500000055003F03550000FE
:10087000005500B909AB0000000000C805C8000021
:10088000001400C805C80000001400C805C8000016
:10089000001400DD04B004000014007505C8000059
:1008A0000014007505C800000014007505C800009C
:1008B0000014009704B00400000000C00DC8000040
:1008C000001400C00DC80000001400910E9001003B
:1008D0000014005A10900100001400C00D20030005
:1008E00000000020065500000055002D08550000AE
:1008F0000055004D0A550000005500400CAB0000AB
:1009000000AB002D095500000055002D08550000D2
:100910000055004D0AAB000000550000000001C06A
:100920000D5500000055002D08560100000000C0C4
:100930000D20015311BC005B12B1010000000053F7
:100940004420436172642052656D6F766564202097
:1009500020200024F4D43050C38E20C2A24017823D
:100960008B7011127A910D816CD90AA861E108C7C8
:10097000586607615143061E4B5D05C145A7041A21
:10098000411104093D9803713931034036DB02659A
:10099000339102D4305402802E1D02632CEE017577
:1009A0002AC501B028A001102781018F2564012BE1
:1009B000244B01E0223401AC211F018D200D018068
:1009C0001FFC00841EED00971DDF00B81CD200E65E
:1009D0001BC600201BBC00641AB200B219A8000A92
:1009E00019A0006A189900D117910040178B00B523
:1009F00016840031167E00B31579003A157300C7CE
:100A0000146F0058146A00EE136600881363002503
:100A1000135E00C7125B006C12570015125400C120
:100A200011510070114F0021114B00D61049008D5B
:100A30001047004610440002104200C00F400080E2
:100A40000F3E00420F3C00060F3B00CB0E380093D8
:100A50000E37005C0E3500270E3400F30D3200C156
:100A60000D3100900D3000600D2E00320D2D00056F
:100A70000D2C00D90C2B00AE0C2900850C29005C34
:100A80000C2700350C27000E0C2600E80B2400C4B0
:100A90000B2400A00B23007D0B23005A0B210039EF
:100AA0000B2100180B2000F80A1F00D90A1E00BBFA
:100AB0000A1E009D0A1D00800A1D00630A1C0047D3
:100AC0000A1B002C0A1B00110A1A00F7091A00DD84
:100AD000091900C4091900AB091900920917007B14
:100AE000091800630917004C091600360916002082
:100AF0000916000A091500F5081500E0081400CCD5
:100B0000081400B8081400A4081400900813007D0D
:100B10000812006B0813005808120046081200342F
:100B2000081100230811001208110001081100F03B
:100B3000071000E0071000D0071000C0071000B039
:100B4000070F00A107100091070E0083070F007424
:100B5000070F0065070E0057070E0049070E003B00
:100B6000070D002E070E0020070D0013070D0006CD
:100B7000070D00F9060C00ED060D00E0060C00D490
:100B8000060C00C8060C00BC060C00B0060C00A445
:100B9000060B0099060C008D060B0082060B0077F1
:100BA000060B006C060B0061060A0057060B004C92
:100BB000060A0042060A0038060A002E060A002429
:100BC000060A001A060A001006090007060A00FDB8
:100BD000050900F4050900EB050900E2050900D943
:100BE000050900D0050900C7050900BE050900B5C3
:100BF000050800AD050800A50509009C050800943E
:100C00000508008C050800840508007C05080074B0
:100C10000508006C050700650508005D050700561E
:100C20000508004E05070047050700400508003885
:100C3000050700310507002A050700230507001CEA
:100C4000050600160507000F050700080506000247
:100C5000050700FB040600F5040700EE040600E8A3
:100C6000040600E2040700DB040600D5040600CFFA
:100C7000040600C9040600C3040600BD040600B74C
:100C8000040600B1040500AC040600A6040600A09A
:100C90000405009B04060095040500900406008AE4
:100CA00004050085040500800406007A040500752B
:100CB000040500700405006B04050066040500616E
:100CC0000405005C04050057040500520405004DAE
:100CD00004050048040500430405003E0404003AEE
:100CE00004050035040500300404002C0405002729
:100CF000040400230405001E0404001A0404001662
:100D0000040500110404000D040400090405000496
:100D100004040000040400FC030400F8030400F4CD
:100D2000030400F0030400EC030400E8030400E4FF
:100D3000030400E0030400DC030400D8030400D42F
:100D4000030400D0030400CC030400C8030300C55F
:100D500003030024F404D9201BC40C5C0E9804C4C3
:100D6000095F0265077101F405F900FB04B300484F
:100D7000048700C10369005803550003034500BE02
:100D8000023A008402310053022A0029022500049D
:100D9000022000E4011C00C8011900AF01170098EF
:100DA0000114008401130071011000610110005151
:100DB000010E0043010D0036010B002B010B00203A
:100DC000010B00150109000C01090003010800FBDB
:100DD000000800F3000800EB000700E4000600DE56
:100DE000000600D8000600D2000600CC000500C7AF
:100DF000000500C2000500BD000400B9000400B5F4
:100E0000000400B1000400AD000400A9000400A526
:100E1000000300A20003009F0004009B0003009851
:100E20000003009500020093000300900003008D72
:100E30000002008B0003008800020086000200848C
:100E4000000300810002007F0002007D0002007BA1
:100E500000020079000200770001007600020074B1
:100E600000020072000100710002006F0002006DBC
:100E70000001006C0002006A0001006900020067C6
:100E800000010066000100650001006400020062CC
:100E900000010061000100600001005F0002005DD0
:100EA0000001005C0001005B0001005A00010059D4
:100EB00000010058000100570001005600010055D4
:100EC00000010054000100530000005300010052D3
:100ED00000010051000100500001004F0001004ED0
:100EE0000000004E0001004D0001004C0001004BCD
:100EF0000000004B0001004A0001004900010048C9
:100F000000000048000100470001004600000046C4
:100F100000010045000000450001004400010043BD
:100F200000000043000100420000004200010041B7
:100F300000000041000100400001003F0000003FB0
:100F40000001003E0000003E0001003D0000003DA9
:100F50000001003C0000003C0000003C0001003BA0
:100F60000000003B0001003A0000003A0001003997
:100F7000000000390001003800000038000000388F
:100F80000001003700000037000100360000003685
:100F9000000000360001003500000035000000357B
:100FA0000001003400000034000000340001003370
:100FB0000000003300000033000100320000003266
:100FC000000000320001003100000031000000315B
:100FD0000001003000000030000000300001002F50
:100FE0000000002F0000002F0000002F0001002E45
:100FF0000000002E0000002E0001002D0000002D3A
:101000000000002D0000002D0001002C0000002C2D
:101010000000002C0000002C0001002B0000002B21
:101020000000002B0000002B0001002A0000002A15
:101030000000002A0000002A000100290000002909
:1010400000000029000000290000002900010028FC
:1010500000000028000000280000002800000028F0
:1010600000010027000000270000002700000027E3
:1010700000000027000100260000002600000026D6
:1010800000000026000000260001002500000025C9
:1010900000000025000000250000002500000025BC
:1010A00000010024000000240000002400000024AF
:1010B00000000024000100230000002300000023A2
:1010C0000000002300000023000000230000002394
:1010D0000001002200000022000000220000002287
:1010E0000000002200000022000100210000002179
:1010F000000000210000002100000021000000216C
:10110000000000210001002000000020000000205D
:10111000000000200000002000000020000000204F
:10112000000000200001001F0000001F0000001F41
:101130000000001F0000001F0000001F0000001F33
:101140000001001E0000001E0000001E0000001E26
:1011500000000099000000006E6F7A7A6C654361B0
:101160006C6962726174696F6E009600008600841B
:10117000035201000014008304A600000014008C38
:10118000000000000000000030F8FFFF0000000039
:10119000000000008B0000000000000000000000C4
:1011A000000000000000000000A60000008304DC36
:1011B0000500001400901F8C97340000F219000005
:1011C0000000000000000000000000008B40D9FF7C
:1011D000FFBFE6FFFF60EA00000000000000000023
:1011E00000800000009101149100149104149103F7
:1011F0001488001F026E008D0064005802880003EE
:1012000002E60088010302E60087006400580287B6
:10121000016400580291017F91007F91047F910346
:101220007F8BC8E7FFFF09EBFFFF680100000000AC
:10123000000000000000800000008BC8E7FFFF09ED
:10124000EBFFFF68010000E4FFFFFF000000000C5F
:101250000300008BC8E7FFFF09EBFFFFF000000071
:10126000D0FFFFFF000000003E0000008BC8E7FF3A
:10127000FF09EBFFFFF0000000B3FFFFFF000000DD
:1012800000850100008BF1D9FFFF09EBFFFFF000A3
:1012900000004FFEFFFF000000007F0300008BC82E
:1012A000E7FFFF88EEFFFFF00000007FFEFFFF007A
:1012B000000000D30000008BC8E7FFFF88EEFFFFAF
:1012C000F000000063FEFFFF000000008501000049
:1012D0008B67DDFFFF88EEFFFFF0000000FEFCFFE4
:1012E000FF00000000820300008BC8E7FFFF06F24A
:1012F000FFFFF00000002EFDFFFF00000000D800FF
:1013000000008BC8E7FFFF06F2FFFFF000000012AD
:10131000FDFFFF00000000850100008B67DDFFFF7F
:1013200006F2FFFFF0000000ADFBFFFF0000000031
:10133000820300008BC8E7FFFF85F5FFFFF0000088
:1013400000DDFBFFFF00000000D80000008BC8E7B5
:10135000FFFF85F5FFFFF0000000C1FBFFFF00006D
:101360000000850100008B67DDFFFF85F5FFFFF0C2
:101370000000005CFAFFFF00000000820300008B09
:10138000C8E7FFFF03F9FFFFF00000008DFAFFFF41
:1013900000000000D80000008BC8E7FFFF03F9FF42
:1013A000FFF000000070FAFFFF0000000085010060
:1013B000008B67DDFFFF03F9FFFFF00000000BF972
:1013C000FFFF00000000820300008BC8E7FFFF82E0
:1013D000FCFFFFF00000003CF9FFFF00000000D818
:1013E0000000008BC8E7FFFF82FCFFFFF000000059
:1013F0001FF9FFFF00000000850100008B67DDFF83
:10140000FF82FCFFFFF0000000BAF7FFFF000000C2
:1014100000820300008BC8E7FFFF00000000F0001F
:101420000000EBF7FFFF00000000D80000008BC8B1
:10143000E7FFFF00000000F0000000CEF7FFFF0014
:10144000000000850100008B67DDFFFF0000000049
:10145000F000000069F6FFFF0000000082030000BA
:101460008BC8E7FFFF7E030000F00000009AF6FF44
:10147000FF00000000D80000008BC8E7FFFF7E03DC
:101480000000F00000007DF6FFFF00000000850175
:1014900000008B67DDFFFF7E030000F000000019F5
:1014A000F5FFFF00000000820300008BC8E7FFFF8C
:1014B000FD060000F000000049F5FFFF00000000FD
:1014C000D80000008BC8E7FFFFFD060000F0000019
:1014D000002CF5FFFF00000000850100008B67DD98
:1014E000FFFFFD060000F0000000C8F3FFFF000052
:1014F0000000820300008BC8E7FFFF7B0A0000F0BA
:10150000000000F8F3FFFF00000000D80000008B8F
:10151000C8E7FFFF7B0A0000F0000000DBF3FFFFDD
:1015200000000000850100008B67DDFFFF7B0A00E3
:1015300000F000000077F2FFFF00000000820300CF
:10154000008BC8E7FFFFFA0D0000F0000000A7F2D3
:10155000FFFF00000000D80000008BC8E7FFFFFA83
:101560000D0000F00000008AF2FFFF00000000857F
:101570000100008B67DDFFFFFA0D0000F0000000A6
:1015800026F1FFFF00000000820300008BC8E7FF88
:10159000FF78110000F000000056F1FFFF0000008E
:1015A00000D80000008BC8E7FFFF78110000F000B2
:1015B000000039F1FFFF00000000850100008B678B
:1015C000DDFFFF78110000F0000000D5EFFFFF0005
:1015D000000000820300008BC8E7FFFFF714000043
:1015E000F000000005F0FFFF00000000D800000040
:1015F0008BC8E7FFFFF7140000F0000000E8EFFFE2
:10160000FF00000000850100008B67DDFFFFF7147D
:101610000000F000000084EEFFFF000000008203E5
:1016200000008B6AF5FFFF15F9FFFF68010000B4A9
:10163000EEFFFF000000000E0100008B6AF5FFFFC7
:1016400015F9FFFFF000000084EEFFFF000000002E
:101650009C0000008B6AF5FFFF15F9FFFFF000000A
:101660000067EEFFFF00000000850100008B6AF5B7
:10167000FFFFEB060000F000000003EDFFFF00009D
:1016800000007F0300008BE9F8FFFF15F9FFFFF072
:1016900000000033EDFFFF00000000D30000008BCE
:1016A000E9F8FFFF15F9FFFFF000000016EDFFFF5E
:1016B00000000000850100008BE9F8FFFF750300C2
:1016C00000F0000000B2EBFFFF000000008203000A
:1016D000008B67FCFFFF15F9FFFFF0000000E2EB55
:1016E000FFFF00000000D80000008B67FCFFFF1523
:1016F000F9FFFFF0000000C5EBFFFF0000000085D0
:101700000100008B67FCFFFF75030000F000000084
:1017100061EAFFFF00000000820300008BE6FFFF8C
:10172000FF15F9FFFFF000000091EAFFFF00000045
:1017300000D80000008BE6FFFFFF15F9FFFFF00067
:10174000000074EAFFFF00000000850100008BE646
:10175000FFFFFF75030000F000000010E9FFFF002D
:10176000000000820300008B6403000015F9FFFFF6
:10177000F000000040E9FFFF00000000D80000007A
:101780008B6403000015F9FFFFF000000023E9FF60
:10179000FF00000000850100008B6403000075035A
:1017A0000000F0000000BFE7FFFF00000000820320
:1017B00000008BE206000015F9FFFFF0000000EFCB
:1017C000E7FFFF00000000D80000008BE2060000E9
:1017D00015F9FFFFF0000000D2E7FFFF0000000056
:1017E000850100008BE206000075030000F0000098
:1017F000006EE6FFFF00000000820300008B610A1C
:10180000000015F9FFFFF00000009EE6FFFF00005A
:101810000000D80000008B610A000015F9FFFFF0FE
:1018200000000081E6FFFF00000000850100008B42
:10183000610A000075030000F00000001DE5FFFFD5
:1018400000000000820300008BDF0D000015F9FF8F
:10185000FFF00000004DE5FFFF00000000D8000091
:10186000008BDF0D000015F9FFFFF000000030E5F0
:10187000FFFF00000000850100008BDF0D000075F8
:10188000030000F0000000CCE3FFFF000000008236
:101890000300008B5E11000015F9FFFFF00000004F
:1018A000FCE3FFFF00000000D80000008B5E110089
:1018B0000015F9FFFFF0000000DFE3FFFF0000006C
:1018C00000850100008B5E11000075030000F00030
:1018D00000007BE2FFFF00000000820300008BDCC1
:1018E00014000015F9FFFFF0000000ABE2FFFF005D
:1018F000000000D80000008BDC14000015F9FFFF89
:10190000F00000008EE2FFFF0000000085010000F3
:101910008BDC14000075030000F00000002AE1FFDA
:10192000FF00000000820300008B5B18000015F927
:10193000FFFFF00000005AE1FFFF00000000D800A8
:1019400000008B5B18000015F9FFFFF00000003D60
:10195000E1FFFF00000000850100008B5B18000024
:1019600075030000F0000000D9DFFFFF0000000059
:10197000820300008BDA1B000015F9FFFFF0000066
:101980000009E0FFFF00000000D80000008BDA1B18
:10199000000015F9FFFFF0000000ECDFFFFF000082
:1019A0000000850100008BDA1B000075030000F0C9
:1019B00000000088DEFFFF00000000820300008BB3
:1019C000581F000015F9FFFFF0000000B8DEFFFF10
:1019D00000000000D80000008B581F000015F9FF20
:1019E000FFF00000009BDEFFFF000000008501000B
:1019F000008B581F000075030000F000000037DD69
:101A0000FFFF00000000820300008B581F000075DC
:101A1000030000F000000067DDFFFF000000000C85
:101A20000300008C581F000075030000F000000048
:101A30000000000000000000860189188BC8E7FF45
:101A4000FF3EEBFFFF680100000000000000000007
:101A500000DF0000008BC8E7FFFF3EEBFFFF6801DF
:101A6000000000000000E4FFFFFF0C0300008BC833
:101A7000E7FFFF3EEBFFFFF000000000000000D09A
:101A8000FFFFFF3E0000008BC8E7FFFF3EEBFFFFBC
:101A9000F000000000000000B3FFFFFF8501000020
:101AA0008B2AF2FFFF3EEBFFFFF00000000000007A
:101AB000004FFEFFFF820300008BC8E7FFFFB4EE7C
:101AC000FFFFF0000000000000007FFEFFFFD800D5
:101AD00000008BC8E7FFFFB4EEFFFFF0000000003E
:101AE00000000063FEFFFF850100008B2AF2FFFF6C
:101AF000B4EEFFFFF000000000000000FEFCFFFF5E
:101B0000820300008BC8E7FFFF2AF2FFFFF000000E
:101B100000000000002EFDFFFFD80000008BC8E78A
:101B2000FFFF2AF2FFFFF00000000000000012FD9E
:101B3000FFFF850100008B2AF2FFFF2AF2FFFFF072
:101B400000000000000000ADFBFFFF820300008BDF
:101B5000C8E7FFFF9FF5FFFFF00000000000000056
:101B6000DDFBFFFFD80000008BC8E7FFFF9FF5FFFC
:101B7000FFF000000000000000C1FBFFFF85010036
:101B8000008B2AF2FFFF9FF5FFFFF000000000002E
:101B900000005CFAFFFF820300008BC8E7FFFF151F
:101BA000F9FFFFF0000000000000008DFAFFFFD8F1
:101BB0000000008BC8E7FFFF15F9FFFFF0000000F1
:101BC0000000000070FAFFFF850100008B2AF2FF81
:101BD000FF15F9FFFFF0000000000000000BF9FF07
:101BE000FF820300008BC8E7FFFF8BFCFFFFF000C4
:101BF0000000000000003CF9FFFFD80000008BC887
:101C0000E7FFFF8BFCFFFFF0000000000000001F5B
:101C1000F9FFFF850100008B2AF2FFFF8BFCFFFF1D
:101C2000F000000000000000BAF7FFFF8203000090
:101C30008BC8E7FFFF00000000F00000000000007C
:101C400000EBF7FFFFD80000008BC8E7FFFF0000A4
:101C50000000F000000000000000CEF7FFFF85014B
:101C600000008B2AF2FFFF00000000F000000000DF
:101C700000000069F6FFFF820300008BC8E7FFFF4A
:101C800075030000F0000000000000009AF6FFFF5E
:101C9000D80000008BC8E7FFFF75030000F00000CC
:101CA00000000000007DF6FFFF850100008B2AF296
:101CB000FFFF75030000F00000000000000019F5B0
:101CC000FFFF820300008BC8E7FFFFEB060000F078
:101CD0000000000000000049F5FFFFD80000008B65
:101CE000C8E7FFFFEB060000F00000000000000066
:101CF0002CF5FFFF850100008B2AF2FFFFEB0600A9
:101D000000F000000000000000C8F3FFFF820300A5
:101D1000008BC8E7FFFF610A0000F0000000000030
:101D20000000F8F3FFFFD80000008BC8E7FFFF6159
:101D30000A0000F000000000000000DBF3FFFF8558
:101D40000100008B2AF2FFFF610A0000F000000092
:101D50000000000077F2FFFF820300008BC8E7FF5E
:101D6000FFD60D0000F000000000000000A7F2FF09
:101D7000FFD80000008BC8E7FFFFD60D0000F00081
:101D80000000000000008AF2FFFF850100008B2A9E
:101D9000F2FFFFD60D0000F000000000000000265A
:101DA000F1FFFF820300008BC8E7FFFF4C1100002A
:101DB000F00000000000000056F1FFFFD800000016
:101DC0008BC8E7FFFF4C110000F00000000000008E
:101DD0000039F1FFFF850100008B2AF2FFFF4C1153
:101DE0000000F000000000000000D5EFFFFF8203BC
:101DF00000008BC8E7FFFFC2140000F000000000E5
:101E000000000005F0FFFFD80000008BC8E7FFFFCF
:101E1000C2140000F000000000000000E8EFFFFF27
:101E2000850100008B2AF2FFFFC2140000F00000C1
:101E3000000000000084EEFFFF820300008B9FF58E
:101E4000FFFFB4EEFFFF6801000000000000B4EEE9
:101E5000FFFFCE0000008B9FF5FFFFB4EEFFFFF009
:101E60000000000000000084EEFFFF9C0000008BDB
:101E70009FF5FFFFB4EEFFFFF00000000000000040
:101E800067EEFFFF850100008B9FF5FFFF15F9FF4F
:101E9000FFF00000000000000003EDFFFF820300E0
:101EA000008B15F9FFFFB4EEFFFFF000000000000B
:101EB000000033EDFFFFD80000008B15F9FFFFB4E1
:101EC000EEFFFFF00000000000000016EDFFFF85B0
:101ED0000100008B15F9FFFF15F9FFFFF00000006E
:101EE00000000000B2EBFFFF820300008B8BFCFFC1
:101EF000FFB4EEFFFFF000000000000000E2EBFF87
:101F0000FFD80000008B8BFCFFFFB4EEFFFFF0005A
:101F1000000000000000C5EBFFFF850100008B8B77
:101F2000FCFFFF15F9FFFFF000000000000000615A
:101F3000EAFFFF820300008B00000000B4EEFFFF09
:101F4000F00000000000000091EAFFFFD800000050
:101F50008B00000000B4EEFFFFF000000000000066
:101F60000074EAFFFF850100008B0000000015F9F6
:101F7000FFFFF00000000000000010E9FFFF8203F7
:101F800000008B75030000B4EEFFFFF000000000BE
:101F900000000040E9FFFFD80000008B750300003F
:101FA000B4EEFFFFF00000000000000023E9FFFF97
:101FB000850100008B7503000015F9FFFFF000009C
:101FC0000000000000BFE7FFFF820300008BEB066C
:101FD0000000B4EEFFFFF000000000000000EFE79B
:101FE000FFFFD80000008BEB060000B4EEFFFFF00F
:101FF00000000000000000D2E7FFFF850100008B19
:10200000EB06000015F9FFFFF000000000000000E3
:102010006EE6FFFF820300008B610A0000B4EEFF52
:10202000FFF0000000000000009EE6FFFFD8000067
:10203000008B610A0000B4EEFFFFF000000000001A
:10204000000081E6FFFF850100008B610A0000159A
:10205000F9FFFFF0000000000000001DE5FFFF8217
:102060000300008BD60D0000B4EEFFFFF00000006F
:10207000000000004DE5FFFFD80000008BD60D00EA
:1020800000B4EEFFFFF00000000000000030E5FFAC
:10209000FF850100008BD60D000015F9FFFFF00051
:1020A000000000000000CCE3FFFF820300008B4C27
:1020B000110000B4EEFFFFF000000000000000FC83
:1020C000E3FFFFD80000008B4C110000B4EEFFFFCF
:1020D000F000000000000000DFE3FFFF85010000CA
:1020E0008B4C11000015F9FFFFF00000000000000C
:1020F000007BE2FFFF820300008BC2140000B4EEFD
:10210000FFFFF000000000000000ABE2FFFFD8007E
:1021100000008BC2140000B4EEFFFFF000000000CE
:102120000000008EE2FFFF850100008BC21400005A
:1021300015F9FFFFF0000000000000002AE1FFFF9A
:10214000820300008B38180000B4EEFFFFF000009F
:1021500000000000005AE1FFFFD80000008B381893
:102160000000B4EEFFFFF0000000000000003DE1C1
:10217000FFFF850100008B3818000015F9FFFFF004
:1021800000000000000000D9DFFFFF820300008B89
:10219000AD1B0000B4EEFFFFF000000000000000E7
:1021A00009E0FFFFD80000008BAD1B0000B4EEFF7C
:1021B000FFF000000000000000ECDFFFFF850100E1
:1021C000008BAD1B000015F9FFFFF00000000000C0
:1021D000000088DEFFFF820300008B231F0000B495
:1021E000EEFFFFF000000000000000B8DEFFFFD8A7
:1021F0000000008B231F0000B4EEFFFFF000000082
:10220000000000009BDEFFFF850100008B231F0004
:102210000015F9FFFFF00000000000000037DDFFAF
:10222000FF820300008B231F000015F9FFFF30F22F
:1022300000000000000037DDFFFFC500000089003E
:1022400088000302000088010302000088001F02CA
:1022500000009502000000506C6561736520776195
:1022600069740084037D0100001400830488000069
:102270000014008C000000000000000030F8FFFF98
:1022800000000000000000008E00000000000000C0
:1022900000000000000000000000000000572904BA
:1022A00000188304DC05000014008C97340000F350
:1022B0001900000000000000000000000000009570
:1022C000000000005469676874656E20656163688A
:1022D000206F662074686520009501000000746816
:1022E000726565206B6E6F627320756E6465722017
:1022F0002020009501000000746865206275696CFB
:102300006420706C6174666F726D20200095070008
:10231000000061626F757420666F7572207475724B
:102320006E732E00950000000049276D20676F69CD
:102330006E6720746F206D6F7665206D7900950152
:1023400000000065787472756465722061726F7543
:102350006E6420746F20200095010000006469669F
:10236000666572656E7420706F696E747320736F2A
:1023700020009507000000796F752063616E20636F
:102380006865636B2E2E2E00950000000074686552
:10239000206865696768742E2041742065616368F0
:1023A00020009501000000706F696E742C206C6F26
:1023B0006F73656E20746865202020009501000011
:1023C00000737065636966696564206B6E6F622077
:1023D000756E74696C009507000000746865206E66
:1023E0006F7A7A6C6520616C6D6F73742E2E2E007F
:1023F0009500000000746F756368657320746865EC
:10240000206275696C642020200095010000007036
:102410006C6174652E20546865206E6F7A7A6C65E5
:1024200020697300950100000061742074686520C4
:102430007269676874206865696768742000950729
:102440000000007768656E2061207468696E2070F6
:10245000696563652E2E2E0095000000006F6620D2
:1024600070617065722077696C6C20736C6964654B
:10247000200095010000006265747765656E207428
:102480006865206E6F7A7A6C6520200095010000E7
:1024900000616E64206275696C6420706C617465A3
:1024A000207769746800950700000020736F6D65E0
:1024B000206672696374696F6E2E009502000000D9
:1024C000506C656173652077616974008E97340084
:1024D00000F2190000D0070000000000000000001A
:1024E000009AE90300188EB605000039180000D0E4
:1024F000070000000000000000000024612900180F
:102500008EB5050000381800000000000000000033
:102510000000000000E09304001895000000004156
:10252000646A757374207468652072656172206BCB
:102530006E6F62009501000000756E74696C20700A
:1025400061706572206A75737420202020009501E7
:10255000000000736C69646573206265747765655B
:102560006E2074686520200095070000006E6F7A69
:102570007A6C6520616E6420706C617465009502F0
:10258000000000506C656173652077616974008E8E
:10259000B505000038180000D0070000000000005A
:1025A00000000000E0930400188E51160000C8E7F8
:1025B000FFFFD00700000000000000000000802A9C
:1025C0002D00188E51160000C8E7FFFF0000000024
:1025D0000000000000000000E093040018950000D7
:1025E000000041646A7573742066726F6E742072A5
:1025F0006967687420200095010000006B6E6F62AF
:1026000020756E74696C20706170657220202020C6
:102610000095010000006A75737420736C6964652D
:1026200073206265747765656E2000950700000071
:102630006E6F7A7A6C6520616E6420706C6174656F
:10264000009502000000506C656173652077616938
:1026500074008E51160000C7E7FFFFD0070000008E
:1026600000000000000000E0930400188E69F4FFF1
:10267000FFC8E7FFFFD007000000000000000000D7
:10268000003FE81D00188E69F4FFFFC8E7FFFF0058
:102690000000000000000000000000E093040018AB
:1026A000950000000041646A7573742066726F6E55
:1026B00074206C6566742020200095010000006B7A
:1026C0006E6F6220756E74696C2070617065722027
:1026D0002020200095010000006A75737420736C3F
:1026E00069646573206265747765656E200095077F
:1026F0000000006E6F7A7A6C6520616E6420706CE9
:10270000617465009502000000506C65617365207E
:1027100077616974008E69F4FFFFC8E7FFFFD00797
:1027200000000000000000000000E0930400189585
:10273000000000004E6F772049276D20676F696E9B
:102740006720746F20202020009501000000736531
:102750006E64206D7920657874727564657220747A
:102760006F20009501000000616C6C207468726538
:102770006520706F696E747320202020009507001B
:102780000000616761696E20746F2072656368651F
:10279000636B2E009502000000506C65617365202C
:1027A00077616974008EB505000038180000D00705
:1027B0000000000000000000000078381B00188EA8
:1027C000B6050000381800000000000000000000FE
:1027D00000000000E0930400189500000000416430
:1027E0006A75737420746865207265617220202098
:1027F00020200095010000006B6E6F6220756E74E2
:10280000696C2070617065722020202000950100A5
:1028100000006A75737420736C6964657320626567
:10282000747765656E200095070000006E6F7A7AF8
:102830006C6520616E6420706C61746500950200A7
:102840000000506C656173652077616974008EB516
:1028500005000038180000D007000000000000004C
:10286000000000E0930400188E2C290000C8E7FF48
:10287000FFD007000000000000000000005AC51F44
:1028800000188E2D290000C8E7FFFF00000000009F
:1028900000000000000000E0930400189500000014
:1028A0000041646A7573742066726F6E7420726979
:1028B00067687420200095010000006B6E6F622035
:1028C000756E74696C207061706572202020200024
:1028D00095010000006A75737420736C69646573F8
:1028E000206265747765656E200095070000006EB4
:1028F0006F7A7A6C6520616E6420706C617465001B
:102900009502000000506C65617365207761697401
:10291000008E2C290000C8E7FFFFD0070000000050
:10292000000000000000E0930400188E12E2FFFF98
:10293000C8E7FFFFD0070000000000000000000013
:10294000D0A02500188E13E2FFFFC8E7FFFF0000AC
:1029500000000000000000000000E0930400189553
:102960000000000041646A7573742066726F6E74B3
:10297000206C6566742020200095010000006B6EBD
:102980006F6220756E74696C2070617065722020B2
:1029900020200095010000006A75737420736C6933
:1029A000646573206265747765656E200095070025
:1029B00000006E6F7A7A6C6520616E6420706C61C5
:1029C0007465009502000000506C656173652077A6
:1029D000616974008E12E2FFFFC8E7FFFFD00700B5
:1029E000000000000000000000E0930400188EB515
:1029F00005000000000000D00700000000000000FB
:102A000000000095CD1600188EB6050000000000ED
:102A100000000000000000000000000000E093043F
:102A2000001895000000004E6F77206C65742773C6
:102A300020747269706C65202020200095010000D0
:102A400000636865636B2D2D207061706572207363
:102A5000686F756C640095010000006A75737420DE
:102A6000736C696465206265747765656E2020000B
:102A700095070000006E6F7A7A6C6520616E6420A5
:102A8000706C61746500891F9502000000506C65D0
:102A900061736520776169740084037D010000140F
:102AA0000083048800000014008C00000000000077
:102AB000000030F8FFFF00000000000000008E0062
:102AC0000000000000000000000000000000000006
:102AD00000000057290400188304DC0500001400DE
:102AE0008C97340000F31900000000000000000083
:102AF00000000000009500000000546967687465DC
:102B00006E2065616368206F66207468652000959B
:102B1000010000007468726565206B6E6F6273203F
:102B2000756E6465722020200095010000007468B5
:102B300065206275696C6420706C6174666F726D7B
:102B4000202000950700000061626F757420666F99
:102B50007572207475726E732E0095000000004926
:102B6000276D20676F696E6720746F206D6F7665C3
:102B7000206D7900950100000065787472756465B8
:102B8000722061726F756E6420746F202000950151
:102B9000000000646966666572656E7420706F6916
:102BA0006E747320736F20009507000000796F75B5
:102BB0002063616E20636865636B2E2E2E00950086
:102BC000000000746865206865696768742E20419C
:102BD00074206561636820009501000000706F69D2
:102BE0006E742C206C6F6F73656E20746865202086
:102BF0002000950100000073706563696669656473
:102C0000206B6E6F6220756E74696C009507000012
:102C100000746865206E6F7A7A6C6520616C6D6FE8
:102C200073742E2E2E009500000000746F7563687B
:102C3000657320746865206275696C6420202000CB
:102C40009501000000706C6174652E205468652049
:102C50006E6F7A7A6C6520697300950100000061DF
:102C60007420746865207269676874206865696794
:102C70006874200095070000007768656E20612069
:102C80007468696E2070696563652E2E2E0095004C
:102C90000000006F662070617065722077696C6C4F
:102CA00020736C6964652000950100000062657402
:102CB0007765656E20746865206E6F7A7A6C652022
:102CC00020009501000000616E64206275696C64EB
:102CD00020706C6174652077697468009507000046
:102CE0000020736F6D65206672696374696F6E2E64
:102CF000009502000000506C656173652077616982
:102D000074008E97340000F3190000D00700000013
:102D1000000000000000009AE90300188E00000087
:102D20000038180000D0070000000000000000007C
:102D3000006C692E00188E0000000038180000009A
:102D40000000000000000000000000E093040018F4
:102D5000950000000041646A7573742074686520F2
:102D600072656172206B6E6F6200950100000075E4
:102D70006E74696C207061706572206A757374205E
:102D8000202020009501000000736C6964657320A9
:102D90006265747765656E2074686520200095070C
:102DA0000000006E6F7A7A6C6520616E6420706C32
:102DB000617465009502000000506C6561736520C8
:102DC00077616974008E0000000038180000D00799
:102DD00000000000000000000000E0930400188ED6
:102DE0009C100000C8E7FFFFD007000000000000B3
:102DF00000000000802A2D00188E9B100000C8E7FC
:102E0000FFFF000000000000000000000000E09351
:102E1000040018950000000041646A757374206610
:102E2000726F6E74207269676874202000950100CB
:102E300000006B6E6F6220756E74696C207061703B
:102E40006572202020200095010000006A757374CF
:102E500020736C69646573206265747765656E20A4
:102E60000095070000006E6F7A7A6C6520616E64D1
:102E700020706C617465009502000000506C656103
:102E800073652077616974008E9C100000C8E7FFAD
:102E9000FFD00700000000000000000000E09304E5
:102EA00000188E64EFFFFFC8E7FFFFD007000000A7
:102EB00000000000000000004C1D00188E65EFFFB0
:102EC000FFC8E7FFFF000000000000000000000056
:102ED00000E093040018950000000041646A7573D7
:102EE000742066726F6E74206C65667420202000FA
:102EF00095010000006B6E6F6220756E74696C2026
:102F00007061706572202020200095010000006A29
:102F100075737420736C696465732062657477657A
:102F2000656E200095070000006E6F7A7A6C652050
:102F3000616E6420706C6174650095020000005041
:102F40006C656173652077616974008E64EFFFFFC3
:102F5000C8E7FFFFD00700000000000000000000ED
:102F6000E09304001895000000004E6F7720492779
:102F70006D20676F696E6720746F20202020009598
:102F80000100000073656E64206D792065787472AD
:102F90007564657220746F20009501000000616CFB
:102FA0006C20746872656520706F696E7473202080
:102FB0002020009507000000616761696E20746F32
:102FC000207265636865636B2E00950200000050F7
:102FD0006C656173652077616974008E0000000084
:102FE00038180000D00700000000000000000000BA
:102FF00080191B00188E0000000038180000000027
:1030000000000000000000000000E093040018959C
:103010000000000041646A75737420746865207252
:1030200065617220202020200095010000006B6E59
:103030006F6220756E74696C2070617065722020FB
:1030400020200095010000006A75737420736C697C
:10305000646573206265747765656E20009507006E
:1030600000006E6F7A7A6C6520616E6420706C610E
:103070007465009502000000506C656173652077EF
:10308000616974008E0000000038180000D007004D
:10309000000000000000000000E0930400188E40D3
:1030A0002B0000C8E7FFFFD0070000000000000071
:1030B000000000A65D2200188E3F2B0000C8E7FF2D
:1030C000FF000000000000000000000000E093048A
:1030D0000018950000000041646A757374206672E0
:1030E0006F6E74207269676874202000950100007B
:1030F000006B6E6F6220756E74696C207061706514
:1031000072202020200095010000006A7573742051
:10311000736C69646573206265747765656E200001
:1031200095070000006E6F7A7A6C6520616E6420EE
:10313000706C617465009502000000506C656173ED
:10314000652077616974008E402B0000C8E7FFFF9F
:10315000D00700000000000000000000E093040021
:10316000188EC0D4FFFFC7E7FFFFD00700000000A4
:10317000000000000000C0C62D00188EC1D4FFFF63
:10318000C8E7FFFF00000000000000000000000092
:10319000E093040018950000000041646A757374A0
:1031A0002066726F6E74206C656674202020009516
:1031B000010000006B6E6F6220756E74696C207088
:1031C00061706572202020200095010000006A7562
:1031D000737420736C6964657320626574776565C8
:1031E0006E200095070000006E6F7A7A6C65206192
:1031F0006E6420706C617465009502000000506C74
:10320000656173652077616974008EC0D4FFFFC863
:10321000E7FFFFD00700000000000000000000E012
:10322000930400188E0000000000000000D007008A
:10323000000000000000000000913B1A00188E0002
:10324000000000000000000000000000000000007E
:10325000000000E09304001895000000004E6F7716
:10326000206C6574277320747269706C652020204F
:1032700020009501000000636865636B2D2D2070B0
:10328000617065722073686F756C64009501000051
:10329000006A75737420736C696465206265747765
:1032A00065656E20200095070000006E6F7A7A6CCD
:1032B0006520616E6420706C61746500891F9502E1
:1032C000000000506C6561736520776169742E2E73
:1032D0002E008403690100001400830488000000AC
:1032E00014008C000000000000000030F8FFFF0018
:1032F000000000000000008E000000000000000040
:103300000000000000000000000000005729040039
:10331000188304DC0500001400901F891F5F00362D
:10332000083608FF1046696C616D656E7420466151
:103330006E20202020202020004D792074656D70A3
:1033400065726174757265207761732020636861AE
:103350006E6765642065787465726E616C6C792E39
:1033600020526573656C6563742066696C616D6578
:103370006E742020206D656E7520746F20747279D4
:1033800020616761696E2E20200020534420636114
:1033900072642072656164206572726F72004927E1
:1033A0006D20616C7265616479206275696C646915
:1033B0006E67005761726E696E673A4275696C6438
:1033C00020737065656473666173746572207468D8
:1033D000616E2035306D6D2F7320207265717569B7
:1033E00072652078336720666F726D617420206685
:1033F0006F72206265737420726573756C74732EBE
:1034000020202000526573756D65204275696C64DB
:103410002020202020202000536C65657020284348
:103420006F6C642050617573652920004368616E7C
:1034300067652046696C616D656E742020202000F0
:1034400043616E63656C204275696C6420202020A6
:10345000202020002020205A2050617573652048CC
:103460006569676874202020005A20506175736573
:103470002048656967687420202020200042756913
:103480006C642053746174697374696373202020C1
:10349000004261636B20746F204D6F6E69746F72B0
:1034A0002020202000202020202020006820206DC7
:1034B000004275696C642046696E697368656421B1
:1034C00020202020202020202020202020202020FC
:1034D0002020202020202020204275696C64205468
:1034E000696D652020202020206820206D004C6917
:1034F0006E653A202020202020202020202020201F
:103500002020004275696C642054696D653A202062
:103510002020206820206D004C6173742042756962
:103520006C643A20202020206820206D00457374B0
:10353000696D61746564204275696C642054696DBD
:10354000654C69666574696D6520546F74616C3A89
:1035500020202020680057616974696E6720666FBB
:103560007220486F6D696E67200077616974696EBB
:1035700067200020204E4120202020006572726FBD
:103580007221004455414C20200053494E474C4580
:10359000004F464620202000435553544F4D0057BE
:1035A000484954452000505552504C4500424C5516
:1035B00045202000475245454E200050494E4B20A3
:1035C00020004F52414E47450052454420202000E4
:1035D00048656174656420506C61746500496E666D
:1035E0006F20616E642053657474696E6773202068
:1035F00000426F742053746174697374696373203B
:103600002020202000416363656C65726174652031
:1036100020202020202020200065786974206D65FE
:103620006E75202020202020202020200048656C5E
:103630007020546578742020202020202020202015
:10364000004865617420486F6C6420202020202091
:103650006D2020200048656174204C454473202073
:103660002020202020202020004C454420436F6C47
:103670006F7220202020202020202020005A20505F
:103680006F736974696F6E2020202020206D6D207B
:103690000050617573652041637469766520202050
:1036A0002020202000536F756E64202020202020D1
:1036B000202020202020202000546F6F6C20436F9A
:1036C000756E742020202020202020200043616C73
:1036D000696272617465204E6F7A7A6C657320201E
:1036E00000526573746F72652044656661756C7411
:1036F000732020200047656E6572616C20536574ED
:1037000074696E677320202000507265686561746B
:103710002053657474696E67732020200053746FA2
:103720007020426C696E6B696E672120202020201A
:1037300000426C696E6B204C454473202020202091
:1037400020202020004C6576656C204275696C64F1
:1037500020506C617465202000456E61626C6520AC
:103760005374657070657273202020200044697363
:1037700061626C65205374657070657273202020DF
:103780000056657273696F6E204E756D62657220AA
:10379000202020200052756E205374617274757061
:1037A0002053637269707420004368616E676520FE
:1037B00046696C616D656E742020202000486F6D35
:1037C00065204178657320202020202020202020A3
:1037D000004A6F67204D6F64652020202020202044
:1037E00020202020004D6F6E69746F72204D6F6431
:1037F0006520202020202020005574696C697469A0
:103800006573202020202020202020200050726579
:103810006865617420202020202020202020202086
:10382000004275696C642066726F6D2053442020DD
:103830002020202000492063616E2774207265617A
:103840006420534420202020206361726473207719
:103850006974682073746F7261676520206C61728F
:10386000676572207468616E203247422E202020E6
:103870002020202020202020202020202020202048
:10388000202020202000492063616E27742072656B
:10389000616420746869732020205344206361723E
:1038A0006420666F726D6174212020202020547284
:1038B00079207265666F726D617474696E6720201D
:1038C0002020746865206361726420746F20464113
:1038D0005431362E202000534420636172642072DC
:1038E000656164206572726F72004E6F20534420D0
:1038F0006361726420666F756E6400556E50617509
:10390000736520202020202020202020202000500F
:103910006175736520202020202020202020202079
:103920002020005175697420746869732070726F6B
:10393000636573733F0043616E63656C20746869EF
:1039400073206275696C643F002044656661756C24
:10395000742076616C7565733F00205265736574E1
:103960002053657474696E677320746F2020005053
:103970006C6174666F726D20202020202020200052
:103980004C65667420546F6F6C202020202020200E
:103990002020202000526967687420546F6F6C20CB
:1039A00020202020202020202000205072656865E3
:1039B00061742053657474696E677320202000451C
:1039C000787472756465723A2020202D2D2D2F2D6C
:1039D0002D2D4300506C6174666F726D3A2020206B
:1039E0002D2D2D2F2D2D2D43004C204578747275D3
:1039F0006465723A202D2D2D2F2D2D2D4300522040
:103A000045787472756465723A202D2D2D2F2D2DF9
:103A10002D4300202D2D250048656174696E673A9D
:103A20002020202020202020202020200048656108
:103A300074696E673A0047414D45204F5645522103
:103A40000020202020202020205A2B202020202051
:103A500020202020200020203C2D59202842616376
:103A60006B29202020202020202000202020202022
:103A70002020205A2D20202020202020202020001F
:103A80002020202020202020592D202020202020F0
:103A9000202020200020203C2D5820284261636BEC
:103AA0002920205A2D3E20202000202020202020C8
:103AB0002020592B202020202020202020200020E2
:103AC00020202020202020582D20202020202020B1
:103AD00020202000202020202020284261636B2904
:103AE000202020592D3E2020002020202020202092
:103AF00020582B20202020202020202020002020A3
:103B00002020204A6F67206D6F64652020202020D0
:103B1000202000556E6C6F6164206C6566740055E2
:103B20006E6C6F616420726967687400556E6C6FAB
:103B30006164004C6F6164004C6F6164206C656669
:103B400074004C6F61642072696768740066726FFC
:103B50006D20746865206E6F7A7A6C653F20202036
:103B6000200044696420706C617374696320657817
:103B7000747275646520004C6574277320747279C3
:103B800020616761696E2E004D79206865696768FC
:103B90007420697320676F6F642120200068656955
:103BA00067687420636865636B206F75743F2000DD
:103BB000446F6573206D79206E6F7A7A6C65200092
:103BC000746F206D616B6520736F6D657468696ECD
:103BD000673F202000486F77276420697420676F53
:103BE0003F2052656164792020004D79206D6F740B
:103BF0006F722074696D6564206F75742020616632
:103C00007465722035206D696E757465732E202081
:103C100020205072657373204D20746F2065786981
:103C2000742E202020202020202020202020202032
:103C30002020202020202020202000477265617451
:103C400021202049276C6C2073746F702020207213
:103C5000756E6E696E67206D792065787472756413
:103C600065722E5072657373204D20746F20636FE0
:103C70006E74696E75652E20202020202020202063
:103C80002020202020202020202020005765276C85
:103C90006C206B65657020676F696E672E20202031
:103CA000496620796F7527726520686176696E674D
:103CB0002020202074726F75626C652C206368650B
:103CC000636B206F757420206D616B6572626F7419
:103CD0002E636F6D2F68656C70202020004F4B2184
:103CE0002049276C6C206B656570206D7920202041
:103CF000206D6F746F722072756E6E696E672E2004
:103D0000596F7520206D6179206E65656420746F30
:103D10002070757368202020206861726465722E9F
:103D20002E2E202020202020202020202000666908
:103D30006C616D656E74206672656520616E6420CD
:103D40002020636C6F736520746865206C657665F0
:103D5000722E20202020507265737320274D27205B
:103D6000746F20657869742E202020202020202068
:103D7000202020202020202020202020202000572C
:103D800068656E206D792066696C616D656E742062
:103D900069732072656C65617365642C2020202036
:103DA00020202020202020507265737320274D276B
:103DB00020746F20657869742E2020202020202018
:103DC0002020202020202020202020202020200013
:103DD0005768656E2066696C616D656E74206973E5
:103DE000202020206265696E672065787472756492
:103DF00065642066726F6D20746865206E6F7A7AD4
:103E00006C652C20202020202020202050726573FB
:103E10007320274D2720746F20657869742E202029
:103E2000005768656E2066696C616D656E74206907
:103E300073202020206265696E6720657874727532
:103E40006465642066726F6D20746865206E6F7A99
:103E50007A6C652C205072657373204D20746F202E
:103E600073746F7020657874727564696E672E2044
:103E70002000756E74696C20796F75206665656CBD
:103E80002074686520206D6F746F722074756720D0
:103E9000697420696E2E202020205075736820667A
:103EA0006F72206120666577206D6F726520736583
:103EB000636F6E64732C207468656E20776169741B
:103EC0002E200049276D20726561647921204465A8
:103ED0007461636820202074686520677569646573
:103EE000207475626520616E6420206D6F76652098
:103EF000746865206C6576657220746F202020746C
:103F00006865206C6566742E202050756C6C2E2EB2
:103F10002E20200049276D2072656164792120449C
:103F20006574616368202020746865206775696422
:103F300065207475626520616E6420206D6F766502
:103F400020746865206C6576657220746F2020206F
:103F50007468652072696768742E202050756C6CD7
:103F60002E2E2E200049276D207265616479212054
:103F700050756C6C20746865206775696465207481
:103F8000756265206F666620616E64202070756CB6
:103F90006C207468652066696C616D656E742020A4
:103FA0002067656E746C792E2E2E20202020202014
:103FB00020202020200049276D207265616479212E
:103FC0002050756C6C207468652067756964652085
:103FD00074756265206F666620616E64202070755E
:103FE0007368207468652066696C616D656E742005
:103FF00020207468726F7567682E2E2E2020202076
:10400000202020202020004F4B2049276D20726562
:1040100061647921202020202020204E6F77207796
:1040200065276C6C206C6F61642074686520207259
:10403000696768742065787472756465722E2020D3
:10404000202020507573682066696C616D656E7400
:1040500020696E2E2E2E20004F4B2049276D207296
:10406000656164792120202020202020507573680C
:10407000207468652066696C616D656E742020200F
:104080007468726F7567682E2E2E202020202020E5
:104090002020202020202020202020202020202020
:1040A00020202020202020200048656174696E6750
:1040B0002050726F67726573733A20202020202091
:1040C00020202020202020202020202020202020F0
:1040D00020202020202020202020202020202020E0
:1040E00020202020202020202020202020202020D0
:1040F00020202020202020202000506C6561736546
:104100002077616974207768696C6520492068654B
:104110006174206D792065787472756465722120F0
:10412000202020202020202020202020202020208F
:10413000202020202020202020202020202020207F
:104140002020202020202020202000706F7073204D
:104150006F757420696E2066726F6E742E20205702
:1041600068656E207468652066696C616D656E7443
:1041700020697372656164792C2070726573732095
:10418000274D2720746F20636F6E74696E75652EDE
:1041900020202020202020202020200065787472FC
:1041A0007564657220626C6F636B2E204665656472
:1041B00066696C616D656E742066726F6D207468DF
:1041C0006520202073706F6F6C207468726F756744
:1041D00068207468652020207475626520756E748F
:1041E000696C2069742E2E2E20202020006E6F7A9C
:1041F0007A6C652077696C6C2067657420686F74D1
:10420000215768696C652049276D2068656174696C
:104210006E672C202072656D6F766520746865204E
:1042200066696C616D656E74207475626520667276
:104230006F6D207468652E2E2E20202020004927C7
:104240006D2068656174696E67207570206D7920D6
:104250002020657874727564657220736F207765AD
:104260002063616E20206C6F616420746865206635
:10427000696C616D656E742E2020426520636172E9
:104280006566756C2C207468652E2E2E2020006EBD
:104290006F7A7A6C652077696C6C2067657420682A
:1042A0006F74215768696C652049276D20686561C6
:1042B00074696E672C202072656D6F766520746856
:1042C000652066696C616D656E7420747562652029
:1042D00066726F6D207468652E2E2E2020202000BF
:1042E00049276D2068656174696E67207570206D5F
:1042F000792020207269676874206578747275640B
:10430000657220736F20776563616E206C6F6164E6
:104310002066696C616D656E742E20204265206395
:1043200061726566756C2C207468652E2E2E2020B7
:10433000004D7920657874727564657273206172BE
:1043400065202020206E6F742068656174696E6737
:104350002075702E2020202020436865636B206D1F
:1043600079202020202020202020202020636F6E14
:104370006E656374696F6E732120202020202020D9
:104380002000592041786973204C696E65005820DF
:1043900041786973204C696E65005965732020204F
:1043A000004E6F2020202000446F6E652100536571
:1043B0006C6563742062657374206C696E65732E1E
:1043C000004772656174212020492776652073615A
:1043D00076656420207468657365207365747469FC
:1043E0006E677320616E64202049276C6C207573A2
:1043F00065207468656D20746F202020206D616BCE
:1044000065206E696365206D6F64656C7321202083
:1044100020006C696E65206F6E6520697320657879
:104420007472612020206C6F6E672E2054686520A6
:10443000592061786973207365746973206C6566AF
:1044400074206F6E2074686520706C617465616E95
:1044500064205820617869732069732072696768E5
:10446000742E004C6F6F6B20666F7220746865202D
:10447000626573742020206D617463686564206CCC
:10448000696E6520696E2065616368617869732073
:104490007365742E204C696E657320617265206EA1
:1044A000756D626572656420312D313320616E64F3
:1044B0002E2E2E0049276D20676F696E6720746F5E
:1044C000206D616B652020206120736572696573C2
:1044D000206F66206C696E657320736F776520634B
:1044E000616E2066696E64206D7920202020202076
:1044F0006E6F7A7A6C6520616C69676E6D656E743B
:104500002E202020005765276C6C20676F20746F69
:1045100020746865206D61696E6D656E752E204929
:104520006620796F75206E65656420202068656C53
:104530007020676F20746F3A2020202020202020D8
:10454000206D616B6572626F742E636F6D2F68658D
:104550006C7020202000417765736F6D65212020ED
:10456000202020202020202020205765276C6C2030
:10457000676F20746F207468652053442020636146
:104580007264206D656E7520616E6420796F752090
:10459000202063616E2073656C6563742061206DFB
:1045A0006F64656C2120005765276C6C206B656516
:1045B0007020676F696E6720202020616E64206C18
:1045C0006F616420736F6D6520202020202020669D
:1045D000696C616D656E742C466F722068656C70D5
:1045E00020676F746F206D616B6572626F742E63EC
:1045F0006F6D2F68656C70005765276C6C20747246
:104600007920616761696E212020202020202020F0
:10461000202020202020202020202020202020209A
:10462000202020202020202020202020202020208A
:10463000202020202020202020202020202020207A
:10464000202020202020202000416161682C20743F
:10465000686174206665656C73202020206D756329
:1046600068206265747465722E202020202020202E
:10467000204C6574277320676F206F6E20616E6415
:10468000206C6F6164736F6D652066696C616D6528
:104690006E742120202020202000736F2069742751
:1046A00073206E69636520616E64202020206C6534
:1046B00076656C2E20497427732070726F62616278
:1046C0006C796120626974206F66662066726F6D16
:1046D0002020202020207368697070696E672E2E5C
:1046E0002E202020202020202020004F7572206EB8
:1046F0006578742073746570732077696C6C2067BB
:104700006574206D652073657420757021202020EC
:1047100020202046697273742C207765276C6C20EA
:10472000726573746F72656D79206275696C64204F
:10473000706C6174666F726D2E2E2E004120736F47
:104740006C696420274D27206D65616E73202020E1
:1047500049276D20776F726B696E6720616E6420E8
:1047600077696C6C757064617465206D7920737401
:1047700061747573202020207768656E2049276D4D
:104780002066696E69736865642E2E2E0041206272
:104790006C696E6B696E6720274D27206D65616EB1
:1047A0007349276D2077616974696E6720616E6453
:1047B0002077696C6C636F6E74696E7565207768BD
:1047C000656E20796F752020207072657373207478
:1047D000686520627574746F6E2E2E2E20005765EA
:1047E0006C636F6D65212049276D202020202020DB
:1047F0002020546865205265706C696361746F7223
:104800002032582E20205072657373207468652002
:10481000726564204D20746F202067657420737466
:104820006172746564212020202020202020004512
:104830007874727564657200506C6174666F726D25
:10484000004C65667420546F6F6C00526967687421
:1048500020546F6F6C00436F6F6C21005374617252
:1048600074205072656865617421004669726D77C5
:104870006172652056657273696F6E20372E200055
:104880002020202020202020202020202020202028
:10489000202020200020202D2D2D2D2D2D2D2D2DC3
:1048A0002D2D2D2D2D2020202000205468652052F4
:1048B00065706C696361746F72203258202000202B
:1048C00020202020202020202020202020202020E8
:1048D00020202000202020002D2D3E0043202020DD
:1048E00020002F20202043004E4120004F4646004C
:1048F0004F4E200020F9C9FFE0FCE7FFF8FF000061
:1049000000000000080000002003190040063200EB
:1049100060094B00000A5000800C64000010800009
:10492000D0FEC0FF18FFD0FF63FFE0FFB1FFF0FF34
:104930000000000051001000A4002000F80030002A
:1049400040014000A2015000F70160004B027000DE
:104950009F028000F20290004503A0009703B00080
:10496000E803C0003A04D0008C04E000DF04F0004B
:104970003205000186051001DB0520012F063001FC
:10498000DA0650013007600186077001DC078001FC
:104990006808900101009403360009016B00D800FB
:1049A000A000BD00D500AB000A019D003F018400BE
:1049B00074017C00A9017400DE016D001302660021
:1049C000480260007D025900B2025200E7024B002B
:1049D0001C03440051033A0086033000BB0322004D
:1049E000F0030200303457344838B141344215489E
:1049F000674ED2513053EC658D7691799984CA8592
:104A0000E986CA878C89BB89818B2797D397949B2A
:104A1000239C0C9DC39DEA9EF2A33EA422A8D6AB84
:104A200046CCD9CD58CFA1D056D132D211241FBEF9
:104A3000CFEFD1E2DEBFCDBF15E0A0E0B2E0E8ED00
:104A4000F2EB01E00BBF02C007900D92AE3BB10745
:104A5000D9F72DE1AEEBB5E001C01D92A137B20749
:104A6000E1F719E4CCE2DAE400E006C0229701099C
:104A7000FE010BBF0E942BD8C43ED10780E008077F
:104A8000A9F70E9401420C946AD90C9400006BBFF4
:104A9000FA01DC0102C007900D9221503040D8F796
:104AA0000895F89420910206309103068091000643
:104AB00090910106821B930B789408958093F905D9
:104AC000089581E08093F70508958091F905089590
:104AD0008091F8050895209102063091030681E047
:104AE000232B09F080E0089510920306109202062D
:104AF00010920506109204061092080610920906FC
:104B00001092FB051092FC051092FD051092FE0517
:104B10001092FA051092F9051092F8051092F2051C
:104B20001092F3051092F4051092F5051092DD0530
:104B30001092F1051092F0051092EF05089581E0B2
:104B40002091EF053091F0052630310509F080E025
:104B500008956091FB057091FC058091FD05909191
:104B6000FE0508951092FB051092FC051092FD05BC
:104B70001092FE0508954F925F926F927F928F92EE
:104B80009F92AF92BF92CF92DF92EF92FF920F93DC
:104B90001F93CF93DF93CDB7DEB7CC55D1090FB6B6
:104BA000F894DEBF0FBECDBFCE01CD960E94C37B71
:104BB00084E1FE01FD96A1ECB5E001900D928A958D
:104BC000E1F745E06DE97AE1CE0101960E94F6CE6B
:104BD000CE0101960E9438CF8093C00564E070E05A
:104BE00081EC95E00E94C64EDC016D917D918D9126
:104BF0009C910E94BDD42B013C0184E00E94197954
:104C00009B01AC0163E070E081EC95E06A962FAF08
:104C10006A976B963FAF6B976C964FAF6C976D969C
:104C20005FAF6D970E94C64EFC0180809180A2808C
:104C3000B38083E00E94197965966CAF7DAF8EAF2B
:104C40009FAF659762E070E081EC95E00E94C64EF0
:104C5000DC01CD90DD90ED90FC9061E070E081ECA6
:104C600095E00E94C64EDC018D919D910D90BC9106
:104C7000A02D69968CAF9DAFAEAFBFAF699760E0D6
:104C800070E081EC95E00E94C64E8C0165966CAD9B
:104C90007DAD8EAD9FAD65970E948FD4860E971E19
:104CA000A81EB91ED8018D919D910D90BC91A02D8B
:104CB00065968CAF9DAFAEAFBFAF65976A962FADCF
:104CC0006A976B963FAD6B976C964FAD6C976D96F0
:104CD0005FAD6D97C301B2010E946DD30E948AD46B
:104CE0009F938F937F936F9369960CAD1DAD2EADFF
:104CF0003FAD699765964CAD5DAD6EAD7FAD659787
:104D0000CE0189960E948B4E48E052E060E070E050
:104D1000CE0189960E94547C8DE499E00E94E2A124
:104D20009093D8058093D7058CEE99E00E94E2A17C
:104D30009093DA058093D9058CE29CE00E94E2A171
:104D40009093D6058093D5050F900F900F900F90FC
:104D50008091F605882391F060E070E08DE499E0A1
:104D60000E9410A160E070E08CEE99E00E9410A11A
:104D700060E070E08CE29CE00E9410A184E1FE0102
:104D8000B996DE01559601900D928A95E1F762E0A1
:104D900070E0CE0145960E94C64E8C0182E00E94D2
:104DA00019790E948AD49B01AC01A6E9B0E00E9467
:104DB000C5D6F801608371838283938384E1FE0109
:104DC0007596DE01119601900D928A95E1F760E0EB
:104DD00070E0CE0101960E94C64E8C0180E00E94D8
:104DE000197920E030E04DED52EC0E94C1D50E94CF
:104DF0008AD4D8016D937D938D939C93139761E032
:104E000070E0CE0101960E94C64E8C0181E00E94A6
:104E1000197920E030E044E952EC0E94C1D50E94AB
:104E20008AD4F80160837183828393834CE850E0D5
:104E300060E070E0CE0145960E94547C42E850E06C
:104E400060E070E0CE0101960E94547C60E087ED46
:104E500098E00E94BB46C45ADF4F0FB6F894DEBFFD
:104E60000FBECDBFDF91CF911F910F91FF90EF90BB
:104E7000DF90CF90BF90AF909F908F907F906F907A
:104E80005F904F9008950F931F93CF93DF93CDB70B
:104E9000DEB764970FB6F894DEBF0FBECDBFCE016C
:104EA00001960E94C37B63E070E0CE0101960E94F0
:104EB000C64E8C0163E070E081EC95E00E94C64E26
:104EC000FC014081518162817381F80140835183EB
:104ED0006283738364E070E0CE0101960E94C64E47
:104EE0008C0164E070E081EC95E00E94C64EFC010C
:104EF0004081518162817381F801408351836283D3
:104F00007383CE0101960E944E7A62E070E0CE017A
:104F100001960E94C64E8C0162E070E081EC95E043
:104F20000E94C64EFC014081518162817381F8016B
:104F300040835183628373834CE850E060E070E00B
:104F4000CE0101960E94547C42E850E060E070E09F
:104F500081EC95E00E94547C6091C00587ED98E05B
:104F60000E94BB4664960FB6F894DEBF0FBECDBF5D
:104F7000DF91CF911F910F9108956091D7057091A6
:104F8000D8058DE499E00E9410A16091D905709137
:104F9000DA058CEE99E00E9410A16091D505709120
:104FA000D6058CE29CE00E9410A18CE29CE00E945D
:104FB000F5A1882319F18CE29CE00E940FA28111D7
:104FC0001DC08DE499E00E940FA2811108C061E02C
:104FD0008DE499E00E9440A281E08093FA058CEE76
:104FE00099E00E940FA2811109C061E08CEE99E066
:104FF0000E9440A281E08093FA0508950895CF931E
:10500000DF93EB0170930502609304029091F80521
:10501000981709F44BC0882329F1209781F481E087
:105020008093F60562E774E081EE9AE00E945AA54B
:1050300081E090E09093DC058093DB050FC0613048
:10504000710561F41092F6056DE375E081EE9AE06A
:105050000E945AA5D093DC05C093DB0581E08093C4
:10506000F80524C08091DB059091DC058130910525
:1050700029F41092DC051092DB0516C082309105F0
:1050800029F40E94BD2784E090E006C0039749F40C
:105090000E94BD2785E090E09093DC058093DB05BE
:1050A00005C06230710511F41092F805DF91CF91BF
:1050B0000895CF93FC01C62F828193816081718115
:1050C0008617970798F44281538184819581840FD4
:1050D000951F0E9440D6A681B781A80FB91FCC9317
:1050E0008281938101969383828302C081E08087CD
:1050F000CF910895682F80E096E00C945928CF93C3
:10510000DF93FC0182819381892B21F481E08187E7
:1051100080E019C08481958120813181B9010E948C
:1051200040D6C681D781C80FD91F84819581019649
:10513000B9010E9440D6958384838281938101972F
:10514000938382838881DF91CF91089580E096E0F8
:105150000C947F28CF9380E096E00E947F28C82F90
:1051600080E096E00E947F28982F8C2FCF910895A1
:105170001F93CF93DF9300D0CDB7DEB780E096E0EA
:105180000E947F28682F80E096E06A830E947F2833
:10519000782F80E096E079830E947F28182F80E0A6
:1051A00096E00E947F28982F6A817981812F0F9045
:1051B0000F90DF91CF911F910895CF93DF930E94BD
:1051C000A628C82F0E94A628D82F0E94A6284D2FB7
:1051D00050E0FA013397ED31F10508F0B1C0EE5817
:1051E000FF4F0C94A9D68091BF058823A1F08DE4D0
:1051F00099E00E941FA08CEE99E00E941FA0809170
:10520000BE05811104C08CE29CE00E941FA0109298
:10521000BE051092BF050E94AA28BC01C13019F436
:1052200084EE99E002C085E499E008960E9410A1FE
:105230008CE29CE00E94F5A1882309F48CC08CE2EA
:105240009CE00E940FA2811186C0C13019F484EE47
:1052500099E002C085E499E008960E940FA28111AE
:105260007AC070C09091F90581E089270E94403C86
:105270000DC00E94A628682F6170C13019F484EE19
:1052800099E002C085E499E00E945A87C1E090C08D
:105290000E94A628682F617087ED98E00E94BB46A7
:1052A000F5CF61E087ED98E00E94B6468091BF059A
:1052B000882319F081E08093BE050E94AA28BC01D2
:1052C0008CE29CE00E9410A18CE29CE00E940FA264
:1052D000C1E0C827C093FA056C2F8DE499E00E94C5
:1052E00040A26C2F8CEE99E00E9440A240E061E069
:1052F00070E087ED98E00E9479440E94EC36C82F58
:10530000811156C00E94CA3B059741F021E040E060
:1053100063EB72E087ED98E00E94574460E070E034
:105320008CE29CE00E9410A160E087ED98E00E9472
:10533000B646ACCF0E94B828A9CF0E94A628A6CF17
:10534000C0E036C081E08093FA05C13059F584EEA3
:1053500099E061E005C0C13041F584EE99E060E07C
:1053600008960E9440A240E061E070E087ED98E07E
:105370000E947944C13009F089CF0E94FF35C82FBF
:10538000882309F483CF21E040E062E672E087EDF4
:1053900098E00E94574460E070E08CEE99E00E9433
:1053A00010A106C085E499E0D4CF85E499E0D7CF79
:1053B0008C2FDF91CF9108952F923F924F925F9261
:1053C0006F927F928F929F92AF92BF92CF92DF9215
:1053D000EF92FF920F931F93CF93DF93CDB7DEB77A
:1053E000A8970FB6F894DEBF0FBECDBF0E94455000
:1053F000882309F487C080910206909103062091CA
:105400000006309101062817390721F00E94B35099
:105410008111D9C50E94B3508111F0C5C090F20529
:10542000D090F305E090F405F090F5050E94F34F5D
:10543000C616D706E806F90608F0E0C58091DD0536
:105440008111DCC58091F1058F5F8093F105863075
:1054500008F458C081EE9AE00E948EA421E040E05A
:105460006AE775E087ED98E00E94574481E08093F9
:10547000DD050E94548410920306109202061092D9
:10548000050610920406109208061092090660E0C4
:1054900070E08DE499E00E9410A160E070E08CEE75
:1054A00099E00E9410A160E070E08CE29CE00E9414
:1054B00010A1CE0101960E942F7B62E070E0CE0128
:1054C00001960E94C64E8C0182E00E94197920E06C
:1054D00030E046E153E40E94C1D50E948AD4F8012D
:1054E00060837183828393831092F90546E950E0CB
:1054F00060E070E0CE0101960E94547C0E94C5508D
:105500001092F1050E944A858823D1F0809102060D
:105510009091030620910006309101062817390763
:1055200021F00E945385811188C50E945385811105
:1055300007C08091020690910306892B09F473C578
:105540008091FA05882391F08CE29CE00E94C0A132
:10555000882361F060E08DE499E00E9440A260E061
:105560008CEE99E00E9440A21092FA058091F90514
:1055700081110C9417348091F70581110C94173424
:105580008091EF059091F005039781F40E94AA792C
:10559000882341F080EE95E00E94D0D0882331F03E
:1055A0000E9454841092F0051092EF058091EF054F
:1055B0009091F005019741F40E94AA79811104C0ED
:1055C0001092F0051092EF058091EF059091F00593
:1055D000029751F480EE95E00E94D0D0882321F00C
:1055E0001092F0051092EF058091EF059091F00573
:1055F0000497C1F580EE95E00E94D0D0882349F051
:1056000021E040E064E073E087ED98E00E945744B9
:1056100032C58091FF05813019F484EE99E002C013
:1056200085E499E008960E94C0A12091FF05882397
:1056300071F0213019F484EE99E002C085E499E01C
:10564000FC01E258FF4F8081882309F411C5213005
:1056500009F40BC585E499E008960E94F5A188231A
:1056600009F4F3C48091EF059091F0050597F9F4E2
:1056700080EE95E00E94D0D0882349F021E040E000
:1056800061E473E087ED98E00E9457440CC08CE21F
:105690009CE00E94F5A1882331F08CE29CE00E94FE
:1056A000C0A1882321F01092F0051092EF0580919F
:1056B000EF059091F005069709F03FC080EE95E068
:1056C0000E94D0D08823B1F08091DE0581FF06C012
:1056D00060E087ED98E00E9434472FC01092F005FB
:1056E0001092EF0540E060E170E087ED98E00E94E5
:1056F000794423C081EE9AE00E941AA88823E9F039
:105700008091DE0582FF04C081EE9AE00E94E9A547
:1057100040E050E060E070E087ED98E00E945D4579
:1057200040E060E170E087ED98E00E9479440E94DB
:1057300031881092F0051092EF058091EF0590915D
:10574000F005892B09F024C48091F805882361F0C5
:105750008091DB059091DC05019709F091C40E94CE
:10576000BB64811198C48CC4809102069091030699
:10577000892B09F40DC487ED98E00E94DF448091E5
:1057800004069091050660910006709101060E9442
:1057900040D6E0910606F0910706E80FF91F108148
:1057A0001B3809F46BC01E3809F420C61B3909F4F4
:1057B000ADC5193809F47AC6163909F4CAC01638C5
:1057C00011F40C94F3331C3809F045C080910206A3
:1057D00090910306459708F4DBC30E94A6280E9417
:1057E000B8282B013C010E94B828698F7A8F8B8FD3
:1057F0009C8F0E94B8286B017C010E94B8284B0145
:105800005C010E94B8289B014091FB055091FC056A
:105810006091FD057091FE054F5F5F4F6F4F7F4FA9
:105820004093FB055093FC056093FD057093FE05C6
:105830009F938F933F932F93098D1A8D2B8D3C8DC2
:10584000B301A201CE0101960E948B4ECE010196BA
:105850000E944E7A6DC01C3909F47BC0103909F4DE
:1058600078C08DE7810F823008F473C0183809F4CE
:1058700070C00E94BB64811160C0D9C780910206CC
:1058800090910306499708F483C387ED98E00E943E
:10589000DF440E94A62881E090E09093F005809379
:1058A000EF050E94B828698F7A8F8B8F9C8F0E949A
:1058B000B8286D8F7E8F8F8F98A30E94B8286B01B8
:1058C0007C010E94B8284B015C010E94B828162F69
:1058D000072F382E292E0E94B8282B013C018091D9
:1058E000FB059091FC05A091FD05B091FE05019688
:1058F000A11DB11D8093FB059093FC05A093FD05B0
:10590000B093FE052F923F920F931F930D8D1E8D26
:105910002F8D38A1498D5A8D6B8D7C8DCE010196CE
:105920000E948B4EB301A201CE0101960E94547CCD
:105930000F900F900F900F902BC31D3909F4F5C5F0
:10594000153809F43FC6143909F465C6153909F448
:10595000A9C68DE7810F823008F043C0809102060E
:1059600090910306089708F413C30E94A6280E948A
:10597000A628082F0E94B8286B017C010E94AA2843
:10598000DC014091FB055091FC056091FD05709193
:10599000FE054F5F5F4F6F4F7F4F4093FB05509366
:1059A000FC056093FD057093FE0583E090E0909305
:1059B000F0058093EF0520E432E44FE050E00E94D0
:1059C000C5D6AB01BC0180EE95E00E94ACD081E071
:1059D000143809F080E0A7019601602F0E94F77F3C
:1059E000D7C2173851F480910206909103060697AA
:1059F00008F4CEC284E090E00BC01D38C9F5809158
:105A0000020690910306069708F4C2C285E090E072
:105A10009093F0058093EF050E94A6280E94A62887
:105A20008093FF050E94AA280E94AA284091FB05A6
:105A30005091FC056091FD057091FE054F5F5F4F31
:105A40006F4F7F4F4093FB055093FC056093FD051E
:105A50007093FE05DC0120E432E44FE050E00E9448
:105A6000C5D6AB01BC0180EE95E00E94ACD090C2DF
:105A70001F3809F06EC080910206909103060297CC
:105A800008F486C20E94A6280E94A6284091FB0521
:105A90005091FC056091FD057091FE054F5F5F4FD1
:105AA0006F4F7F4F4093FB055093FC056093FD05BE
:105AB0007093FE0594E2E92E92E0F92E00E010E0EA
:105AC000C82ED12C28EE822E23E0922EA12CB12CB0
:105AD000C601002E02C0959587950A94E2F780FFD3
